{
  "_format": "hh-sol-artifact-1",
  "contractName": "astarL2ZkEvmMpUsd",
  "sourceName": "contracts/crossChain/samples/astarL2ZkEvmMpUsd.sol",
  "abi": [
    {
      "inputs": [],
      "stateMutability": "nonpayable",
      "type": "constructor"
    },
    {
      "inputs": [],
      "name": "ECDSAInvalidSignature",
      "type": "error"
    },
    {
      "inputs": [
        {
          "internalType": "uint256",
          "name": "length",
          "type": "uint256"
        }
      ],
      "name": "ECDSAInvalidSignatureLength",
      "type": "error"
    },
    {
      "inputs": [
        {
          "internalType": "bytes32",
          "name": "s",
          "type": "bytes32"
        }
      ],
      "name": "ECDSAInvalidSignatureS",
      "type": "error"
    },
    {
      "inputs": [
        {
          "internalType": "address",
          "name": "spender",
          "type": "address"
        },
        {
          "internalType": "uint256",
          "name": "allowance",
          "type": "uint256"
        },
        {
          "internalType": "uint256",
          "name": "needed",
          "type": "uint256"
        }
      ],
      "name": "ERC20InsufficientAllowance",
      "type": "error"
    },
    {
      "inputs": [
        {
          "internalType": "address",
          "name": "sender",
          "type": "address"
        },
        {
          "internalType": "uint256",
          "name": "balance",
          "type": "uint256"
        },
        {
          "internalType": "uint256",
          "name": "needed",
          "type": "uint256"
        }
      ],
      "name": "ERC20InsufficientBalance",
      "type": "error"
    },
    {
      "inputs": [
        {
          "internalType": "address",
          "name": "approver",
          "type": "address"
        }
      ],
      "name": "ERC20InvalidApprover",
      "type": "error"
    },
    {
      "inputs": [
        {
          "internalType": "address",
          "name": "receiver",
          "type": "address"
        }
      ],
      "name": "ERC20InvalidReceiver",
      "type": "error"
    },
    {
      "inputs": [
        {
          "internalType": "address",
          "name": "sender",
          "type": "address"
        }
      ],
      "name": "ERC20InvalidSender",
      "type": "error"
    },
    {
      "inputs": [
        {
          "internalType": "address",
          "name": "spender",
          "type": "address"
        }
      ],
      "name": "ERC20InvalidSpender",
      "type": "error"
    },
    {
      "inputs": [
        {
          "internalType": "uint256",
          "name": "deadline",
          "type": "uint256"
        }
      ],
      "name": "ERC2612ExpiredSignature",
      "type": "error"
    },
    {
      "inputs": [
        {
          "internalType": "address",
          "name": "signer",
          "type": "address"
        },
        {
          "internalType": "address",
          "name": "owner",
          "type": "address"
        }
      ],
      "name": "ERC2612InvalidSigner",
      "type": "error"
    },
    {
      "inputs": [
        {
          "internalType": "address",
          "name": "account",
          "type": "address"
        },
        {
          "internalType": "uint256",
          "name": "currentNonce",
          "type": "uint256"
        }
      ],
      "name": "InvalidAccountNonce",
      "type": "error"
    },
    {
      "inputs": [],
      "name": "InvalidDelegate",
      "type": "error"
    },
    {
      "inputs": [],
      "name": "InvalidEndpointCall",
      "type": "error"
    },
    {
      "inputs": [],
      "name": "InvalidShortString",
      "type": "error"
    },
    {
      "inputs": [],
      "name": "LzTokenUnavailable",
      "type": "error"
    },
    {
      "inputs": [
        {
          "internalType": "uint32",
          "name": "eid",
          "type": "uint32"
        }
      ],
      "name": "NoPeer",
      "type": "error"
    },
    {
      "inputs": [
        {
          "internalType": "uint256",
          "name": "msgValue",
          "type": "uint256"
        }
      ],
      "name": "NotEnoughNative",
      "type": "error"
    },
    {
      "inputs": [
        {
          "internalType": "address",
          "name": "addr",
          "type": "address"
        }
      ],
      "name": "OnlyEndpoint",
      "type": "error"
    },
    {
      "inputs": [
        {
          "internalType": "uint32",
          "name": "eid",
          "type": "uint32"
        },
        {
          "internalType": "bytes32",
          "name": "sender",
          "type": "bytes32"
        }
      ],
      "name": "OnlyPeer",
      "type": "error"
    },
    {
      "inputs": [
        {
          "internalType": "address",
          "name": "owner",
          "type": "address"
        }
      ],
      "name": "OwnableInvalidOwner",
      "type": "error"
    },
    {
      "inputs": [
        {
          "internalType": "address",
          "name": "account",
          "type": "address"
        }
      ],
      "name": "OwnableUnauthorizedAccount",
      "type": "error"
    },
    {
      "inputs": [
        {
          "internalType": "string",
          "name": "str",
          "type": "string"
        }
      ],
      "name": "StringTooLong",
      "type": "error"
    },
    {
      "anonymous": false,
      "inputs": [
        {
          "indexed": true,
          "internalType": "address",
          "name": "owner",
          "type": "address"
        },
        {
          "indexed": true,
          "internalType": "address",
          "name": "spender",
          "type": "address"
        },
        {
          "indexed": false,
          "internalType": "uint256",
          "name": "value",
          "type": "uint256"
        }
      ],
      "name": "Approval",
      "type": "event"
    },
    {
      "anonymous": false,
      "inputs": [],
      "name": "EIP712DomainChanged",
      "type": "event"
    },
    {
      "anonymous": false,
      "inputs": [
        {
          "indexed": true,
          "internalType": "address",
          "name": "previousOwner",
          "type": "address"
        },
        {
          "indexed": true,
          "internalType": "address",
          "name": "newOwner",
          "type": "address"
        }
      ],
      "name": "OwnershipTransferred",
      "type": "event"
    },
    {
      "anonymous": false,
      "inputs": [
        {
          "indexed": false,
          "internalType": "uint32",
          "name": "eid",
          "type": "uint32"
        },
        {
          "indexed": false,
          "internalType": "bytes32",
          "name": "peer",
          "type": "bytes32"
        }
      ],
      "name": "PeerSet",
      "type": "event"
    },
    {
      "anonymous": false,
      "inputs": [
        {
          "indexed": true,
          "internalType": "address",
          "name": "from",
          "type": "address"
        },
        {
          "indexed": true,
          "internalType": "address",
          "name": "to",
          "type": "address"
        },
        {
          "indexed": false,
          "internalType": "uint256",
          "name": "value",
          "type": "uint256"
        }
      ],
      "name": "Transfer",
      "type": "event"
    },
    {
      "inputs": [],
      "name": "DESTINATION_EID",
      "outputs": [
        {
          "internalType": "uint32",
          "name": "",
          "type": "uint32"
        }
      ],
      "stateMutability": "view",
      "type": "function"
    },
    {
      "inputs": [],
      "name": "DOMAIN_SEPARATOR",
      "outputs": [
        {
          "internalType": "bytes32",
          "name": "",
          "type": "bytes32"
        }
      ],
      "stateMutability": "view",
      "type": "function"
    },
    {
      "inputs": [
        {
          "internalType": "address",
          "name": "account",
          "type": "address"
        },
        {
          "internalType": "uint256",
          "name": "value",
          "type": "uint256"
        }
      ],
      "name": "adminBurn",
      "outputs": [],
      "stateMutability": "nonpayable",
      "type": "function"
    },
    {
      "inputs": [
        {
          "components": [
            {
              "internalType": "uint32",
              "name": "srcEid",
              "type": "uint32"
            },
            {
              "internalType": "bytes32",
              "name": "sender",
              "type": "bytes32"
            },
            {
              "internalType": "uint64",
              "name": "nonce",
              "type": "uint64"
            }
          ],
          "internalType": "struct Origin",
          "name": "origin",
          "type": "tuple"
        }
      ],
      "name": "allowInitializePath",
      "outputs": [
        {
          "internalType": "bool",
          "name": "",
          "type": "bool"
        }
      ],
      "stateMutability": "view",
      "type": "function"
    },
    {
      "inputs": [
        {
          "internalType": "address",
          "name": "owner",
          "type": "address"
        },
        {
          "internalType": "address",
          "name": "spender",
          "type": "address"
        }
      ],
      "name": "allowance",
      "outputs": [
        {
          "internalType": "uint256",
          "name": "",
          "type": "uint256"
        }
      ],
      "stateMutability": "view",
      "type": "function"
    },
    {
      "inputs": [
        {
          "internalType": "address",
          "name": "spender",
          "type": "address"
        },
        {
          "internalType": "uint256",
          "name": "value",
          "type": "uint256"
        }
      ],
      "name": "approve",
      "outputs": [
        {
          "internalType": "bool",
          "name": "",
          "type": "bool"
        }
      ],
      "stateMutability": "nonpayable",
      "type": "function"
    },
    {
      "inputs": [
        {
          "internalType": "address",
          "name": "account",
          "type": "address"
        }
      ],
      "name": "balanceOf",
      "outputs": [
        {
          "internalType": "uint256",
          "name": "",
          "type": "uint256"
        }
      ],
      "stateMutability": "view",
      "type": "function"
    },
    {
      "inputs": [
        {
          "internalType": "uint256",
          "name": "value",
          "type": "uint256"
        }
      ],
      "name": "burn",
      "outputs": [],
      "stateMutability": "nonpayable",
      "type": "function"
    },
    {
      "inputs": [
        {
          "internalType": "address",
          "name": "account",
          "type": "address"
        },
        {
          "internalType": "uint256",
          "name": "value",
          "type": "uint256"
        }
      ],
      "name": "burnFrom",
      "outputs": [],
      "stateMutability": "nonpayable",
      "type": "function"
    },
    {
      "inputs": [],
      "name": "decimals",
      "outputs": [
        {
          "internalType": "uint8",
          "name": "",
          "type": "uint8"
        }
      ],
      "stateMutability": "view",
      "type": "function"
    },
    {
      "inputs": [],
      "name": "eip712Domain",
      "outputs": [
        {
          "internalType": "bytes1",
          "name": "fields",
          "type": "bytes1"
        },
        {
          "internalType": "string",
          "name": "name",
          "type": "string"
        },
        {
          "internalType": "string",
          "name": "version",
          "type": "string"
        },
        {
          "internalType": "uint256",
          "name": "chainId",
          "type": "uint256"
        },
        {
          "internalType": "address",
          "name": "verifyingContract",
          "type": "address"
        },
        {
          "internalType": "bytes32",
          "name": "salt",
          "type": "bytes32"
        },
        {
          "internalType": "uint256[]",
          "name": "extensions",
          "type": "uint256[]"
        }
      ],
      "stateMutability": "view",
      "type": "function"
    },
    {
      "inputs": [],
      "name": "endpoint",
      "outputs": [
        {
          "internalType": "contract ILayerZeroEndpointV2",
          "name": "",
          "type": "address"
        }
      ],
      "stateMutability": "view",
      "type": "function"
    },
    {
      "inputs": [],
      "name": "getAddress",
      "outputs": [
        {
          "internalType": "address",
          "name": "",
          "type": "address"
        }
      ],
      "stateMutability": "view",
      "type": "function"
    },
    {
      "inputs": [
        {
          "components": [
            {
              "internalType": "uint32",
              "name": "srcEid",
              "type": "uint32"
            },
            {
              "internalType": "bytes32",
              "name": "sender",
              "type": "bytes32"
            },
            {
              "internalType": "uint64",
              "name": "nonce",
              "type": "uint64"
            }
          ],
          "internalType": "struct Origin",
          "name": "",
          "type": "tuple"
        },
        {
          "internalType": "bytes",
          "name": "",
          "type": "bytes"
        },
        {
          "internalType": "address",
          "name": "_sender",
          "type": "address"
        }
      ],
      "name": "isComposeMsgSender",
      "outputs": [
        {
          "internalType": "bool",
          "name": "",
          "type": "bool"
        }
      ],
      "stateMutability": "view",
      "type": "function"
    },
    {
      "inputs": [
        {
          "components": [
            {
              "internalType": "uint32",
              "name": "srcEid",
              "type": "uint32"
            },
            {
              "internalType": "bytes32",
              "name": "sender",
              "type": "bytes32"
            },
            {
              "internalType": "uint64",
              "name": "nonce",
              "type": "uint64"
            }
          ],
          "internalType": "struct Origin",
          "name": "_origin",
          "type": "tuple"
        },
        {
          "internalType": "bytes32",
          "name": "_guid",
          "type": "bytes32"
        },
        {
          "internalType": "bytes",
          "name": "_message",
          "type": "bytes"
        },
        {
          "internalType": "address",
          "name": "_executor",
          "type": "address"
        },
        {
          "internalType": "bytes",
          "name": "_extraData",
          "type": "bytes"
        }
      ],
      "name": "lzReceive",
      "outputs": [],
      "stateMutability": "payable",
      "type": "function"
    },
    {
      "inputs": [
        {
          "internalType": "address",
          "name": "to",
          "type": "address"
        },
        {
          "internalType": "uint256",
          "name": "amount",
          "type": "uint256"
        }
      ],
      "name": "mint",
      "outputs": [],
      "stateMutability": "nonpayable",
      "type": "function"
    },
    {
      "inputs": [],
      "name": "name",
      "outputs": [
        {
          "internalType": "string",
          "name": "",
          "type": "string"
        }
      ],
      "stateMutability": "view",
      "type": "function"
    },
    {
      "inputs": [
        {
          "internalType": "uint32",
          "name": "",
          "type": "uint32"
        },
        {
          "internalType": "bytes32",
          "name": "",
          "type": "bytes32"
        }
      ],
      "name": "nextNonce",
      "outputs": [
        {
          "internalType": "uint64",
          "name": "nonce",
          "type": "uint64"
        }
      ],
      "stateMutability": "view",
      "type": "function"
    },
    {
      "inputs": [
        {
          "internalType": "address",
          "name": "owner",
          "type": "address"
        }
      ],
      "name": "nonces",
      "outputs": [
        {
          "internalType": "uint256",
          "name": "",
          "type": "uint256"
        }
      ],
      "stateMutability": "view",
      "type": "function"
    },
    {
      "inputs": [],
      "name": "oAppVersion",
      "outputs": [
        {
          "internalType": "uint64",
          "name": "senderVersion",
          "type": "uint64"
        },
        {
          "internalType": "uint64",
          "name": "receiverVersion",
          "type": "uint64"
        }
      ],
      "stateMutability": "pure",
      "type": "function"
    },
    {
      "inputs": [],
      "name": "owner",
      "outputs": [
        {
          "internalType": "address",
          "name": "",
          "type": "address"
        }
      ],
      "stateMutability": "view",
      "type": "function"
    },
    {
      "inputs": [
        {
          "internalType": "uint32",
          "name": "eid",
          "type": "uint32"
        }
      ],
      "name": "peers",
      "outputs": [
        {
          "internalType": "bytes32",
          "name": "peer",
          "type": "bytes32"
        }
      ],
      "stateMutability": "view",
      "type": "function"
    },
    {
      "inputs": [
        {
          "internalType": "address",
          "name": "owner",
          "type": "address"
        },
        {
          "internalType": "address",
          "name": "spender",
          "type": "address"
        },
        {
          "internalType": "uint256",
          "name": "value",
          "type": "uint256"
        },
        {
          "internalType": "uint256",
          "name": "deadline",
          "type": "uint256"
        },
        {
          "internalType": "uint8",
          "name": "v",
          "type": "uint8"
        },
        {
          "internalType": "bytes32",
          "name": "r",
          "type": "bytes32"
        },
        {
          "internalType": "bytes32",
          "name": "s",
          "type": "bytes32"
        }
      ],
      "name": "permit",
      "outputs": [],
      "stateMutability": "nonpayable",
      "type": "function"
    },
    {
      "inputs": [],
      "name": "renounceOwnership",
      "outputs": [],
      "stateMutability": "nonpayable",
      "type": "function"
    },
    {
      "inputs": [
        {
          "internalType": "address",
          "name": "_delegate",
          "type": "address"
        }
      ],
      "name": "setDelegate",
      "outputs": [],
      "stateMutability": "nonpayable",
      "type": "function"
    },
    {
      "inputs": [
        {
          "internalType": "uint32",
          "name": "_eid",
          "type": "uint32"
        },
        {
          "internalType": "bytes32",
          "name": "_peer",
          "type": "bytes32"
        }
      ],
      "name": "setPeer",
      "outputs": [],
      "stateMutability": "nonpayable",
      "type": "function"
    },
    {
      "inputs": [],
      "name": "symbol",
      "outputs": [
        {
          "internalType": "string",
          "name": "",
          "type": "string"
        }
      ],
      "stateMutability": "view",
      "type": "function"
    },
    {
      "inputs": [],
      "name": "totalSupply",
      "outputs": [
        {
          "internalType": "uint256",
          "name": "",
          "type": "uint256"
        }
      ],
      "stateMutability": "view",
      "type": "function"
    },
    {
      "inputs": [
        {
          "internalType": "address",
          "name": "to",
          "type": "address"
        },
        {
          "internalType": "uint256",
          "name": "value",
          "type": "uint256"
        }
      ],
      "name": "transfer",
      "outputs": [
        {
          "internalType": "bool",
          "name": "",
          "type": "bool"
        }
      ],
      "stateMutability": "nonpayable",
      "type": "function"
    },
    {
      "inputs": [
        {
          "internalType": "address",
          "name": "from",
          "type": "address"
        },
        {
          "internalType": "address",
          "name": "to",
          "type": "address"
        },
        {
          "internalType": "uint256",
          "name": "value",
          "type": "uint256"
        }
      ],
      "name": "transferFrom",
      "outputs": [
        {
          "internalType": "bool",
          "name": "",
          "type": "bool"
        }
      ],
      "stateMutability": "nonpayable",
      "type": "function"
    },
    {
      "inputs": [
        {
          "internalType": "address",
          "name": "newOwner",
          "type": "address"
        }
      ],
      "name": "transferOwnership",
      "outputs": [],
      "stateMutability": "nonpayable",
      "type": "function"
    }
  ],
  "bytecode": "0x610180604052600b805463ffffffff1916619ce11790553480156200002357600080fd5b50604051806040016040528060078152602001661e9ad35c155cd960ca1b81525080604051806040016040528060018152602001603160f81b815250604051806040016040528060078152602001661e9ad35c155cd960ca1b815250604051806040016040528060078152602001661e9ad35c155cd960ca1b815250736edce65403992e310a62460808c4b910d972f10f3381813360006001600160a01b0316816001600160a01b031603620000f457604051631e4fbdf760e01b8152600060048201526024015b60405180910390fd5b620000ff8162000286565b506001600160a01b0380831660805281166200012e57604051632d618d8160e21b815260040160405180910390fd5b60805160405163ca5eb5e160e01b81526001600160a01b0383811660048301529091169063ca5eb5e190602401600060405180830381600087803b1580156200017657600080fd5b505af11580156200018b573d6000803e3d6000fd5b50505050505050508160059081620001a49190620003f9565b506006620001b38282620003f9565b5050600780546001600160a01b0319163317905550620001d5826008620002d6565b61014052620001e6816009620002d6565b61016052815160208084019190912061010052815190820120610120524660c052620002766101005161012051604080517f8b73c3c69bb8fe3d512ecc4cf759cc79239f7b179b0ffacaa9a75d522b39400f60208201529081019290925260608201524660808201523060a082015260009060c00160405160208183030381529060405280519060200120905090565b60a05250503060e052506200053b565b600080546001600160a01b038381166001600160a01b0319831681178455604051919092169283917f8be0079c531659141344cd1fd0a4f28419497f9722a3daafe3b4186f6b6457e09190a35050565b6000602083511015620002f657620002ee836200030f565b905062000309565b81620003038482620003f9565b5060ff90505b92915050565b600080829050601f815111156200033d578260405163305a27a960e01b8152600401620000eb9190620004c5565b80516200034a8262000516565b179392505050565b634e487b7160e01b600052604160045260246000fd5b600181811c908216806200037d57607f821691505b6020821081036200039e57634e487b7160e01b600052602260045260246000fd5b50919050565b601f821115620003f4576000816000526020600020601f850160051c81016020861015620003cf5750805b601f850160051c820191505b81811015620003f057828155600101620003db565b5050505b505050565b81516001600160401b0381111562000415576200041562000352565b6200042d8162000426845462000368565b84620003a4565b602080601f8311600181146200046557600084156200044c5750858301515b600019600386901b1c1916600185901b178555620003f0565b600085815260208120601f198616915b82811015620004965788860151825594840194600190910190840162000475565b5085821015620004b55787850151600019600388901b60f8161c191681555b5050505050600190811b01905550565b60006020808352835180602085015260005b81811015620004f557858101830151858201604001528201620004d7565b506000604082860101526040601f19601f8301168501019250505092915050565b805160208083015191908110156200039e5760001960209190910360031b1b16919050565b60805160a05160c05160e05161010051610120516101405161016051611926620005af6000396000610f3601526000610f0901526000610e2b01526000610e0301526000610d5e01526000610d8801526000610db201526000818161039801528181610758015261093c01526119266000f3fe6080604052600436106101d85760003560e01c8063715018a611610102578063a9059cbb11610095578063dd62ed3e11610064578063dd62ed3e14610598578063f2fde38b146105de578063f7daa821146105fe578063ff7bd03d1461063057600080fd5b8063a9059cbb1461050b578063bb0b6a531461052b578063ca5eb5e114610558578063d505accf1461057857600080fd5b806382413eac116100d157806382413eac1461048157806384b0196e146104b05780638da5cb5b146104d857806395d89b41146104f657600080fd5b8063715018a6146103f057806379cc6790146104055780637d25a05e146104255780637ecebe001461046157600080fd5b8063313ce5671161017a57806340c10f191161014957806340c10f191461034657806342966c68146103665780635e280f111461038657806370a08231146103ba57600080fd5b8063313ce567146102ce5780633400288b146102ea5780633644e5151461030a57806338cc48311461031f57600080fd5b806313137d65116101b657806313137d651461025a57806317442b701461026d57806318160ddd1461028f57806323b872dd146102ae57600080fd5b806306dd0419146101dd57806306fdde03146101ff578063095ea7b31461022a575b600080fd5b3480156101e957600080fd5b506101fd6101f8366004611465565b610650565b005b34801561020b57600080fd5b506102146106aa565b60405161022191906114d7565b60405180910390f35b34801561023657600080fd5b5061024a610245366004611465565b61073c565b6040519015158152602001610221565b6101fd610268366004611552565b610756565b34801561027957600080fd5b5060408051600181526002602082015201610221565b34801561029b57600080fd5b506004545b604051908152602001610221565b3480156102ba57600080fd5b5061024a6102c93660046115f2565b610811565b3480156102da57600080fd5b5060405160128152602001610221565b3480156102f657600080fd5b506101fd61030536600461164c565b610835565b34801561031657600080fd5b506102a0610847565b34801561032b57600080fd5b50305b6040516001600160a01b039091168152602001610221565b34801561035257600080fd5b506101fd610361366004611465565b610856565b34801561037257600080fd5b506101fd610381366004611668565b610868565b34801561039257600080fd5b5061032e7f000000000000000000000000000000000000000000000000000000000000000081565b3480156103c657600080fd5b506102a06103d5366004611681565b6001600160a01b031660009081526002602052604090205490565b3480156103fc57600080fd5b506101fd610875565b34801561041157600080fd5b506101fd610420366004611465565b610889565b34801561043157600080fd5b5061044861044036600461164c565b600092915050565b60405167ffffffffffffffff9091168152602001610221565b34801561046d57600080fd5b506102a061047c366004611681565b610894565b34801561048d57600080fd5b5061024a61049c36600461169e565b6001600160a01b0381163014949350505050565b3480156104bc57600080fd5b506104c56108b2565b6040516102219796959493929190611705565b3480156104e457600080fd5b506000546001600160a01b031661032e565b34801561050257600080fd5b506102146108f8565b34801561051757600080fd5b5061024a610526366004611465565b610907565b34801561053757600080fd5b506102a061054636600461179e565b60016020526000908152604090205481565b34801561056457600080fd5b506101fd610573366004611681565b610915565b34801561058457600080fd5b506101fd6105933660046117b9565b61099b565b3480156105a457600080fd5b506102a06105b3366004611830565b6001600160a01b03918216600090815260036020908152604080832093909416825291909152205490565b3480156105ea57600080fd5b506101fd6105f9366004611681565b610ad5565b34801561060a57600080fd5b50600b5461061b9063ffffffff1681565b60405163ffffffff9091168152602001610221565b34801561063c57600080fd5b5061024a61064b366004611869565b610b10565b6007546001600160a01b0316331461069c5760405162461bcd60e51b815260206004820152600a6024820152692737ba1037bbb732b91760b11b60448201526064015b60405180910390fd5b6106a68282610b46565b5050565b6060600580546106b990611885565b80601f01602080910402602001604051908101604052809291908181526020018280546106e590611885565b80156107325780601f1061070757610100808354040283529160200191610732565b820191906000526020600020905b81548152906001019060200180831161071557829003601f168201915b5050505050905090565b60003361074a818585610b7c565b60019150505b92915050565b7f00000000000000000000000000000000000000000000000000000000000000006001600160a01b031633146107a1576040516391ac5e4f60e01b8152336004820152602401610693565b602087018035906107bb906107b6908a61179e565b610b8e565b146107f9576107cd602088018861179e565b60405163309afaf360e21b815263ffffffff909116600482015260208801356024820152604401610693565b61080887878787878787610bca565b50505050505050565b60003361081f858285610bf2565b61082a858585610c70565b506001949350505050565b61083d610ccf565b6106a68282610cfc565b6000610851610d51565b905090565b61085e610ccf565b6106a68282610e7c565b6108723382610b46565b50565b61087d610ccf565b6108876000610eb2565b565b61069c823383610bf2565b6001600160a01b0381166000908152600a6020526040812054610750565b6000606080600080600060606108c6610f02565b6108ce610f2f565b60408051600080825260208201909252600f60f81b9b939a50919850469750309650945092509050565b6060600680546106b990611885565b60003361074a818585610c70565b61091d610ccf565b60405163ca5eb5e160e01b81526001600160a01b0382811660048301527f0000000000000000000000000000000000000000000000000000000000000000169063ca5eb5e190602401600060405180830381600087803b15801561098057600080fd5b505af1158015610994573d6000803e3d6000fd5b5050505050565b834211156109bf5760405163313c898160e11b815260048101859052602401610693565b60007f6e71edae12b1b97f4d1f60370fef10105fa2faae0126114a169c64845d6126c9888888610a0c8c6001600160a01b03166000908152600a6020526040902080546001810190915590565b6040805160208101969096526001600160a01b0394851690860152929091166060840152608083015260a082015260c0810186905260e0016040516020818303038152906040528051906020012090506000610a6782610f5c565b90506000610a7782878787610f89565b9050896001600160a01b0316816001600160a01b031614610abe576040516325c0072360e11b81526001600160a01b0380831660048301528b166024820152604401610693565b610ac98a8a8a610b7c565b50505050505050505050565b610add610ccf565b6001600160a01b038116610b0757604051631e4fbdf760e01b815260006004820152602401610693565b61087281610eb2565b6000602082018035906001908390610b28908661179e565b63ffffffff1681526020810191909152604001600020541492915050565b6001600160a01b038216610b7057604051634b637e8f60e11b815260006004820152602401610693565b6106a682600083610fb7565b610b8983838360016110e1565b505050565b63ffffffff8116600090815260016020526040812054806107505760405163f6ff4fb760e01b815263ffffffff84166004820152602401610693565b600080610bd986880188611465565b91509150610be78282610e7c565b505050505050505050565b6001600160a01b038381166000908152600360209081526040808320938616835292905220546000198114610c6a5781811015610c5b57604051637dc7a0d960e11b81526001600160a01b03841660048201526024810182905260448101839052606401610693565b610c6a848484840360006110e1565b50505050565b6001600160a01b038316610c9a57604051634b637e8f60e11b815260006004820152602401610693565b6001600160a01b038216610cc45760405163ec442f0560e01b815260006004820152602401610693565b610b89838383610fb7565b6000546001600160a01b031633146108875760405163118cdaa760e01b8152336004820152602401610693565b63ffffffff8216600081815260016020908152604091829020849055815192835282018390527f238399d427b947898edb290f5ff0f9109849b1c3ba196a42e35f00c50a54b98b910160405180910390a15050565b6000306001600160a01b037f000000000000000000000000000000000000000000000000000000000000000016148015610daa57507f000000000000000000000000000000000000000000000000000000000000000046145b15610dd457507f000000000000000000000000000000000000000000000000000000000000000090565b610851604080517f8b73c3c69bb8fe3d512ecc4cf759cc79239f7b179b0ffacaa9a75d522b39400f60208201527f0000000000000000000000000000000000000000000000000000000000000000918101919091527f000000000000000000000000000000000000000000000000000000000000000060608201524660808201523060a082015260009060c00160405160208183030381529060405280519060200120905090565b6001600160a01b038216610ea65760405163ec442f0560e01b815260006004820152602401610693565b6106a660008383610fb7565b600080546001600160a01b038381166001600160a01b0319831681178455604051919092169283917f8be0079c531659141344cd1fd0a4f28419497f9722a3daafe3b4186f6b6457e09190a35050565b60606108517f000000000000000000000000000000000000000000000000000000000000000060086111b6565b60606108517f000000000000000000000000000000000000000000000000000000000000000060096111b6565b6000610750610f69610d51565b8360405161190160f01b8152600281019290925260228201526042902090565b600080600080610f9b88888888611261565b925092509250610fab8282611330565b50909695505050505050565b6001600160a01b038316610fe2578060046000828254610fd791906118b9565b909155506110549050565b6001600160a01b038316600090815260026020526040902054818110156110355760405163391434e360e21b81526001600160a01b03851660048201526024810182905260448101839052606401610693565b6001600160a01b03841660009081526002602052604090209082900390555b6001600160a01b0382166110705760048054829003905561108f565b6001600160a01b03821660009081526002602052604090208054820190555b816001600160a01b0316836001600160a01b03167fddf252ad1be2c89b69c2b068fc378daa952ba7f163c4a11628f55a4df523b3ef836040516110d491815260200190565b60405180910390a3505050565b6001600160a01b03841661110b5760405163e602df0560e01b815260006004820152602401610693565b6001600160a01b03831661113557604051634a1406b160e11b815260006004820152602401610693565b6001600160a01b0380851660009081526003602090815260408083209387168352929052208290558015610c6a57826001600160a01b0316846001600160a01b03167f8c5be1e5ebec7d5bd14f71427d1e84f3dd0314c0f7b2291e5b200ac8c7c3b925846040516111a891815260200190565b60405180910390a350505050565b606060ff83146111d0576111c9836113e9565b9050610750565b8180546111dc90611885565b80601f016020809104026020016040519081016040528092919081815260200182805461120890611885565b80156112555780601f1061122a57610100808354040283529160200191611255565b820191906000526020600020905b81548152906001019060200180831161123857829003601f168201915b50505050509050610750565b600080807f7fffffffffffffffffffffffffffffff5d576e7357a4501ddfe92f46681b20a084111561129c5750600091506003905082611326565b604080516000808252602082018084528a905260ff891692820192909252606081018790526080810186905260019060a0016020604051602081039080840390855afa1580156112f0573d6000803e3d6000fd5b5050604051601f1901519150506001600160a01b03811661131c57506000925060019150829050611326565b9250600091508190505b9450945094915050565b6000826003811115611344576113446118da565b0361134d575050565b6001826003811115611361576113616118da565b0361137f5760405163f645eedf60e01b815260040160405180910390fd5b6002826003811115611393576113936118da565b036113b45760405163fce698f760e01b815260048101829052602401610693565b60038260038111156113c8576113c86118da565b036106a6576040516335e2f38360e21b815260048101829052602401610693565b606060006113f683611428565b604080516020808252818301909252919250600091906020820181803683375050509182525060208101929092525090565b600060ff8216601f81111561075057604051632cd44ac360e21b815260040160405180910390fd5b6001600160a01b038116811461087257600080fd5b6000806040838503121561147857600080fd5b823561148381611450565b946020939093013593505050565b6000815180845260005b818110156114b75760208185018101518683018201520161149b565b506000602082860101526020601f19601f83011685010191505092915050565b6020815260006114ea6020830184611491565b9392505050565b60006060828403121561150357600080fd5b50919050565b60008083601f84011261151b57600080fd5b50813567ffffffffffffffff81111561153357600080fd5b60208301915083602082850101111561154b57600080fd5b9250929050565b600080600080600080600060e0888a03121561156d57600080fd5b61157789896114f1565b965060608801359550608088013567ffffffffffffffff8082111561159b57600080fd5b6115a78b838c01611509565b909750955060a08a013591506115bc82611450565b90935060c089013590808211156115d257600080fd5b506115df8a828b01611509565b989b979a50959850939692959293505050565b60008060006060848603121561160757600080fd5b833561161281611450565b9250602084013561162281611450565b929592945050506040919091013590565b803563ffffffff8116811461164757600080fd5b919050565b6000806040838503121561165f57600080fd5b61148383611633565b60006020828403121561167a57600080fd5b5035919050565b60006020828403121561169357600080fd5b81356114ea81611450565b60008060008060a085870312156116b457600080fd5b6116be86866114f1565b9350606085013567ffffffffffffffff8111156116da57600080fd5b6116e687828801611509565b90945092505060808501356116fa81611450565b939692955090935050565b60ff60f81b881681526000602060e0602084015261172660e084018a611491565b8381036040850152611738818a611491565b606085018990526001600160a01b038816608086015260a0850187905284810360c08601528551808252602080880193509091019060005b8181101561178c57835183529284019291840191600101611770565b50909c9b505050505050505050505050565b6000602082840312156117b057600080fd5b6114ea82611633565b600080600080600080600060e0888a0312156117d457600080fd5b87356117df81611450565b965060208801356117ef81611450565b95506040880135945060608801359350608088013560ff8116811461181357600080fd5b9699959850939692959460a0840135945060c09093013592915050565b6000806040838503121561184357600080fd5b823561184e81611450565b9150602083013561185e81611450565b809150509250929050565b60006060828403121561187b57600080fd5b6114ea83836114f1565b600181811c9082168061189957607f821691505b60208210810361150357634e487b7160e01b600052602260045260246000fd5b8082018082111561075057634e487b7160e01b600052601160045260246000fd5b634e487b7160e01b600052602160045260246000fdfea2646970667358221220ccadb1fce481b6ba512a87dec2d5a2a617433fbc71bee23a932c7c3c17c88fa764736f6c63430008180033",
  "linkReferences": {},
  "deployedLinkReferences": {}
}