{
  "_format": "hh-sol-artifact-1",
  "contractName": "astarL2ZkEvmMpUsd",
  "sourceName": "contracts/crossChain/samples/astarL2ZkEvmMpUsd.sol",
  "abi": [
    {
      "inputs": [],
      "stateMutability": "nonpayable",
      "type": "constructor"
    },
    {
      "inputs": [],
      "name": "ECDSAInvalidSignature",
      "type": "error"
    },
    {
      "inputs": [
        {
          "internalType": "uint256",
          "name": "length",
          "type": "uint256"
        }
      ],
      "name": "ECDSAInvalidSignatureLength",
      "type": "error"
    },
    {
      "inputs": [
        {
          "internalType": "bytes32",
          "name": "s",
          "type": "bytes32"
        }
      ],
      "name": "ECDSAInvalidSignatureS",
      "type": "error"
    },
    {
      "inputs": [
        {
          "internalType": "address",
          "name": "spender",
          "type": "address"
        },
        {
          "internalType": "uint256",
          "name": "allowance",
          "type": "uint256"
        },
        {
          "internalType": "uint256",
          "name": "needed",
          "type": "uint256"
        }
      ],
      "name": "ERC20InsufficientAllowance",
      "type": "error"
    },
    {
      "inputs": [
        {
          "internalType": "address",
          "name": "sender",
          "type": "address"
        },
        {
          "internalType": "uint256",
          "name": "balance",
          "type": "uint256"
        },
        {
          "internalType": "uint256",
          "name": "needed",
          "type": "uint256"
        }
      ],
      "name": "ERC20InsufficientBalance",
      "type": "error"
    },
    {
      "inputs": [
        {
          "internalType": "address",
          "name": "approver",
          "type": "address"
        }
      ],
      "name": "ERC20InvalidApprover",
      "type": "error"
    },
    {
      "inputs": [
        {
          "internalType": "address",
          "name": "receiver",
          "type": "address"
        }
      ],
      "name": "ERC20InvalidReceiver",
      "type": "error"
    },
    {
      "inputs": [
        {
          "internalType": "address",
          "name": "sender",
          "type": "address"
        }
      ],
      "name": "ERC20InvalidSender",
      "type": "error"
    },
    {
      "inputs": [
        {
          "internalType": "address",
          "name": "spender",
          "type": "address"
        }
      ],
      "name": "ERC20InvalidSpender",
      "type": "error"
    },
    {
      "inputs": [
        {
          "internalType": "uint256",
          "name": "deadline",
          "type": "uint256"
        }
      ],
      "name": "ERC2612ExpiredSignature",
      "type": "error"
    },
    {
      "inputs": [
        {
          "internalType": "address",
          "name": "signer",
          "type": "address"
        },
        {
          "internalType": "address",
          "name": "owner",
          "type": "address"
        }
      ],
      "name": "ERC2612InvalidSigner",
      "type": "error"
    },
    {
      "inputs": [
        {
          "internalType": "address",
          "name": "account",
          "type": "address"
        },
        {
          "internalType": "uint256",
          "name": "currentNonce",
          "type": "uint256"
        }
      ],
      "name": "InvalidAccountNonce",
      "type": "error"
    },
    {
      "inputs": [],
      "name": "InvalidDelegate",
      "type": "error"
    },
    {
      "inputs": [],
      "name": "InvalidEndpointCall",
      "type": "error"
    },
    {
      "inputs": [],
      "name": "InvalidShortString",
      "type": "error"
    },
    {
      "inputs": [],
      "name": "LzTokenUnavailable",
      "type": "error"
    },
    {
      "inputs": [
        {
          "internalType": "uint32",
          "name": "eid",
          "type": "uint32"
        }
      ],
      "name": "NoPeer",
      "type": "error"
    },
    {
      "inputs": [
        {
          "internalType": "uint256",
          "name": "msgValue",
          "type": "uint256"
        }
      ],
      "name": "NotEnoughNative",
      "type": "error"
    },
    {
      "inputs": [
        {
          "internalType": "address",
          "name": "addr",
          "type": "address"
        }
      ],
      "name": "OnlyEndpoint",
      "type": "error"
    },
    {
      "inputs": [
        {
          "internalType": "uint32",
          "name": "eid",
          "type": "uint32"
        },
        {
          "internalType": "bytes32",
          "name": "sender",
          "type": "bytes32"
        }
      ],
      "name": "OnlyPeer",
      "type": "error"
    },
    {
      "inputs": [
        {
          "internalType": "address",
          "name": "owner",
          "type": "address"
        }
      ],
      "name": "OwnableInvalidOwner",
      "type": "error"
    },
    {
      "inputs": [
        {
          "internalType": "address",
          "name": "account",
          "type": "address"
        }
      ],
      "name": "OwnableUnauthorizedAccount",
      "type": "error"
    },
    {
      "inputs": [
        {
          "internalType": "string",
          "name": "str",
          "type": "string"
        }
      ],
      "name": "StringTooLong",
      "type": "error"
    },
    {
      "anonymous": false,
      "inputs": [
        {
          "indexed": true,
          "internalType": "address",
          "name": "owner",
          "type": "address"
        },
        {
          "indexed": true,
          "internalType": "address",
          "name": "spender",
          "type": "address"
        },
        {
          "indexed": false,
          "internalType": "uint256",
          "name": "value",
          "type": "uint256"
        }
      ],
      "name": "Approval",
      "type": "event"
    },
    {
      "anonymous": false,
      "inputs": [],
      "name": "EIP712DomainChanged",
      "type": "event"
    },
    {
      "anonymous": false,
      "inputs": [
        {
          "indexed": true,
          "internalType": "address",
          "name": "previousOwner",
          "type": "address"
        },
        {
          "indexed": true,
          "internalType": "address",
          "name": "newOwner",
          "type": "address"
        }
      ],
      "name": "OwnershipTransferred",
      "type": "event"
    },
    {
      "anonymous": false,
      "inputs": [
        {
          "indexed": false,
          "internalType": "uint32",
          "name": "eid",
          "type": "uint32"
        },
        {
          "indexed": false,
          "internalType": "bytes32",
          "name": "peer",
          "type": "bytes32"
        }
      ],
      "name": "PeerSet",
      "type": "event"
    },
    {
      "anonymous": false,
      "inputs": [
        {
          "indexed": true,
          "internalType": "address",
          "name": "from",
          "type": "address"
        },
        {
          "indexed": true,
          "internalType": "address",
          "name": "to",
          "type": "address"
        },
        {
          "indexed": false,
          "internalType": "uint256",
          "name": "value",
          "type": "uint256"
        }
      ],
      "name": "Transfer",
      "type": "event"
    },
    {
      "inputs": [],
      "name": "DESTINATION_EID",
      "outputs": [
        {
          "internalType": "uint32",
          "name": "",
          "type": "uint32"
        }
      ],
      "stateMutability": "view",
      "type": "function"
    },
    {
      "inputs": [],
      "name": "DOMAIN_SEPARATOR",
      "outputs": [
        {
          "internalType": "bytes32",
          "name": "",
          "type": "bytes32"
        }
      ],
      "stateMutability": "view",
      "type": "function"
    },
    {
      "inputs": [
        {
          "components": [
            {
              "internalType": "uint32",
              "name": "srcEid",
              "type": "uint32"
            },
            {
              "internalType": "bytes32",
              "name": "sender",
              "type": "bytes32"
            },
            {
              "internalType": "uint64",
              "name": "nonce",
              "type": "uint64"
            }
          ],
          "internalType": "struct Origin",
          "name": "origin",
          "type": "tuple"
        }
      ],
      "name": "allowInitializePath",
      "outputs": [
        {
          "internalType": "bool",
          "name": "",
          "type": "bool"
        }
      ],
      "stateMutability": "view",
      "type": "function"
    },
    {
      "inputs": [
        {
          "internalType": "address",
          "name": "owner",
          "type": "address"
        },
        {
          "internalType": "address",
          "name": "spender",
          "type": "address"
        }
      ],
      "name": "allowance",
      "outputs": [
        {
          "internalType": "uint256",
          "name": "",
          "type": "uint256"
        }
      ],
      "stateMutability": "view",
      "type": "function"
    },
    {
      "inputs": [
        {
          "internalType": "address",
          "name": "spender",
          "type": "address"
        },
        {
          "internalType": "uint256",
          "name": "value",
          "type": "uint256"
        }
      ],
      "name": "approve",
      "outputs": [
        {
          "internalType": "bool",
          "name": "",
          "type": "bool"
        }
      ],
      "stateMutability": "nonpayable",
      "type": "function"
    },
    {
      "inputs": [
        {
          "internalType": "address",
          "name": "account",
          "type": "address"
        }
      ],
      "name": "balanceOf",
      "outputs": [
        {
          "internalType": "uint256",
          "name": "",
          "type": "uint256"
        }
      ],
      "stateMutability": "view",
      "type": "function"
    },
    {
      "inputs": [
        {
          "internalType": "uint256",
          "name": "value",
          "type": "uint256"
        }
      ],
      "name": "burn",
      "outputs": [],
      "stateMutability": "nonpayable",
      "type": "function"
    },
    {
      "inputs": [
        {
          "internalType": "address",
          "name": "account",
          "type": "address"
        },
        {
          "internalType": "uint256",
          "name": "value",
          "type": "uint256"
        }
      ],
      "name": "burnFrom",
      "outputs": [],
      "stateMutability": "nonpayable",
      "type": "function"
    },
    {
      "inputs": [],
      "name": "decimals",
      "outputs": [
        {
          "internalType": "uint8",
          "name": "",
          "type": "uint8"
        }
      ],
      "stateMutability": "view",
      "type": "function"
    },
    {
      "inputs": [],
      "name": "eip712Domain",
      "outputs": [
        {
          "internalType": "bytes1",
          "name": "fields",
          "type": "bytes1"
        },
        {
          "internalType": "string",
          "name": "name",
          "type": "string"
        },
        {
          "internalType": "string",
          "name": "version",
          "type": "string"
        },
        {
          "internalType": "uint256",
          "name": "chainId",
          "type": "uint256"
        },
        {
          "internalType": "address",
          "name": "verifyingContract",
          "type": "address"
        },
        {
          "internalType": "bytes32",
          "name": "salt",
          "type": "bytes32"
        },
        {
          "internalType": "uint256[]",
          "name": "extensions",
          "type": "uint256[]"
        }
      ],
      "stateMutability": "view",
      "type": "function"
    },
    {
      "inputs": [],
      "name": "endpoint",
      "outputs": [
        {
          "internalType": "contract ILayerZeroEndpointV2",
          "name": "",
          "type": "address"
        }
      ],
      "stateMutability": "view",
      "type": "function"
    },
    {
      "inputs": [],
      "name": "getAddress",
      "outputs": [
        {
          "internalType": "address",
          "name": "",
          "type": "address"
        }
      ],
      "stateMutability": "view",
      "type": "function"
    },
    {
      "inputs": [
        {
          "components": [
            {
              "internalType": "uint32",
              "name": "srcEid",
              "type": "uint32"
            },
            {
              "internalType": "bytes32",
              "name": "sender",
              "type": "bytes32"
            },
            {
              "internalType": "uint64",
              "name": "nonce",
              "type": "uint64"
            }
          ],
          "internalType": "struct Origin",
          "name": "",
          "type": "tuple"
        },
        {
          "internalType": "bytes",
          "name": "",
          "type": "bytes"
        },
        {
          "internalType": "address",
          "name": "_sender",
          "type": "address"
        }
      ],
      "name": "isComposeMsgSender",
      "outputs": [
        {
          "internalType": "bool",
          "name": "",
          "type": "bool"
        }
      ],
      "stateMutability": "view",
      "type": "function"
    },
    {
      "inputs": [
        {
          "components": [
            {
              "internalType": "uint32",
              "name": "srcEid",
              "type": "uint32"
            },
            {
              "internalType": "bytes32",
              "name": "sender",
              "type": "bytes32"
            },
            {
              "internalType": "uint64",
              "name": "nonce",
              "type": "uint64"
            }
          ],
          "internalType": "struct Origin",
          "name": "_origin",
          "type": "tuple"
        },
        {
          "internalType": "bytes32",
          "name": "_guid",
          "type": "bytes32"
        },
        {
          "internalType": "bytes",
          "name": "_message",
          "type": "bytes"
        },
        {
          "internalType": "address",
          "name": "_executor",
          "type": "address"
        },
        {
          "internalType": "bytes",
          "name": "_extraData",
          "type": "bytes"
        }
      ],
      "name": "lzReceive",
      "outputs": [],
      "stateMutability": "payable",
      "type": "function"
    },
    {
      "inputs": [
        {
          "internalType": "address",
          "name": "to",
          "type": "address"
        },
        {
          "internalType": "uint256",
          "name": "amount",
          "type": "uint256"
        }
      ],
      "name": "mint",
      "outputs": [],
      "stateMutability": "nonpayable",
      "type": "function"
    },
    {
      "inputs": [],
      "name": "name",
      "outputs": [
        {
          "internalType": "string",
          "name": "",
          "type": "string"
        }
      ],
      "stateMutability": "view",
      "type": "function"
    },
    {
      "inputs": [
        {
          "internalType": "uint32",
          "name": "",
          "type": "uint32"
        },
        {
          "internalType": "bytes32",
          "name": "",
          "type": "bytes32"
        }
      ],
      "name": "nextNonce",
      "outputs": [
        {
          "internalType": "uint64",
          "name": "nonce",
          "type": "uint64"
        }
      ],
      "stateMutability": "view",
      "type": "function"
    },
    {
      "inputs": [
        {
          "internalType": "address",
          "name": "owner",
          "type": "address"
        }
      ],
      "name": "nonces",
      "outputs": [
        {
          "internalType": "uint256",
          "name": "",
          "type": "uint256"
        }
      ],
      "stateMutability": "view",
      "type": "function"
    },
    {
      "inputs": [],
      "name": "oAppVersion",
      "outputs": [
        {
          "internalType": "uint64",
          "name": "senderVersion",
          "type": "uint64"
        },
        {
          "internalType": "uint64",
          "name": "receiverVersion",
          "type": "uint64"
        }
      ],
      "stateMutability": "pure",
      "type": "function"
    },
    {
      "inputs": [],
      "name": "owner",
      "outputs": [
        {
          "internalType": "address",
          "name": "",
          "type": "address"
        }
      ],
      "stateMutability": "view",
      "type": "function"
    },
    {
      "inputs": [
        {
          "internalType": "uint32",
          "name": "eid",
          "type": "uint32"
        }
      ],
      "name": "peers",
      "outputs": [
        {
          "internalType": "bytes32",
          "name": "peer",
          "type": "bytes32"
        }
      ],
      "stateMutability": "view",
      "type": "function"
    },
    {
      "inputs": [
        {
          "internalType": "address",
          "name": "owner",
          "type": "address"
        },
        {
          "internalType": "address",
          "name": "spender",
          "type": "address"
        },
        {
          "internalType": "uint256",
          "name": "value",
          "type": "uint256"
        },
        {
          "internalType": "uint256",
          "name": "deadline",
          "type": "uint256"
        },
        {
          "internalType": "uint8",
          "name": "v",
          "type": "uint8"
        },
        {
          "internalType": "bytes32",
          "name": "r",
          "type": "bytes32"
        },
        {
          "internalType": "bytes32",
          "name": "s",
          "type": "bytes32"
        }
      ],
      "name": "permit",
      "outputs": [],
      "stateMutability": "nonpayable",
      "type": "function"
    },
    {
      "inputs": [],
      "name": "renounceOwnership",
      "outputs": [],
      "stateMutability": "nonpayable",
      "type": "function"
    },
    {
      "inputs": [
        {
          "internalType": "address",
          "name": "_delegate",
          "type": "address"
        }
      ],
      "name": "setDelegate",
      "outputs": [],
      "stateMutability": "nonpayable",
      "type": "function"
    },
    {
      "inputs": [
        {
          "internalType": "uint32",
          "name": "_eid",
          "type": "uint32"
        },
        {
          "internalType": "bytes32",
          "name": "_peer",
          "type": "bytes32"
        }
      ],
      "name": "setPeer",
      "outputs": [],
      "stateMutability": "nonpayable",
      "type": "function"
    },
    {
      "inputs": [],
      "name": "symbol",
      "outputs": [
        {
          "internalType": "string",
          "name": "",
          "type": "string"
        }
      ],
      "stateMutability": "view",
      "type": "function"
    },
    {
      "inputs": [],
      "name": "totalSupply",
      "outputs": [
        {
          "internalType": "uint256",
          "name": "",
          "type": "uint256"
        }
      ],
      "stateMutability": "view",
      "type": "function"
    },
    {
      "inputs": [
        {
          "internalType": "address",
          "name": "to",
          "type": "address"
        },
        {
          "internalType": "uint256",
          "name": "value",
          "type": "uint256"
        }
      ],
      "name": "transfer",
      "outputs": [
        {
          "internalType": "bool",
          "name": "",
          "type": "bool"
        }
      ],
      "stateMutability": "nonpayable",
      "type": "function"
    },
    {
      "inputs": [
        {
          "internalType": "address",
          "name": "from",
          "type": "address"
        },
        {
          "internalType": "address",
          "name": "to",
          "type": "address"
        },
        {
          "internalType": "uint256",
          "name": "value",
          "type": "uint256"
        }
      ],
      "name": "transferFrom",
      "outputs": [
        {
          "internalType": "bool",
          "name": "",
          "type": "bool"
        }
      ],
      "stateMutability": "nonpayable",
      "type": "function"
    },
    {
      "inputs": [
        {
          "internalType": "address",
          "name": "newOwner",
          "type": "address"
        }
      ],
      "name": "transferOwnership",
      "outputs": [],
      "stateMutability": "nonpayable",
      "type": "function"
    }
  ],
  "bytecode": "0x610180604052600a805463ffffffff1916619ce11790553480156200002357600080fd5b50604051806040016040528060078152602001661e9ad35c155cd960ca1b81525080604051806040016040528060018152602001603160f81b815250604051806040016040528060078152602001661e9ad35c155cd960ca1b815250604051806040016040528060078152602001661e9ad35c155cd960ca1b815250736edce65403992e310a62460808c4b910d972f10f3381813360006001600160a01b0316816001600160a01b031603620000f457604051631e4fbdf760e01b8152600060048201526024015b60405180910390fd5b620000ff8162000276565b506001600160a01b0380831660805281166200012e57604051632d618d8160e21b815260040160405180910390fd5b60805160405163ca5eb5e160e01b81526001600160a01b0383811660048301529091169063ca5eb5e190602401600060405180830381600087803b1580156200017657600080fd5b505af11580156200018b573d6000803e3d6000fd5b50505050505050508160059081620001a49190620003e9565b506006620001b38282620003e9565b50620001c591508390506007620002c6565b61014052620001d6816008620002c6565b61016052815160208084019190912061010052815190820120610120524660c052620002666101005161012051604080517f8b73c3c69bb8fe3d512ecc4cf759cc79239f7b179b0ffacaa9a75d522b39400f60208201529081019290925260608201524660808201523060a082015260009060c00160405160208183030381529060405280519060200120905090565b60a05250503060e052506200052b565b600080546001600160a01b038381166001600160a01b0319831681178455604051919092169283917f8be0079c531659141344cd1fd0a4f28419497f9722a3daafe3b4186f6b6457e09190a35050565b6000602083511015620002e657620002de83620002ff565b9050620002f9565b81620002f38482620003e9565b5060ff90505b92915050565b600080829050601f815111156200032d578260405163305a27a960e01b8152600401620000eb9190620004b5565b80516200033a8262000506565b179392505050565b634e487b7160e01b600052604160045260246000fd5b600181811c908216806200036d57607f821691505b6020821081036200038e57634e487b7160e01b600052602260045260246000fd5b50919050565b601f821115620003e4576000816000526020600020601f850160051c81016020861015620003bf5750805b601f850160051c820191505b81811015620003e057828155600101620003cb565b5050505b505050565b81516001600160401b0381111562000405576200040562000342565b6200041d8162000416845462000358565b8462000394565b602080601f8311600181146200045557600084156200043c5750858301515b600019600386901b1c1916600185901b178555620003e0565b600085815260208120601f198616915b82811015620004865788860151825594840194600190910190840162000465565b5085821015620004a55787850151600019600388901b60f8161c191681555b5050505050600190811b01905550565b60006020808352835180602085015260005b81811015620004e557858101830151858201604001528201620004c7565b506000604082860101526040601f19601f8301168501019250505092915050565b805160208083015191908110156200038e5760001960209190910360031b1b16919050565b60805160a05160c05160e051610100516101205161014051610160516118b46200059f6000396000610ec401526000610e9701526000610d8301526000610d5b01526000610cb601526000610ce001526000610d0a01526000818161036d015281816106d301526108ca01526118b46000f3fe6080604052600436106101cd5760003560e01c806379cc6790116100f7578063a9059cbb11610095578063dd62ed3e11610064578063dd62ed3e1461056d578063f2fde38b146105b3578063f7daa821146105d3578063ff7bd03d1461060557600080fd5b8063a9059cbb146104e0578063bb0b6a5314610500578063ca5eb5e11461052d578063d505accf1461054d57600080fd5b806382413eac116100d157806382413eac1461045657806384b0196e146104855780638da5cb5b146104ad57806395d89b41146104cb57600080fd5b806379cc6790146103da5780637d25a05e146103fa5780637ecebe001461043657600080fd5b80633400288b1161016f57806342966c681161013e57806342966c681461033b5780635e280f111461035b57806370a082311461038f578063715018a6146103c557600080fd5b80633400288b146102bf5780633644e515146102df57806338cc4831146102f457806340c10f191461031b57600080fd5b806317442b70116101ab57806317442b701461024257806318160ddd1461026457806323b872dd14610283578063313ce567146102a357600080fd5b806306fdde03146101d2578063095ea7b3146101fd57806313137d651461022d575b600080fd5b3480156101de57600080fd5b506101e7610625565b6040516101f49190611424565b60405180910390f35b34801561020957600080fd5b5061021d610218366004611453565b6106b7565b60405190151581526020016101f4565b61024061023b3660046114e0565b6106d1565b005b34801561024e57600080fd5b50604080516001815260026020820152016101f4565b34801561027057600080fd5b506004545b6040519081526020016101f4565b34801561028f57600080fd5b5061021d61029e366004611580565b610791565b3480156102af57600080fd5b50604051601281526020016101f4565b3480156102cb57600080fd5b506102406102da3660046115da565b6107b5565b3480156102eb57600080fd5b506102756107cb565b34801561030057600080fd5b50305b6040516001600160a01b0390911681526020016101f4565b34801561032757600080fd5b50610240610336366004611453565b6107da565b34801561034757600080fd5b506102406103563660046115f6565b6107ec565b34801561036757600080fd5b506103037f000000000000000000000000000000000000000000000000000000000000000081565b34801561039b57600080fd5b506102756103aa36600461160f565b6001600160a01b031660009081526002602052604090205490565b3480156103d157600080fd5b506102406107f9565b3480156103e657600080fd5b506102406103f5366004611453565b61080d565b34801561040657600080fd5b5061041d6104153660046115da565b600092915050565b60405167ffffffffffffffff90911681526020016101f4565b34801561044257600080fd5b5061027561045136600461160f565b610822565b34801561046257600080fd5b5061021d61047136600461162c565b6001600160a01b0381163014949350505050565b34801561049157600080fd5b5061049a610840565b6040516101f49796959493929190611693565b3480156104b957600080fd5b506000546001600160a01b0316610303565b3480156104d757600080fd5b506101e7610886565b3480156104ec57600080fd5b5061021d6104fb366004611453565b610895565b34801561050c57600080fd5b5061027561051b36600461172c565b60016020526000908152604090205481565b34801561053957600080fd5b5061024061054836600461160f565b6108a3565b34801561055957600080fd5b50610240610568366004611747565b610929565b34801561057957600080fd5b506102756105883660046117be565b6001600160a01b03918216600090815260036020908152604080832093909416825291909152205490565b3480156105bf57600080fd5b506102406105ce36600461160f565b610a63565b3480156105df57600080fd5b50600a546105f09063ffffffff1681565b60405163ffffffff90911681526020016101f4565b34801561061157600080fd5b5061021d6106203660046117f7565b610a9e565b60606005805461063490611813565b80601f016020809104026020016040519081016040528092919081815260200182805461066090611813565b80156106ad5780601f10610682576101008083540402835291602001916106ad565b820191906000526020600020905b81548152906001019060200180831161069057829003601f168201915b5050505050905090565b6000336106c5818585610ad4565b60019150505b92915050565b7f00000000000000000000000000000000000000000000000000000000000000006001600160a01b03163314610721576040516391ac5e4f60e01b81523360048201526024015b60405180910390fd5b6020870180359061073b90610736908a61172c565b610ae6565b146107795761074d602088018861172c565b60405163309afaf360e21b815263ffffffff909116600482015260208801356024820152604401610718565b61078887878787878787610b22565b50505050505050565b60003361079f858285610b4a565b6107aa858585610bc8565b506001949350505050565b6107bd610c27565b6107c78282610c54565b5050565b60006107d5610ca9565b905090565b6107e2610c27565b6107c78282610dd4565b6107f63382610e0a565b50565b610801610c27565b61080b6000610e40565b565b610818823383610b4a565b6107c78282610e0a565b6001600160a01b0381166000908152600960205260408120546106cb565b600060608060008060006060610854610e90565b61085c610ebd565b60408051600080825260208201909252600f60f81b9b939a50919850469750309650945092509050565b60606006805461063490611813565b6000336106c5818585610bc8565b6108ab610c27565b60405163ca5eb5e160e01b81526001600160a01b0382811660048301527f0000000000000000000000000000000000000000000000000000000000000000169063ca5eb5e190602401600060405180830381600087803b15801561090e57600080fd5b505af1158015610922573d6000803e3d6000fd5b5050505050565b8342111561094d5760405163313c898160e11b815260048101859052602401610718565b60007f6e71edae12b1b97f4d1f60370fef10105fa2faae0126114a169c64845d6126c988888861099a8c6001600160a01b0316600090815260096020526040902080546001810190915590565b6040805160208101969096526001600160a01b0394851690860152929091166060840152608083015260a082015260c0810186905260e00160405160208183030381529060405280519060200120905060006109f582610eea565b90506000610a0582878787610f17565b9050896001600160a01b0316816001600160a01b031614610a4c576040516325c0072360e11b81526001600160a01b0380831660048301528b166024820152604401610718565b610a578a8a8a610ad4565b50505050505050505050565b610a6b610c27565b6001600160a01b038116610a9557604051631e4fbdf760e01b815260006004820152602401610718565b6107f681610e40565b6000602082018035906001908390610ab6908661172c565b63ffffffff1681526020810191909152604001600020541492915050565b610ae18383836001610f45565b505050565b63ffffffff8116600090815260016020526040812054806106cb5760405163f6ff4fb760e01b815263ffffffff84166004820152602401610718565b600080610b3186880188611453565b91509150610b3f8282610dd4565b505050505050505050565b6001600160a01b038381166000908152600360209081526040808320938616835292905220546000198114610bc25781811015610bb357604051637dc7a0d960e11b81526001600160a01b03841660048201526024810182905260448101839052606401610718565b610bc284848484036000610f45565b50505050565b6001600160a01b038316610bf257604051634b637e8f60e11b815260006004820152602401610718565b6001600160a01b038216610c1c5760405163ec442f0560e01b815260006004820152602401610718565b610ae183838361101a565b6000546001600160a01b0316331461080b5760405163118cdaa760e01b8152336004820152602401610718565b63ffffffff8216600081815260016020908152604091829020849055815192835282018390527f238399d427b947898edb290f5ff0f9109849b1c3ba196a42e35f00c50a54b98b910160405180910390a15050565b6000306001600160a01b037f000000000000000000000000000000000000000000000000000000000000000016148015610d0257507f000000000000000000000000000000000000000000000000000000000000000046145b15610d2c57507f000000000000000000000000000000000000000000000000000000000000000090565b6107d5604080517f8b73c3c69bb8fe3d512ecc4cf759cc79239f7b179b0ffacaa9a75d522b39400f60208201527f0000000000000000000000000000000000000000000000000000000000000000918101919091527f000000000000000000000000000000000000000000000000000000000000000060608201524660808201523060a082015260009060c00160405160208183030381529060405280519060200120905090565b6001600160a01b038216610dfe5760405163ec442f0560e01b815260006004820152602401610718565b6107c76000838361101a565b6001600160a01b038216610e3457604051634b637e8f60e11b815260006004820152602401610718565b6107c78260008361101a565b600080546001600160a01b038381166001600160a01b0319831681178455604051919092169283917f8be0079c531659141344cd1fd0a4f28419497f9722a3daafe3b4186f6b6457e09190a35050565b60606107d57f00000000000000000000000000000000000000000000000000000000000000006007611144565b60606107d57f00000000000000000000000000000000000000000000000000000000000000006008611144565b60006106cb610ef7610ca9565b8360405161190160f01b8152600281019290925260228201526042902090565b600080600080610f29888888886111ef565b925092509250610f3982826112be565b50909695505050505050565b6001600160a01b038416610f6f5760405163e602df0560e01b815260006004820152602401610718565b6001600160a01b038316610f9957604051634a1406b160e11b815260006004820152602401610718565b6001600160a01b0380851660009081526003602090815260408083209387168352929052208290558015610bc257826001600160a01b0316846001600160a01b03167f8c5be1e5ebec7d5bd14f71427d1e84f3dd0314c0f7b2291e5b200ac8c7c3b9258460405161100c91815260200190565b60405180910390a350505050565b6001600160a01b03831661104557806004600082825461103a9190611847565b909155506110b79050565b6001600160a01b038316600090815260026020526040902054818110156110985760405163391434e360e21b81526001600160a01b03851660048201526024810182905260448101839052606401610718565b6001600160a01b03841660009081526002602052604090209082900390555b6001600160a01b0382166110d3576004805482900390556110f2565b6001600160a01b03821660009081526002602052604090208054820190555b816001600160a01b0316836001600160a01b03167fddf252ad1be2c89b69c2b068fc378daa952ba7f163c4a11628f55a4df523b3ef8360405161113791815260200190565b60405180910390a3505050565b606060ff831461115e5761115783611377565b90506106cb565b81805461116a90611813565b80601f016020809104026020016040519081016040528092919081815260200182805461119690611813565b80156111e35780601f106111b8576101008083540402835291602001916111e3565b820191906000526020600020905b8154815290600101906020018083116111c657829003601f168201915b505050505090506106cb565b600080807f7fffffffffffffffffffffffffffffff5d576e7357a4501ddfe92f46681b20a084111561122a57506000915060039050826112b4565b604080516000808252602082018084528a905260ff891692820192909252606081018790526080810186905260019060a0016020604051602081039080840390855afa15801561127e573d6000803e3d6000fd5b5050604051601f1901519150506001600160a01b0381166112aa575060009250600191508290506112b4565b9250600091508190505b9450945094915050565b60008260038111156112d2576112d2611868565b036112db575050565b60018260038111156112ef576112ef611868565b0361130d5760405163f645eedf60e01b815260040160405180910390fd5b600282600381111561132157611321611868565b036113425760405163fce698f760e01b815260048101829052602401610718565b600382600381111561135657611356611868565b036107c7576040516335e2f38360e21b815260048101829052602401610718565b60606000611384836113b6565b604080516020808252818301909252919250600091906020820181803683375050509182525060208101929092525090565b600060ff8216601f8111156106cb57604051632cd44ac360e21b815260040160405180910390fd5b6000815180845260005b81811015611404576020818501810151868301820152016113e8565b506000602082860101526020601f19601f83011685010191505092915050565b60208152600061143760208301846113de565b9392505050565b6001600160a01b03811681146107f657600080fd5b6000806040838503121561146657600080fd5b82356114718161143e565b946020939093013593505050565b60006060828403121561149157600080fd5b50919050565b60008083601f8401126114a957600080fd5b50813567ffffffffffffffff8111156114c157600080fd5b6020830191508360208285010111156114d957600080fd5b9250929050565b600080600080600080600060e0888a0312156114fb57600080fd5b611505898961147f565b965060608801359550608088013567ffffffffffffffff8082111561152957600080fd5b6115358b838c01611497565b909750955060a08a0135915061154a8261143e565b90935060c0890135908082111561156057600080fd5b5061156d8a828b01611497565b989b979a50959850939692959293505050565b60008060006060848603121561159557600080fd5b83356115a08161143e565b925060208401356115b08161143e565b929592945050506040919091013590565b803563ffffffff811681146115d557600080fd5b919050565b600080604083850312156115ed57600080fd5b611471836115c1565b60006020828403121561160857600080fd5b5035919050565b60006020828403121561162157600080fd5b81356114378161143e565b60008060008060a0858703121561164257600080fd5b61164c868661147f565b9350606085013567ffffffffffffffff81111561166857600080fd5b61167487828801611497565b90945092505060808501356116888161143e565b939692955090935050565b60ff60f81b881681526000602060e060208401526116b460e084018a6113de565b83810360408501526116c6818a6113de565b606085018990526001600160a01b038816608086015260a0850187905284810360c08601528551808252602080880193509091019060005b8181101561171a578351835292840192918401916001016116fe565b50909c9b505050505050505050505050565b60006020828403121561173e57600080fd5b611437826115c1565b600080600080600080600060e0888a03121561176257600080fd5b873561176d8161143e565b9650602088013561177d8161143e565b95506040880135945060608801359350608088013560ff811681146117a157600080fd5b9699959850939692959460a0840135945060c09093013592915050565b600080604083850312156117d157600080fd5b82356117dc8161143e565b915060208301356117ec8161143e565b809150509250929050565b60006060828403121561180957600080fd5b611437838361147f565b600181811c9082168061182757607f821691505b60208210810361149157634e487b7160e01b600052602260045260246000fd5b808201808211156106cb57634e487b7160e01b600052601160045260246000fd5b634e487b7160e01b600052602160045260246000fdfea26469706673582212206c7ac3dde18d5ad596b5b1c69da0926d87100d3931e7655a726066cec5ffba9564736f6c63430008180033",
  "linkReferences": {},
  "deployedLinkReferences": {}
}