{
  "_format": "hh-sol-artifact-1",
  "contractName": "astarZkL2AstarEvmEndpoint",
  "sourceName": "contracts/crossChain/astarZkL2AstarEvmEndpoint.sol",
  "abi": [
    {
      "inputs": [],
      "stateMutability": "nonpayable",
      "type": "constructor"
    },
    {
      "inputs": [],
      "name": "InvalidDelegate",
      "type": "error"
    },
    {
      "inputs": [],
      "name": "InvalidEndpointCall",
      "type": "error"
    },
    {
      "inputs": [],
      "name": "LzTokenUnavailable",
      "type": "error"
    },
    {
      "inputs": [
        {
          "internalType": "uint32",
          "name": "eid",
          "type": "uint32"
        }
      ],
      "name": "NoPeer",
      "type": "error"
    },
    {
      "inputs": [
        {
          "internalType": "uint256",
          "name": "msgValue",
          "type": "uint256"
        }
      ],
      "name": "NotEnoughNative",
      "type": "error"
    },
    {
      "inputs": [
        {
          "internalType": "address",
          "name": "addr",
          "type": "address"
        }
      ],
      "name": "OnlyEndpoint",
      "type": "error"
    },
    {
      "inputs": [
        {
          "internalType": "uint32",
          "name": "eid",
          "type": "uint32"
        },
        {
          "internalType": "bytes32",
          "name": "sender",
          "type": "bytes32"
        }
      ],
      "name": "OnlyPeer",
      "type": "error"
    },
    {
      "inputs": [
        {
          "internalType": "address",
          "name": "owner",
          "type": "address"
        }
      ],
      "name": "OwnableInvalidOwner",
      "type": "error"
    },
    {
      "inputs": [
        {
          "internalType": "address",
          "name": "account",
          "type": "address"
        }
      ],
      "name": "OwnableUnauthorizedAccount",
      "type": "error"
    },
    {
      "anonymous": false,
      "inputs": [
        {
          "indexed": true,
          "internalType": "address",
          "name": "previousOwner",
          "type": "address"
        },
        {
          "indexed": true,
          "internalType": "address",
          "name": "newOwner",
          "type": "address"
        }
      ],
      "name": "OwnershipTransferred",
      "type": "event"
    },
    {
      "anonymous": false,
      "inputs": [
        {
          "indexed": false,
          "internalType": "uint32",
          "name": "eid",
          "type": "uint32"
        },
        {
          "indexed": false,
          "internalType": "bytes32",
          "name": "peer",
          "type": "bytes32"
        }
      ],
      "name": "PeerSet",
      "type": "event"
    },
    {
      "inputs": [],
      "name": "ASTAR_EVM_SHIBUYA_EID",
      "outputs": [
        {
          "internalType": "uint32",
          "name": "",
          "type": "uint32"
        }
      ],
      "stateMutability": "view",
      "type": "function"
    },
    {
      "inputs": [],
      "name": "ZK_L2_ASTAR_USD_ADDRESS",
      "outputs": [
        {
          "internalType": "address",
          "name": "",
          "type": "address"
        }
      ],
      "stateMutability": "view",
      "type": "function"
    },
    {
      "inputs": [
        {
          "components": [
            {
              "internalType": "uint32",
              "name": "srcEid",
              "type": "uint32"
            },
            {
              "internalType": "bytes32",
              "name": "sender",
              "type": "bytes32"
            },
            {
              "internalType": "uint64",
              "name": "nonce",
              "type": "uint64"
            }
          ],
          "internalType": "struct Origin",
          "name": "origin",
          "type": "tuple"
        }
      ],
      "name": "allowInitializePath",
      "outputs": [
        {
          "internalType": "bool",
          "name": "",
          "type": "bool"
        }
      ],
      "stateMutability": "view",
      "type": "function"
    },
    {
      "inputs": [
        {
          "internalType": "uint256",
          "name": "paramStablecoinQuantityToBridge",
          "type": "uint256"
        }
      ],
      "name": "bridgeBackStablecoin",
      "outputs": [],
      "stateMutability": "payable",
      "type": "function"
    },
    {
      "inputs": [],
      "name": "endpoint",
      "outputs": [
        {
          "internalType": "contract ILayerZeroEndpointV2",
          "name": "",
          "type": "address"
        }
      ],
      "stateMutability": "view",
      "type": "function"
    },
    {
      "inputs": [
        {
          "components": [
            {
              "internalType": "uint32",
              "name": "srcEid",
              "type": "uint32"
            },
            {
              "internalType": "bytes32",
              "name": "sender",
              "type": "bytes32"
            },
            {
              "internalType": "uint64",
              "name": "nonce",
              "type": "uint64"
            }
          ],
          "internalType": "struct Origin",
          "name": "",
          "type": "tuple"
        },
        {
          "internalType": "bytes",
          "name": "",
          "type": "bytes"
        },
        {
          "internalType": "address",
          "name": "_sender",
          "type": "address"
        }
      ],
      "name": "isComposeMsgSender",
      "outputs": [
        {
          "internalType": "bool",
          "name": "",
          "type": "bool"
        }
      ],
      "stateMutability": "view",
      "type": "function"
    },
    {
      "inputs": [
        {
          "components": [
            {
              "internalType": "uint32",
              "name": "srcEid",
              "type": "uint32"
            },
            {
              "internalType": "bytes32",
              "name": "sender",
              "type": "bytes32"
            },
            {
              "internalType": "uint64",
              "name": "nonce",
              "type": "uint64"
            }
          ],
          "internalType": "struct Origin",
          "name": "_origin",
          "type": "tuple"
        },
        {
          "internalType": "bytes32",
          "name": "_guid",
          "type": "bytes32"
        },
        {
          "internalType": "bytes",
          "name": "_message",
          "type": "bytes"
        },
        {
          "internalType": "address",
          "name": "_executor",
          "type": "address"
        },
        {
          "internalType": "bytes",
          "name": "_extraData",
          "type": "bytes"
        }
      ],
      "name": "lzReceive",
      "outputs": [],
      "stateMutability": "payable",
      "type": "function"
    },
    {
      "inputs": [
        {
          "internalType": "uint32",
          "name": "",
          "type": "uint32"
        },
        {
          "internalType": "bytes32",
          "name": "",
          "type": "bytes32"
        }
      ],
      "name": "nextNonce",
      "outputs": [
        {
          "internalType": "uint64",
          "name": "nonce",
          "type": "uint64"
        }
      ],
      "stateMutability": "view",
      "type": "function"
    },
    {
      "inputs": [],
      "name": "oAppVersion",
      "outputs": [
        {
          "internalType": "uint64",
          "name": "senderVersion",
          "type": "uint64"
        },
        {
          "internalType": "uint64",
          "name": "receiverVersion",
          "type": "uint64"
        }
      ],
      "stateMutability": "pure",
      "type": "function"
    },
    {
      "inputs": [],
      "name": "owner",
      "outputs": [
        {
          "internalType": "address",
          "name": "",
          "type": "address"
        }
      ],
      "stateMutability": "view",
      "type": "function"
    },
    {
      "inputs": [
        {
          "internalType": "uint32",
          "name": "eid",
          "type": "uint32"
        }
      ],
      "name": "peers",
      "outputs": [
        {
          "internalType": "bytes32",
          "name": "peer",
          "type": "bytes32"
        }
      ],
      "stateMutability": "view",
      "type": "function"
    },
    {
      "inputs": [],
      "name": "renounceOwnership",
      "outputs": [],
      "stateMutability": "nonpayable",
      "type": "function"
    },
    {
      "inputs": [
        {
          "internalType": "address",
          "name": "_delegate",
          "type": "address"
        }
      ],
      "name": "setDelegate",
      "outputs": [],
      "stateMutability": "nonpayable",
      "type": "function"
    },
    {
      "inputs": [
        {
          "internalType": "uint32",
          "name": "_eid",
          "type": "uint32"
        },
        {
          "internalType": "bytes32",
          "name": "_peer",
          "type": "bytes32"
        }
      ],
      "name": "setPeer",
      "outputs": [],
      "stateMutability": "nonpayable",
      "type": "function"
    },
    {
      "inputs": [
        {
          "internalType": "address",
          "name": "paramZkL2AstarUsdAddress",
          "type": "address"
        }
      ],
      "name": "setZkL2AstarUsd",
      "outputs": [],
      "stateMutability": "nonpayable",
      "type": "function"
    },
    {
      "inputs": [
        {
          "internalType": "address",
          "name": "newOwner",
          "type": "address"
        }
      ],
      "name": "transferOwnership",
      "outputs": [],
      "stateMutability": "nonpayable",
      "type": "function"
    }
  ],
  "bytecode": "0x60a06040526002805463ffffffff1916619d1217905534801561002157600080fd5b50736edce65403992e310a62460808c4b910d972f10f338181808061006057604051631e4fbdf760e01b81526000600482015260240160405180910390fd5b610069816100ff565b506001600160a01b03808316608052811661009757604051632d618d8160e21b815260040160405180910390fd5b60805160405163ca5eb5e160e01b81526001600160a01b0383811660048301529091169063ca5eb5e190602401600060405180830381600087803b1580156100de57600080fd5b505af11580156100f2573d6000803e3d6000fd5b505050505050505061014f565b600080546001600160a01b038381166001600160a01b0319831681178455604051919092169283917f8be0079c531659141344cd1fd0a4f28419497f9722a3daafe3b4186f6b6457e09190a35050565b6080516109ed610178600039600081816101a6015281816103ab01526104ba01526109ed6000f3fe6080604052600436106100f35760003560e01c806382413eac1161008a578063ca5eb5e111610059578063ca5eb5e114610329578063dbb717b614610349578063f2fde38b14610369578063ff7bd03d1461038957600080fd5b806382413eac1461024b5780638da5cb5b1461028a578063a74dd6be146102a8578063bb0b6a53146102ee57600080fd5b80635e280f11116100c65780635e280f11146101945780636bd2a75c146101c8578063715018a6146101fa5780637d25a05e1461020f57600080fd5b806313137d65146100f857806317442b701461010d5780633400288b1461013457806349b558f014610154575b600080fd5b61010b6101063660046107db565b6103a9565b005b34801561011957600080fd5b50604080516001815260026020820152015b60405180910390f35b34801561014057600080fd5b5061010b61014f366004610894565b610469565b34801561016057600080fd5b5060025461017c9064010000000090046001600160a01b031681565b6040516001600160a01b03909116815260200161012b565b3480156101a057600080fd5b5061017c7f000000000000000000000000000000000000000000000000000000000000000081565b3480156101d457600080fd5b506002546101e59063ffffffff1681565b60405163ffffffff909116815260200161012b565b34801561020657600080fd5b5061010b61047f565b34801561021b57600080fd5b5061023261022a366004610894565b600092915050565b60405167ffffffffffffffff909116815260200161012b565b34801561025757600080fd5b5061027a6102663660046108be565b6001600160a01b0381163014949350505050565b604051901515815260200161012b565b34801561029657600080fd5b506000546001600160a01b031661017c565b61010b6102b6366004610925565b5060408051808201909152601e81527f4553544f20444520415155492045532050415241205155454d41524c4f2e0000602090910152565b3480156102fa57600080fd5b5061031b61030936600461093e565b60016020526000908152604090205481565b60405190815260200161012b565b34801561033557600080fd5b5061010b610344366004610960565b610493565b34801561035557600080fd5b5061010b610364366004610960565b610519565b34801561037557600080fd5b5061010b610384366004610960565b61054f565b34801561039557600080fd5b5061027a6103a436600461097d565b61058d565b7f00000000000000000000000000000000000000000000000000000000000000006001600160a01b031633146103f9576040516391ac5e4f60e01b81523360048201526024015b60405180910390fd5b602087018035906104139061040e908a61093e565b6105c3565b1461045157610425602088018861093e565b60405163309afaf360e21b815263ffffffff9091166004820152602088013560248201526044016103f0565b61046087878787878787610605565b50505050505050565b610471610693565b61047b82826106c0565b5050565b610487610693565b6104916000610715565b565b61049b610693565b60405163ca5eb5e160e01b81526001600160a01b0382811660048301527f0000000000000000000000000000000000000000000000000000000000000000169063ca5eb5e190602401600060405180830381600087803b1580156104fe57600080fd5b505af1158015610512573d6000803e3d6000fd5b5050505050565b610521610693565b600280546001600160a01b0390921664010000000002640100000000600160c01b0319909216919091179055565b610557610693565b6001600160a01b03811661058157604051631e4fbdf760e01b8152600060048201526024016103f0565b61058a81610715565b50565b60006020820180359060019083906105a5908661093e565b63ffffffff1681526020810191909152604001600020541492915050565b63ffffffff8116600090815260016020526040812054806105ff5760405163f6ff4fb760e01b815263ffffffff841660048201526024016103f0565b92915050565b60008061061486880188610999565b6002546040516340c10f1960e01b81526001600160a01b038085166004830152602482018490529395509193506401000000009004909116906340c10f1990604401600060405180830381600087803b15801561067057600080fd5b505af1158015610684573d6000803e3d6000fd5b50505050505050505050505050565b6000546001600160a01b031633146104915760405163118cdaa760e01b81523360048201526024016103f0565b63ffffffff8216600081815260016020908152604091829020849055815192835282018390527f238399d427b947898edb290f5ff0f9109849b1c3ba196a42e35f00c50a54b98b910160405180910390a15050565b600080546001600160a01b038381166001600160a01b0319831681178455604051919092169283917f8be0079c531659141344cd1fd0a4f28419497f9722a3daafe3b4186f6b6457e09190a35050565b60006060828403121561077757600080fd5b50919050565b60008083601f84011261078f57600080fd5b50813567ffffffffffffffff8111156107a757600080fd5b6020830191508360208285010111156107bf57600080fd5b9250929050565b6001600160a01b038116811461058a57600080fd5b600080600080600080600060e0888a0312156107f657600080fd5b6108008989610765565b965060608801359550608088013567ffffffffffffffff8082111561082457600080fd5b6108308b838c0161077d565b909750955060a08a01359150610845826107c6565b90935060c0890135908082111561085b57600080fd5b506108688a828b0161077d565b989b979a50959850939692959293505050565b803563ffffffff8116811461088f57600080fd5b919050565b600080604083850312156108a757600080fd5b6108b08361087b565b946020939093013593505050565b60008060008060a085870312156108d457600080fd5b6108de8686610765565b9350606085013567ffffffffffffffff8111156108fa57600080fd5b6109068782880161077d565b909450925050608085013561091a816107c6565b939692955090935050565b60006020828403121561093757600080fd5b5035919050565b60006020828403121561095057600080fd5b6109598261087b565b9392505050565b60006020828403121561097257600080fd5b8135610959816107c6565b60006060828403121561098f57600080fd5b6109598383610765565b600080604083850312156109ac57600080fd5b82356108b0816107c656fea2646970667358221220b5c96f17da8dda0d685bedb556dbd1a7fa7b1f3c43307ef273151303ec095bcd64736f6c63430008180033",
  "linkReferences": {},
  "deployedLinkReferences": {}
}