{
  "_format": "hh-sol-artifact-1",
  "contractName": "astarEvm",
  "sourceName": "contracts/OTHER/layerZeroTests/astarEvm.sol",
  "abi": [
    {
      "inputs": [],
      "stateMutability": "nonpayable",
      "type": "constructor"
    },
    {
      "inputs": [
        {
          "internalType": "address",
          "name": "target",
          "type": "address"
        }
      ],
      "name": "AddressEmptyCode",
      "type": "error"
    },
    {
      "inputs": [
        {
          "internalType": "address",
          "name": "account",
          "type": "address"
        }
      ],
      "name": "AddressInsufficientBalance",
      "type": "error"
    },
    {
      "inputs": [],
      "name": "FailedInnerCall",
      "type": "error"
    },
    {
      "inputs": [],
      "name": "InvalidDelegate",
      "type": "error"
    },
    {
      "inputs": [],
      "name": "InvalidEndpointCall",
      "type": "error"
    },
    {
      "inputs": [
        {
          "internalType": "uint16",
          "name": "optionType",
          "type": "uint16"
        }
      ],
      "name": "InvalidOptionType",
      "type": "error"
    },
    {
      "inputs": [],
      "name": "LzTokenUnavailable",
      "type": "error"
    },
    {
      "inputs": [
        {
          "internalType": "uint32",
          "name": "eid",
          "type": "uint32"
        }
      ],
      "name": "NoPeer",
      "type": "error"
    },
    {
      "inputs": [
        {
          "internalType": "uint256",
          "name": "msgValue",
          "type": "uint256"
        }
      ],
      "name": "NotEnoughNative",
      "type": "error"
    },
    {
      "inputs": [
        {
          "internalType": "address",
          "name": "addr",
          "type": "address"
        }
      ],
      "name": "OnlyEndpoint",
      "type": "error"
    },
    {
      "inputs": [
        {
          "internalType": "uint32",
          "name": "eid",
          "type": "uint32"
        },
        {
          "internalType": "bytes32",
          "name": "sender",
          "type": "bytes32"
        }
      ],
      "name": "OnlyPeer",
      "type": "error"
    },
    {
      "inputs": [
        {
          "internalType": "address",
          "name": "owner",
          "type": "address"
        }
      ],
      "name": "OwnableInvalidOwner",
      "type": "error"
    },
    {
      "inputs": [
        {
          "internalType": "address",
          "name": "account",
          "type": "address"
        }
      ],
      "name": "OwnableUnauthorizedAccount",
      "type": "error"
    },
    {
      "inputs": [
        {
          "internalType": "uint8",
          "name": "bits",
          "type": "uint8"
        },
        {
          "internalType": "uint256",
          "name": "value",
          "type": "uint256"
        }
      ],
      "name": "SafeCastOverflowedUintDowncast",
      "type": "error"
    },
    {
      "inputs": [
        {
          "internalType": "address",
          "name": "token",
          "type": "address"
        }
      ],
      "name": "SafeERC20FailedOperation",
      "type": "error"
    },
    {
      "anonymous": false,
      "inputs": [
        {
          "indexed": true,
          "internalType": "address",
          "name": "previousOwner",
          "type": "address"
        },
        {
          "indexed": true,
          "internalType": "address",
          "name": "newOwner",
          "type": "address"
        }
      ],
      "name": "OwnershipTransferred",
      "type": "event"
    },
    {
      "anonymous": false,
      "inputs": [
        {
          "indexed": false,
          "internalType": "uint32",
          "name": "eid",
          "type": "uint32"
        },
        {
          "indexed": false,
          "internalType": "bytes32",
          "name": "peer",
          "type": "bytes32"
        }
      ],
      "name": "PeerSet",
      "type": "event"
    },
    {
      "inputs": [
        {
          "components": [
            {
              "internalType": "uint32",
              "name": "srcEid",
              "type": "uint32"
            },
            {
              "internalType": "bytes32",
              "name": "sender",
              "type": "bytes32"
            },
            {
              "internalType": "uint64",
              "name": "nonce",
              "type": "uint64"
            }
          ],
          "internalType": "struct Origin",
          "name": "origin",
          "type": "tuple"
        }
      ],
      "name": "allowInitializePath",
      "outputs": [
        {
          "internalType": "bool",
          "name": "",
          "type": "bool"
        }
      ],
      "stateMutability": "view",
      "type": "function"
    },
    {
      "inputs": [],
      "name": "data",
      "outputs": [
        {
          "internalType": "string",
          "name": "",
          "type": "string"
        }
      ],
      "stateMutability": "view",
      "type": "function"
    },
    {
      "inputs": [],
      "name": "endpoint",
      "outputs": [
        {
          "internalType": "contract ILayerZeroEndpointV2",
          "name": "",
          "type": "address"
        }
      ],
      "stateMutability": "view",
      "type": "function"
    },
    {
      "inputs": [
        {
          "components": [
            {
              "internalType": "uint32",
              "name": "srcEid",
              "type": "uint32"
            },
            {
              "internalType": "bytes32",
              "name": "sender",
              "type": "bytes32"
            },
            {
              "internalType": "uint64",
              "name": "nonce",
              "type": "uint64"
            }
          ],
          "internalType": "struct Origin",
          "name": "",
          "type": "tuple"
        },
        {
          "internalType": "bytes",
          "name": "",
          "type": "bytes"
        },
        {
          "internalType": "address",
          "name": "_sender",
          "type": "address"
        }
      ],
      "name": "isComposeMsgSender",
      "outputs": [
        {
          "internalType": "bool",
          "name": "",
          "type": "bool"
        }
      ],
      "stateMutability": "view",
      "type": "function"
    },
    {
      "inputs": [
        {
          "components": [
            {
              "internalType": "uint32",
              "name": "srcEid",
              "type": "uint32"
            },
            {
              "internalType": "bytes32",
              "name": "sender",
              "type": "bytes32"
            },
            {
              "internalType": "uint64",
              "name": "nonce",
              "type": "uint64"
            }
          ],
          "internalType": "struct Origin",
          "name": "_origin",
          "type": "tuple"
        },
        {
          "internalType": "bytes32",
          "name": "_guid",
          "type": "bytes32"
        },
        {
          "internalType": "bytes",
          "name": "_message",
          "type": "bytes"
        },
        {
          "internalType": "address",
          "name": "_executor",
          "type": "address"
        },
        {
          "internalType": "bytes",
          "name": "_extraData",
          "type": "bytes"
        }
      ],
      "name": "lzReceive",
      "outputs": [],
      "stateMutability": "payable",
      "type": "function"
    },
    {
      "inputs": [
        {
          "internalType": "uint32",
          "name": "",
          "type": "uint32"
        },
        {
          "internalType": "bytes32",
          "name": "",
          "type": "bytes32"
        }
      ],
      "name": "nextNonce",
      "outputs": [
        {
          "internalType": "uint64",
          "name": "nonce",
          "type": "uint64"
        }
      ],
      "stateMutability": "view",
      "type": "function"
    },
    {
      "inputs": [],
      "name": "oAppVersion",
      "outputs": [
        {
          "internalType": "uint64",
          "name": "senderVersion",
          "type": "uint64"
        },
        {
          "internalType": "uint64",
          "name": "receiverVersion",
          "type": "uint64"
        }
      ],
      "stateMutability": "pure",
      "type": "function"
    },
    {
      "inputs": [],
      "name": "owner",
      "outputs": [
        {
          "internalType": "address",
          "name": "",
          "type": "address"
        }
      ],
      "stateMutability": "view",
      "type": "function"
    },
    {
      "inputs": [
        {
          "internalType": "uint32",
          "name": "eid",
          "type": "uint32"
        }
      ],
      "name": "peers",
      "outputs": [
        {
          "internalType": "bytes32",
          "name": "peer",
          "type": "bytes32"
        }
      ],
      "stateMutability": "view",
      "type": "function"
    },
    {
      "inputs": [],
      "name": "renounceOwnership",
      "outputs": [],
      "stateMutability": "nonpayable",
      "type": "function"
    },
    {
      "inputs": [
        {
          "internalType": "uint32",
          "name": "_dstEid",
          "type": "uint32"
        },
        {
          "internalType": "string",
          "name": "_message",
          "type": "string"
        }
      ],
      "name": "send",
      "outputs": [],
      "stateMutability": "payable",
      "type": "function"
    },
    {
      "inputs": [
        {
          "internalType": "address",
          "name": "_delegate",
          "type": "address"
        }
      ],
      "name": "setDelegate",
      "outputs": [],
      "stateMutability": "nonpayable",
      "type": "function"
    },
    {
      "inputs": [
        {
          "internalType": "uint32",
          "name": "_eid",
          "type": "uint32"
        },
        {
          "internalType": "bytes32",
          "name": "_peer",
          "type": "bytes32"
        }
      ],
      "name": "setPeer",
      "outputs": [],
      "stateMutability": "nonpayable",
      "type": "function"
    },
    {
      "inputs": [
        {
          "internalType": "address",
          "name": "newOwner",
          "type": "address"
        }
      ],
      "name": "transferOwnership",
      "outputs": [],
      "stateMutability": "nonpayable",
      "type": "function"
    }
  ],
  "bytecode": "0x60a060405234801561001057600080fd5b50736edce65403992e310a62460808c4b910d972f10f338181808061004f57604051631e4fbdf760e01b81526000600482015260240160405180910390fd5b610058816100ee565b506001600160a01b03808316608052811661008657604051632d618d8160e21b815260040160405180910390fd5b60805160405163ca5eb5e160e01b81526001600160a01b0383811660048301529091169063ca5eb5e190602401600060405180830381600087803b1580156100cd57600080fd5b505af11580156100e1573d6000803e3d6000fd5b505050505050505061013e565b600080546001600160a01b038381166001600160a01b0319831681178455604051919092169283917f8be0079c531659141344cd1fd0a4f28419497f9722a3daafe3b4186f6b6457e09190a35050565b6080516114c461017c6000396000818161015001528181610307015281816104ad015281816107cd01528181610a3c0152610af501526114c46000f3fe6080604052600436106100dd5760003560e01c806382413eac1161007f578063ca5eb5e111610059578063ca5eb5e114610292578063d3a3bedd146102b2578063f2fde38b146102c5578063ff7bd03d146102e557600080fd5b806382413eac146101fa5780638da5cb5b14610239578063bb0b6a531461025757600080fd5b80635e280f11116100bb5780635e280f111461013e578063715018a61461018a57806373d4a13a1461019f5780637d25a05e146101c157600080fd5b806313137d65146100e257806317442b70146100f75780633400288b1461011e575b600080fd5b6100f56100f0366004610dd6565b610305565b005b34801561010357600080fd5b50604080516001815260026020820152015b60405180910390f35b34801561012a57600080fd5b506100f5610139366004610e8f565b6103c5565b34801561014a57600080fd5b506101727f000000000000000000000000000000000000000000000000000000000000000081565b6040516001600160a01b039091168152602001610115565b34801561019657600080fd5b506100f56103db565b3480156101ab57600080fd5b506101b46103ef565b6040516101159190610f09565b3480156101cd57600080fd5b506101e16101dc366004610e8f565b61047d565b60405167ffffffffffffffff9091168152602001610115565b34801561020657600080fd5b50610229610215366004610f1c565b6001600160a01b0381163014949350505050565b6040519015158152602001610115565b34801561024557600080fd5b506000546001600160a01b0316610172565b34801561026357600080fd5b50610284610272366004610f83565b60016020526000908152604090205481565b604051908152602001610115565b34801561029e57600080fd5b506100f56102ad366004610f9e565b610486565b6100f56102c0366004611087565b61050c565b3480156102d157600080fd5b506100f56102e0366004610f9e565b61058b565b3480156102f157600080fd5b506102296103003660046110d5565b6105c9565b7f00000000000000000000000000000000000000000000000000000000000000006001600160a01b03163314610355576040516391ac5e4f60e01b81523360048201526024015b60405180910390fd5b6020870180359061036f9061036a908a610f83565b6105ff565b146103ad576103816020880188610f83565b60405163309afaf360e21b815263ffffffff90911660048201526020880135602482015260440161034c565b6103bc8787878787878761063b565b50505050505050565b6103cd61065e565b6103d7828261068b565b5050565b6103e361065e565b6103ed60006106e0565b565b600280546103fc906110f1565b80601f0160208091040260200160405190810160405280929190818152602001828054610428906110f1565b80156104755780601f1061044a57610100808354040283529160200191610475565b820191906000526020600020905b81548152906001019060200180831161045857829003601f168201915b505050505081565b60005b92915050565b61048e61065e565b60405163ca5eb5e160e01b81526001600160a01b0382811660048301527f0000000000000000000000000000000000000000000000000000000000000000169063ca5eb5e190602401600060405180830381600087803b1580156104f157600080fd5b505af1158015610505573d6000803e3d6000fd5b5050505050565b60006105476000620493e0600061053f60408051600360f01b602082015281516002818303018152602290910190915290565b929190610730565b905060008260405160200161055c9190610f09565b60408051601f19818403018152828201909152348252600060208301529150610505908590839085903361079a565b61059361065e565b6001600160a01b0381166105bd57604051631e4fbdf760e01b81526000600482015260240161034c565b6105c6816106e0565b50565b60006020820180359060019083906105e19086610f83565b63ffffffff1681526020810191909152604001600020541492915050565b63ffffffff8116600090815260016020526040812054806104805760405163f6ff4fb760e01b815263ffffffff8416600482015260240161034c565b61064784860186611125565b60029061065490826111b2565b5050505050505050565b6000546001600160a01b031633146103ed5760405163118cdaa760e01b815233600482015260240161034c565b63ffffffff8216600081815260016020908152604091829020849055815192835282018390527f238399d427b947898edb290f5ff0f9109849b1c3ba196a42e35f00c50a54b98b910160405180910390a15050565b600080546001600160a01b038381166001600160a01b0319831681178455604051919092169283917f8be0079c531659141344cd1fd0a4f28419497f9722a3daafe3b4186f6b6457e09190a35050565b606084600361074082600061089a565b61ffff16146107745761075481600061089a565b604051633a51740d60e01b815261ffff909116600482015260240161034c565b60006107818686866108f7565b905061078f876003836109a5565b979650505050505050565b6107a2610d18565b60006107b18460000151610a10565b6020850151909150156107cb576107cb8460200151610a38565b7f00000000000000000000000000000000000000000000000000000000000000006001600160a01b0316632637a450826040518060a001604052808b63ffffffff16815260200161081b8c6105ff565b81526020018a815260200189815260200160008960200151111515815250866040518463ffffffff1660e01b8152600401610857929190611272565b60806040518083038185885af1158015610875573d6000803e3d6000fd5b50505050506040513d601f19601f8201168201806040525081019061078f91906112eb565b60006108a7826002611397565b835110156108ee5760405162461bcd60e51b8152602060048201526014602482015273746f55696e7431365f6f75744f66426f756e647360601b604482015260640161034c565b50016002015190565b60606fffffffffffffffffffffffffffffffff82161561095d576040516001600160f01b031960f086901b1660208201526001600160801b0319608085811b8216602284015284901b16603282015260420160405160208183030381529060405261099b565b6040516001600160f01b031960f086901b1660208201526001600160801b0319608085901b1660228201526032016040516020818303038152906040525b90505b9392505050565b60608360036109b582600061089a565b61ffff16146109c95761075481600061089a565b8460016109d68551610b1a565b6109e19060016113aa565b86866040516020016109f79594939291906113cc565b6040516020818303038152906040529150509392505050565b6000813414610a34576040516304fb820960e51b815234600482015260240161034c565b5090565b60007f00000000000000000000000000000000000000000000000000000000000000006001600160a01b031663e4fe1d946040518163ffffffff1660e01b8152600401602060405180830381865afa158015610a98573d6000803e3d6000fd5b505050506040513d601f19601f82011682018060405250810190610abc9190611433565b90506001600160a01b038116610ae5576040516329b99a9560e11b815260040160405180910390fd5b6103d76001600160a01b038216337f000000000000000000000000000000000000000000000000000000000000000085610b49565b600061ffff821115610a34576040516306dfcc6560e41b8152601060048201526024810183905260440161034c565b604080516001600160a01b0385811660248301528416604482015260648082018490528251808303909101815260849091019091526020810180516001600160e01b03166323b872dd60e01b179052610ba3908590610ba9565b50505050565b6000610bbe6001600160a01b03841683610c11565b90508051600014158015610be3575080806020019051810190610be19190611450565b155b15610c0c57604051635274afe760e01b81526001600160a01b038416600482015260240161034c565b505050565b606061099e8383600084600080856001600160a01b03168486604051610c379190611472565b60006040518083038185875af1925050503d8060008114610c74576040519150601f19603f3d011682016040523d82523d6000602084013e610c79565b606091505b5091509150610c89868383610c93565b9695505050505050565b606082610ca857610ca382610cef565b61099e565b8151158015610cbf57506001600160a01b0384163b155b15610ce857604051639996b31560e01b81526001600160a01b038516600482015260240161034c565b508061099e565b805115610cff5780518082602001fd5b604051630a12f52160e11b815260040160405180910390fd5b604051806060016040528060008019168152602001600067ffffffffffffffff168152602001610d5b604051806040016040528060008152602001600081525090565b905290565b600060608284031215610d7257600080fd5b50919050565b60008083601f840112610d8a57600080fd5b50813567ffffffffffffffff811115610da257600080fd5b602083019150836020828501011115610dba57600080fd5b9250929050565b6001600160a01b03811681146105c657600080fd5b600080600080600080600060e0888a031215610df157600080fd5b610dfb8989610d60565b965060608801359550608088013567ffffffffffffffff80821115610e1f57600080fd5b610e2b8b838c01610d78565b909750955060a08a01359150610e4082610dc1565b90935060c08901359080821115610e5657600080fd5b50610e638a828b01610d78565b989b979a50959850939692959293505050565b803563ffffffff81168114610e8a57600080fd5b919050565b60008060408385031215610ea257600080fd5b610eab83610e76565b946020939093013593505050565b60005b83811015610ed4578181015183820152602001610ebc565b50506000910152565b60008151808452610ef5816020860160208601610eb9565b601f01601f19169290920160200192915050565b60208152600061099e6020830184610edd565b60008060008060a08587031215610f3257600080fd5b610f3c8686610d60565b9350606085013567ffffffffffffffff811115610f5857600080fd5b610f6487828801610d78565b9094509250506080850135610f7881610dc1565b939692955090935050565b600060208284031215610f9557600080fd5b61099e82610e76565b600060208284031215610fb057600080fd5b813561099e81610dc1565b634e487b7160e01b600052604160045260246000fd5b6040805190810167ffffffffffffffff81118282101715610ff457610ff4610fbb565b60405290565b600082601f83011261100b57600080fd5b813567ffffffffffffffff8082111561102657611026610fbb565b604051601f8301601f19908116603f0116810190828211818310171561104e5761104e610fbb565b8160405283815286602085880101111561106757600080fd5b836020870160208301376000602085830101528094505050505092915050565b6000806040838503121561109a57600080fd5b6110a383610e76565b9150602083013567ffffffffffffffff8111156110bf57600080fd5b6110cb85828601610ffa565b9150509250929050565b6000606082840312156110e757600080fd5b61099e8383610d60565b600181811c9082168061110557607f821691505b602082108103610d7257634e487b7160e01b600052602260045260246000fd5b60006020828403121561113757600080fd5b813567ffffffffffffffff81111561114e57600080fd5b61115a84828501610ffa565b949350505050565b601f821115610c0c576000816000526020600020601f850160051c8101602086101561118b5750805b601f850160051c820191505b818110156111aa57828155600101611197565b505050505050565b815167ffffffffffffffff8111156111cc576111cc610fbb565b6111e0816111da84546110f1565b84611162565b602080601f83116001811461121557600084156111fd5750858301515b600019600386901b1c1916600185901b1785556111aa565b600085815260208120601f198616915b8281101561124457888601518255948401946001909101908401611225565b50858210156112625787850151600019600388901b60f8161c191681555b5050505050600190811b01905550565b6040815263ffffffff8351166040820152602083015160608201526000604084015160a060808401526112a860e0840182610edd565b90506060850151603f198483030160a08501526112c58282610edd565b60809690960151151560c08501525050506001600160a01b039190911660209091015290565b600081830360808112156112fe57600080fd5b6040516060810167ffffffffffffffff828210818311171561132257611322610fbb565b816040528551835260208601519150808216821461133f57600080fd5b5060208201526040603f198301121561135757600080fd5b61135f610fd1565b6040858101518252606090950151602082015293810193909352509092915050565b634e487b7160e01b600052601160045260246000fd5b8082018082111561048057610480611381565b61ffff8181168382160190808211156113c5576113c5611381565b5092915050565b600086516113de818460208b01610eb9565b6001600160f81b031960f888811b82169285019283526001600160f01b031960f089901b16600184015286901b1660038201528351611424816004840160208801610eb9565b01600401979650505050505050565b60006020828403121561144557600080fd5b815161099e81610dc1565b60006020828403121561146257600080fd5b8151801515811461099e57600080fd5b60008251611484818460208701610eb9565b919091019291505056fea26469706673582212202cba2b12c7a3b07a1628ef7662c460d0f2cc01c8b3d64eb5d8f28db367fd0a4c64736f6c63430008180033",
  "linkReferences": {},
  "deployedLinkReferences": {}
}