{
  "_format": "hh-sol-artifact-1",
  "contractName": "liquidAstr",
  "sourceName": "contracts/astar/NASTR.sol",
  "abi": [
    {
      "inputs": [
        {
          "internalType": "string",
          "name": "_tokenName",
          "type": "string"
        },
        {
          "internalType": "uint8",
          "name": "_decimalUnits",
          "type": "uint8"
        },
        {
          "internalType": "string",
          "name": "_tokenSymbol",
          "type": "string"
        }
      ],
      "stateMutability": "nonpayable",
      "type": "constructor"
    },
    {
      "anonymous": false,
      "inputs": [
        {
          "indexed": true,
          "internalType": "address",
          "name": "_owner",
          "type": "address"
        },
        {
          "indexed": true,
          "internalType": "address",
          "name": "_spender",
          "type": "address"
        },
        {
          "indexed": false,
          "internalType": "uint256",
          "name": "_value",
          "type": "uint256"
        }
      ],
      "name": "Approval",
      "type": "event"
    },
    {
      "anonymous": false,
      "inputs": [
        {
          "indexed": true,
          "internalType": "address",
          "name": "owner",
          "type": "address"
        },
        {
          "indexed": true,
          "internalType": "address",
          "name": "grantedOwner",
          "type": "address"
        }
      ],
      "name": "OwnershipTransferred",
      "type": "event"
    },
    {
      "anonymous": false,
      "inputs": [
        {
          "indexed": true,
          "internalType": "bytes32",
          "name": "role",
          "type": "bytes32"
        },
        {
          "indexed": true,
          "internalType": "address",
          "name": "account",
          "type": "address"
        },
        {
          "indexed": true,
          "internalType": "address",
          "name": "sender",
          "type": "address"
        }
      ],
      "name": "RoleGranted",
      "type": "event"
    },
    {
      "anonymous": false,
      "inputs": [
        {
          "indexed": true,
          "internalType": "address",
          "name": "_from",
          "type": "address"
        },
        {
          "indexed": true,
          "internalType": "address",
          "name": "_to",
          "type": "address"
        },
        {
          "indexed": false,
          "internalType": "uint256",
          "name": "_value",
          "type": "uint256"
        }
      ],
      "name": "Transfer",
      "type": "event"
    },
    {
      "inputs": [],
      "name": "DEFAULT_ADMIN_ROLE",
      "outputs": [
        {
          "internalType": "bytes32",
          "name": "",
          "type": "bytes32"
        }
      ],
      "stateMutability": "view",
      "type": "function"
    },
    {
      "inputs": [],
      "name": "DISTR_ROLE",
      "outputs": [
        {
          "internalType": "bytes32",
          "name": "",
          "type": "bytes32"
        }
      ],
      "stateMutability": "view",
      "type": "function"
    },
    {
      "inputs": [],
      "name": "MULTITEST_ROLE",
      "outputs": [
        {
          "internalType": "bytes32",
          "name": "",
          "type": "bytes32"
        }
      ],
      "stateMutability": "view",
      "type": "function"
    },
    {
      "inputs": [],
      "name": "OWNER_ROLE",
      "outputs": [
        {
          "internalType": "bytes32",
          "name": "",
          "type": "bytes32"
        }
      ],
      "stateMutability": "view",
      "type": "function"
    },
    {
      "inputs": [
        {
          "internalType": "address",
          "name": "_owner",
          "type": "address"
        },
        {
          "internalType": "address",
          "name": "_spender",
          "type": "address"
        }
      ],
      "name": "allowance",
      "outputs": [
        {
          "internalType": "uint256",
          "name": "remaining",
          "type": "uint256"
        }
      ],
      "stateMutability": "view",
      "type": "function"
    },
    {
      "inputs": [
        {
          "internalType": "address",
          "name": "",
          "type": "address"
        },
        {
          "internalType": "address",
          "name": "",
          "type": "address"
        }
      ],
      "name": "allowed",
      "outputs": [
        {
          "internalType": "uint256",
          "name": "",
          "type": "uint256"
        }
      ],
      "stateMutability": "view",
      "type": "function"
    },
    {
      "inputs": [
        {
          "internalType": "address",
          "name": "_spender",
          "type": "address"
        },
        {
          "internalType": "uint256",
          "name": "_value",
          "type": "uint256"
        }
      ],
      "name": "approve",
      "outputs": [
        {
          "internalType": "bool",
          "name": "success",
          "type": "bool"
        }
      ],
      "stateMutability": "nonpayable",
      "type": "function"
    },
    {
      "inputs": [
        {
          "internalType": "address",
          "name": "_owner",
          "type": "address"
        }
      ],
      "name": "balanceOf",
      "outputs": [
        {
          "internalType": "uint256",
          "name": "balance",
          "type": "uint256"
        }
      ],
      "stateMutability": "view",
      "type": "function"
    },
    {
      "inputs": [
        {
          "internalType": "address",
          "name": "",
          "type": "address"
        }
      ],
      "name": "balances",
      "outputs": [
        {
          "internalType": "uint256",
          "name": "",
          "type": "uint256"
        }
      ],
      "stateMutability": "view",
      "type": "function"
    },
    {
      "inputs": [],
      "name": "claimOwnership",
      "outputs": [],
      "stateMutability": "nonpayable",
      "type": "function"
    },
    {
      "inputs": [],
      "name": "decimals",
      "outputs": [
        {
          "internalType": "uint8",
          "name": "",
          "type": "uint8"
        }
      ],
      "stateMutability": "view",
      "type": "function"
    },
    {
      "inputs": [],
      "name": "distributor",
      "outputs": [
        {
          "internalType": "address",
          "name": "",
          "type": "address"
        }
      ],
      "stateMutability": "view",
      "type": "function"
    },
    {
      "inputs": [
        {
          "internalType": "bytes32",
          "name": "role",
          "type": "bytes32"
        }
      ],
      "name": "getRoleAdmin",
      "outputs": [
        {
          "internalType": "bytes32",
          "name": "",
          "type": "bytes32"
        }
      ],
      "stateMutability": "view",
      "type": "function"
    },
    {
      "inputs": [
        {
          "internalType": "address",
          "name": "_newOwner",
          "type": "address"
        }
      ],
      "name": "grantOwnership",
      "outputs": [],
      "stateMutability": "nonpayable",
      "type": "function"
    },
    {
      "inputs": [
        {
          "internalType": "bytes32",
          "name": "role",
          "type": "bytes32"
        },
        {
          "internalType": "address",
          "name": "account",
          "type": "address"
        }
      ],
      "name": "hasRole",
      "outputs": [
        {
          "internalType": "bool",
          "name": "",
          "type": "bool"
        }
      ],
      "stateMutability": "view",
      "type": "function"
    },
    {
      "inputs": [],
      "name": "name",
      "outputs": [
        {
          "internalType": "string",
          "name": "",
          "type": "string"
        }
      ],
      "stateMutability": "view",
      "type": "function"
    },
    {
      "inputs": [],
      "name": "owner",
      "outputs": [
        {
          "internalType": "address",
          "name": "",
          "type": "address"
        }
      ],
      "stateMutability": "view",
      "type": "function"
    },
    {
      "inputs": [],
      "name": "symbol",
      "outputs": [
        {
          "internalType": "string",
          "name": "",
          "type": "string"
        }
      ],
      "stateMutability": "view",
      "type": "function"
    },
    {
      "inputs": [],
      "name": "totalSupply",
      "outputs": [
        {
          "internalType": "uint256",
          "name": "",
          "type": "uint256"
        }
      ],
      "stateMutability": "view",
      "type": "function"
    },
    {
      "inputs": [
        {
          "internalType": "address",
          "name": "_to",
          "type": "address"
        },
        {
          "internalType": "uint256",
          "name": "_value",
          "type": "uint256"
        }
      ],
      "name": "transfer",
      "outputs": [
        {
          "internalType": "bool",
          "name": "success",
          "type": "bool"
        }
      ],
      "stateMutability": "nonpayable",
      "type": "function"
    },
    {
      "inputs": [
        {
          "internalType": "address",
          "name": "_from",
          "type": "address"
        },
        {
          "internalType": "address",
          "name": "_to",
          "type": "address"
        },
        {
          "internalType": "uint256",
          "name": "_value",
          "type": "uint256"
        }
      ],
      "name": "transferFrom",
      "outputs": [
        {
          "internalType": "bool",
          "name": "success",
          "type": "bool"
        }
      ],
      "stateMutability": "nonpayable",
      "type": "function"
    }
  ],
  "bytecode": "0x60806040523480156200001157600080fd5b50604051620011f8380380620011f883398101604081905262000034916200013e565b828282828282600362000048848262000253565b506004805460ff191660ff8416179055600562000066828262000253565b505050505050505050506200031f565b634e487b7160e01b600052604160045260246000fd5b600082601f8301126200009e57600080fd5b81516001600160401b0380821115620000bb57620000bb62000076565b604051601f8301601f19908116603f01168101908282118183101715620000e657620000e662000076565b81604052838152602092508660208588010111156200010457600080fd5b600091505b8382101562000128578582018301518183018401529082019062000109565b6000602085830101528094505050505092915050565b6000806000606084860312156200015457600080fd5b83516001600160401b03808211156200016c57600080fd5b6200017a878388016200008c565b94506020860151915060ff821682146200019357600080fd5b604086015191935080821115620001a957600080fd5b50620001b8868287016200008c565b9150509250925092565b600181811c90821680620001d757607f821691505b602082108103620001f857634e487b7160e01b600052602260045260246000fd5b50919050565b601f8211156200024e576000816000526020600020601f850160051c81016020861015620002295750805b601f850160051c820191505b818110156200024a5782815560010162000235565b5050505b505050565b81516001600160401b038111156200026f576200026f62000076565b6200028781620002808454620001c2565b84620001fe565b602080601f831160018114620002bf5760008415620002a65750858301515b600019600386901b1c1916600185901b1785556200024a565b600085815260208120601f198616915b82811015620002f057888601518255948401946001909101908401620002cf565b50858210156200030f5787850151600019600388901b60f8161c191681555b5050505050600190811b01905550565b610ec9806200032f6000396000f3fe608060405234801561001057600080fd5b50600436106101375760003560e01c806370a08231116100b8578063a217fddf1161007c578063a217fddf146102fb578063a9059cbb14610303578063acfd82f214610316578063bfe1092814610329578063dd62ed3e1461033c578063e58378bb1461037557600080fd5b806370a08231146102655780638b2e930f1461028e5780638da5cb5b146102b557806391d14854146102e057806395d89b41146102f357600080fd5b806327e235e3116100ff57806327e235e3146101ca578063313ce567146101ea5780634e71e0c8146102095780635c658165146102135780636f4857e61461023e57600080fd5b806306fdde031461013c578063095ea7b31461015a57806318160ddd1461017d57806323b872dd14610194578063248a9ca3146101a7575b600080fd5b61014461039c565b6040516101519190610c0f565b60405180910390f35b61016d610168366004610c5e565b61042a565b6040519015158152602001610151565b61018660025481565b604051908152602001610151565b61016d6101a2366004610c88565b610497565b6101866101b5366004610cc4565b6000908152600b602052604090206001015490565b6101866101d8366004610cdd565b60006020819052908152604090205481565b6004546101f79060ff1681565b60405160ff9091168152602001610151565b61021161063a565b005b610186610221366004610cf8565b600160209081526000928352604080842090915290825290205481565b6101867f327a00c64405af2ff7e2d7d552c6d2c2ebef2845ae37c513d95011f3094533a681565b610186610273366004610cdd565b6001600160a01b031660009081526020819052604090205490565b6101867f4763bb9af0c3e47e903ac56d30c54c16318477624628abb6d055e5c8e0397e4981565b6007546102c8906001600160a01b031681565b6040516001600160a01b039091168152602001610151565b61016d6102ee366004610d2b565b61071b565b610144610746565b610186600081565b61016d610311366004610c5e565b610753565b610211610324366004610cdd565b610858565b6006546102c8906001600160a01b031681565b61018661034a366004610cf8565b6001600160a01b03918216600090815260016020908152604080832093909416825291909152205490565b6101867fb19546dff01e856fb3f010c267a7b1c60363cf8a4664e21cc89c26224620214e81565b600380546103a990610d4e565b80601f01602080910402602001604051908101604052809291908181526020018280546103d590610d4e565b80156104225780601f106103f757610100808354040283529160200191610422565b820191906000526020600020905b81548152906001019060200180831161040557829003601f168201915b505050505081565b3360008181526001602090815260408083206001600160a01b038716808552925280832085905551919290917f8c5be1e5ebec7d5bd14f71427d1e84f3dd0314c0f7b2291e5b200ac8c7c3b925906104859086815260200190565b60405180910390a35060015b92915050565b6001600160a01b03831660008181526001602090815260408083203384528252808320549383529082905281205490919083118015906104d75750828110155b61054e5760405162461bcd60e51b815260206004820152603960248201527f746f6b656e2062616c616e6365206f7220616c6c6f77616e6365206973206c6f60448201527f776572207468616e20616d6f756e74207265717565737465640000000000000060648201526084015b60405180910390fd5b6001600160a01b03841660009081526020819052604081208054859290610576908490610d9e565b90915550506001600160a01b038516600090815260208190526040812080548592906105a3908490610db1565b90915550506001600160a01b0385166000908152600160209081526040808320338452909152812080548592906105db908490610db1565b92505081905550836001600160a01b0316856001600160a01b03167fddf252ad1be2c89b69c2b068fc378daa952ba7f163c4a11628f55a4df523b3ef8560405161062791815260200190565b60405180910390a3506001949350505050565b6008546001600160a01b031633146106945760405162461bcd60e51b815260206004820152601f60248201527f43616c6c6572206973206e6f7420746865206772616e746564206f776e6572006044820152606401610545565b6007546106ac906000906001600160a01b0316610930565b6008546106c4906000906001600160a01b031661096e565b60088054600780546001600160a01b0383166001600160a01b03199182168117909255909116909155604051600091907f8be0079c531659141344cd1fd0a4f28419497f9722a3daafe3b4186f6b6457e0908390a3565b6000918252600b602090815260408084206001600160a01b0393909316845291905290205460ff1690565b600580546103a990610d4e565b336000908152602081905260408120548211156107ca5760405162461bcd60e51b815260206004820152602f60248201527f746f6b656e2062616c616e6365206973206c6f776572207468616e207468652060448201526e1d985b1d59481c995c5d595cdd1959608a1b6064820152608401610545565b33600090815260208190526040812080548492906107e9908490610db1565b90915550506001600160a01b03831660009081526020819052604081208054849290610816908490610d9e565b90915550506040518281526001600160a01b0384169033907fddf252ad1be2c89b69c2b068fc378daa952ba7f163c4a11628f55a4df523b3ef90602001610485565b6000610863816109d7565b6001600160a01b0382166108af5760405162461bcd60e51b81526020600482015260136024820152725a65726f206164647265737320616c61726d2160681b6044820152606401610545565b6007546001600160a01b039081169083160361090d5760405162461bcd60e51b815260206004820152601c60248201527f547279696e6720746f20736574207468652073616d65206f776e6572000000006044820152606401610545565b50600880546001600160a01b0319166001600160a01b0392909216919091179055565b61093a828261071b565b1561096a576000828152600b602090815260408083206001600160a01b03851684529091529020805460ff191690555b5050565b610978828261071b565b61096a576000828152600b602090815260408083206001600160a01b0385168085529252808320805460ff1916600117905551339285917f2f8788117e7eff1d82e926ec794901d17c78024a50270940304540a733656f0d9190a45050565b6109e181336109e4565b50565b6109ee828261071b565b61096a57610a06816001600160a01b03166014610a48565b610a11836020610a48565b604051602001610a22929190610dc4565b60408051601f198184030181529082905262461bcd60e51b825261054591600401610c0f565b60606000610a57836002610e39565b610a62906002610d9e565b67ffffffffffffffff811115610a7a57610a7a610e50565b6040519080825280601f01601f191660200182016040528015610aa4576020820181803683370190505b509050600360fc1b81600081518110610abf57610abf610e66565b60200101906001600160f81b031916908160001a905350600f60fb1b81600181518110610aee57610aee610e66565b60200101906001600160f81b031916908160001a9053506000610b12846002610e39565b610b1d906001610d9e565b90505b6001811115610b95576f181899199a1a9b1b9c1cb0b131b232b360811b85600f1660108110610b5157610b51610e66565b1a60f81b828281518110610b6757610b67610e66565b60200101906001600160f81b031916908160001a90535060049490941c93610b8e81610e7c565b9050610b20565b508315610be45760405162461bcd60e51b815260206004820181905260248201527f537472696e67733a20686578206c656e67746820696e73756666696369656e746044820152606401610545565b9392505050565b60005b83811015610c06578181015183820152602001610bee565b50506000910152565b6020815260008251806020840152610c2e816040850160208701610beb565b601f01601f19169190910160400192915050565b80356001600160a01b0381168114610c5957600080fd5b919050565b60008060408385031215610c7157600080fd5b610c7a83610c42565b946020939093013593505050565b600080600060608486031215610c9d57600080fd5b610ca684610c42565b9250610cb460208501610c42565b9150604084013590509250925092565b600060208284031215610cd657600080fd5b5035919050565b600060208284031215610cef57600080fd5b610be482610c42565b60008060408385031215610d0b57600080fd5b610d1483610c42565b9150610d2260208401610c42565b90509250929050565b60008060408385031215610d3e57600080fd5b82359150610d2260208401610c42565b600181811c90821680610d6257607f821691505b602082108103610d8257634e487b7160e01b600052602260045260246000fd5b50919050565b634e487b7160e01b600052601160045260246000fd5b8082018082111561049157610491610d88565b8181038181111561049157610491610d88565b7f416363657373436f6e74726f6c3a206163636f756e7420000000000000000000815260008351610dfc816017850160208801610beb565b7001034b99036b4b9b9b4b733903937b6329607d1b6017918401918201528351610e2d816028840160208801610beb565b01602801949350505050565b808202811582820484141761049157610491610d88565b634e487b7160e01b600052604160045260246000fd5b634e487b7160e01b600052603260045260246000fd5b600081610e8b57610e8b610d88565b50600019019056fea2646970667358221220e3de8f35df738b00ea813c436cf22d6217defdf9f03fab745bc83ecd8963d9bb64736f6c63430008180033",
  "linkReferences": {},
  "deployedLinkReferences": {}
}