{
  "_format": "hh-sol-artifact-1",
  "contractName": "NASTR",
  "sourceName": "contracts/astar/NASTR.sol",
  "abi": [
    {
      "inputs": [],
      "stateMutability": "nonpayable",
      "type": "constructor"
    },
    {
      "anonymous": false,
      "inputs": [
        {
          "indexed": true,
          "internalType": "address",
          "name": "_owner",
          "type": "address"
        },
        {
          "indexed": true,
          "internalType": "address",
          "name": "_spender",
          "type": "address"
        },
        {
          "indexed": false,
          "internalType": "uint256",
          "name": "_value",
          "type": "uint256"
        }
      ],
      "name": "Approval",
      "type": "event"
    },
    {
      "anonymous": false,
      "inputs": [
        {
          "indexed": true,
          "internalType": "address",
          "name": "owner",
          "type": "address"
        },
        {
          "indexed": true,
          "internalType": "address",
          "name": "grantedOwner",
          "type": "address"
        }
      ],
      "name": "OwnershipTransferred",
      "type": "event"
    },
    {
      "anonymous": false,
      "inputs": [
        {
          "indexed": true,
          "internalType": "bytes32",
          "name": "role",
          "type": "bytes32"
        },
        {
          "indexed": true,
          "internalType": "address",
          "name": "account",
          "type": "address"
        },
        {
          "indexed": true,
          "internalType": "address",
          "name": "sender",
          "type": "address"
        }
      ],
      "name": "RoleGranted",
      "type": "event"
    },
    {
      "anonymous": false,
      "inputs": [
        {
          "indexed": true,
          "internalType": "address",
          "name": "_from",
          "type": "address"
        },
        {
          "indexed": true,
          "internalType": "address",
          "name": "_to",
          "type": "address"
        },
        {
          "indexed": false,
          "internalType": "uint256",
          "name": "_value",
          "type": "uint256"
        }
      ],
      "name": "Transfer",
      "type": "event"
    },
    {
      "inputs": [],
      "name": "DEFAULT_ADMIN_ROLE",
      "outputs": [
        {
          "internalType": "bytes32",
          "name": "",
          "type": "bytes32"
        }
      ],
      "stateMutability": "view",
      "type": "function"
    },
    {
      "inputs": [],
      "name": "DISTR_ROLE",
      "outputs": [
        {
          "internalType": "bytes32",
          "name": "",
          "type": "bytes32"
        }
      ],
      "stateMutability": "view",
      "type": "function"
    },
    {
      "inputs": [],
      "name": "MULTITEST_ROLE",
      "outputs": [
        {
          "internalType": "bytes32",
          "name": "",
          "type": "bytes32"
        }
      ],
      "stateMutability": "view",
      "type": "function"
    },
    {
      "inputs": [],
      "name": "OWNER_ROLE",
      "outputs": [
        {
          "internalType": "bytes32",
          "name": "",
          "type": "bytes32"
        }
      ],
      "stateMutability": "view",
      "type": "function"
    },
    {
      "inputs": [
        {
          "internalType": "address",
          "name": "_owner",
          "type": "address"
        },
        {
          "internalType": "address",
          "name": "_spender",
          "type": "address"
        }
      ],
      "name": "allowance",
      "outputs": [
        {
          "internalType": "uint256",
          "name": "remaining",
          "type": "uint256"
        }
      ],
      "stateMutability": "view",
      "type": "function"
    },
    {
      "inputs": [
        {
          "internalType": "address",
          "name": "",
          "type": "address"
        },
        {
          "internalType": "address",
          "name": "",
          "type": "address"
        }
      ],
      "name": "allowed",
      "outputs": [
        {
          "internalType": "uint256",
          "name": "",
          "type": "uint256"
        }
      ],
      "stateMutability": "view",
      "type": "function"
    },
    {
      "inputs": [
        {
          "internalType": "address",
          "name": "_spender",
          "type": "address"
        },
        {
          "internalType": "uint256",
          "name": "_value",
          "type": "uint256"
        }
      ],
      "name": "approve",
      "outputs": [
        {
          "internalType": "bool",
          "name": "success",
          "type": "bool"
        }
      ],
      "stateMutability": "nonpayable",
      "type": "function"
    },
    {
      "inputs": [
        {
          "internalType": "address",
          "name": "_owner",
          "type": "address"
        }
      ],
      "name": "balanceOf",
      "outputs": [
        {
          "internalType": "uint256",
          "name": "balance",
          "type": "uint256"
        }
      ],
      "stateMutability": "view",
      "type": "function"
    },
    {
      "inputs": [
        {
          "internalType": "address",
          "name": "",
          "type": "address"
        }
      ],
      "name": "balances",
      "outputs": [
        {
          "internalType": "uint256",
          "name": "",
          "type": "uint256"
        }
      ],
      "stateMutability": "view",
      "type": "function"
    },
    {
      "inputs": [
        {
          "internalType": "address",
          "name": "account",
          "type": "address"
        },
        {
          "internalType": "uint256",
          "name": "amount",
          "type": "uint256"
        },
        {
          "internalType": "string",
          "name": "utility",
          "type": "string"
        }
      ],
      "name": "burnNote",
      "outputs": [],
      "stateMutability": "nonpayable",
      "type": "function"
    },
    {
      "inputs": [],
      "name": "claimOwnership",
      "outputs": [],
      "stateMutability": "nonpayable",
      "type": "function"
    },
    {
      "inputs": [],
      "name": "decimals",
      "outputs": [
        {
          "internalType": "uint8",
          "name": "",
          "type": "uint8"
        }
      ],
      "stateMutability": "view",
      "type": "function"
    },
    {
      "inputs": [],
      "name": "distributor",
      "outputs": [
        {
          "internalType": "address",
          "name": "",
          "type": "address"
        }
      ],
      "stateMutability": "view",
      "type": "function"
    },
    {
      "inputs": [
        {
          "internalType": "bytes32",
          "name": "role",
          "type": "bytes32"
        }
      ],
      "name": "getRoleAdmin",
      "outputs": [
        {
          "internalType": "bytes32",
          "name": "",
          "type": "bytes32"
        }
      ],
      "stateMutability": "view",
      "type": "function"
    },
    {
      "inputs": [
        {
          "internalType": "address",
          "name": "_newOwner",
          "type": "address"
        }
      ],
      "name": "grantOwnership",
      "outputs": [],
      "stateMutability": "nonpayable",
      "type": "function"
    },
    {
      "inputs": [
        {
          "internalType": "bytes32",
          "name": "role",
          "type": "bytes32"
        },
        {
          "internalType": "address",
          "name": "account",
          "type": "address"
        }
      ],
      "name": "hasRole",
      "outputs": [
        {
          "internalType": "bool",
          "name": "",
          "type": "bool"
        }
      ],
      "stateMutability": "view",
      "type": "function"
    },
    {
      "inputs": [
        {
          "internalType": "address",
          "name": "_distributor",
          "type": "address"
        }
      ],
      "name": "initialize",
      "outputs": [],
      "stateMutability": "nonpayable",
      "type": "function"
    },
    {
      "inputs": [
        {
          "internalType": "address",
          "name": "to",
          "type": "address"
        },
        {
          "internalType": "uint256",
          "name": "amount",
          "type": "uint256"
        },
        {
          "internalType": "string",
          "name": "utility",
          "type": "string"
        }
      ],
      "name": "mintNote",
      "outputs": [],
      "stateMutability": "nonpayable",
      "type": "function"
    },
    {
      "inputs": [],
      "name": "name",
      "outputs": [
        {
          "internalType": "string",
          "name": "",
          "type": "string"
        }
      ],
      "stateMutability": "view",
      "type": "function"
    },
    {
      "inputs": [],
      "name": "owner",
      "outputs": [
        {
          "internalType": "address",
          "name": "",
          "type": "address"
        }
      ],
      "stateMutability": "view",
      "type": "function"
    },
    {
      "inputs": [],
      "name": "symbol",
      "outputs": [
        {
          "internalType": "string",
          "name": "",
          "type": "string"
        }
      ],
      "stateMutability": "view",
      "type": "function"
    },
    {
      "inputs": [],
      "name": "totalSupply",
      "outputs": [
        {
          "internalType": "uint256",
          "name": "",
          "type": "uint256"
        }
      ],
      "stateMutability": "view",
      "type": "function"
    },
    {
      "inputs": [
        {
          "internalType": "address",
          "name": "_to",
          "type": "address"
        },
        {
          "internalType": "uint256",
          "name": "_value",
          "type": "uint256"
        }
      ],
      "name": "transfer",
      "outputs": [
        {
          "internalType": "bool",
          "name": "success",
          "type": "bool"
        }
      ],
      "stateMutability": "nonpayable",
      "type": "function"
    },
    {
      "inputs": [
        {
          "internalType": "address",
          "name": "_from",
          "type": "address"
        },
        {
          "internalType": "address",
          "name": "_to",
          "type": "address"
        },
        {
          "internalType": "uint256",
          "name": "_value",
          "type": "uint256"
        }
      ],
      "name": "transferFrom",
      "outputs": [
        {
          "internalType": "bool",
          "name": "success",
          "type": "bool"
        }
      ],
      "stateMutability": "nonpayable",
      "type": "function"
    }
  ],
  "bytecode": "0x60806040523480156200001157600080fd5b50604051806040016040528060058152602001643720b9ba3960d91b8152506012604051806040016040528060058152602001643720b9ba3960d91b81525082828282828282600390816200006791906200013c565b506004805460ff191660ff841617905560056200008582826200013c565b5050505050505050505062000208565b634e487b7160e01b600052604160045260246000fd5b600181811c90821680620000c057607f821691505b602082108103620000e157634e487b7160e01b600052602260045260246000fd5b50919050565b601f82111562000137576000816000526020600020601f850160051c81016020861015620001125750805b601f850160051c820191505b8181101562000133578281556001016200011e565b5050505b505050565b81516001600160401b0381111562000158576200015862000095565b6200017081620001698454620000ab565b84620000e7565b602080601f831160018114620001a857600084156200018f5750858301515b600019600386901b1c1916600185901b17855562000133565b600085815260208120601f198616915b82811015620001d957888601518255948401946001909101908401620001b8565b5085821015620001f85787850151600019600388901b60f8161c191681555b5050505050600190811b01905550565b6112e680620002186000396000f3fe608060405234801561001057600080fd5b50600436106101585760003560e01c80638b2e930f116100c3578063acfd82f21161007c578063acfd82f214610338578063bfe109281461034b578063c4d66de81461035e578063d9626eaa14610371578063dd62ed3e14610384578063e58378bb146103bd57600080fd5b80638b2e930f146102c25780638da5cb5b146102d757806391d148541461030257806395d89b4114610315578063a217fddf1461031d578063a9059cbb1461032557600080fd5b8063313ce56711610115578063313ce5671461020b5780634e71e0c81461022a5780635c32e019146102345780635c658165146102475780636f4857e61461027257806370a082311461029957600080fd5b806306fdde031461015d578063095ea7b31461017b57806318160ddd1461019e57806323b872dd146101b5578063248a9ca3146101c857806327e235e3146101eb575b600080fd5b6101656103e4565b6040516101729190610e30565b60405180910390f35b61018e610189366004610e7f565b610472565b6040519015158152602001610172565b6101a760025481565b604051908152602001610172565b61018e6101c3366004610ea9565b6104df565b6101a76101d6366004610ee5565b6000908152600b602052604090206001015490565b6101a76101f9366004610efe565b60006020819052908152604090205481565b6004546102189060ff1681565b60405160ff9091168152602001610172565b610232610682565b005b610232610242366004610f2f565b610763565b6101a7610255366004610ffa565b600160209081526000928352604080842090915290825290205481565b6101a77f327a00c64405af2ff7e2d7d552c6d2c2ebef2845ae37c513d95011f3094533a681565b6101a76102a7366004610efe565b6001600160a01b031660009081526020819052604090205490565b6101a760008051602061129183398151915281565b6007546102ea906001600160a01b031681565b6040516001600160a01b039091168152602001610172565b61018e61031036600461102d565b6107ba565b6101656107e5565b6101a7600081565b61018e610333366004610e7f565b6107f2565b610232610346366004610efe565b6108f7565b6006546102ea906001600160a01b031681565b61023261036c366004610efe565b6109cf565b61023261037f366004610f2f565b610a86565b6101a7610392366004610ffa565b6001600160a01b03918216600090815260016020908152604080832093909416825291909152205490565b6101a77fb19546dff01e856fb3f010c267a7b1c60363cf8a4664e21cc89c26224620214e81565b600380546103f190611050565b80601f016020809104026020016040519081016040528092919081815260200182805461041d90611050565b801561046a5780601f1061043f5761010080835404028352916020019161046a565b820191906000526020600020905b81548152906001019060200180831161044d57829003601f168201915b505050505081565b3360008181526001602090815260408083206001600160a01b038716808552925280832085905551919290917f8c5be1e5ebec7d5bd14f71427d1e84f3dd0314c0f7b2291e5b200ac8c7c3b925906104cd9086815260200190565b60405180910390a35060015b92915050565b6001600160a01b038316600081815260016020908152604080832033845282528083205493835290829052812054909190831180159061051f5750828110155b6105965760405162461bcd60e51b815260206004820152603960248201527f746f6b656e2062616c616e6365206f7220616c6c6f77616e6365206973206c6f60448201527f776572207468616e20616d6f756e74207265717565737465640000000000000060648201526084015b60405180910390fd5b6001600160a01b038416600090815260208190526040812080548592906105be9084906110a0565b90915550506001600160a01b038516600090815260208190526040812080548592906105eb9084906110b3565b90915550506001600160a01b0385166000908152600160209081526040808320338452909152812080548592906106239084906110b3565b92505081905550836001600160a01b0316856001600160a01b03167fddf252ad1be2c89b69c2b068fc378daa952ba7f163c4a11628f55a4df523b3ef8560405161066f91815260200190565b60405180910390a3506001949350505050565b6008546001600160a01b031633146106dc5760405162461bcd60e51b815260206004820152601f60248201527f43616c6c6572206973206e6f7420746865206772616e746564206f776e657200604482015260640161058d565b6007546106f4906000906001600160a01b0316610ac9565b60085461070c906000906001600160a01b0316610b07565b60088054600780546001600160a01b0383166001600160a01b03199182168117909255909116909155604051600091907f8be0079c531659141344cd1fd0a4f28419497f9722a3daafe3b4186f6b6457e0908390a3565b60008051602061129183398151915261077b81610b70565b8160096107888282611117565b506008805460ff60a01b1916600160a01b1790556107a68585610b7a565b50506008805460ff60a01b19169055505050565b6000918252600b602090815260408084206001600160a01b0393909316845291905290205460ff1690565b600580546103f190611050565b336000908152602081905260408120548211156108695760405162461bcd60e51b815260206004820152602f60248201527f746f6b656e2062616c616e6365206973206c6f776572207468616e207468652060448201526e1d985b1d59481c995c5d595cdd1959608a1b606482015260840161058d565b33600090815260208190526040812080548492906108889084906110b3565b90915550506001600160a01b038316600090815260208190526040812080548492906108b59084906110a0565b90915550506040518281526001600160a01b0384169033907fddf252ad1be2c89b69c2b068fc378daa952ba7f163c4a11628f55a4df523b3ef906020016104cd565b600061090281610b70565b6001600160a01b03821661094e5760405162461bcd60e51b81526020600482015260136024820152725a65726f206164647265737320616c61726d2160681b604482015260640161058d565b6007546001600160a01b03908116908316036109ac5760405162461bcd60e51b815260206004820152601c60248201527f547279696e6720746f20736574207468652073616d65206f776e657200000000604482015260640161058d565b50600880546001600160a01b0319166001600160a01b0392909216919091179055565b6001600160a01b0381163b610a365760405162461bcd60e51b815260206004820152602760248201527f5f6469737472696275746f722073686f756c6420626520636f6e7472616374206044820152666164647265737360c81b606482015260840161058d565b610a41600033610b07565b610a5960008051602061129183398151915282610b07565b610a837fb19546dff01e856fb3f010c267a7b1c60363cf8a4664e21cc89c26224620214e33610b07565b50565b600080516020611291833981519152610a9e81610b70565b816009610aab8282611117565b506008805460ff60a01b1916600160a01b1790556107a68585610bc4565b610ad382826107ba565b15610b03576000828152600b602090815260408083206001600160a01b03851684529091529020805460ff191690555b5050565b610b1182826107ba565b610b03576000828152600b602090815260408083206001600160a01b0385168085529252808320805460ff1916600117905551339285917f2f8788117e7eff1d82e926ec794901d17c78024a50270940304540a733656f0d9190a45050565b610a838133610c05565b6001600160a01b03821660009081526020819052604081208054839290610ba29084906110b3565b925050819055508060026000828254610bbb91906110b3565b90915550505050565b6001600160a01b03821660009081526020819052604081208054839290610bec9084906110a0565b925050819055508060026000828254610bbb91906110a0565b610c0f82826107ba565b610b0357610c27816001600160a01b03166014610c69565b610c32836020610c69565b604051602001610c439291906111d7565b60408051601f198184030181529082905262461bcd60e51b825261058d91600401610e30565b60606000610c7883600261124c565b610c839060026110a0565b67ffffffffffffffff811115610c9b57610c9b610f19565b6040519080825280601f01601f191660200182016040528015610cc5576020820181803683370190505b509050600360fc1b81600081518110610ce057610ce0611263565b60200101906001600160f81b031916908160001a905350600f60fb1b81600181518110610d0f57610d0f611263565b60200101906001600160f81b031916908160001a9053506000610d3384600261124c565b610d3e9060016110a0565b90505b6001811115610db6576f181899199a1a9b1b9c1cb0b131b232b360811b85600f1660108110610d7257610d72611263565b1a60f81b828281518110610d8857610d88611263565b60200101906001600160f81b031916908160001a90535060049490941c93610daf81611279565b9050610d41565b508315610e055760405162461bcd60e51b815260206004820181905260248201527f537472696e67733a20686578206c656e67746820696e73756666696369656e74604482015260640161058d565b9392505050565b60005b83811015610e27578181015183820152602001610e0f565b50506000910152565b6020815260008251806020840152610e4f816040850160208701610e0c565b601f01601f19169190910160400192915050565b80356001600160a01b0381168114610e7a57600080fd5b919050565b60008060408385031215610e9257600080fd5b610e9b83610e63565b946020939093013593505050565b600080600060608486031215610ebe57600080fd5b610ec784610e63565b9250610ed560208501610e63565b9150604084013590509250925092565b600060208284031215610ef757600080fd5b5035919050565b600060208284031215610f1057600080fd5b610e0582610e63565b634e487b7160e01b600052604160045260246000fd5b600080600060608486031215610f4457600080fd5b610f4d84610e63565b925060208401359150604084013567ffffffffffffffff80821115610f7157600080fd5b818601915086601f830112610f8557600080fd5b813581811115610f9757610f97610f19565b604051601f8201601f19908116603f01168101908382118183101715610fbf57610fbf610f19565b81604052828152896020848701011115610fd857600080fd5b8260208601602083013760006020848301015280955050505050509250925092565b6000806040838503121561100d57600080fd5b61101683610e63565b915061102460208401610e63565b90509250929050565b6000806040838503121561104057600080fd5b8235915061102460208401610e63565b600181811c9082168061106457607f821691505b60208210810361108457634e487b7160e01b600052602260045260246000fd5b50919050565b634e487b7160e01b600052601160045260246000fd5b808201808211156104d9576104d961108a565b818103818111156104d9576104d961108a565b601f821115611112576000816000526020600020601f850160051c810160208610156110ef5750805b601f850160051c820191505b8181101561110e578281556001016110fb565b5050505b505050565b815167ffffffffffffffff81111561113157611131610f19565b6111458161113f8454611050565b846110c6565b602080601f83116001811461117a57600084156111625750858301515b600019600386901b1c1916600185901b17855561110e565b600085815260208120601f198616915b828110156111a95788860151825594840194600190910190840161118a565b50858210156111c75787850151600019600388901b60f8161c191681555b5050505050600190811b01905550565b7f416363657373436f6e74726f6c3a206163636f756e742000000000000000000081526000835161120f816017850160208801610e0c565b7001034b99036b4b9b9b4b733903937b6329607d1b6017918401918201528351611240816028840160208801610e0c565b01602801949350505050565b80820281158282048414176104d9576104d961108a565b634e487b7160e01b600052603260045260246000fd5b6000816112885761128861108a565b50600019019056fe4763bb9af0c3e47e903ac56d30c54c16318477624628abb6d055e5c8e0397e49a264697066735822122067f0b6e106769b6e137ff487c7901dbb617a8106a82942f2c7539555952a59c664736f6c63430008180033",
  "linkReferences": {},
  "deployedLinkReferences": {}
}