{
  "_format": "hh-sol-artifact-1",
  "contractName": "astarEvmEndpoint",
  "sourceName": "contracts/crossChain/astarEvmEndpoint.sol",
  "abi": [
    {
      "inputs": [],
      "stateMutability": "nonpayable",
      "type": "constructor"
    },
    {
      "inputs": [
        {
          "internalType": "address",
          "name": "target",
          "type": "address"
        }
      ],
      "name": "AddressEmptyCode",
      "type": "error"
    },
    {
      "inputs": [
        {
          "internalType": "address",
          "name": "account",
          "type": "address"
        }
      ],
      "name": "AddressInsufficientBalance",
      "type": "error"
    },
    {
      "inputs": [],
      "name": "FailedInnerCall",
      "type": "error"
    },
    {
      "inputs": [],
      "name": "InvalidDelegate",
      "type": "error"
    },
    {
      "inputs": [],
      "name": "InvalidEndpointCall",
      "type": "error"
    },
    {
      "inputs": [
        {
          "internalType": "uint16",
          "name": "optionType",
          "type": "uint16"
        }
      ],
      "name": "InvalidOptionType",
      "type": "error"
    },
    {
      "inputs": [],
      "name": "LzTokenUnavailable",
      "type": "error"
    },
    {
      "inputs": [
        {
          "internalType": "uint32",
          "name": "eid",
          "type": "uint32"
        }
      ],
      "name": "NoPeer",
      "type": "error"
    },
    {
      "inputs": [
        {
          "internalType": "uint256",
          "name": "msgValue",
          "type": "uint256"
        }
      ],
      "name": "NotEnoughNative",
      "type": "error"
    },
    {
      "inputs": [
        {
          "internalType": "address",
          "name": "addr",
          "type": "address"
        }
      ],
      "name": "OnlyEndpoint",
      "type": "error"
    },
    {
      "inputs": [
        {
          "internalType": "uint32",
          "name": "eid",
          "type": "uint32"
        },
        {
          "internalType": "bytes32",
          "name": "sender",
          "type": "bytes32"
        }
      ],
      "name": "OnlyPeer",
      "type": "error"
    },
    {
      "inputs": [
        {
          "internalType": "address",
          "name": "owner",
          "type": "address"
        }
      ],
      "name": "OwnableInvalidOwner",
      "type": "error"
    },
    {
      "inputs": [
        {
          "internalType": "address",
          "name": "account",
          "type": "address"
        }
      ],
      "name": "OwnableUnauthorizedAccount",
      "type": "error"
    },
    {
      "inputs": [
        {
          "internalType": "uint8",
          "name": "bits",
          "type": "uint8"
        },
        {
          "internalType": "uint256",
          "name": "value",
          "type": "uint256"
        }
      ],
      "name": "SafeCastOverflowedUintDowncast",
      "type": "error"
    },
    {
      "inputs": [
        {
          "internalType": "address",
          "name": "token",
          "type": "address"
        }
      ],
      "name": "SafeERC20FailedOperation",
      "type": "error"
    },
    {
      "anonymous": false,
      "inputs": [
        {
          "indexed": true,
          "internalType": "address",
          "name": "previousOwner",
          "type": "address"
        },
        {
          "indexed": true,
          "internalType": "address",
          "name": "newOwner",
          "type": "address"
        }
      ],
      "name": "OwnershipTransferred",
      "type": "event"
    },
    {
      "anonymous": false,
      "inputs": [
        {
          "indexed": false,
          "internalType": "uint32",
          "name": "eid",
          "type": "uint32"
        },
        {
          "indexed": false,
          "internalType": "bytes32",
          "name": "peer",
          "type": "bytes32"
        }
      ],
      "name": "PeerSet",
      "type": "event"
    },
    {
      "inputs": [],
      "name": "ASTARUSD_TOKEN_ADDRESS",
      "outputs": [
        {
          "internalType": "address",
          "name": "",
          "type": "address"
        }
      ],
      "stateMutability": "view",
      "type": "function"
    },
    {
      "inputs": [],
      "name": "ASTAR_ZKYOTO_EID",
      "outputs": [
        {
          "internalType": "uint32",
          "name": "",
          "type": "uint32"
        }
      ],
      "stateMutability": "view",
      "type": "function"
    },
    {
      "inputs": [
        {
          "components": [
            {
              "internalType": "uint32",
              "name": "srcEid",
              "type": "uint32"
            },
            {
              "internalType": "bytes32",
              "name": "sender",
              "type": "bytes32"
            },
            {
              "internalType": "uint64",
              "name": "nonce",
              "type": "uint64"
            }
          ],
          "internalType": "struct Origin",
          "name": "origin",
          "type": "tuple"
        }
      ],
      "name": "allowInitializePath",
      "outputs": [
        {
          "internalType": "bool",
          "name": "",
          "type": "bool"
        }
      ],
      "stateMutability": "view",
      "type": "function"
    },
    {
      "inputs": [
        {
          "internalType": "uint256",
          "name": "paramStablecoinQuantityToBridge",
          "type": "uint256"
        }
      ],
      "name": "bridgeStablecoin",
      "outputs": [],
      "stateMutability": "payable",
      "type": "function"
    },
    {
      "inputs": [],
      "name": "endpoint",
      "outputs": [
        {
          "internalType": "contract ILayerZeroEndpointV2",
          "name": "",
          "type": "address"
        }
      ],
      "stateMutability": "view",
      "type": "function"
    },
    {
      "inputs": [
        {
          "internalType": "address",
          "name": "paramPeerAddress",
          "type": "address"
        }
      ],
      "name": "getPeerBytes32Address",
      "outputs": [
        {
          "internalType": "bytes32",
          "name": "",
          "type": "bytes32"
        }
      ],
      "stateMutability": "view",
      "type": "function"
    },
    {
      "inputs": [
        {
          "components": [
            {
              "internalType": "uint32",
              "name": "srcEid",
              "type": "uint32"
            },
            {
              "internalType": "bytes32",
              "name": "sender",
              "type": "bytes32"
            },
            {
              "internalType": "uint64",
              "name": "nonce",
              "type": "uint64"
            }
          ],
          "internalType": "struct Origin",
          "name": "",
          "type": "tuple"
        },
        {
          "internalType": "bytes",
          "name": "",
          "type": "bytes"
        },
        {
          "internalType": "address",
          "name": "_sender",
          "type": "address"
        }
      ],
      "name": "isComposeMsgSender",
      "outputs": [
        {
          "internalType": "bool",
          "name": "",
          "type": "bool"
        }
      ],
      "stateMutability": "view",
      "type": "function"
    },
    {
      "inputs": [
        {
          "components": [
            {
              "internalType": "uint32",
              "name": "srcEid",
              "type": "uint32"
            },
            {
              "internalType": "bytes32",
              "name": "sender",
              "type": "bytes32"
            },
            {
              "internalType": "uint64",
              "name": "nonce",
              "type": "uint64"
            }
          ],
          "internalType": "struct Origin",
          "name": "_origin",
          "type": "tuple"
        },
        {
          "internalType": "bytes32",
          "name": "_guid",
          "type": "bytes32"
        },
        {
          "internalType": "bytes",
          "name": "_message",
          "type": "bytes"
        },
        {
          "internalType": "address",
          "name": "_executor",
          "type": "address"
        },
        {
          "internalType": "bytes",
          "name": "_extraData",
          "type": "bytes"
        }
      ],
      "name": "lzReceive",
      "outputs": [],
      "stateMutability": "payable",
      "type": "function"
    },
    {
      "inputs": [
        {
          "internalType": "uint32",
          "name": "",
          "type": "uint32"
        },
        {
          "internalType": "bytes32",
          "name": "",
          "type": "bytes32"
        }
      ],
      "name": "nextNonce",
      "outputs": [
        {
          "internalType": "uint64",
          "name": "nonce",
          "type": "uint64"
        }
      ],
      "stateMutability": "view",
      "type": "function"
    },
    {
      "inputs": [],
      "name": "oAppVersion",
      "outputs": [
        {
          "internalType": "uint64",
          "name": "senderVersion",
          "type": "uint64"
        },
        {
          "internalType": "uint64",
          "name": "receiverVersion",
          "type": "uint64"
        }
      ],
      "stateMutability": "pure",
      "type": "function"
    },
    {
      "inputs": [],
      "name": "owner",
      "outputs": [
        {
          "internalType": "address",
          "name": "",
          "type": "address"
        }
      ],
      "stateMutability": "view",
      "type": "function"
    },
    {
      "inputs": [
        {
          "internalType": "uint32",
          "name": "eid",
          "type": "uint32"
        }
      ],
      "name": "peers",
      "outputs": [
        {
          "internalType": "bytes32",
          "name": "peer",
          "type": "bytes32"
        }
      ],
      "stateMutability": "view",
      "type": "function"
    },
    {
      "inputs": [],
      "name": "renounceOwnership",
      "outputs": [],
      "stateMutability": "nonpayable",
      "type": "function"
    },
    {
      "inputs": [
        {
          "internalType": "address",
          "name": "_delegate",
          "type": "address"
        }
      ],
      "name": "setDelegate",
      "outputs": [],
      "stateMutability": "nonpayable",
      "type": "function"
    },
    {
      "inputs": [
        {
          "internalType": "uint32",
          "name": "_eid",
          "type": "uint32"
        },
        {
          "internalType": "bytes32",
          "name": "_peer",
          "type": "bytes32"
        }
      ],
      "name": "setPeer",
      "outputs": [],
      "stateMutability": "nonpayable",
      "type": "function"
    },
    {
      "inputs": [
        {
          "internalType": "address",
          "name": "newOwner",
          "type": "address"
        }
      ],
      "name": "transferOwnership",
      "outputs": [],
      "stateMutability": "nonpayable",
      "type": "function"
    }
  ],
  "bytecode": "0x60a0604052600280546001600160c01b031916770aaceec390386e300080811df0b713fc0af3d84300009d4a17905534801561003a57600080fd5b50736edce65403992e310a62460808c4b910d972f10f338181808061007957604051631e4fbdf760e01b81526000600482015260240160405180910390fd5b61008281610118565b506001600160a01b0380831660805281166100b057604051632d618d8160e21b815260040160405180910390fd5b60805160405163ca5eb5e160e01b81526001600160a01b0383811660048301529091169063ca5eb5e190602401600060405180830381600087803b1580156100f757600080fd5b505af115801561010b573d6000803e3d6000fd5b5050505050505050610168565b600080546001600160a01b038381166001600160a01b0319831681178455604051919092169283917f8be0079c531659141344cd1fd0a4f28419497f9722a3daafe3b4186f6b6457e09190a35050565b6080516114786101a6600039600081816101660152818161037c01528181610494015281816109d901528181610c270152610ce001526114786000f3fe6080604052600436106100f35760003560e01c806382413eac1161008a578063d416cdc911610059578063d416cdc914610300578063e85e430c14610327578063f2fde38b1461033a578063ff7bd03d1461035a57600080fd5b806382413eac146102485780638da5cb5b14610287578063bb0b6a53146102a5578063ca5eb5e1146102e057600080fd5b8063679bc4d5116100c6578063679bc4d5146101a0578063709fa5e9146101d2578063715018a6146101fa5780637d25a05e1461020f57600080fd5b806313137d65146100f857806317442b701461010d5780633400288b146101345780635e280f1114610154575b600080fd5b61010b610106366004610fa3565b61037a565b005b34801561011957600080fd5b50604080516001815260026020820152015b60405180910390f35b34801561014057600080fd5b5061010b61014f36600461105c565b61043a565b34801561016057600080fd5b506101887f000000000000000000000000000000000000000000000000000000000000000081565b6040516001600160a01b03909116815260200161012b565b3480156101ac57600080fd5b506002546101bd9063ffffffff1681565b60405163ffffffff909116815260200161012b565b3480156101de57600080fd5b506002546101889064010000000090046001600160a01b031681565b34801561020657600080fd5b5061010b610450565b34801561021b57600080fd5b5061022f61022a36600461105c565b610464565b60405167ffffffffffffffff909116815260200161012b565b34801561025457600080fd5b50610277610263366004611086565b6001600160a01b0381163014949350505050565b604051901515815260200161012b565b34801561029357600080fd5b506000546001600160a01b0316610188565b3480156102b157600080fd5b506102d26102c03660046110ed565b60016020526000908152604090205481565b60405190815260200161012b565b3480156102ec57600080fd5b5061010b6102fb366004611108565b61046d565b34801561030c57600080fd5b506102d261031b366004611108565b6001600160a01b031690565b61010b610335366004611125565b6104f3565b34801561034657600080fd5b5061010b610355366004611108565b61071c565b34801561036657600080fd5b5061027761037536600461113e565b61075a565b7f00000000000000000000000000000000000000000000000000000000000000006001600160a01b031633146103ca576040516391ac5e4f60e01b81523360048201526024015b60405180910390fd5b602087018035906103e4906103df908a6110ed565b610790565b14610422576103f660208801886110ed565b60405163309afaf360e21b815263ffffffff9091166004820152602088013560248201526044016103c1565b610431878787878787876107cc565b50505050505050565b61044261086c565b61044c8282610899565b5050565b61045861086c565b61046260006108ee565b565b60005b92915050565b61047561086c565b60405163ca5eb5e160e01b81526001600160a01b0382811660048301527f0000000000000000000000000000000000000000000000000000000000000000169063ca5eb5e190602401600060405180830381600087803b1580156104d857600080fd5b505af11580156104ec573d6000803e3d6000fd5b5050505050565b6002546040516370a0823160e01b8152336004820152829164010000000090046001600160a01b0316906370a0823190602401602060405180830381865afa158015610543573d6000803e3d6000fd5b505050506040513d601f19601f82011682018060405250810190610567919061115a565b10156105b55760405162461bcd60e51b815260206004820152601f60248201527f4e6f7420656e6f7567687420737461626c65636f696e2062616c616e63652e0060448201526064016103c1565b600254604051636eb1769f60e11b8152336004820152306024820152829164010000000090046001600160a01b03169063dd62ed3e90604401602060405180830381865afa15801561060b573d6000803e3d6000fd5b505050506040513d601f19601f8201168201806040525081019061062f919061115a565b101561068d5760405162461bcd60e51b815260206004820152602760248201527f4e6f7420656e6f7567687420616c6c6f77616e63652c20706c65617365206164604482015266321036b7b9329760c91b60648201526084016103c1565b60006106c461c35060006106bd60408051600360f01b602082015281516002818303018152602290910190915290565b919061093e565b6040805133602082015290810184905290915060009060600160408051601f198184030181526002548383019092523483526000602084015292506107169163ffffffff9091169083908590336109a6565b50505050565b61072461086c565b6001600160a01b03811661074e57604051631e4fbdf760e01b8152600060048201526024016103c1565b610757816108ee565b50565b600060208201803590600190839061077290866110ed565b63ffffffff1681526020810191909152604001600020541492915050565b63ffffffff8116600090815260016020526040812054806104675760405163f6ff4fb760e01b815263ffffffff841660048201526024016103c1565b6000806107db86880188611173565b60025460405163a9059cbb60e01b81526001600160a01b0380851660048301526024820184905293955091935064010000000090049091169063a9059cbb906044016020604051808303816000875af115801561083c573d6000803e3d6000fd5b505050506040513d601f19601f820116820180604052508101906108609190611191565b50505050505050505050565b6000546001600160a01b031633146104625760405163118cdaa760e01b81523360048201526024016103c1565b63ffffffff8216600081815260016020908152604091829020849055815192835282018390527f238399d427b947898edb290f5ff0f9109849b1c3ba196a42e35f00c50a54b98b910160405180910390a15050565b600080546001600160a01b038381166001600160a01b0319831681178455604051919092169283917f8be0079c531659141344cd1fd0a4f28419497f9722a3daafe3b4186f6b6457e09190a35050565b606083600361094e826000610ab1565b61ffff161461098257610962816000610ab1565b604051633a51740d60e01b815261ffff90911660048201526024016103c1565b600061098e8585610b0e565b905061099c86600183610b90565b9695505050505050565b6109ae610ee5565b60006109bd8460000151610bfb565b6020850151909150156109d7576109d78460200151610c23565b7f00000000000000000000000000000000000000000000000000000000000000006001600160a01b0316632637a450826040518060a001604052808b63ffffffff168152602001610a278c610790565b81526020018a815260200189815260200160008960200151111515815250866040518463ffffffff1660e01b8152600401610a63929190611203565b60806040518083038185885af1158015610a81573d6000803e3d6000fd5b50505050506040513d601f19601f82011682018060405250810190610aa691906112b3565b979650505050505050565b6000610abe82600261136d565b83511015610b055760405162461bcd60e51b8152602060048201526014602482015273746f55696e7431365f6f75744f66426f756e647360601b60448201526064016103c1565b50016002015190565b60606fffffffffffffffffffffffffffffffff821615610b5f57604080516001600160801b0319608086811b8216602084015285901b16603082015201604051602081830303815290604052610b89565b6040516001600160801b0319608085901b1660208201526030016040516020818303038152906040525b9392505050565b6060836003610ba0826000610ab1565b61ffff1614610bb457610962816000610ab1565b846001610bc18551610d05565b610bcc906001611380565b8686604051602001610be29594939291906113a2565b6040516020818303038152906040529150509392505050565b6000813414610c1f576040516304fb820960e51b81523460048201526024016103c1565b5090565b60007f00000000000000000000000000000000000000000000000000000000000000006001600160a01b031663e4fe1d946040518163ffffffff1660e01b8152600401602060405180830381865afa158015610c83573d6000803e3d6000fd5b505050506040513d601f19601f82011682018060405250810190610ca79190611409565b90506001600160a01b038116610cd0576040516329b99a9560e11b815260040160405180910390fd5b61044c6001600160a01b038216337f000000000000000000000000000000000000000000000000000000000000000085610d34565b600061ffff821115610c1f576040516306dfcc6560e41b815260106004820152602481018390526044016103c1565b604080516001600160a01b038581166024830152848116604483015260648083018590528351808403909101815260849092019092526020810180516001600160e01b03166323b872dd60e01b17905261071691869190600090610d9a90841683610ded565b90508051600014158015610dbf575080806020019051810190610dbd9190611191565b155b15610de857604051635274afe760e01b81526001600160a01b03841660048201526024016103c1565b505050565b6060610b898383600084600080856001600160a01b03168486604051610e139190611426565b60006040518083038185875af1925050503d8060008114610e50576040519150601f19603f3d011682016040523d82523d6000602084013e610e55565b606091505b509150915061099c868383606082610e7557610e7082610ebc565b610b89565b8151158015610e8c57506001600160a01b0384163b155b15610eb557604051639996b31560e01b81526001600160a01b03851660048201526024016103c1565b5080610b89565b805115610ecc5780518082602001fd5b604051630a12f52160e11b815260040160405180910390fd5b604051806060016040528060008019168152602001600067ffffffffffffffff168152602001610f28604051806040016040528060008152602001600081525090565b905290565b600060608284031215610f3f57600080fd5b50919050565b60008083601f840112610f5757600080fd5b50813567ffffffffffffffff811115610f6f57600080fd5b602083019150836020828501011115610f8757600080fd5b9250929050565b6001600160a01b038116811461075757600080fd5b600080600080600080600060e0888a031215610fbe57600080fd5b610fc88989610f2d565b965060608801359550608088013567ffffffffffffffff80821115610fec57600080fd5b610ff88b838c01610f45565b909750955060a08a0135915061100d82610f8e565b90935060c0890135908082111561102357600080fd5b506110308a828b01610f45565b989b979a50959850939692959293505050565b803563ffffffff8116811461105757600080fd5b919050565b6000806040838503121561106f57600080fd5b61107883611043565b946020939093013593505050565b60008060008060a0858703121561109c57600080fd5b6110a68686610f2d565b9350606085013567ffffffffffffffff8111156110c257600080fd5b6110ce87828801610f45565b90945092505060808501356110e281610f8e565b939692955090935050565b6000602082840312156110ff57600080fd5b610b8982611043565b60006020828403121561111a57600080fd5b8135610b8981610f8e565b60006020828403121561113757600080fd5b5035919050565b60006060828403121561115057600080fd5b610b898383610f2d565b60006020828403121561116c57600080fd5b5051919050565b6000806040838503121561118657600080fd5b823561107881610f8e565b6000602082840312156111a357600080fd5b81518015158114610b8957600080fd5b60005b838110156111ce5781810151838201526020016111b6565b50506000910152565b600081518084526111ef8160208601602086016111b3565b601f01601f19169290920160200192915050565b6040815263ffffffff8351166040820152602083015160608201526000604084015160a0608084015261123960e08401826111d7565b90506060850151603f198483030160a085015261125682826111d7565b60809690960151151560c08501525050506001600160a01b039190911660209091015290565b6040805190810167ffffffffffffffff811182821017156112ad57634e487b7160e01b600052604160045260246000fd5b60405290565b600081830360808112156112c657600080fd5b6040516060810167ffffffffffffffff82821081831117156112f857634e487b7160e01b600052604160045260246000fd5b816040528551835260208601519150808216821461131557600080fd5b5060208201526040603f198301121561132d57600080fd5b61133561127c565b6040858101518252606090950151602082015293810193909352509092915050565b634e487b7160e01b600052601160045260246000fd5b8082018082111561046757610467611357565b61ffff81811683821601908082111561139b5761139b611357565b5092915050565b600086516113b4818460208b016111b3565b6001600160f81b031960f888811b82169285019283526001600160f01b031960f089901b16600184015286901b16600382015283516113fa8160048401602088016111b3565b01600401979650505050505050565b60006020828403121561141b57600080fd5b8151610b8981610f8e565b600082516114388184602087016111b3565b919091019291505056fea26469706673582212201cab016a74c1eb9a05481dc509ae5682b714337fc04b48342969acad7bf7623964736f6c63430008180033",
  "linkReferences": {},
  "deployedLinkReferences": {}
}