{
  "_format": "hh-sol-artifact-1",
  "contractName": "astarEvmEndpoint",
  "sourceName": "contracts/crossChain/astarEvmEndpoint.sol",
  "abi": [
    {
      "inputs": [],
      "stateMutability": "nonpayable",
      "type": "constructor"
    },
    {
      "inputs": [
        {
          "internalType": "address",
          "name": "target",
          "type": "address"
        }
      ],
      "name": "AddressEmptyCode",
      "type": "error"
    },
    {
      "inputs": [
        {
          "internalType": "address",
          "name": "account",
          "type": "address"
        }
      ],
      "name": "AddressInsufficientBalance",
      "type": "error"
    },
    {
      "inputs": [],
      "name": "FailedInnerCall",
      "type": "error"
    },
    {
      "inputs": [],
      "name": "InvalidDelegate",
      "type": "error"
    },
    {
      "inputs": [],
      "name": "InvalidEndpointCall",
      "type": "error"
    },
    {
      "inputs": [
        {
          "internalType": "uint16",
          "name": "optionType",
          "type": "uint16"
        }
      ],
      "name": "InvalidOptionType",
      "type": "error"
    },
    {
      "inputs": [],
      "name": "LzTokenUnavailable",
      "type": "error"
    },
    {
      "inputs": [
        {
          "internalType": "uint32",
          "name": "eid",
          "type": "uint32"
        }
      ],
      "name": "NoPeer",
      "type": "error"
    },
    {
      "inputs": [
        {
          "internalType": "uint256",
          "name": "msgValue",
          "type": "uint256"
        }
      ],
      "name": "NotEnoughNative",
      "type": "error"
    },
    {
      "inputs": [
        {
          "internalType": "address",
          "name": "addr",
          "type": "address"
        }
      ],
      "name": "OnlyEndpoint",
      "type": "error"
    },
    {
      "inputs": [
        {
          "internalType": "uint32",
          "name": "eid",
          "type": "uint32"
        },
        {
          "internalType": "bytes32",
          "name": "sender",
          "type": "bytes32"
        }
      ],
      "name": "OnlyPeer",
      "type": "error"
    },
    {
      "inputs": [
        {
          "internalType": "address",
          "name": "owner",
          "type": "address"
        }
      ],
      "name": "OwnableInvalidOwner",
      "type": "error"
    },
    {
      "inputs": [
        {
          "internalType": "address",
          "name": "account",
          "type": "address"
        }
      ],
      "name": "OwnableUnauthorizedAccount",
      "type": "error"
    },
    {
      "inputs": [
        {
          "internalType": "uint8",
          "name": "bits",
          "type": "uint8"
        },
        {
          "internalType": "uint256",
          "name": "value",
          "type": "uint256"
        }
      ],
      "name": "SafeCastOverflowedUintDowncast",
      "type": "error"
    },
    {
      "inputs": [
        {
          "internalType": "address",
          "name": "token",
          "type": "address"
        }
      ],
      "name": "SafeERC20FailedOperation",
      "type": "error"
    },
    {
      "anonymous": false,
      "inputs": [
        {
          "indexed": true,
          "internalType": "address",
          "name": "previousOwner",
          "type": "address"
        },
        {
          "indexed": true,
          "internalType": "address",
          "name": "newOwner",
          "type": "address"
        }
      ],
      "name": "OwnershipTransferred",
      "type": "event"
    },
    {
      "anonymous": false,
      "inputs": [
        {
          "indexed": false,
          "internalType": "uint32",
          "name": "eid",
          "type": "uint32"
        },
        {
          "indexed": false,
          "internalType": "bytes32",
          "name": "peer",
          "type": "bytes32"
        }
      ],
      "name": "PeerSet",
      "type": "event"
    },
    {
      "inputs": [],
      "name": "ASTAR_ZKYOTO_EID",
      "outputs": [
        {
          "internalType": "uint32",
          "name": "",
          "type": "uint32"
        }
      ],
      "stateMutability": "view",
      "type": "function"
    },
    {
      "inputs": [
        {
          "components": [
            {
              "internalType": "uint32",
              "name": "srcEid",
              "type": "uint32"
            },
            {
              "internalType": "bytes32",
              "name": "sender",
              "type": "bytes32"
            },
            {
              "internalType": "uint64",
              "name": "nonce",
              "type": "uint64"
            }
          ],
          "internalType": "struct Origin",
          "name": "origin",
          "type": "tuple"
        }
      ],
      "name": "allowInitializePath",
      "outputs": [
        {
          "internalType": "bool",
          "name": "",
          "type": "bool"
        }
      ],
      "stateMutability": "view",
      "type": "function"
    },
    {
      "inputs": [
        {
          "internalType": "uint256",
          "name": "paramStablecoinQuantityToBridge",
          "type": "uint256"
        }
      ],
      "name": "bridgeStablecoinComposeDeafult",
      "outputs": [],
      "stateMutability": "payable",
      "type": "function"
    },
    {
      "inputs": [
        {
          "internalType": "uint256",
          "name": "paramStablecoinQuantityToBridge",
          "type": "uint256"
        },
        {
          "internalType": "uint16",
          "name": "_index",
          "type": "uint16"
        },
        {
          "internalType": "uint128",
          "name": "_gas",
          "type": "uint128"
        },
        {
          "internalType": "uint128",
          "name": "_value",
          "type": "uint128"
        }
      ],
      "name": "bridgeStablecoinComposeManual",
      "outputs": [],
      "stateMutability": "payable",
      "type": "function"
    },
    {
      "inputs": [
        {
          "internalType": "uint256",
          "name": "paramStablecoinQuantityToBridge",
          "type": "uint256"
        },
        {
          "internalType": "bytes32",
          "name": "receiverAddressInBytes32",
          "type": "bytes32"
        }
      ],
      "name": "bridgeStablecoinDropDeafult",
      "outputs": [],
      "stateMutability": "payable",
      "type": "function"
    },
    {
      "inputs": [
        {
          "internalType": "uint256",
          "name": "paramStablecoinQuantityToBridge",
          "type": "uint256"
        },
        {
          "internalType": "uint128",
          "name": "_amount",
          "type": "uint128"
        },
        {
          "internalType": "bytes32",
          "name": "_receiver",
          "type": "bytes32"
        }
      ],
      "name": "bridgeStablecoinDropManual",
      "outputs": [],
      "stateMutability": "payable",
      "type": "function"
    },
    {
      "inputs": [
        {
          "internalType": "uint256",
          "name": "paramStablecoinQuantityToBridge",
          "type": "uint256"
        }
      ],
      "name": "bridgeStablecoinReceiveDeafult",
      "outputs": [],
      "stateMutability": "payable",
      "type": "function"
    },
    {
      "inputs": [
        {
          "internalType": "uint256",
          "name": "paramStablecoinQuantityToBridge",
          "type": "uint256"
        },
        {
          "internalType": "uint128",
          "name": "_gas",
          "type": "uint128"
        },
        {
          "internalType": "uint128",
          "name": "_value",
          "type": "uint128"
        }
      ],
      "name": "bridgeStablecoinReceiveManual",
      "outputs": [],
      "stateMutability": "payable",
      "type": "function"
    },
    {
      "inputs": [],
      "name": "endpoint",
      "outputs": [
        {
          "internalType": "contract ILayerZeroEndpointV2",
          "name": "",
          "type": "address"
        }
      ],
      "stateMutability": "view",
      "type": "function"
    },
    {
      "inputs": [
        {
          "internalType": "address",
          "name": "paramPeerAddress",
          "type": "address"
        }
      ],
      "name": "getPeerBytes32Address",
      "outputs": [
        {
          "internalType": "bytes32",
          "name": "",
          "type": "bytes32"
        }
      ],
      "stateMutability": "view",
      "type": "function"
    },
    {
      "inputs": [
        {
          "components": [
            {
              "internalType": "uint32",
              "name": "srcEid",
              "type": "uint32"
            },
            {
              "internalType": "bytes32",
              "name": "sender",
              "type": "bytes32"
            },
            {
              "internalType": "uint64",
              "name": "nonce",
              "type": "uint64"
            }
          ],
          "internalType": "struct Origin",
          "name": "",
          "type": "tuple"
        },
        {
          "internalType": "bytes",
          "name": "",
          "type": "bytes"
        },
        {
          "internalType": "address",
          "name": "_sender",
          "type": "address"
        }
      ],
      "name": "isComposeMsgSender",
      "outputs": [
        {
          "internalType": "bool",
          "name": "",
          "type": "bool"
        }
      ],
      "stateMutability": "view",
      "type": "function"
    },
    {
      "inputs": [
        {
          "components": [
            {
              "internalType": "uint32",
              "name": "srcEid",
              "type": "uint32"
            },
            {
              "internalType": "bytes32",
              "name": "sender",
              "type": "bytes32"
            },
            {
              "internalType": "uint64",
              "name": "nonce",
              "type": "uint64"
            }
          ],
          "internalType": "struct Origin",
          "name": "_origin",
          "type": "tuple"
        },
        {
          "internalType": "bytes32",
          "name": "_guid",
          "type": "bytes32"
        },
        {
          "internalType": "bytes",
          "name": "_message",
          "type": "bytes"
        },
        {
          "internalType": "address",
          "name": "_executor",
          "type": "address"
        },
        {
          "internalType": "bytes",
          "name": "_extraData",
          "type": "bytes"
        }
      ],
      "name": "lzReceive",
      "outputs": [],
      "stateMutability": "payable",
      "type": "function"
    },
    {
      "inputs": [
        {
          "internalType": "uint32",
          "name": "",
          "type": "uint32"
        },
        {
          "internalType": "bytes32",
          "name": "",
          "type": "bytes32"
        }
      ],
      "name": "nextNonce",
      "outputs": [
        {
          "internalType": "uint64",
          "name": "nonce",
          "type": "uint64"
        }
      ],
      "stateMutability": "view",
      "type": "function"
    },
    {
      "inputs": [],
      "name": "oAppVersion",
      "outputs": [
        {
          "internalType": "uint64",
          "name": "senderVersion",
          "type": "uint64"
        },
        {
          "internalType": "uint64",
          "name": "receiverVersion",
          "type": "uint64"
        }
      ],
      "stateMutability": "pure",
      "type": "function"
    },
    {
      "inputs": [],
      "name": "owner",
      "outputs": [
        {
          "internalType": "address",
          "name": "",
          "type": "address"
        }
      ],
      "stateMutability": "view",
      "type": "function"
    },
    {
      "inputs": [
        {
          "internalType": "uint32",
          "name": "eid",
          "type": "uint32"
        }
      ],
      "name": "peers",
      "outputs": [
        {
          "internalType": "bytes32",
          "name": "peer",
          "type": "bytes32"
        }
      ],
      "stateMutability": "view",
      "type": "function"
    },
    {
      "inputs": [],
      "name": "renounceOwnership",
      "outputs": [],
      "stateMutability": "nonpayable",
      "type": "function"
    },
    {
      "inputs": [
        {
          "internalType": "address",
          "name": "_delegate",
          "type": "address"
        }
      ],
      "name": "setDelegate",
      "outputs": [],
      "stateMutability": "nonpayable",
      "type": "function"
    },
    {
      "inputs": [
        {
          "internalType": "uint32",
          "name": "_eid",
          "type": "uint32"
        },
        {
          "internalType": "bytes32",
          "name": "_peer",
          "type": "bytes32"
        }
      ],
      "name": "setPeer",
      "outputs": [],
      "stateMutability": "nonpayable",
      "type": "function"
    },
    {
      "inputs": [
        {
          "internalType": "address",
          "name": "newOwner",
          "type": "address"
        }
      ],
      "name": "transferOwnership",
      "outputs": [],
      "stateMutability": "nonpayable",
      "type": "function"
    }
  ],
  "bytecode": "0x60a06040526002805463ffffffff1916619d4a17905534801561002157600080fd5b50736edce65403992e310a62460808c4b910d972f10f338181808061006057604051631e4fbdf760e01b81526000600482015260240160405180910390fd5b610069816100ff565b506001600160a01b03808316608052811661009757604051632d618d8160e21b815260040160405180910390fd5b60805160405163ca5eb5e160e01b81526001600160a01b0383811660048301529091169063ca5eb5e190602401600060405180830381600087803b1580156100de57600080fd5b505af11580156100f2573d6000803e3d6000fd5b505050505050505061014f565b600080546001600160a01b038381166001600160a01b0319831681178455604051919092169283917f8be0079c531659141344cd1fd0a4f28419497f9722a3daafe3b4186f6b6457e09190a35050565b60805161166061018d600039600081816101b8015281816103df01528181610665015281816108be01528181610c7c0152610d3501526116606000f3fe60806040526004361061011f5760003560e01c8063881a8555116100a0578063ca5eb5e111610064578063ca5eb5e114610343578063d1f4681a14610363578063d416cdc914610376578063f2fde38b1461039d578063ff7bd03d146103bd57600080fd5b8063881a8555146102b15780638d1c1a0c146102c45780638da5cb5b146102d7578063a17a558d146102f5578063bb0b6a531461030857600080fd5b80635e280f11116100e75780635e280f11146101a6578063679bc4d5146101f2578063715018a6146102245780637d25a05e1461023957806382413eac1461027257600080fd5b806313137d651461012457806317442b701461013957806329ccde77146101605780633400288b1461017357806337e70e5314610193575b600080fd5b61013761013236600461109a565b6103dd565b005b34801561014557600080fd5b50604080516001815260026020820152015b60405180910390f35b61013761016e366004611156565b61049d565b34801561017f57600080fd5b5061013761018e3660046111c0565b610507565b6101376101a13660046111ea565b61051d565b3480156101b257600080fd5b506101da7f000000000000000000000000000000000000000000000000000000000000000081565b6040516001600160a01b039091168152602001610157565b3480156101fe57600080fd5b5060025461020f9063ffffffff1681565b60405163ffffffff9091168152602001610157565b34801561023057600080fd5b5061013761058d565b34801561024557600080fd5b506102596102543660046111c0565b6105a1565b60405167ffffffffffffffff9091168152602001610157565b34801561027e57600080fd5b506102a161028d366004611226565b6001600160a01b0381163014949350505050565b6040519015158152602001610157565b6101376102bf36600461128d565b6105aa565b6101376102d236600461128d565b610614565b3480156102e357600080fd5b506000546001600160a01b03166101da565b6101376103033660046112a6565b610628565b34801561031457600080fd5b506103356103233660046112db565b60016020526000908152604090205481565b604051908152602001610157565b34801561034f57600080fd5b5061013761035e3660046112f6565b61063e565b610137610371366004611313565b6106c4565b34801561038257600080fd5b506103356103913660046112f6565b6001600160a01b031690565b3480156103a957600080fd5b506101376103b83660046112f6565b610728565b3480156103c957600080fd5b506102a16103d8366004611335565b610766565b7f00000000000000000000000000000000000000000000000000000000000000006001600160a01b0316331461042d576040516391ac5e4f60e01b81523360048201526024015b60405180910390fd5b6020870180359061044790610442908a6112db565b61079c565b146104855761045960208801886112db565b60405163309afaf360e21b815263ffffffff909116600482015260208801356024820152604401610424565b610494878787878787876107d8565b50505050505050565b60006104b58484846104ad6107fe565b929190610821565b6040805133602082015290810187905290915060009060600160408051601f198184030181526002548383019092523483526000602084015292506104949163ffffffff90911690839085903361088b565b61050f61098b565b61051982826109b8565b5050565b6000610533838361052c6107fe565b9190610a0d565b6040805133602082015290810186905290915060009060600160408051601f198184030181526002548383019092523483526000602084015292506105859163ffffffff90911690839085903361088b565b505050505050565b61059561098b565b61059f6000610a55565b565b60005b92915050565b60006105bc61c350600061052c6107fe565b6040805133602082015290810184905290915060009060600160408051601f1981840301815260025483830190925234835260006020840152925061060e9163ffffffff90911690839085903361088b565b50505050565b60006105bc600061753060006104ad6107fe565b600061053383836106376107fe565b9190610aa5565b61064661098b565b60405163ca5eb5e160e01b81526001600160a01b0382811660048301527f0000000000000000000000000000000000000000000000000000000000000000169063ca5eb5e190602401600060405180830381600087803b1580156106a957600080fd5b505af11580156106bd573d6000803e3d6000fd5b5050505050565b60006106d6620186a0836106376107fe565b6040805133602082015290810185905290915060009060600160408051601f198184030181526002548383019092523483526000602084015292506106bd9163ffffffff90911690839085903361088b565b61073061098b565b6001600160a01b03811661075a57604051631e4fbdf760e01b815260006004820152602401610424565b61076381610a55565b50565b600060208201803590600190839061077e90866112db565b63ffffffff1681526020810191909152604001600020541492915050565b63ffffffff8116600090815260016020526040812054806105a45760405163f6ff4fb760e01b815263ffffffff84166004820152602401610424565b600060405180606001604052806028815260200161160360289139505050505050505050565b60408051600360f01b602082015281516002818303018152602290910190915290565b6060846003610831826000610ae3565b61ffff161461086557610845816000610ae3565b604051633a51740d60e01b815261ffff9091166004820152602401610424565b6000610872868686610b40565b905061088087600383610be5565b979650505050505050565b610893610fdc565b60006108a28460000151610c50565b6020850151909150156108bc576108bc8460200151610c78565b7f00000000000000000000000000000000000000000000000000000000000000006001600160a01b0316632637a450826040518060a001604052808b63ffffffff16815260200161090c8c61079c565b81526020018a815260200189815260200160008960200151111515815250866040518463ffffffff1660e01b81526004016109489291906113a1565b60806040518083038185885af1158015610966573d6000803e3d6000fd5b50505050506040513d601f19601f820116820180604052508101906108809190611451565b6000546001600160a01b0316331461059f5760405163118cdaa760e01b8152336004820152602401610424565b63ffffffff8216600081815260016020908152604091829020849055815192835282018390527f238399d427b947898edb290f5ff0f9109849b1c3ba196a42e35f00c50a54b98b910160405180910390a15050565b6060836003610a1d826000610ae3565b61ffff1614610a3157610845816000610ae3565b6000610a3d8585610d5a565b9050610a4b86600183610be5565b9695505050505050565b600080546001600160a01b038381166001600160a01b0319831681178455604051919092169283917f8be0079c531659141344cd1fd0a4f28419497f9722a3daafe3b4186f6b6457e09190a35050565b6060836003610ab5826000610ae3565b61ffff1614610ac957610845816000610ae3565b6000610ad58585610dd3565b9050610a4b86600283610be5565b6000610af082600261150b565b83511015610b375760405162461bcd60e51b8152602060048201526014602482015273746f55696e7431365f6f75744f66426f756e647360601b6044820152606401610424565b50016002015190565b60606001600160801b03821615610b9d576040516001600160f01b031960f086901b1660208201526001600160801b0319608085811b8216602284015284901b166032820152604201604051602081830303815290604052610bdb565b6040516001600160f01b031960f086901b1660208201526001600160801b0319608085901b1660228201526032016040516020818303038152906040525b90505b9392505050565b6060836003610bf5826000610ae3565b61ffff1614610c0957610845816000610ae3565b846001610c168551610dfc565b610c2190600161151e565b8686604051602001610c37959493929190611540565b6040516020818303038152906040529150509392505050565b6000813414610c74576040516304fb820960e51b8152346004820152602401610424565b5090565b60007f00000000000000000000000000000000000000000000000000000000000000006001600160a01b031663e4fe1d946040518163ffffffff1660e01b8152600401602060405180830381865afa158015610cd8573d6000803e3d6000fd5b505050506040513d601f19601f82011682018060405250810190610cfc91906115a7565b90506001600160a01b038116610d25576040516329b99a9560e11b815260040160405180910390fd5b6105196001600160a01b038216337f000000000000000000000000000000000000000000000000000000000000000085610e2b565b60606001600160801b03821615610da257604080516001600160801b0319608086811b8216602084015285901b16603082015201604051602081830303815290604052610bde565b6040516001600160801b0319608085901b1660208201526030015b6040516020818303038152906040529392505050565b6040516001600160801b0319608084901b16602082015260308101829052606090605001610dbd565b600061ffff821115610c74576040516306dfcc6560e41b81526010600482015260248101839052604401610424565b604080516001600160a01b038581166024830152848116604483015260648083018590528351808403909101815260849092019092526020810180516001600160e01b03166323b872dd60e01b17905261060e91869190600090610e9190841683610ee4565b90508051600014158015610eb6575080806020019051810190610eb491906115c4565b155b15610edf57604051635274afe760e01b81526001600160a01b0384166004820152602401610424565b505050565b6060610bde8383600084600080856001600160a01b03168486604051610f0a91906115e6565b60006040518083038185875af1925050503d8060008114610f47576040519150601f19603f3d011682016040523d82523d6000602084013e610f4c565b606091505b5091509150610a4b868383606082610f6c57610f6782610fb3565b610bde565b8151158015610f8357506001600160a01b0384163b155b15610fac57604051639996b31560e01b81526001600160a01b0385166004820152602401610424565b5080610bde565b805115610fc35780518082602001fd5b604051630a12f52160e11b815260040160405180910390fd5b604051806060016040528060008019168152602001600067ffffffffffffffff16815260200161101f604051806040016040528060008152602001600081525090565b905290565b60006060828403121561103657600080fd5b50919050565b60008083601f84011261104e57600080fd5b50813567ffffffffffffffff81111561106657600080fd5b60208301915083602082850101111561107e57600080fd5b9250929050565b6001600160a01b038116811461076357600080fd5b600080600080600080600060e0888a0312156110b557600080fd5b6110bf8989611024565b965060608801359550608088013567ffffffffffffffff808211156110e357600080fd5b6110ef8b838c0161103c565b909750955060a08a0135915061110482611085565b90935060c0890135908082111561111a57600080fd5b506111278a828b0161103c565b989b979a50959850939692959293505050565b80356001600160801b038116811461115157600080fd5b919050565b6000806000806080858703121561116c57600080fd5b84359350602085013561ffff8116811461118557600080fd5b92506111936040860161113a565b91506111a16060860161113a565b905092959194509250565b803563ffffffff8116811461115157600080fd5b600080604083850312156111d357600080fd5b6111dc836111ac565b946020939093013593505050565b6000806000606084860312156111ff57600080fd5b8335925061120f6020850161113a565b915061121d6040850161113a565b90509250925092565b60008060008060a0858703121561123c57600080fd5b6112468686611024565b9350606085013567ffffffffffffffff81111561126257600080fd5b61126e8782880161103c565b909450925050608085013561128281611085565b939692955090935050565b60006020828403121561129f57600080fd5b5035919050565b6000806000606084860312156112bb57600080fd5b833592506112cb6020850161113a565b9150604084013590509250925092565b6000602082840312156112ed57600080fd5b610bde826111ac565b60006020828403121561130857600080fd5b8135610bde81611085565b6000806040838503121561132657600080fd5b50508035926020909101359150565b60006060828403121561134757600080fd5b610bde8383611024565b60005b8381101561136c578181015183820152602001611354565b50506000910152565b6000815180845261138d816020860160208601611351565b601f01601f19169290920160200192915050565b6040815263ffffffff8351166040820152602083015160608201526000604084015160a060808401526113d760e0840182611375565b90506060850151603f198483030160a08501526113f48282611375565b60809690960151151560c08501525050506001600160a01b039190911660209091015290565b6040805190810167ffffffffffffffff8111828210171561144b57634e487b7160e01b600052604160045260246000fd5b60405290565b6000818303608081121561146457600080fd5b6040516060810167ffffffffffffffff828210818311171561149657634e487b7160e01b600052604160045260246000fd5b81604052855183526020860151915080821682146114b357600080fd5b5060208201526040603f19830112156114cb57600080fd5b6114d361141a565b6040858101518252606090950151602082015293810193909352509092915050565b634e487b7160e01b600052601160045260246000fd5b808201808211156105a4576105a46114f5565b61ffff818116838216019080821115611539576115396114f5565b5092915050565b60008651611552818460208b01611351565b6001600160f81b031960f888811b82169285019283526001600160f01b031960f089901b16600184015286901b1660038201528351611598816004840160208801611351565b01600401979650505050505050565b6000602082840312156115b957600080fd5b8151610bde81611085565b6000602082840312156115d657600080fd5b81518015158114610bde57600080fd5b600082516115f8818460208701611351565b919091019291505056fe4553544f20444520415155492045532050415241205155454d41524c4f2059204c4942455241522ea2646970667358221220242bdbb8f306bae997636c71ee8af3d857e287f5efe76e482c9909c646437b9464736f6c63430008180033",
  "linkReferences": {},
  "deployedLinkReferences": {}
}