{
  "_format": "hh-sol-artifact-1",
  "contractName": "dappStakingInteraction",
  "sourceName": "contracts/astar/dappStakingInteraction.sol",
  "abi": [
    {
      "inputs": [],
      "name": "DAPPS_STAKING",
      "outputs": [
        {
          "internalType": "contract dappStakingPrecompile",
          "name": "",
          "type": "address"
        }
      ],
      "stateMutability": "view",
      "type": "function"
    },
    {
      "inputs": [],
      "name": "getAndUpdateUnlockingPeriod",
      "outputs": [],
      "stateMutability": "nonpayable",
      "type": "function"
    },
    {
      "inputs": [],
      "name": "getUnlockingPeriod",
      "outputs": [
        {
          "internalType": "uint256",
          "name": "",
          "type": "uint256"
        }
      ],
      "stateMutability": "view",
      "type": "function"
    },
    {
      "inputs": [],
      "name": "protocolStateValue",
      "outputs": [
        {
          "internalType": "uint256",
          "name": "era",
          "type": "uint256"
        },
        {
          "internalType": "uint256",
          "name": "period",
          "type": "uint256"
        },
        {
          "internalType": "enum dappStakingInteraction.Subperiod",
          "name": "subperiod",
          "type": "uint8"
        }
      ],
      "stateMutability": "view",
      "type": "function"
    },
    {
      "inputs": [],
      "name": "unlockingPeriodValue",
      "outputs": [
        {
          "internalType": "uint256",
          "name": "",
          "type": "uint256"
        }
      ],
      "stateMutability": "view",
      "type": "function"
    }
  ],
  "bytecode": "0x608060405234801561001057600080fd5b5061022f806100206000396000f3fe608060405234801561001057600080fd5b50600436106100575760003560e01c806359b40f411461005c5780638abf40361461008257806391d1e4571461008c578063bdea98b8146100a2578063fc0df9de146100c6575b600080fd5b61006561500181565b6040516001600160a01b0390911681526020015b60405180910390f35b61008a6100cf565b005b61009461013b565b604051908152602001610079565b6000546001546002546100b792919060ff1683565b604051610079939291906101a6565b61009460035481565b60006150016001600160a01b031663eaca67546040518163ffffffff1660e01b8152600401602060405180830381865afa158015610111573d6000803e3d6000fd5b505050506040513d601f19601f8201168201806040525081019061013591906101e0565b60035550565b60006150016001600160a01b031663eaca67546040518163ffffffff1660e01b8152600401602060405180830381865afa15801561017d573d6000803e3d6000fd5b505050506040513d601f19601f820116820180604052508101906101a191906101e0565b905090565b8381526020810183905260608101600283106101d257634e487b7160e01b600052602160045260246000fd5b826040830152949350505050565b6000602082840312156101f257600080fd5b505191905056fea26469706673582212202c5bc20dd4e915e8f9b5ab9cde14ce538dee2564d926307102fe47912267f21164736f6c63430008180033",
  "linkReferences": {},
  "deployedLinkReferences": {}
}