{
  "_format": "hh-sol-artifact-1",
  "contractName": "astarL1Evm",
  "sourceName": "contracts/crossChain/samples/astarL1Evm.sol",
  "abi": [
    {
      "inputs": [],
      "stateMutability": "nonpayable",
      "type": "constructor"
    },
    {
      "inputs": [
        {
          "internalType": "address",
          "name": "target",
          "type": "address"
        }
      ],
      "name": "AddressEmptyCode",
      "type": "error"
    },
    {
      "inputs": [
        {
          "internalType": "address",
          "name": "account",
          "type": "address"
        }
      ],
      "name": "AddressInsufficientBalance",
      "type": "error"
    },
    {
      "inputs": [],
      "name": "FailedInnerCall",
      "type": "error"
    },
    {
      "inputs": [],
      "name": "InvalidDelegate",
      "type": "error"
    },
    {
      "inputs": [],
      "name": "InvalidEndpointCall",
      "type": "error"
    },
    {
      "inputs": [],
      "name": "LzTokenUnavailable",
      "type": "error"
    },
    {
      "inputs": [
        {
          "internalType": "uint32",
          "name": "eid",
          "type": "uint32"
        }
      ],
      "name": "NoPeer",
      "type": "error"
    },
    {
      "inputs": [
        {
          "internalType": "uint256",
          "name": "msgValue",
          "type": "uint256"
        }
      ],
      "name": "NotEnoughNative",
      "type": "error"
    },
    {
      "inputs": [
        {
          "internalType": "address",
          "name": "addr",
          "type": "address"
        }
      ],
      "name": "OnlyEndpoint",
      "type": "error"
    },
    {
      "inputs": [
        {
          "internalType": "uint32",
          "name": "eid",
          "type": "uint32"
        },
        {
          "internalType": "bytes32",
          "name": "sender",
          "type": "bytes32"
        }
      ],
      "name": "OnlyPeer",
      "type": "error"
    },
    {
      "inputs": [
        {
          "internalType": "address",
          "name": "owner",
          "type": "address"
        }
      ],
      "name": "OwnableInvalidOwner",
      "type": "error"
    },
    {
      "inputs": [
        {
          "internalType": "address",
          "name": "account",
          "type": "address"
        }
      ],
      "name": "OwnableUnauthorizedAccount",
      "type": "error"
    },
    {
      "inputs": [
        {
          "internalType": "address",
          "name": "token",
          "type": "address"
        }
      ],
      "name": "SafeERC20FailedOperation",
      "type": "error"
    },
    {
      "anonymous": false,
      "inputs": [
        {
          "indexed": true,
          "internalType": "address",
          "name": "previousOwner",
          "type": "address"
        },
        {
          "indexed": true,
          "internalType": "address",
          "name": "newOwner",
          "type": "address"
        }
      ],
      "name": "OwnershipTransferred",
      "type": "event"
    },
    {
      "anonymous": false,
      "inputs": [
        {
          "indexed": false,
          "internalType": "uint32",
          "name": "eid",
          "type": "uint32"
        },
        {
          "indexed": false,
          "internalType": "bytes32",
          "name": "peer",
          "type": "bytes32"
        }
      ],
      "name": "PeerSet",
      "type": "event"
    },
    {
      "inputs": [],
      "name": "ASTAR_USD_ADDRESS",
      "outputs": [
        {
          "internalType": "address",
          "name": "",
          "type": "address"
        }
      ],
      "stateMutability": "view",
      "type": "function"
    },
    {
      "inputs": [],
      "name": "DESTINATION_CHAIN_ADDRESS",
      "outputs": [
        {
          "internalType": "address",
          "name": "",
          "type": "address"
        }
      ],
      "stateMutability": "view",
      "type": "function"
    },
    {
      "inputs": [],
      "name": "DESTINATION_EID",
      "outputs": [
        {
          "internalType": "uint32",
          "name": "",
          "type": "uint32"
        }
      ],
      "stateMutability": "view",
      "type": "function"
    },
    {
      "inputs": [],
      "name": "WHITELISTED_SOURCE_CHAIN",
      "outputs": [
        {
          "internalType": "address",
          "name": "",
          "type": "address"
        }
      ],
      "stateMutability": "view",
      "type": "function"
    },
    {
      "inputs": [
        {
          "components": [
            {
              "internalType": "uint32",
              "name": "srcEid",
              "type": "uint32"
            },
            {
              "internalType": "bytes32",
              "name": "sender",
              "type": "bytes32"
            },
            {
              "internalType": "uint64",
              "name": "nonce",
              "type": "uint64"
            }
          ],
          "internalType": "struct Origin",
          "name": "origin",
          "type": "tuple"
        }
      ],
      "name": "allowInitializePath",
      "outputs": [
        {
          "internalType": "bool",
          "name": "",
          "type": "bool"
        }
      ],
      "stateMutability": "view",
      "type": "function"
    },
    {
      "inputs": [
        {
          "internalType": "uint256",
          "name": "paramTokenQuantityToDeposit",
          "type": "uint256"
        }
      ],
      "name": "depositTokens",
      "outputs": [],
      "stateMutability": "nonpayable",
      "type": "function"
    },
    {
      "inputs": [],
      "name": "endpoint",
      "outputs": [
        {
          "internalType": "contract ILayerZeroEndpointV2",
          "name": "",
          "type": "address"
        }
      ],
      "stateMutability": "view",
      "type": "function"
    },
    {
      "inputs": [
        {
          "components": [
            {
              "internalType": "uint32",
              "name": "srcEid",
              "type": "uint32"
            },
            {
              "internalType": "bytes32",
              "name": "sender",
              "type": "bytes32"
            },
            {
              "internalType": "uint64",
              "name": "nonce",
              "type": "uint64"
            }
          ],
          "internalType": "struct Origin",
          "name": "",
          "type": "tuple"
        },
        {
          "internalType": "bytes",
          "name": "",
          "type": "bytes"
        },
        {
          "internalType": "address",
          "name": "_sender",
          "type": "address"
        }
      ],
      "name": "isComposeMsgSender",
      "outputs": [
        {
          "internalType": "bool",
          "name": "",
          "type": "bool"
        }
      ],
      "stateMutability": "view",
      "type": "function"
    },
    {
      "inputs": [
        {
          "components": [
            {
              "internalType": "uint32",
              "name": "srcEid",
              "type": "uint32"
            },
            {
              "internalType": "bytes32",
              "name": "sender",
              "type": "bytes32"
            },
            {
              "internalType": "uint64",
              "name": "nonce",
              "type": "uint64"
            }
          ],
          "internalType": "struct Origin",
          "name": "_origin",
          "type": "tuple"
        },
        {
          "internalType": "bytes32",
          "name": "_guid",
          "type": "bytes32"
        },
        {
          "internalType": "bytes",
          "name": "_message",
          "type": "bytes"
        },
        {
          "internalType": "address",
          "name": "_executor",
          "type": "address"
        },
        {
          "internalType": "bytes",
          "name": "_extraData",
          "type": "bytes"
        }
      ],
      "name": "lzReceive",
      "outputs": [],
      "stateMutability": "payable",
      "type": "function"
    },
    {
      "inputs": [
        {
          "internalType": "uint32",
          "name": "",
          "type": "uint32"
        },
        {
          "internalType": "bytes32",
          "name": "",
          "type": "bytes32"
        }
      ],
      "name": "nextNonce",
      "outputs": [
        {
          "internalType": "uint64",
          "name": "nonce",
          "type": "uint64"
        }
      ],
      "stateMutability": "view",
      "type": "function"
    },
    {
      "inputs": [],
      "name": "oAppVersion",
      "outputs": [
        {
          "internalType": "uint64",
          "name": "senderVersion",
          "type": "uint64"
        },
        {
          "internalType": "uint64",
          "name": "receiverVersion",
          "type": "uint64"
        }
      ],
      "stateMutability": "pure",
      "type": "function"
    },
    {
      "inputs": [],
      "name": "owner",
      "outputs": [
        {
          "internalType": "address",
          "name": "",
          "type": "address"
        }
      ],
      "stateMutability": "view",
      "type": "function"
    },
    {
      "inputs": [
        {
          "internalType": "uint32",
          "name": "eid",
          "type": "uint32"
        }
      ],
      "name": "peers",
      "outputs": [
        {
          "internalType": "bytes32",
          "name": "peer",
          "type": "bytes32"
        }
      ],
      "stateMutability": "view",
      "type": "function"
    },
    {
      "inputs": [],
      "name": "renounceOwnership",
      "outputs": [],
      "stateMutability": "nonpayable",
      "type": "function"
    },
    {
      "inputs": [
        {
          "internalType": "uint32",
          "name": "_dstEid",
          "type": "uint32"
        },
        {
          "internalType": "uint256",
          "name": "paramTokensQuantity",
          "type": "uint256"
        },
        {
          "internalType": "address",
          "name": "paramReceiverAddress",
          "type": "address"
        },
        {
          "internalType": "bytes",
          "name": "_options",
          "type": "bytes"
        }
      ],
      "name": "send",
      "outputs": [],
      "stateMutability": "payable",
      "type": "function"
    },
    {
      "inputs": [
        {
          "internalType": "uint32",
          "name": "_dstEid",
          "type": "uint32"
        },
        {
          "internalType": "string",
          "name": "_message",
          "type": "string"
        },
        {
          "internalType": "bytes",
          "name": "_options",
          "type": "bytes"
        }
      ],
      "name": "send",
      "outputs": [],
      "stateMutability": "payable",
      "type": "function"
    },
    {
      "inputs": [
        {
          "internalType": "address",
          "name": "_delegate",
          "type": "address"
        }
      ],
      "name": "setDelegate",
      "outputs": [],
      "stateMutability": "nonpayable",
      "type": "function"
    },
    {
      "inputs": [
        {
          "internalType": "address",
          "name": "paramDestinationAddress",
          "type": "address"
        }
      ],
      "name": "setDestinationChain",
      "outputs": [],
      "stateMutability": "nonpayable",
      "type": "function"
    },
    {
      "inputs": [
        {
          "internalType": "uint32",
          "name": "paramDestinationEid",
          "type": "uint32"
        }
      ],
      "name": "setDestinationEid",
      "outputs": [],
      "stateMutability": "nonpayable",
      "type": "function"
    },
    {
      "inputs": [
        {
          "internalType": "uint32",
          "name": "_eid",
          "type": "uint32"
        },
        {
          "internalType": "bytes32",
          "name": "_peer",
          "type": "bytes32"
        }
      ],
      "name": "setPeer",
      "outputs": [],
      "stateMutability": "nonpayable",
      "type": "function"
    },
    {
      "inputs": [
        {
          "internalType": "address",
          "name": "newOwner",
          "type": "address"
        }
      ],
      "name": "transferOwnership",
      "outputs": [],
      "stateMutability": "nonpayable",
      "type": "function"
    },
    {
      "stateMutability": "payable",
      "type": "receive"
    }
  ],
  "bytecode": "0x60a060405234801561001057600080fd5b50736edce65403992e310a62460808c4b910d972f10f3381818181808061005157604051631e4fbdf760e01b81526000600482015260240160405180910390fd5b61005a816100f2565b506001600160a01b03808316608052811661008857604051632d618d8160e21b815260040160405180910390fd5b60805160405163ca5eb5e160e01b81526001600160a01b0383811660048301529091169063ca5eb5e190602401600060405180830381600087803b1580156100cf57600080fd5b505af11580156100e3573d6000803e3d6000fd5b50505050505050505050610142565b600080546001600160a01b038381166001600160a01b0319831681178455604051919092169283917f8be0079c531659141344cd1fd0a4f28419497f9722a3daafe3b4186f6b6457e09190a35050565b60805161142d610180600039600081816102410152818161048b0152818161061601528181610a4101528181610b450152610bfc015261142d6000f3fe60806040526004361061012e5760003560e01c80638da5cb5b116100ab578063dd49756e1161006f578063dd49756e1461039f578063e0539e58146103bf578063f2fde38b146103d3578063f7daa821146103f3578063fef062311461042c578063ff7bd03d1461046957600080fd5b80638da5cb5b146102f3578063a217963514610311578063bb0b6a5314610331578063c5d1b2151461036c578063ca5eb5e11461037f57600080fd5b8063588cc68f116100f2578063588cc68f1461020f5780635e280f111461022f578063715018a6146102635780637d25a05e1461027857806382413eac146102b457600080fd5b806313137d651461013a57806317442b701461014f5780631b89690c146101765780633400288b146101ae57806338224e2d146101ce57600080fd5b3661013557005b600080fd5b61014d610148366004610ec2565b610489565b005b34801561015b57600080fd5b50604080516001815260026020820152015b60405180910390f35b34801561018257600080fd5b50600454610196906001600160a01b031681565b6040516001600160a01b03909116815260200161016d565b3480156101ba57600080fd5b5061014d6101c9366004610f7b565b61053a565b3480156101da57600080fd5b5061014d6101e9366004610fa5565b6004805463ffffffff909216600160a01b0263ffffffff60a01b19909216919091179055565b34801561021b57600080fd5b50600354610196906001600160a01b031681565b34801561023b57600080fd5b506101967f000000000000000000000000000000000000000000000000000000000000000081565b34801561026f57600080fd5b5061014d610550565b34801561028457600080fd5b5061029b610293366004610f7b565b600092915050565b60405167ffffffffffffffff909116815260200161016d565b3480156102c057600080fd5b506102e36102cf366004610fc0565b6001600160a01b0381163014949350505050565b604051901515815260200161016d565b3480156102ff57600080fd5b506000546001600160a01b0316610196565b34801561031d57600080fd5b50600254610196906001600160a01b031681565b34801561033d57600080fd5b5061035e61034c366004610fa5565b60016020526000908152604090205481565b60405190815260200161016d565b61014d61037a366004611027565b610564565b34801561038b57600080fd5b5061014d61039a366004611098565b6105ef565b3480156103ab57600080fd5b5061014d6103ba3660046110b5565b610675565b61014d6103cd36600461113e565b50505050565b3480156103df57600080fd5b5061014d6103ee366004611098565b610886565b3480156103ff57600080fd5b5060045461041790600160a01b900463ffffffff1681565b60405163ffffffff909116815260200161016d565b34801561043857600080fd5b5061014d610447366004611098565b600480546001600160a01b0319166001600160a01b0392909216919091179055565b34801561047557600080fd5b506102e3610484366004611208565b6108c4565b7f00000000000000000000000000000000000000000000000000000000000000006001600160a01b031633146104d9576040516391ac5e4f60e01b81523360048201526024015b60405180910390fd5b602087018035906104f3906104ee908a610fa5565b6108fa565b14610531576105056020880188610fa5565b60405163309afaf360e21b815263ffffffff9091166004820152602088013560248201526044016104d0565b50505050505050565b61054261093c565b61054c8282610969565b5050565b61055861093c565b61056260006109be565b565b6000848460405160200161058b9291909182526001600160a01b0316602082015260400190565b60408051601f198184030181526020601f86018190048102840181019092528483529250610531918891849190879087908190840183828082843760009201829052506040805180820190915234815260208101919091529250339150610a0e9050565b6105f761093c565b60405163ca5eb5e160e01b81526001600160a01b0382811660048301527f0000000000000000000000000000000000000000000000000000000000000000169063ca5eb5e190602401600060405180830381600087803b15801561065a57600080fd5b505af115801561066e573d6000803e3d6000fd5b5050505050565b6002546040516370a0823160e01b81523360048201526000916001600160a01b0316906370a0823190602401602060405180830381865afa1580156106be573d6000803e3d6000fd5b505050506040513d601f19601f820116820180604052508101906106e29190611224565b600254604051636eb1769f60e11b81523360048201523060248201529192506000916001600160a01b039091169063dd62ed3e90604401602060405180830381865afa158015610736573d6000803e3d6000fd5b505050506040513d601f19601f8201168201806040525081019061075a9190611224565b9050828210156107ac5760405162461bcd60e51b815260206004820152601e60248201527f5573657220646f65736e74206f776e20656e6f75676820746f6b656e732e000060448201526064016104d0565b8281101561080b5760405162461bcd60e51b815260206004820152602660248201527f416c6c6f77616e6365206e6f7420656e6f7567682c20706c65617365206164646044820152651036b7b9329760d11b60648201526084016104d0565b6002546040516323b872dd60e01b8152336004820152306024820152604481018590526001600160a01b03909116906323b872dd906064016020604051808303816000875af1158015610862573d6000803e3d6000fd5b505050506040513d601f19601f820116820180604052508101906103cd919061123d565b61088e61093c565b6001600160a01b0381166108b857604051631e4fbdf760e01b8152600060048201526024016104d0565b6108c1816109be565b50565b60006020820180359060019083906108dc9086610fa5565b63ffffffff1681526020810191909152604001600020541492915050565b63ffffffff8116600090815260016020526040812054806109365760405163f6ff4fb760e01b815263ffffffff841660048201526024016104d0565b92915050565b6000546001600160a01b031633146105625760405163118cdaa760e01b81523360048201526024016104d0565b63ffffffff8216600081815260016020908152604091829020849055815192835282018390527f238399d427b947898edb290f5ff0f9109849b1c3ba196a42e35f00c50a54b98b910160405180910390a15050565b600080546001600160a01b038381166001600160a01b0319831681178455604051919092169283917f8be0079c531659141344cd1fd0a4f28419497f9722a3daafe3b4186f6b6457e09190a35050565b610a16610e04565b6000610a258460000151610b19565b602085015190915015610a3f57610a3f8460200151610b41565b7f00000000000000000000000000000000000000000000000000000000000000006001600160a01b0316632637a450826040518060a001604052808b63ffffffff168152602001610a8f8c6108fa565b81526020018a815260200189815260200160008960200151111515815250866040518463ffffffff1660e01b8152600401610acb9291906112af565b60806040518083038185885af1158015610ae9573d6000803e3d6000fd5b50505050506040513d601f19601f82011682018060405250810190610b0e9190611328565b979650505050505050565b6000813414610b3d576040516304fb820960e51b81523460048201526024016104d0565b5090565b60007f00000000000000000000000000000000000000000000000000000000000000006001600160a01b031663e4fe1d946040518163ffffffff1660e01b8152600401602060405180830381865afa158015610ba1573d6000803e3d6000fd5b505050506040513d601f19601f82011682018060405250810190610bc591906113be565b90506001600160a01b038116610bee576040516329b99a9560e11b815260040160405180910390fd5b6040805133602482018190527f00000000000000000000000000000000000000000000000000000000000000006001600160a01b03818116604485015260648085018890528551808603909101815260849094019094526020830180516001600160e01b03166323b872dd60e01b17905261054c9385169286906103cd9085906000610c7a8383610ccd565b90508051600014158015610c9f575080806020019051810190610c9d919061123d565b155b15610cc857604051635274afe760e01b81526001600160a01b03841660048201526024016104d0565b505050565b6060610cdb83836000610ce2565b9392505050565b606081471015610d075760405163cd78605960e01b81523060048201526024016104d0565b600080856001600160a01b03168486604051610d2391906113db565b60006040518083038185875af1925050503d8060008114610d60576040519150601f19603f3d011682016040523d82523d6000602084013e610d65565b606091505b5091509150610d75868383610d7f565b9695505050505050565b606082610d9457610d8f82610ddb565b610cdb565b8151158015610dab57506001600160a01b0384163b155b15610dd457604051639996b31560e01b81526001600160a01b03851660048201526024016104d0565b5080610cdb565b805115610deb5780518082602001fd5b604051630a12f52160e11b815260040160405180910390fd5b604051806060016040528060008019168152602001600067ffffffffffffffff168152602001610e47604051806040016040528060008152602001600081525090565b905290565b600060608284031215610e5e57600080fd5b50919050565b60008083601f840112610e7657600080fd5b50813567ffffffffffffffff811115610e8e57600080fd5b602083019150836020828501011115610ea657600080fd5b9250929050565b6001600160a01b03811681146108c157600080fd5b600080600080600080600060e0888a031215610edd57600080fd5b610ee78989610e4c565b965060608801359550608088013567ffffffffffffffff80821115610f0b57600080fd5b610f178b838c01610e64565b909750955060a08a01359150610f2c82610ead565b90935060c08901359080821115610f4257600080fd5b50610f4f8a828b01610e64565b989b979a50959850939692959293505050565b803563ffffffff81168114610f7657600080fd5b919050565b60008060408385031215610f8e57600080fd5b610f9783610f62565b946020939093013593505050565b600060208284031215610fb757600080fd5b610cdb82610f62565b60008060008060a08587031215610fd657600080fd5b610fe08686610e4c565b9350606085013567ffffffffffffffff811115610ffc57600080fd5b61100887828801610e64565b909450925050608085013561101c81610ead565b939692955090935050565b60008060008060006080868803121561103f57600080fd5b61104886610f62565b945060208601359350604086013561105f81610ead565b9250606086013567ffffffffffffffff81111561107b57600080fd5b61108788828901610e64565b969995985093965092949392505050565b6000602082840312156110aa57600080fd5b8135610cdb81610ead565b6000602082840312156110c757600080fd5b5035919050565b634e487b7160e01b600052604160045260246000fd5b6040805190810167ffffffffffffffff81118282101715611107576111076110ce565b60405290565b604051601f8201601f1916810167ffffffffffffffff81118282101715611136576111366110ce565b604052919050565b6000806000806060858703121561115457600080fd5b61115d85610f62565b935060208086013567ffffffffffffffff8082111561117b57600080fd5b818801915088601f83011261118f57600080fd5b8135818111156111a1576111a16110ce565b6111b3601f8201601f1916850161110d565b8181528a858386010111156111c757600080fd5b8185850186830137600091810190940152919450604087013591808311156111ee57600080fd5b50506111fc87828801610e64565b95989497509550505050565b60006060828403121561121a57600080fd5b610cdb8383610e4c565b60006020828403121561123657600080fd5b5051919050565b60006020828403121561124f57600080fd5b81518015158114610cdb57600080fd5b60005b8381101561127a578181015183820152602001611262565b50506000910152565b6000815180845261129b81602086016020860161125f565b601f01601f19169290920160200192915050565b6040815263ffffffff8351166040820152602083015160608201526000604084015160a060808401526112e560e0840182611283565b90506060850151603f198483030160a08501526113028282611283565b60809690960151151560c08501525050506001600160a01b039190911660209091015290565b6000818303608081121561133b57600080fd5b6040516060810167ffffffffffffffff828210818311171561135f5761135f6110ce565b816040528551835260208601519150808216821461137c57600080fd5b5060208201526040603f198301121561139457600080fd5b61139c6110e4565b6040858101518252606090950151602082015293810193909352509092915050565b6000602082840312156113d057600080fd5b8151610cdb81610ead565b600082516113ed81846020870161125f565b919091019291505056fea2646970667358221220768d27f1e7182333a80b1c7c878544062cf265d8c162474943606fcc32ba0b7e64736f6c63430008180033",
  "linkReferences": {},
  "deployedLinkReferences": {}
}