{
  "_format": "hh-sol-artifact-1",
  "contractName": "ethereumEndpoint",
  "sourceName": "contracts/crossChain/ethereumEndpoint.sol",
  "abi": [
    {
      "inputs": [],
      "stateMutability": "nonpayable",
      "type": "constructor"
    },
    {
      "inputs": [
        {
          "internalType": "address",
          "name": "target",
          "type": "address"
        }
      ],
      "name": "AddressEmptyCode",
      "type": "error"
    },
    {
      "inputs": [
        {
          "internalType": "address",
          "name": "account",
          "type": "address"
        }
      ],
      "name": "AddressInsufficientBalance",
      "type": "error"
    },
    {
      "inputs": [],
      "name": "FailedInnerCall",
      "type": "error"
    },
    {
      "inputs": [],
      "name": "InvalidDelegate",
      "type": "error"
    },
    {
      "inputs": [],
      "name": "InvalidEndpointCall",
      "type": "error"
    },
    {
      "inputs": [
        {
          "internalType": "uint16",
          "name": "optionType",
          "type": "uint16"
        }
      ],
      "name": "InvalidOptionType",
      "type": "error"
    },
    {
      "inputs": [],
      "name": "LzTokenUnavailable",
      "type": "error"
    },
    {
      "inputs": [
        {
          "internalType": "uint32",
          "name": "eid",
          "type": "uint32"
        }
      ],
      "name": "NoPeer",
      "type": "error"
    },
    {
      "inputs": [
        {
          "internalType": "uint256",
          "name": "msgValue",
          "type": "uint256"
        }
      ],
      "name": "NotEnoughNative",
      "type": "error"
    },
    {
      "inputs": [
        {
          "internalType": "address",
          "name": "addr",
          "type": "address"
        }
      ],
      "name": "OnlyEndpoint",
      "type": "error"
    },
    {
      "inputs": [
        {
          "internalType": "uint32",
          "name": "eid",
          "type": "uint32"
        },
        {
          "internalType": "bytes32",
          "name": "sender",
          "type": "bytes32"
        }
      ],
      "name": "OnlyPeer",
      "type": "error"
    },
    {
      "inputs": [
        {
          "internalType": "address",
          "name": "owner",
          "type": "address"
        }
      ],
      "name": "OwnableInvalidOwner",
      "type": "error"
    },
    {
      "inputs": [
        {
          "internalType": "address",
          "name": "account",
          "type": "address"
        }
      ],
      "name": "OwnableUnauthorizedAccount",
      "type": "error"
    },
    {
      "inputs": [
        {
          "internalType": "uint8",
          "name": "bits",
          "type": "uint8"
        },
        {
          "internalType": "uint256",
          "name": "value",
          "type": "uint256"
        }
      ],
      "name": "SafeCastOverflowedUintDowncast",
      "type": "error"
    },
    {
      "inputs": [
        {
          "internalType": "address",
          "name": "token",
          "type": "address"
        }
      ],
      "name": "SafeERC20FailedOperation",
      "type": "error"
    },
    {
      "anonymous": false,
      "inputs": [
        {
          "indexed": true,
          "internalType": "address",
          "name": "previousOwner",
          "type": "address"
        },
        {
          "indexed": true,
          "internalType": "address",
          "name": "newOwner",
          "type": "address"
        }
      ],
      "name": "OwnershipTransferred",
      "type": "event"
    },
    {
      "anonymous": false,
      "inputs": [
        {
          "indexed": false,
          "internalType": "uint32",
          "name": "eid",
          "type": "uint32"
        },
        {
          "indexed": false,
          "internalType": "bytes32",
          "name": "peer",
          "type": "bytes32"
        }
      ],
      "name": "PeerSet",
      "type": "event"
    },
    {
      "inputs": [],
      "name": "ASTAR_ZKYOTO_EID",
      "outputs": [
        {
          "internalType": "uint32",
          "name": "",
          "type": "uint32"
        }
      ],
      "stateMutability": "view",
      "type": "function"
    },
    {
      "inputs": [
        {
          "components": [
            {
              "internalType": "uint32",
              "name": "srcEid",
              "type": "uint32"
            },
            {
              "internalType": "bytes32",
              "name": "sender",
              "type": "bytes32"
            },
            {
              "internalType": "uint64",
              "name": "nonce",
              "type": "uint64"
            }
          ],
          "internalType": "struct Origin",
          "name": "origin",
          "type": "tuple"
        }
      ],
      "name": "allowInitializePath",
      "outputs": [
        {
          "internalType": "bool",
          "name": "",
          "type": "bool"
        }
      ],
      "stateMutability": "view",
      "type": "function"
    },
    {
      "inputs": [
        {
          "internalType": "uint256",
          "name": "paramStablecoinQuantityToBridge",
          "type": "uint256"
        }
      ],
      "name": "bridgeStablecoin",
      "outputs": [],
      "stateMutability": "payable",
      "type": "function"
    },
    {
      "inputs": [],
      "name": "endpoint",
      "outputs": [
        {
          "internalType": "contract ILayerZeroEndpointV2",
          "name": "",
          "type": "address"
        }
      ],
      "stateMutability": "view",
      "type": "function"
    },
    {
      "inputs": [
        {
          "internalType": "address",
          "name": "paramPeerAddress",
          "type": "address"
        }
      ],
      "name": "getPeerBytes32Address",
      "outputs": [
        {
          "internalType": "bytes32",
          "name": "",
          "type": "bytes32"
        }
      ],
      "stateMutability": "view",
      "type": "function"
    },
    {
      "inputs": [
        {
          "components": [
            {
              "internalType": "uint32",
              "name": "srcEid",
              "type": "uint32"
            },
            {
              "internalType": "bytes32",
              "name": "sender",
              "type": "bytes32"
            },
            {
              "internalType": "uint64",
              "name": "nonce",
              "type": "uint64"
            }
          ],
          "internalType": "struct Origin",
          "name": "",
          "type": "tuple"
        },
        {
          "internalType": "bytes",
          "name": "",
          "type": "bytes"
        },
        {
          "internalType": "address",
          "name": "_sender",
          "type": "address"
        }
      ],
      "name": "isComposeMsgSender",
      "outputs": [
        {
          "internalType": "bool",
          "name": "",
          "type": "bool"
        }
      ],
      "stateMutability": "view",
      "type": "function"
    },
    {
      "inputs": [
        {
          "components": [
            {
              "internalType": "uint32",
              "name": "srcEid",
              "type": "uint32"
            },
            {
              "internalType": "bytes32",
              "name": "sender",
              "type": "bytes32"
            },
            {
              "internalType": "uint64",
              "name": "nonce",
              "type": "uint64"
            }
          ],
          "internalType": "struct Origin",
          "name": "_origin",
          "type": "tuple"
        },
        {
          "internalType": "bytes32",
          "name": "_guid",
          "type": "bytes32"
        },
        {
          "internalType": "bytes",
          "name": "_message",
          "type": "bytes"
        },
        {
          "internalType": "address",
          "name": "_executor",
          "type": "address"
        },
        {
          "internalType": "bytes",
          "name": "_extraData",
          "type": "bytes"
        }
      ],
      "name": "lzReceive",
      "outputs": [],
      "stateMutability": "payable",
      "type": "function"
    },
    {
      "inputs": [
        {
          "internalType": "uint32",
          "name": "",
          "type": "uint32"
        },
        {
          "internalType": "bytes32",
          "name": "",
          "type": "bytes32"
        }
      ],
      "name": "nextNonce",
      "outputs": [
        {
          "internalType": "uint64",
          "name": "nonce",
          "type": "uint64"
        }
      ],
      "stateMutability": "view",
      "type": "function"
    },
    {
      "inputs": [],
      "name": "oAppVersion",
      "outputs": [
        {
          "internalType": "uint64",
          "name": "senderVersion",
          "type": "uint64"
        },
        {
          "internalType": "uint64",
          "name": "receiverVersion",
          "type": "uint64"
        }
      ],
      "stateMutability": "pure",
      "type": "function"
    },
    {
      "inputs": [],
      "name": "owner",
      "outputs": [
        {
          "internalType": "address",
          "name": "",
          "type": "address"
        }
      ],
      "stateMutability": "view",
      "type": "function"
    },
    {
      "inputs": [
        {
          "internalType": "uint32",
          "name": "eid",
          "type": "uint32"
        }
      ],
      "name": "peers",
      "outputs": [
        {
          "internalType": "bytes32",
          "name": "peer",
          "type": "bytes32"
        }
      ],
      "stateMutability": "view",
      "type": "function"
    },
    {
      "inputs": [],
      "name": "renounceOwnership",
      "outputs": [],
      "stateMutability": "nonpayable",
      "type": "function"
    },
    {
      "inputs": [
        {
          "internalType": "address",
          "name": "_delegate",
          "type": "address"
        }
      ],
      "name": "setDelegate",
      "outputs": [],
      "stateMutability": "nonpayable",
      "type": "function"
    },
    {
      "inputs": [
        {
          "internalType": "uint32",
          "name": "_eid",
          "type": "uint32"
        },
        {
          "internalType": "bytes32",
          "name": "_peer",
          "type": "bytes32"
        }
      ],
      "name": "setPeer",
      "outputs": [],
      "stateMutability": "nonpayable",
      "type": "function"
    },
    {
      "inputs": [
        {
          "internalType": "address",
          "name": "newOwner",
          "type": "address"
        }
      ],
      "name": "transferOwnership",
      "outputs": [],
      "stateMutability": "nonpayable",
      "type": "function"
    }
  ],
  "bytecode": "0x60a06040526002805463ffffffff1916619d4a17905534801561002157600080fd5b50736edce65403992e310a62460808c4b910d972f10f338181808061006057604051631e4fbdf760e01b81526000600482015260240160405180910390fd5b610069816100ff565b506001600160a01b03808316608052811661009757604051632d618d8160e21b815260040160405180910390fd5b60805160405163ca5eb5e160e01b81526001600160a01b0383811660048301529091169063ca5eb5e190602401600060405180830381600087803b1580156100de57600080fd5b505af11580156100f2573d6000803e3d6000fd5b505050505050505061014f565b600080546001600160a01b038381166001600160a01b0319831681178455604051919092169283917f8be0079c531659141344cd1fd0a4f28419497f9722a3daafe3b4186f6b6457e09190a35050565b60805161122261018d6000396000818161015b015281816103490152818161046101528181610792015281816109e00152610a9901526112226000f3fe6080604052600436106100e85760003560e01c806382413eac1161008a578063d416cdc911610059578063d416cdc9146102cd578063e85e430c146102f4578063f2fde38b14610307578063ff7bd03d1461032757600080fd5b806382413eac146102155780638da5cb5b14610254578063bb0b6a5314610272578063ca5eb5e1146102ad57600080fd5b80635e280f11116100c65780635e280f1114610149578063679bc4d514610195578063715018a6146101c75780637d25a05e146101dc57600080fd5b806313137d65146100ed57806317442b70146101025780633400288b14610129575b600080fd5b6101006100fb366004610d5c565b610347565b005b34801561010e57600080fd5b50604080516001815260026020820152015b60405180910390f35b34801561013557600080fd5b50610100610144366004610e15565b610407565b34801561015557600080fd5b5061017d7f000000000000000000000000000000000000000000000000000000000000000081565b6040516001600160a01b039091168152602001610120565b3480156101a157600080fd5b506002546101b29063ffffffff1681565b60405163ffffffff9091168152602001610120565b3480156101d357600080fd5b5061010061041d565b3480156101e857600080fd5b506101fc6101f7366004610e15565b610431565b60405167ffffffffffffffff9091168152602001610120565b34801561022157600080fd5b50610244610230366004610e3f565b6001600160a01b0381163014949350505050565b6040519015158152602001610120565b34801561026057600080fd5b506000546001600160a01b031661017d565b34801561027e57600080fd5b5061029f61028d366004610ea6565b60016020526000908152604090205481565b604051908152602001610120565b3480156102b957600080fd5b506101006102c8366004610ec1565b61043a565b3480156102d957600080fd5b5061029f6102e8366004610ec1565b6001600160a01b031690565b610100610302366004610ede565b6104c0565b34801561031357600080fd5b50610100610322366004610ec1565b61054f565b34801561033357600080fd5b50610244610342366004610ef7565b61058d565b7f00000000000000000000000000000000000000000000000000000000000000006001600160a01b03163314610397576040516391ac5e4f60e01b81523360048201526024015b60405180910390fd5b602087018035906103b1906103ac908a610ea6565b6105c3565b146103ef576103c36020880188610ea6565b60405163309afaf360e21b815263ffffffff90911660048201526020880135602482015260440161038e565b6103fe878787878787876105ff565b50505050505050565b61040f610625565b6104198282610652565b5050565b610425610625565b61042f60006106a7565b565b60005b92915050565b610442610625565b60405163ca5eb5e160e01b81526001600160a01b0382811660048301527f0000000000000000000000000000000000000000000000000000000000000000169063ca5eb5e190602401600060405180830381600087803b1580156104a557600080fd5b505af11580156104b9573d6000803e3d6000fd5b5050505050565b60006104f761c35060006104f060408051600360f01b602082015281516002818303018152602290910190915290565b91906106f7565b6040805133602082015290810184905290915060009060600160408051601f198184030181526002548383019092523483526000602084015292506105499163ffffffff90911690839085903361075f565b50505050565b610557610625565b6001600160a01b03811661058157604051631e4fbdf760e01b81526000600482015260240161038e565b61058a816106a7565b50565b60006020820180359060019083906105a59086610ea6565b63ffffffff1681526020810191909152604001600020541492915050565b63ffffffff8116600090815260016020526040812054806104345760405163f6ff4fb760e01b815263ffffffff8416600482015260240161038e565b60006040518060600160405280602881526020016111c560289139505050505050505050565b6000546001600160a01b0316331461042f5760405163118cdaa760e01b815233600482015260240161038e565b63ffffffff8216600081815260016020908152604091829020849055815192835282018390527f238399d427b947898edb290f5ff0f9109849b1c3ba196a42e35f00c50a54b98b910160405180910390a15050565b600080546001600160a01b038381166001600160a01b0319831681178455604051919092169283917f8be0079c531659141344cd1fd0a4f28419497f9722a3daafe3b4186f6b6457e09190a35050565b606083600361070782600061086a565b61ffff161461073b5761071b81600061086a565b604051633a51740d60e01b815261ffff909116600482015260240161038e565b600061074785856108c7565b905061075586600183610949565b9695505050505050565b610767610c9e565b600061077684600001516109b4565b6020850151909150156107905761079084602001516109dc565b7f00000000000000000000000000000000000000000000000000000000000000006001600160a01b0316632637a450826040518060a001604052808b63ffffffff1681526020016107e08c6105c3565b81526020018a815260200189815260200160008960200151111515815250866040518463ffffffff1660e01b815260040161081c929190610f63565b60806040518083038185885af115801561083a573d6000803e3d6000fd5b50505050506040513d601f19601f8201168201806040525081019061085f9190611013565b979650505050505050565b60006108778260026110cd565b835110156108be5760405162461bcd60e51b8152602060048201526014602482015273746f55696e7431365f6f75744f66426f756e647360601b604482015260640161038e565b50016002015190565b60606fffffffffffffffffffffffffffffffff82161561091857604080516001600160801b0319608086811b8216602084015285901b16603082015201604051602081830303815290604052610942565b6040516001600160801b0319608085901b1660208201526030016040516020818303038152906040525b9392505050565b606083600361095982600061086a565b61ffff161461096d5761071b81600061086a565b84600161097a8551610abe565b6109859060016110e0565b868660405160200161099b959493929190611102565b6040516020818303038152906040529150509392505050565b60008134146109d8576040516304fb820960e51b815234600482015260240161038e565b5090565b60007f00000000000000000000000000000000000000000000000000000000000000006001600160a01b031663e4fe1d946040518163ffffffff1660e01b8152600401602060405180830381865afa158015610a3c573d6000803e3d6000fd5b505050506040513d601f19601f82011682018060405250810190610a609190611169565b90506001600160a01b038116610a89576040516329b99a9560e11b815260040160405180910390fd5b6104196001600160a01b038216337f000000000000000000000000000000000000000000000000000000000000000085610aed565b600061ffff8211156109d8576040516306dfcc6560e41b8152601060048201526024810183905260440161038e565b604080516001600160a01b038581166024830152848116604483015260648083018590528351808403909101815260849092019092526020810180516001600160e01b03166323b872dd60e01b17905261054991869190600090610b5390841683610ba6565b90508051600014158015610b78575080806020019051810190610b769190611186565b155b15610ba157604051635274afe760e01b81526001600160a01b038416600482015260240161038e565b505050565b60606109428383600084600080856001600160a01b03168486604051610bcc91906111a8565b60006040518083038185875af1925050503d8060008114610c09576040519150601f19603f3d011682016040523d82523d6000602084013e610c0e565b606091505b5091509150610755868383606082610c2e57610c2982610c75565b610942565b8151158015610c4557506001600160a01b0384163b155b15610c6e57604051639996b31560e01b81526001600160a01b038516600482015260240161038e565b5080610942565b805115610c855780518082602001fd5b604051630a12f52160e11b815260040160405180910390fd5b604051806060016040528060008019168152602001600067ffffffffffffffff168152602001610ce1604051806040016040528060008152602001600081525090565b905290565b600060608284031215610cf857600080fd5b50919050565b60008083601f840112610d1057600080fd5b50813567ffffffffffffffff811115610d2857600080fd5b602083019150836020828501011115610d4057600080fd5b9250929050565b6001600160a01b038116811461058a57600080fd5b600080600080600080600060e0888a031215610d7757600080fd5b610d818989610ce6565b965060608801359550608088013567ffffffffffffffff80821115610da557600080fd5b610db18b838c01610cfe565b909750955060a08a01359150610dc682610d47565b90935060c08901359080821115610ddc57600080fd5b50610de98a828b01610cfe565b989b979a50959850939692959293505050565b803563ffffffff81168114610e1057600080fd5b919050565b60008060408385031215610e2857600080fd5b610e3183610dfc565b946020939093013593505050565b60008060008060a08587031215610e5557600080fd5b610e5f8686610ce6565b9350606085013567ffffffffffffffff811115610e7b57600080fd5b610e8787828801610cfe565b9094509250506080850135610e9b81610d47565b939692955090935050565b600060208284031215610eb857600080fd5b61094282610dfc565b600060208284031215610ed357600080fd5b813561094281610d47565b600060208284031215610ef057600080fd5b5035919050565b600060608284031215610f0957600080fd5b6109428383610ce6565b60005b83811015610f2e578181015183820152602001610f16565b50506000910152565b60008151808452610f4f816020860160208601610f13565b601f01601f19169290920160200192915050565b6040815263ffffffff8351166040820152602083015160608201526000604084015160a06080840152610f9960e0840182610f37565b90506060850151603f198483030160a0850152610fb68282610f37565b60809690960151151560c08501525050506001600160a01b039190911660209091015290565b6040805190810167ffffffffffffffff8111828210171561100d57634e487b7160e01b600052604160045260246000fd5b60405290565b6000818303608081121561102657600080fd5b6040516060810167ffffffffffffffff828210818311171561105857634e487b7160e01b600052604160045260246000fd5b816040528551835260208601519150808216821461107557600080fd5b5060208201526040603f198301121561108d57600080fd5b611095610fdc565b6040858101518252606090950151602082015293810193909352509092915050565b634e487b7160e01b600052601160045260246000fd5b80820180821115610434576104346110b7565b61ffff8181168382160190808211156110fb576110fb6110b7565b5092915050565b60008651611114818460208b01610f13565b6001600160f81b031960f888811b82169285019283526001600160f01b031960f089901b16600184015286901b166003820152835161115a816004840160208801610f13565b01600401979650505050505050565b60006020828403121561117b57600080fd5b815161094281610d47565b60006020828403121561119857600080fd5b8151801515811461094257600080fd5b600082516111ba818460208701610f13565b919091019291505056fe4553544f20444520415155492045532050415241205155454d41524c4f2059204c4942455241522ea264697066735822122073d887d15998fda4b760ae40a19f50230cf87c58938b4cba52ac55d5134ce3b564736f6c63430008180033",
  "linkReferences": {},
  "deployedLinkReferences": {}
}