{
  "_format": "hh-sol-artifact-1",
  "contractName": "ethereumL1",
  "sourceName": "contracts/crossChain/samples/ethereumL1.sol",
  "abi": [
    {
      "inputs": [],
      "stateMutability": "nonpayable",
      "type": "constructor"
    },
    {
      "inputs": [
        {
          "internalType": "address",
          "name": "target",
          "type": "address"
        }
      ],
      "name": "AddressEmptyCode",
      "type": "error"
    },
    {
      "inputs": [
        {
          "internalType": "address",
          "name": "account",
          "type": "address"
        }
      ],
      "name": "AddressInsufficientBalance",
      "type": "error"
    },
    {
      "inputs": [],
      "name": "FailedInnerCall",
      "type": "error"
    },
    {
      "inputs": [],
      "name": "InvalidDelegate",
      "type": "error"
    },
    {
      "inputs": [],
      "name": "InvalidEndpointCall",
      "type": "error"
    },
    {
      "inputs": [
        {
          "internalType": "uint16",
          "name": "optionType",
          "type": "uint16"
        }
      ],
      "name": "InvalidOptionType",
      "type": "error"
    },
    {
      "inputs": [],
      "name": "LzTokenUnavailable",
      "type": "error"
    },
    {
      "inputs": [
        {
          "internalType": "uint32",
          "name": "eid",
          "type": "uint32"
        }
      ],
      "name": "NoPeer",
      "type": "error"
    },
    {
      "inputs": [
        {
          "internalType": "uint256",
          "name": "msgValue",
          "type": "uint256"
        }
      ],
      "name": "NotEnoughNative",
      "type": "error"
    },
    {
      "inputs": [
        {
          "internalType": "address",
          "name": "addr",
          "type": "address"
        }
      ],
      "name": "OnlyEndpoint",
      "type": "error"
    },
    {
      "inputs": [
        {
          "internalType": "uint32",
          "name": "eid",
          "type": "uint32"
        },
        {
          "internalType": "bytes32",
          "name": "sender",
          "type": "bytes32"
        }
      ],
      "name": "OnlyPeer",
      "type": "error"
    },
    {
      "inputs": [
        {
          "internalType": "address",
          "name": "owner",
          "type": "address"
        }
      ],
      "name": "OwnableInvalidOwner",
      "type": "error"
    },
    {
      "inputs": [
        {
          "internalType": "address",
          "name": "account",
          "type": "address"
        }
      ],
      "name": "OwnableUnauthorizedAccount",
      "type": "error"
    },
    {
      "inputs": [
        {
          "internalType": "uint8",
          "name": "bits",
          "type": "uint8"
        },
        {
          "internalType": "uint256",
          "name": "value",
          "type": "uint256"
        }
      ],
      "name": "SafeCastOverflowedUintDowncast",
      "type": "error"
    },
    {
      "inputs": [
        {
          "internalType": "address",
          "name": "token",
          "type": "address"
        }
      ],
      "name": "SafeERC20FailedOperation",
      "type": "error"
    },
    {
      "anonymous": false,
      "inputs": [
        {
          "indexed": true,
          "internalType": "address",
          "name": "previousOwner",
          "type": "address"
        },
        {
          "indexed": true,
          "internalType": "address",
          "name": "newOwner",
          "type": "address"
        }
      ],
      "name": "OwnershipTransferred",
      "type": "event"
    },
    {
      "anonymous": false,
      "inputs": [
        {
          "indexed": false,
          "internalType": "uint32",
          "name": "eid",
          "type": "uint32"
        },
        {
          "indexed": false,
          "internalType": "bytes32",
          "name": "peer",
          "type": "bytes32"
        }
      ],
      "name": "PeerSet",
      "type": "event"
    },
    {
      "inputs": [],
      "name": "ASTAR_ZKYOTO_EID",
      "outputs": [
        {
          "internalType": "uint32",
          "name": "",
          "type": "uint32"
        }
      ],
      "stateMutability": "view",
      "type": "function"
    },
    {
      "inputs": [
        {
          "components": [
            {
              "internalType": "uint32",
              "name": "srcEid",
              "type": "uint32"
            },
            {
              "internalType": "bytes32",
              "name": "sender",
              "type": "bytes32"
            },
            {
              "internalType": "uint64",
              "name": "nonce",
              "type": "uint64"
            }
          ],
          "internalType": "struct Origin",
          "name": "origin",
          "type": "tuple"
        }
      ],
      "name": "allowInitializePath",
      "outputs": [
        {
          "internalType": "bool",
          "name": "",
          "type": "bool"
        }
      ],
      "stateMutability": "view",
      "type": "function"
    },
    {
      "inputs": [
        {
          "internalType": "uint256",
          "name": "paramStablecoinQuantityToBridge",
          "type": "uint256"
        }
      ],
      "name": "bridgeStablecoin",
      "outputs": [],
      "stateMutability": "payable",
      "type": "function"
    },
    {
      "inputs": [],
      "name": "endpoint",
      "outputs": [
        {
          "internalType": "contract ILayerZeroEndpointV2",
          "name": "",
          "type": "address"
        }
      ],
      "stateMutability": "view",
      "type": "function"
    },
    {
      "inputs": [
        {
          "internalType": "address",
          "name": "paramPeerAddress",
          "type": "address"
        }
      ],
      "name": "getPeerBytes32Address",
      "outputs": [
        {
          "internalType": "bytes32",
          "name": "",
          "type": "bytes32"
        }
      ],
      "stateMutability": "view",
      "type": "function"
    },
    {
      "inputs": [
        {
          "components": [
            {
              "internalType": "uint32",
              "name": "srcEid",
              "type": "uint32"
            },
            {
              "internalType": "bytes32",
              "name": "sender",
              "type": "bytes32"
            },
            {
              "internalType": "uint64",
              "name": "nonce",
              "type": "uint64"
            }
          ],
          "internalType": "struct Origin",
          "name": "",
          "type": "tuple"
        },
        {
          "internalType": "bytes",
          "name": "",
          "type": "bytes"
        },
        {
          "internalType": "address",
          "name": "_sender",
          "type": "address"
        }
      ],
      "name": "isComposeMsgSender",
      "outputs": [
        {
          "internalType": "bool",
          "name": "",
          "type": "bool"
        }
      ],
      "stateMutability": "view",
      "type": "function"
    },
    {
      "inputs": [
        {
          "components": [
            {
              "internalType": "uint32",
              "name": "srcEid",
              "type": "uint32"
            },
            {
              "internalType": "bytes32",
              "name": "sender",
              "type": "bytes32"
            },
            {
              "internalType": "uint64",
              "name": "nonce",
              "type": "uint64"
            }
          ],
          "internalType": "struct Origin",
          "name": "_origin",
          "type": "tuple"
        },
        {
          "internalType": "bytes32",
          "name": "_guid",
          "type": "bytes32"
        },
        {
          "internalType": "bytes",
          "name": "_message",
          "type": "bytes"
        },
        {
          "internalType": "address",
          "name": "_executor",
          "type": "address"
        },
        {
          "internalType": "bytes",
          "name": "_extraData",
          "type": "bytes"
        }
      ],
      "name": "lzReceive",
      "outputs": [],
      "stateMutability": "payable",
      "type": "function"
    },
    {
      "inputs": [
        {
          "internalType": "uint32",
          "name": "",
          "type": "uint32"
        },
        {
          "internalType": "bytes32",
          "name": "",
          "type": "bytes32"
        }
      ],
      "name": "nextNonce",
      "outputs": [
        {
          "internalType": "uint64",
          "name": "nonce",
          "type": "uint64"
        }
      ],
      "stateMutability": "view",
      "type": "function"
    },
    {
      "inputs": [],
      "name": "oAppVersion",
      "outputs": [
        {
          "internalType": "uint64",
          "name": "senderVersion",
          "type": "uint64"
        },
        {
          "internalType": "uint64",
          "name": "receiverVersion",
          "type": "uint64"
        }
      ],
      "stateMutability": "pure",
      "type": "function"
    },
    {
      "inputs": [],
      "name": "owner",
      "outputs": [
        {
          "internalType": "address",
          "name": "",
          "type": "address"
        }
      ],
      "stateMutability": "view",
      "type": "function"
    },
    {
      "inputs": [
        {
          "internalType": "uint32",
          "name": "eid",
          "type": "uint32"
        }
      ],
      "name": "peers",
      "outputs": [
        {
          "internalType": "bytes32",
          "name": "peer",
          "type": "bytes32"
        }
      ],
      "stateMutability": "view",
      "type": "function"
    },
    {
      "inputs": [],
      "name": "renounceOwnership",
      "outputs": [],
      "stateMutability": "nonpayable",
      "type": "function"
    },
    {
      "inputs": [
        {
          "internalType": "address",
          "name": "_delegate",
          "type": "address"
        }
      ],
      "name": "setDelegate",
      "outputs": [],
      "stateMutability": "nonpayable",
      "type": "function"
    },
    {
      "inputs": [
        {
          "internalType": "uint32",
          "name": "_eid",
          "type": "uint32"
        },
        {
          "internalType": "bytes32",
          "name": "_peer",
          "type": "bytes32"
        }
      ],
      "name": "setPeer",
      "outputs": [],
      "stateMutability": "nonpayable",
      "type": "function"
    },
    {
      "inputs": [
        {
          "internalType": "address",
          "name": "newOwner",
          "type": "address"
        }
      ],
      "name": "transferOwnership",
      "outputs": [],
      "stateMutability": "nonpayable",
      "type": "function"
    }
  ],
  "bytecode": "0x60a06040526002805463ffffffff1916619d4a17905534801561002157600080fd5b50736edce65403992e310a62460808c4b910d972f10f338181808061006057604051631e4fbdf760e01b81526000600482015260240160405180910390fd5b610069816100ff565b506001600160a01b03808316608052811661009757604051632d618d8160e21b815260040160405180910390fd5b60805160405163ca5eb5e160e01b81526001600160a01b0383811660048301529091169063ca5eb5e190602401600060405180830381600087803b1580156100de57600080fd5b505af11580156100f2573d6000803e3d6000fd5b505050505050505061014f565b600080546001600160a01b038381166001600160a01b0319831681178455604051919092169283917f8be0079c531659141344cd1fd0a4f28419497f9722a3daafe3b4186f6b6457e09190a35050565b6080516111c561018d6000396000818161015b01528181610349015281816104520152818161075d015281816109ab0152610a6401526111c56000f3fe6080604052600436106100e85760003560e01c806382413eac1161008a578063d416cdc911610059578063d416cdc9146102cd578063e85e430c146102f4578063f2fde38b14610307578063ff7bd03d1461032757600080fd5b806382413eac146102155780638da5cb5b14610254578063bb0b6a5314610272578063ca5eb5e1146102ad57600080fd5b80635e280f11116100c65780635e280f1114610149578063679bc4d514610195578063715018a6146101c75780637d25a05e146101dc57600080fd5b806313137d65146100ed57806317442b70146101025780633400288b14610129575b600080fd5b6101006100fb366004610d27565b610347565b005b34801561010e57600080fd5b50604080516001815260026020820152015b60405180910390f35b34801561013557600080fd5b50610100610144366004610de0565b6103f8565b34801561015557600080fd5b5061017d7f000000000000000000000000000000000000000000000000000000000000000081565b6040516001600160a01b039091168152602001610120565b3480156101a157600080fd5b506002546101b29063ffffffff1681565b60405163ffffffff9091168152602001610120565b3480156101d357600080fd5b5061010061040e565b3480156101e857600080fd5b506101fc6101f7366004610de0565b610422565b60405167ffffffffffffffff9091168152602001610120565b34801561022157600080fd5b50610244610230366004610e0a565b6001600160a01b0381163014949350505050565b6040519015158152602001610120565b34801561026057600080fd5b506000546001600160a01b031661017d565b34801561027e57600080fd5b5061029f61028d366004610e71565b60016020526000908152604090205481565b604051908152602001610120565b3480156102b957600080fd5b506101006102c8366004610e8c565b61042b565b3480156102d957600080fd5b5061029f6102e8366004610e8c565b6001600160a01b031690565b610100610302366004610ea9565b6104b1565b34801561031357600080fd5b50610100610322366004610e8c565b610540565b34801561033357600080fd5b50610244610342366004610ec2565b61057e565b7f00000000000000000000000000000000000000000000000000000000000000006001600160a01b03163314610397576040516391ac5e4f60e01b81523360048201526024015b60405180910390fd5b602087018035906103b1906103ac908a610e71565b6105b4565b146103ef576103c36020880188610e71565b60405163309afaf360e21b815263ffffffff90911660048201526020880135602482015260440161038e565b50505050505050565b6104006105f0565b61040a828261061d565b5050565b6104166105f0565b6104206000610672565b565b60005b92915050565b6104336105f0565b60405163ca5eb5e160e01b81526001600160a01b0382811660048301527f0000000000000000000000000000000000000000000000000000000000000000169063ca5eb5e190602401600060405180830381600087803b15801561049657600080fd5b505af11580156104aa573d6000803e3d6000fd5b5050505050565b60006104e861c35060006104e160408051600360f01b602082015281516002818303018152602290910190915290565b91906106c2565b6040805133602082015290810184905290915060009060600160408051601f1981840301815260025483830190925234835260006020840152925061053a9163ffffffff90911690839085903361072a565b50505050565b6105486105f0565b6001600160a01b03811661057257604051631e4fbdf760e01b81526000600482015260240161038e565b61057b81610672565b50565b60006020820180359060019083906105969086610e71565b63ffffffff1681526020810191909152604001600020541492915050565b63ffffffff8116600090815260016020526040812054806104255760405163f6ff4fb760e01b815263ffffffff8416600482015260240161038e565b6000546001600160a01b031633146104205760405163118cdaa760e01b815233600482015260240161038e565b63ffffffff8216600081815260016020908152604091829020849055815192835282018390527f238399d427b947898edb290f5ff0f9109849b1c3ba196a42e35f00c50a54b98b910160405180910390a15050565b600080546001600160a01b038381166001600160a01b0319831681178455604051919092169283917f8be0079c531659141344cd1fd0a4f28419497f9722a3daafe3b4186f6b6457e09190a35050565b60608360036106d2826000610835565b61ffff1614610706576106e6816000610835565b604051633a51740d60e01b815261ffff909116600482015260240161038e565b60006107128585610892565b905061072086600183610914565b9695505050505050565b610732610c69565b6000610741846000015161097f565b60208501519091501561075b5761075b84602001516109a7565b7f00000000000000000000000000000000000000000000000000000000000000006001600160a01b0316632637a450826040518060a001604052808b63ffffffff1681526020016107ab8c6105b4565b81526020018a815260200189815260200160008960200151111515815250866040518463ffffffff1660e01b81526004016107e7929190610f2e565b60806040518083038185885af1158015610805573d6000803e3d6000fd5b50505050506040513d601f19601f8201168201806040525081019061082a9190610fde565b979650505050505050565b6000610842826002611098565b835110156108895760405162461bcd60e51b8152602060048201526014602482015273746f55696e7431365f6f75744f66426f756e647360601b604482015260640161038e565b50016002015190565b60606fffffffffffffffffffffffffffffffff8216156108e357604080516001600160801b0319608086811b8216602084015285901b1660308201520160405160208183030381529060405261090d565b6040516001600160801b0319608085901b1660208201526030016040516020818303038152906040525b9392505050565b6060836003610924826000610835565b61ffff1614610938576106e6816000610835565b8460016109458551610a89565b6109509060016110ab565b86866040516020016109669594939291906110cd565b6040516020818303038152906040529150509392505050565b60008134146109a3576040516304fb820960e51b815234600482015260240161038e565b5090565b60007f00000000000000000000000000000000000000000000000000000000000000006001600160a01b031663e4fe1d946040518163ffffffff1660e01b8152600401602060405180830381865afa158015610a07573d6000803e3d6000fd5b505050506040513d601f19601f82011682018060405250810190610a2b9190611134565b90506001600160a01b038116610a54576040516329b99a9560e11b815260040160405180910390fd5b61040a6001600160a01b038216337f000000000000000000000000000000000000000000000000000000000000000085610ab8565b600061ffff8211156109a3576040516306dfcc6560e41b8152601060048201526024810183905260440161038e565b604080516001600160a01b038581166024830152848116604483015260648083018590528351808403909101815260849092019092526020810180516001600160e01b03166323b872dd60e01b17905261053a91869190600090610b1e90841683610b71565b90508051600014158015610b43575080806020019051810190610b419190611151565b155b15610b6c57604051635274afe760e01b81526001600160a01b038416600482015260240161038e565b505050565b606061090d8383600084600080856001600160a01b03168486604051610b979190611173565b60006040518083038185875af1925050503d8060008114610bd4576040519150601f19603f3d011682016040523d82523d6000602084013e610bd9565b606091505b5091509150610720868383606082610bf957610bf482610c40565b61090d565b8151158015610c1057506001600160a01b0384163b155b15610c3957604051639996b31560e01b81526001600160a01b038516600482015260240161038e565b508061090d565b805115610c505780518082602001fd5b604051630a12f52160e11b815260040160405180910390fd5b604051806060016040528060008019168152602001600067ffffffffffffffff168152602001610cac604051806040016040528060008152602001600081525090565b905290565b600060608284031215610cc357600080fd5b50919050565b60008083601f840112610cdb57600080fd5b50813567ffffffffffffffff811115610cf357600080fd5b602083019150836020828501011115610d0b57600080fd5b9250929050565b6001600160a01b038116811461057b57600080fd5b600080600080600080600060e0888a031215610d4257600080fd5b610d4c8989610cb1565b965060608801359550608088013567ffffffffffffffff80821115610d7057600080fd5b610d7c8b838c01610cc9565b909750955060a08a01359150610d9182610d12565b90935060c08901359080821115610da757600080fd5b50610db48a828b01610cc9565b989b979a50959850939692959293505050565b803563ffffffff81168114610ddb57600080fd5b919050565b60008060408385031215610df357600080fd5b610dfc83610dc7565b946020939093013593505050565b60008060008060a08587031215610e2057600080fd5b610e2a8686610cb1565b9350606085013567ffffffffffffffff811115610e4657600080fd5b610e5287828801610cc9565b9094509250506080850135610e6681610d12565b939692955090935050565b600060208284031215610e8357600080fd5b61090d82610dc7565b600060208284031215610e9e57600080fd5b813561090d81610d12565b600060208284031215610ebb57600080fd5b5035919050565b600060608284031215610ed457600080fd5b61090d8383610cb1565b60005b83811015610ef9578181015183820152602001610ee1565b50506000910152565b60008151808452610f1a816020860160208601610ede565b601f01601f19169290920160200192915050565b6040815263ffffffff8351166040820152602083015160608201526000604084015160a06080840152610f6460e0840182610f02565b90506060850151603f198483030160a0850152610f818282610f02565b60809690960151151560c08501525050506001600160a01b039190911660209091015290565b6040805190810167ffffffffffffffff81118282101715610fd857634e487b7160e01b600052604160045260246000fd5b60405290565b60008183036080811215610ff157600080fd5b6040516060810167ffffffffffffffff828210818311171561102357634e487b7160e01b600052604160045260246000fd5b816040528551835260208601519150808216821461104057600080fd5b5060208201526040603f198301121561105857600080fd5b611060610fa7565b6040858101518252606090950151602082015293810193909352509092915050565b634e487b7160e01b600052601160045260246000fd5b8082018082111561042557610425611082565b61ffff8181168382160190808211156110c6576110c6611082565b5092915050565b600086516110df818460208b01610ede565b6001600160f81b031960f888811b82169285019283526001600160f01b031960f089901b16600184015286901b1660038201528351611125816004840160208801610ede565b01600401979650505050505050565b60006020828403121561114657600080fd5b815161090d81610d12565b60006020828403121561116357600080fd5b8151801515811461090d57600080fd5b60008251611185818460208701610ede565b919091019291505056fea26469706673582212203b8a1ae202638257c9ef9f6ef3b269d2f59366a91c04793a7dc1e0aa38ab69a164736f6c63430008180033",
  "linkReferences": {},
  "deployedLinkReferences": {}
}