{
  "_format": "hh-sol-artifact-1",
  "contractName": "astarZkL2EthereumEndpoint",
  "sourceName": "contracts/crossChain/astarZkL2EthereumEndpoint.sol",
  "abi": [
    {
      "inputs": [],
      "stateMutability": "nonpayable",
      "type": "constructor"
    },
    {
      "inputs": [
        {
          "internalType": "address",
          "name": "target",
          "type": "address"
        }
      ],
      "name": "AddressEmptyCode",
      "type": "error"
    },
    {
      "inputs": [
        {
          "internalType": "address",
          "name": "account",
          "type": "address"
        }
      ],
      "name": "AddressInsufficientBalance",
      "type": "error"
    },
    {
      "inputs": [],
      "name": "FailedInnerCall",
      "type": "error"
    },
    {
      "inputs": [],
      "name": "InvalidDelegate",
      "type": "error"
    },
    {
      "inputs": [],
      "name": "InvalidEndpointCall",
      "type": "error"
    },
    {
      "inputs": [
        {
          "internalType": "uint16",
          "name": "optionType",
          "type": "uint16"
        }
      ],
      "name": "InvalidOptionType",
      "type": "error"
    },
    {
      "inputs": [],
      "name": "LzTokenUnavailable",
      "type": "error"
    },
    {
      "inputs": [
        {
          "internalType": "uint32",
          "name": "eid",
          "type": "uint32"
        }
      ],
      "name": "NoPeer",
      "type": "error"
    },
    {
      "inputs": [
        {
          "internalType": "uint256",
          "name": "msgValue",
          "type": "uint256"
        }
      ],
      "name": "NotEnoughNative",
      "type": "error"
    },
    {
      "inputs": [
        {
          "internalType": "address",
          "name": "addr",
          "type": "address"
        }
      ],
      "name": "OnlyEndpoint",
      "type": "error"
    },
    {
      "inputs": [
        {
          "internalType": "uint32",
          "name": "eid",
          "type": "uint32"
        },
        {
          "internalType": "bytes32",
          "name": "sender",
          "type": "bytes32"
        }
      ],
      "name": "OnlyPeer",
      "type": "error"
    },
    {
      "inputs": [
        {
          "internalType": "address",
          "name": "owner",
          "type": "address"
        }
      ],
      "name": "OwnableInvalidOwner",
      "type": "error"
    },
    {
      "inputs": [
        {
          "internalType": "address",
          "name": "account",
          "type": "address"
        }
      ],
      "name": "OwnableUnauthorizedAccount",
      "type": "error"
    },
    {
      "inputs": [
        {
          "internalType": "uint8",
          "name": "bits",
          "type": "uint8"
        },
        {
          "internalType": "uint256",
          "name": "value",
          "type": "uint256"
        }
      ],
      "name": "SafeCastOverflowedUintDowncast",
      "type": "error"
    },
    {
      "inputs": [
        {
          "internalType": "address",
          "name": "token",
          "type": "address"
        }
      ],
      "name": "SafeERC20FailedOperation",
      "type": "error"
    },
    {
      "anonymous": false,
      "inputs": [
        {
          "indexed": true,
          "internalType": "address",
          "name": "previousOwner",
          "type": "address"
        },
        {
          "indexed": true,
          "internalType": "address",
          "name": "newOwner",
          "type": "address"
        }
      ],
      "name": "OwnershipTransferred",
      "type": "event"
    },
    {
      "anonymous": false,
      "inputs": [
        {
          "indexed": false,
          "internalType": "uint32",
          "name": "eid",
          "type": "uint32"
        },
        {
          "indexed": false,
          "internalType": "bytes32",
          "name": "peer",
          "type": "bytes32"
        }
      ],
      "name": "PeerSet",
      "type": "event"
    },
    {
      "inputs": [],
      "name": "ETHEREUM_SEPOLIA_EID",
      "outputs": [
        {
          "internalType": "uint32",
          "name": "",
          "type": "uint32"
        }
      ],
      "stateMutability": "view",
      "type": "function"
    },
    {
      "inputs": [],
      "name": "ZK_L2_MP_USD_ADDRESS",
      "outputs": [
        {
          "internalType": "address",
          "name": "",
          "type": "address"
        }
      ],
      "stateMutability": "view",
      "type": "function"
    },
    {
      "inputs": [
        {
          "components": [
            {
              "internalType": "uint32",
              "name": "srcEid",
              "type": "uint32"
            },
            {
              "internalType": "bytes32",
              "name": "sender",
              "type": "bytes32"
            },
            {
              "internalType": "uint64",
              "name": "nonce",
              "type": "uint64"
            }
          ],
          "internalType": "struct Origin",
          "name": "origin",
          "type": "tuple"
        }
      ],
      "name": "allowInitializePath",
      "outputs": [
        {
          "internalType": "bool",
          "name": "",
          "type": "bool"
        }
      ],
      "stateMutability": "view",
      "type": "function"
    },
    {
      "inputs": [
        {
          "internalType": "uint256",
          "name": "paramStablecoinQuantityToBridge",
          "type": "uint256"
        }
      ],
      "name": "bridgeBackStablecoin",
      "outputs": [],
      "stateMutability": "payable",
      "type": "function"
    },
    {
      "inputs": [],
      "name": "endpoint",
      "outputs": [
        {
          "internalType": "contract ILayerZeroEndpointV2",
          "name": "",
          "type": "address"
        }
      ],
      "stateMutability": "view",
      "type": "function"
    },
    {
      "inputs": [
        {
          "components": [
            {
              "internalType": "uint32",
              "name": "srcEid",
              "type": "uint32"
            },
            {
              "internalType": "bytes32",
              "name": "sender",
              "type": "bytes32"
            },
            {
              "internalType": "uint64",
              "name": "nonce",
              "type": "uint64"
            }
          ],
          "internalType": "struct Origin",
          "name": "",
          "type": "tuple"
        },
        {
          "internalType": "bytes",
          "name": "",
          "type": "bytes"
        },
        {
          "internalType": "address",
          "name": "_sender",
          "type": "address"
        }
      ],
      "name": "isComposeMsgSender",
      "outputs": [
        {
          "internalType": "bool",
          "name": "",
          "type": "bool"
        }
      ],
      "stateMutability": "view",
      "type": "function"
    },
    {
      "inputs": [
        {
          "components": [
            {
              "internalType": "uint32",
              "name": "srcEid",
              "type": "uint32"
            },
            {
              "internalType": "bytes32",
              "name": "sender",
              "type": "bytes32"
            },
            {
              "internalType": "uint64",
              "name": "nonce",
              "type": "uint64"
            }
          ],
          "internalType": "struct Origin",
          "name": "_origin",
          "type": "tuple"
        },
        {
          "internalType": "bytes32",
          "name": "_guid",
          "type": "bytes32"
        },
        {
          "internalType": "bytes",
          "name": "_message",
          "type": "bytes"
        },
        {
          "internalType": "address",
          "name": "_executor",
          "type": "address"
        },
        {
          "internalType": "bytes",
          "name": "_extraData",
          "type": "bytes"
        }
      ],
      "name": "lzReceive",
      "outputs": [],
      "stateMutability": "payable",
      "type": "function"
    },
    {
      "inputs": [
        {
          "internalType": "uint32",
          "name": "",
          "type": "uint32"
        },
        {
          "internalType": "bytes32",
          "name": "",
          "type": "bytes32"
        }
      ],
      "name": "nextNonce",
      "outputs": [
        {
          "internalType": "uint64",
          "name": "nonce",
          "type": "uint64"
        }
      ],
      "stateMutability": "view",
      "type": "function"
    },
    {
      "inputs": [],
      "name": "oAppVersion",
      "outputs": [
        {
          "internalType": "uint64",
          "name": "senderVersion",
          "type": "uint64"
        },
        {
          "internalType": "uint64",
          "name": "receiverVersion",
          "type": "uint64"
        }
      ],
      "stateMutability": "pure",
      "type": "function"
    },
    {
      "inputs": [],
      "name": "owner",
      "outputs": [
        {
          "internalType": "address",
          "name": "",
          "type": "address"
        }
      ],
      "stateMutability": "view",
      "type": "function"
    },
    {
      "inputs": [
        {
          "internalType": "uint32",
          "name": "eid",
          "type": "uint32"
        }
      ],
      "name": "peers",
      "outputs": [
        {
          "internalType": "bytes32",
          "name": "peer",
          "type": "bytes32"
        }
      ],
      "stateMutability": "view",
      "type": "function"
    },
    {
      "inputs": [],
      "name": "renounceOwnership",
      "outputs": [],
      "stateMutability": "nonpayable",
      "type": "function"
    },
    {
      "inputs": [
        {
          "internalType": "address",
          "name": "_delegate",
          "type": "address"
        }
      ],
      "name": "setDelegate",
      "outputs": [],
      "stateMutability": "nonpayable",
      "type": "function"
    },
    {
      "inputs": [
        {
          "internalType": "uint32",
          "name": "_eid",
          "type": "uint32"
        },
        {
          "internalType": "bytes32",
          "name": "_peer",
          "type": "bytes32"
        }
      ],
      "name": "setPeer",
      "outputs": [],
      "stateMutability": "nonpayable",
      "type": "function"
    },
    {
      "inputs": [
        {
          "internalType": "address",
          "name": "paramZkL2MpUsdAddress",
          "type": "address"
        }
      ],
      "name": "setZkL2MpUsd",
      "outputs": [],
      "stateMutability": "nonpayable",
      "type": "function"
    },
    {
      "inputs": [
        {
          "internalType": "address",
          "name": "newOwner",
          "type": "address"
        }
      ],
      "name": "transferOwnership",
      "outputs": [],
      "stateMutability": "nonpayable",
      "type": "function"
    }
  ],
  "bytecode": "0x60a06040526002805463ffffffff1916619ce117905534801561002157600080fd5b50736edce65403992e310a62460808c4b910d972f10f338181808061006057604051631e4fbdf760e01b81526000600482015260240160405180910390fd5b610069816100ff565b506001600160a01b03808316608052811661009757604051632d618d8160e21b815260040160405180910390fd5b60805160405163ca5eb5e160e01b81526001600160a01b0383811660048301529091169063ca5eb5e190602401600060405180830381600087803b1580156100de57600080fd5b505af11580156100f2573d6000803e3d6000fd5b505050505050505061014f565b600080546001600160a01b038381166001600160a01b0319831681178455604051919092169283917f8be0079c531659141344cd1fd0a4f28419497f9722a3daafe3b4186f6b6457e09190a35050565b60805161150061018d60003960008181610186015281816103750152818161075701528181610a6101528181610caf0152610d6801526115006000f3fe6080604052600436106100f35760003560e01c80638854b6bf1161008a578063ca5eb5e111610059578063ca5eb5e1146102e1578063e931d30714610301578063f2fde38b14610333578063ff7bd03d1461035357600080fd5b80638854b6bf1461024d5780638da5cb5b14610275578063a74dd6be14610293578063bb0b6a53146102a657600080fd5b80635e280f11116100c65780635e280f1114610174578063715018a6146101c05780637d25a05e146101d557806382413eac1461020e57600080fd5b806313137d65146100f857806317442b701461010d5780633400288b1461013457806342139ec114610154575b600080fd5b61010b61010636600461102b565b610373565b005b34801561011957600080fd5b50604080516001815260026020820152015b60405180910390f35b34801561014057600080fd5b5061010b61014f3660046110e4565b610433565b34801561016057600080fd5b5061010b61016f36600461110e565b610449565b34801561018057600080fd5b506101a87f000000000000000000000000000000000000000000000000000000000000000081565b6040516001600160a01b03909116815260200161012b565b3480156101cc57600080fd5b5061010b61047f565b3480156101e157600080fd5b506101f56101f03660046110e4565b610493565b60405167ffffffffffffffff909116815260200161012b565b34801561021a57600080fd5b5061023d61022936600461112b565b6001600160a01b0381163014949350505050565b604051901515815260200161012b565b34801561025957600080fd5b506002546101a89064010000000090046001600160a01b031681565b34801561028157600080fd5b506000546001600160a01b03166101a8565b61010b6102a1366004611192565b61049c565b3480156102b257600080fd5b506102d36102c13660046111ab565b60016020526000908152604090205481565b60405190815260200161012b565b3480156102ed57600080fd5b5061010b6102fc36600461110e565b610730565b34801561030d57600080fd5b5060025461031e9063ffffffff1681565b60405163ffffffff909116815260200161012b565b34801561033f57600080fd5b5061010b61034e36600461110e565b6107b6565b34801561035f57600080fd5b5061023d61036e3660046111c6565b6107f4565b7f00000000000000000000000000000000000000000000000000000000000000006001600160a01b031633146103c3576040516391ac5e4f60e01b81523360048201526024015b60405180910390fd5b602087018035906103dd906103d8908a6111ab565b61082a565b1461041b576103ef60208801886111ab565b60405163309afaf360e21b815263ffffffff9091166004820152602088013560248201526044016103ba565b61042a87878787878787610866565b50505050505050565b61043b6108f4565b6104458282610921565b5050565b6104516108f4565b600280546001600160a01b0390921664010000000002640100000000600160c01b0319909216919091179055565b6104876108f4565b6104916000610976565b565b60005b92915050565b6002546040516370a0823160e01b8152336004820152829164010000000090046001600160a01b0316906370a0823190602401602060405180830381865afa1580156104ec573d6000803e3d6000fd5b505050506040513d601f19601f8201168201806040525081019061051091906111e2565b101561055e5760405162461bcd60e51b815260206004820152601f60248201527f4e6f7420656e6f7567687420737461626c65636f696e2062616c616e63652e0060448201526064016103ba565b600254604051636eb1769f60e11b8152336004820152306024820152829164010000000090046001600160a01b03169063dd62ed3e90604401602060405180830381865afa1580156105b4573d6000803e3d6000fd5b505050506040513d601f19601f820116820180604052508101906105d891906111e2565b10156106365760405162461bcd60e51b815260206004820152602760248201527f4e6f7420656e6f7567687420616c6c6f77616e63652c20706c65617365206164604482015266321036b7b9329760c91b60648201526084016103ba565b60025460405163079cc67960e41b8152336004820152602481018390526401000000009091046001600160a01b0316906379cc679090604401600060405180830381600087803b15801561068957600080fd5b505af115801561069d573d6000803e3d6000fd5b5050505060006106d861c35060006106d160408051600360f01b602082015281516002818303018152602290910190915290565b91906109c6565b6040805133602082015290810184905290915060009060600160408051601f1981840301815260025483830190925234835260006020840152925061072a9163ffffffff909116908390859033610a2e565b50505050565b6107386108f4565b60405163ca5eb5e160e01b81526001600160a01b0382811660048301527f0000000000000000000000000000000000000000000000000000000000000000169063ca5eb5e190602401600060405180830381600087803b15801561079b57600080fd5b505af11580156107af573d6000803e3d6000fd5b5050505050565b6107be6108f4565b6001600160a01b0381166107e857604051631e4fbdf760e01b8152600060048201526024016103ba565b6107f181610976565b50565b600060208201803590600190839061080c90866111ab565b63ffffffff1681526020810191909152604001600020541492915050565b63ffffffff8116600090815260016020526040812054806104965760405163f6ff4fb760e01b815263ffffffff841660048201526024016103ba565b600080610875868801886111fb565b6002546040516340c10f1960e01b81526001600160a01b038085166004830152602482018490529395509193506401000000009004909116906340c10f1990604401600060405180830381600087803b1580156108d157600080fd5b505af11580156108e5573d6000803e3d6000fd5b50505050505050505050505050565b6000546001600160a01b031633146104915760405163118cdaa760e01b81523360048201526024016103ba565b63ffffffff8216600081815260016020908152604091829020849055815192835282018390527f238399d427b947898edb290f5ff0f9109849b1c3ba196a42e35f00c50a54b98b910160405180910390a15050565b600080546001600160a01b038381166001600160a01b0319831681178455604051919092169283917f8be0079c531659141344cd1fd0a4f28419497f9722a3daafe3b4186f6b6457e09190a35050565b60608360036109d6826000610b39565b61ffff1614610a0a576109ea816000610b39565b604051633a51740d60e01b815261ffff90911660048201526024016103ba565b6000610a168585610b96565b9050610a2486600183610c18565b9695505050505050565b610a36610f6d565b6000610a458460000151610c83565b602085015190915015610a5f57610a5f8460200151610cab565b7f00000000000000000000000000000000000000000000000000000000000000006001600160a01b0316632637a450826040518060a001604052808b63ffffffff168152602001610aaf8c61082a565b81526020018a815260200189815260200160008960200151111515815250866040518463ffffffff1660e01b8152600401610aeb929190611269565b60806040518083038185885af1158015610b09573d6000803e3d6000fd5b50505050506040513d601f19601f82011682018060405250810190610b2e9190611319565b979650505050505050565b6000610b468260026113d3565b83511015610b8d5760405162461bcd60e51b8152602060048201526014602482015273746f55696e7431365f6f75744f66426f756e647360601b60448201526064016103ba565b50016002015190565b60606fffffffffffffffffffffffffffffffff821615610be757604080516001600160801b0319608086811b8216602084015285901b16603082015201604051602081830303815290604052610c11565b6040516001600160801b0319608085901b1660208201526030016040516020818303038152906040525b9392505050565b6060836003610c28826000610b39565b61ffff1614610c3c576109ea816000610b39565b846001610c498551610d8d565b610c549060016113e6565b8686604051602001610c6a959493929190611408565b6040516020818303038152906040529150509392505050565b6000813414610ca7576040516304fb820960e51b81523460048201526024016103ba565b5090565b60007f00000000000000000000000000000000000000000000000000000000000000006001600160a01b031663e4fe1d946040518163ffffffff1660e01b8152600401602060405180830381865afa158015610d0b573d6000803e3d6000fd5b505050506040513d601f19601f82011682018060405250810190610d2f919061146f565b90506001600160a01b038116610d58576040516329b99a9560e11b815260040160405180910390fd5b6104456001600160a01b038216337f000000000000000000000000000000000000000000000000000000000000000085610dbc565b600061ffff821115610ca7576040516306dfcc6560e41b815260106004820152602481018390526044016103ba565b604080516001600160a01b038581166024830152848116604483015260648083018590528351808403909101815260849092019092526020810180516001600160e01b03166323b872dd60e01b17905261072a91869190600090610e2290841683610e75565b90508051600014158015610e47575080806020019051810190610e45919061148c565b155b15610e7057604051635274afe760e01b81526001600160a01b03841660048201526024016103ba565b505050565b6060610c118383600084600080856001600160a01b03168486604051610e9b91906114ae565b60006040518083038185875af1925050503d8060008114610ed8576040519150601f19603f3d011682016040523d82523d6000602084013e610edd565b606091505b5091509150610a24868383606082610efd57610ef882610f44565b610c11565b8151158015610f1457506001600160a01b0384163b155b15610f3d57604051639996b31560e01b81526001600160a01b03851660048201526024016103ba565b5080610c11565b805115610f545780518082602001fd5b604051630a12f52160e11b815260040160405180910390fd5b604051806060016040528060008019168152602001600067ffffffffffffffff168152602001610fb0604051806040016040528060008152602001600081525090565b905290565b600060608284031215610fc757600080fd5b50919050565b60008083601f840112610fdf57600080fd5b50813567ffffffffffffffff811115610ff757600080fd5b60208301915083602082850101111561100f57600080fd5b9250929050565b6001600160a01b03811681146107f157600080fd5b600080600080600080600060e0888a03121561104657600080fd5b6110508989610fb5565b965060608801359550608088013567ffffffffffffffff8082111561107457600080fd5b6110808b838c01610fcd565b909750955060a08a0135915061109582611016565b90935060c089013590808211156110ab57600080fd5b506110b88a828b01610fcd565b989b979a50959850939692959293505050565b803563ffffffff811681146110df57600080fd5b919050565b600080604083850312156110f757600080fd5b611100836110cb565b946020939093013593505050565b60006020828403121561112057600080fd5b8135610c1181611016565b60008060008060a0858703121561114157600080fd5b61114b8686610fb5565b9350606085013567ffffffffffffffff81111561116757600080fd5b61117387828801610fcd565b909450925050608085013561118781611016565b939692955090935050565b6000602082840312156111a457600080fd5b5035919050565b6000602082840312156111bd57600080fd5b610c11826110cb565b6000606082840312156111d857600080fd5b610c118383610fb5565b6000602082840312156111f457600080fd5b5051919050565b6000806040838503121561120e57600080fd5b823561110081611016565b60005b8381101561123457818101518382015260200161121c565b50506000910152565b60008151808452611255816020860160208601611219565b601f01601f19169290920160200192915050565b6040815263ffffffff8351166040820152602083015160608201526000604084015160a0608084015261129f60e084018261123d565b90506060850151603f198483030160a08501526112bc828261123d565b60809690960151151560c08501525050506001600160a01b039190911660209091015290565b6040805190810167ffffffffffffffff8111828210171561131357634e487b7160e01b600052604160045260246000fd5b60405290565b6000818303608081121561132c57600080fd5b6040516060810167ffffffffffffffff828210818311171561135e57634e487b7160e01b600052604160045260246000fd5b816040528551835260208601519150808216821461137b57600080fd5b5060208201526040603f198301121561139357600080fd5b61139b6112e2565b6040858101518252606090950151602082015293810193909352509092915050565b634e487b7160e01b600052601160045260246000fd5b80820180821115610496576104966113bd565b61ffff818116838216019080821115611401576114016113bd565b5092915050565b6000865161141a818460208b01611219565b6001600160f81b031960f888811b82169285019283526001600160f01b031960f089901b16600184015286901b1660038201528351611460816004840160208801611219565b01600401979650505050505050565b60006020828403121561148157600080fd5b8151610c1181611016565b60006020828403121561149e57600080fd5b81518015158114610c1157600080fd5b600082516114c0818460208701611219565b919091019291505056fea26469706673582212208a29c177d0946eccab8e5846bb1db4f834c7200b8c9e06b782e6e11d48473f4464736f6c63430008180033",
  "linkReferences": {},
  "deployedLinkReferences": {}
}