{
  "_format": "hh-sol-artifact-1",
  "contractName": "astarZkL2EthereumEndpoint",
  "sourceName": "contracts/crossChain/astarZkL2EthereumEndpoint.sol",
  "abi": [
    {
      "inputs": [],
      "stateMutability": "nonpayable",
      "type": "constructor"
    },
    {
      "inputs": [],
      "name": "InvalidDelegate",
      "type": "error"
    },
    {
      "inputs": [],
      "name": "InvalidEndpointCall",
      "type": "error"
    },
    {
      "inputs": [],
      "name": "LzTokenUnavailable",
      "type": "error"
    },
    {
      "inputs": [
        {
          "internalType": "uint32",
          "name": "eid",
          "type": "uint32"
        }
      ],
      "name": "NoPeer",
      "type": "error"
    },
    {
      "inputs": [
        {
          "internalType": "uint256",
          "name": "msgValue",
          "type": "uint256"
        }
      ],
      "name": "NotEnoughNative",
      "type": "error"
    },
    {
      "inputs": [
        {
          "internalType": "address",
          "name": "addr",
          "type": "address"
        }
      ],
      "name": "OnlyEndpoint",
      "type": "error"
    },
    {
      "inputs": [
        {
          "internalType": "uint32",
          "name": "eid",
          "type": "uint32"
        },
        {
          "internalType": "bytes32",
          "name": "sender",
          "type": "bytes32"
        }
      ],
      "name": "OnlyPeer",
      "type": "error"
    },
    {
      "inputs": [
        {
          "internalType": "address",
          "name": "owner",
          "type": "address"
        }
      ],
      "name": "OwnableInvalidOwner",
      "type": "error"
    },
    {
      "inputs": [
        {
          "internalType": "address",
          "name": "account",
          "type": "address"
        }
      ],
      "name": "OwnableUnauthorizedAccount",
      "type": "error"
    },
    {
      "anonymous": false,
      "inputs": [
        {
          "indexed": true,
          "internalType": "address",
          "name": "previousOwner",
          "type": "address"
        },
        {
          "indexed": true,
          "internalType": "address",
          "name": "newOwner",
          "type": "address"
        }
      ],
      "name": "OwnershipTransferred",
      "type": "event"
    },
    {
      "anonymous": false,
      "inputs": [
        {
          "indexed": false,
          "internalType": "uint32",
          "name": "eid",
          "type": "uint32"
        },
        {
          "indexed": false,
          "internalType": "bytes32",
          "name": "peer",
          "type": "bytes32"
        }
      ],
      "name": "PeerSet",
      "type": "event"
    },
    {
      "inputs": [],
      "name": "ETHEREUM_SEPOLIA_EID",
      "outputs": [
        {
          "internalType": "uint32",
          "name": "",
          "type": "uint32"
        }
      ],
      "stateMutability": "view",
      "type": "function"
    },
    {
      "inputs": [],
      "name": "ZK_L2_MP_USD_ADDRESS",
      "outputs": [
        {
          "internalType": "address",
          "name": "",
          "type": "address"
        }
      ],
      "stateMutability": "view",
      "type": "function"
    },
    {
      "inputs": [
        {
          "components": [
            {
              "internalType": "uint32",
              "name": "srcEid",
              "type": "uint32"
            },
            {
              "internalType": "bytes32",
              "name": "sender",
              "type": "bytes32"
            },
            {
              "internalType": "uint64",
              "name": "nonce",
              "type": "uint64"
            }
          ],
          "internalType": "struct Origin",
          "name": "origin",
          "type": "tuple"
        }
      ],
      "name": "allowInitializePath",
      "outputs": [
        {
          "internalType": "bool",
          "name": "",
          "type": "bool"
        }
      ],
      "stateMutability": "view",
      "type": "function"
    },
    {
      "inputs": [
        {
          "internalType": "uint256",
          "name": "paramStablecoinQuantityToBridge",
          "type": "uint256"
        }
      ],
      "name": "bridgeBackStablecoin",
      "outputs": [],
      "stateMutability": "payable",
      "type": "function"
    },
    {
      "inputs": [],
      "name": "endpoint",
      "outputs": [
        {
          "internalType": "contract ILayerZeroEndpointV2",
          "name": "",
          "type": "address"
        }
      ],
      "stateMutability": "view",
      "type": "function"
    },
    {
      "inputs": [
        {
          "components": [
            {
              "internalType": "uint32",
              "name": "srcEid",
              "type": "uint32"
            },
            {
              "internalType": "bytes32",
              "name": "sender",
              "type": "bytes32"
            },
            {
              "internalType": "uint64",
              "name": "nonce",
              "type": "uint64"
            }
          ],
          "internalType": "struct Origin",
          "name": "",
          "type": "tuple"
        },
        {
          "internalType": "bytes",
          "name": "",
          "type": "bytes"
        },
        {
          "internalType": "address",
          "name": "_sender",
          "type": "address"
        }
      ],
      "name": "isComposeMsgSender",
      "outputs": [
        {
          "internalType": "bool",
          "name": "",
          "type": "bool"
        }
      ],
      "stateMutability": "view",
      "type": "function"
    },
    {
      "inputs": [
        {
          "components": [
            {
              "internalType": "uint32",
              "name": "srcEid",
              "type": "uint32"
            },
            {
              "internalType": "bytes32",
              "name": "sender",
              "type": "bytes32"
            },
            {
              "internalType": "uint64",
              "name": "nonce",
              "type": "uint64"
            }
          ],
          "internalType": "struct Origin",
          "name": "_origin",
          "type": "tuple"
        },
        {
          "internalType": "bytes32",
          "name": "_guid",
          "type": "bytes32"
        },
        {
          "internalType": "bytes",
          "name": "_message",
          "type": "bytes"
        },
        {
          "internalType": "address",
          "name": "_executor",
          "type": "address"
        },
        {
          "internalType": "bytes",
          "name": "_extraData",
          "type": "bytes"
        }
      ],
      "name": "lzReceive",
      "outputs": [],
      "stateMutability": "payable",
      "type": "function"
    },
    {
      "inputs": [
        {
          "internalType": "uint32",
          "name": "",
          "type": "uint32"
        },
        {
          "internalType": "bytes32",
          "name": "",
          "type": "bytes32"
        }
      ],
      "name": "nextNonce",
      "outputs": [
        {
          "internalType": "uint64",
          "name": "nonce",
          "type": "uint64"
        }
      ],
      "stateMutability": "view",
      "type": "function"
    },
    {
      "inputs": [],
      "name": "oAppVersion",
      "outputs": [
        {
          "internalType": "uint64",
          "name": "senderVersion",
          "type": "uint64"
        },
        {
          "internalType": "uint64",
          "name": "receiverVersion",
          "type": "uint64"
        }
      ],
      "stateMutability": "pure",
      "type": "function"
    },
    {
      "inputs": [],
      "name": "owner",
      "outputs": [
        {
          "internalType": "address",
          "name": "",
          "type": "address"
        }
      ],
      "stateMutability": "view",
      "type": "function"
    },
    {
      "inputs": [
        {
          "internalType": "uint32",
          "name": "eid",
          "type": "uint32"
        }
      ],
      "name": "peers",
      "outputs": [
        {
          "internalType": "bytes32",
          "name": "peer",
          "type": "bytes32"
        }
      ],
      "stateMutability": "view",
      "type": "function"
    },
    {
      "inputs": [],
      "name": "renounceOwnership",
      "outputs": [],
      "stateMutability": "nonpayable",
      "type": "function"
    },
    {
      "inputs": [
        {
          "internalType": "address",
          "name": "_delegate",
          "type": "address"
        }
      ],
      "name": "setDelegate",
      "outputs": [],
      "stateMutability": "nonpayable",
      "type": "function"
    },
    {
      "inputs": [
        {
          "internalType": "uint32",
          "name": "_eid",
          "type": "uint32"
        },
        {
          "internalType": "bytes32",
          "name": "_peer",
          "type": "bytes32"
        }
      ],
      "name": "setPeer",
      "outputs": [],
      "stateMutability": "nonpayable",
      "type": "function"
    },
    {
      "inputs": [
        {
          "internalType": "address",
          "name": "paramZkL2MpUsdAddress",
          "type": "address"
        }
      ],
      "name": "setZkL2MpUsd",
      "outputs": [],
      "stateMutability": "nonpayable",
      "type": "function"
    },
    {
      "inputs": [
        {
          "internalType": "address",
          "name": "newOwner",
          "type": "address"
        }
      ],
      "name": "transferOwnership",
      "outputs": [],
      "stateMutability": "nonpayable",
      "type": "function"
    }
  ],
  "bytecode": "0x60a06040526002805463ffffffff1916619ce117905534801561002157600080fd5b50736edce65403992e310a62460808c4b910d972f10f338181808061006057604051631e4fbdf760e01b81526000600482015260240160405180910390fd5b610069816100ff565b506001600160a01b03808316608052811661009757604051632d618d8160e21b815260040160405180910390fd5b60805160405163ca5eb5e160e01b81526001600160a01b0383811660048301529091169063ca5eb5e190602401600060405180830381600087803b1580156100de57600080fd5b505af11580156100f2573d6000803e3d6000fd5b505050505050505061014f565b600080546001600160a01b038381166001600160a01b0319831681178455604051919092169283917f8be0079c531659141344cd1fd0a4f28419497f9722a3daafe3b4186f6b6457e09190a35050565b6080516109ed61017860003960008181610186015281816103ab01526104f001526109ed6000f3fe6080604052600436106100f35760003560e01c80638854b6bf1161008a578063ca5eb5e111610059578063ca5eb5e114610317578063e931d30714610337578063f2fde38b14610369578063ff7bd03d1461038957600080fd5b80638854b6bf146102505780638da5cb5b14610278578063a74dd6be14610296578063bb0b6a53146102dc57600080fd5b80635e280f11116100c65780635e280f1114610174578063715018a6146101c05780637d25a05e146101d557806382413eac1461021157600080fd5b806313137d65146100f857806317442b701461010d5780633400288b1461013457806342139ec114610154575b600080fd5b61010b6101063660046107db565b6103a9565b005b34801561011957600080fd5b50604080516001815260026020820152015b60405180910390f35b34801561014057600080fd5b5061010b61014f366004610894565b610469565b34801561016057600080fd5b5061010b61016f3660046108be565b61047f565b34801561018057600080fd5b506101a87f000000000000000000000000000000000000000000000000000000000000000081565b6040516001600160a01b03909116815260200161012b565b3480156101cc57600080fd5b5061010b6104b5565b3480156101e157600080fd5b506101f86101f0366004610894565b600092915050565b60405167ffffffffffffffff909116815260200161012b565b34801561021d57600080fd5b5061024061022c3660046108e2565b6001600160a01b0381163014949350505050565b604051901515815260200161012b565b34801561025c57600080fd5b506002546101a89064010000000090046001600160a01b031681565b34801561028457600080fd5b506000546001600160a01b03166101a8565b61010b6102a4366004610949565b5060408051808201909152601e81527f4553544f20444520415155492045532050415241205155454d41524c4f2e0000602090910152565b3480156102e857600080fd5b506103096102f7366004610962565b60016020526000908152604090205481565b60405190815260200161012b565b34801561032357600080fd5b5061010b6103323660046108be565b6104c9565b34801561034357600080fd5b506002546103549063ffffffff1681565b60405163ffffffff909116815260200161012b565b34801561037557600080fd5b5061010b6103843660046108be565b61054f565b34801561039557600080fd5b506102406103a436600461097d565b61058d565b7f00000000000000000000000000000000000000000000000000000000000000006001600160a01b031633146103f9576040516391ac5e4f60e01b81523360048201526024015b60405180910390fd5b602087018035906104139061040e908a610962565b6105c3565b14610451576104256020880188610962565b60405163309afaf360e21b815263ffffffff9091166004820152602088013560248201526044016103f0565b61046087878787878787610605565b50505050505050565b610471610693565b61047b82826106c0565b5050565b610487610693565b600280546001600160a01b0390921664010000000002640100000000600160c01b0319909216919091179055565b6104bd610693565b6104c76000610715565b565b6104d1610693565b60405163ca5eb5e160e01b81526001600160a01b0382811660048301527f0000000000000000000000000000000000000000000000000000000000000000169063ca5eb5e190602401600060405180830381600087803b15801561053457600080fd5b505af1158015610548573d6000803e3d6000fd5b5050505050565b610557610693565b6001600160a01b03811661058157604051631e4fbdf760e01b8152600060048201526024016103f0565b61058a81610715565b50565b60006020820180359060019083906105a59086610962565b63ffffffff1681526020810191909152604001600020541492915050565b63ffffffff8116600090815260016020526040812054806105ff5760405163f6ff4fb760e01b815263ffffffff841660048201526024016103f0565b92915050565b60008061061486880188610999565b6002546040516340c10f1960e01b81526001600160a01b038085166004830152602482018490529395509193506401000000009004909116906340c10f1990604401600060405180830381600087803b15801561067057600080fd5b505af1158015610684573d6000803e3d6000fd5b50505050505050505050505050565b6000546001600160a01b031633146104c75760405163118cdaa760e01b81523360048201526024016103f0565b63ffffffff8216600081815260016020908152604091829020849055815192835282018390527f238399d427b947898edb290f5ff0f9109849b1c3ba196a42e35f00c50a54b98b910160405180910390a15050565b600080546001600160a01b038381166001600160a01b0319831681178455604051919092169283917f8be0079c531659141344cd1fd0a4f28419497f9722a3daafe3b4186f6b6457e09190a35050565b60006060828403121561077757600080fd5b50919050565b60008083601f84011261078f57600080fd5b50813567ffffffffffffffff8111156107a757600080fd5b6020830191508360208285010111156107bf57600080fd5b9250929050565b6001600160a01b038116811461058a57600080fd5b600080600080600080600060e0888a0312156107f657600080fd5b6108008989610765565b965060608801359550608088013567ffffffffffffffff8082111561082457600080fd5b6108308b838c0161077d565b909750955060a08a01359150610845826107c6565b90935060c0890135908082111561085b57600080fd5b506108688a828b0161077d565b989b979a50959850939692959293505050565b803563ffffffff8116811461088f57600080fd5b919050565b600080604083850312156108a757600080fd5b6108b08361087b565b946020939093013593505050565b6000602082840312156108d057600080fd5b81356108db816107c6565b9392505050565b60008060008060a085870312156108f857600080fd5b6109028686610765565b9350606085013567ffffffffffffffff81111561091e57600080fd5b61092a8782880161077d565b909450925050608085013561093e816107c6565b939692955090935050565b60006020828403121561095b57600080fd5b5035919050565b60006020828403121561097457600080fd5b6108db8261087b565b60006060828403121561098f57600080fd5b6108db8383610765565b600080604083850312156109ac57600080fd5b82356108b0816107c656fea264697066735822122096d391d9b479c0dbb64aed62838ed847650bdda4028a402f10f826741f3e36b964736f6c63430008180033",
  "linkReferences": {},
  "deployedLinkReferences": {}
}