{
  "_format": "hh-sol-artifact-1",
  "contractName": "LendingPool",
  "sourceName": "contracts/astarZkEvm/LendingPool.sol",
  "abi": [
    {
      "inputs": [],
      "stateMutability": "nonpayable",
      "type": "constructor"
    },
    {
      "anonymous": false,
      "inputs": [
        {
          "indexed": true,
          "internalType": "address",
          "name": "user",
          "type": "address"
        },
        {
          "indexed": true,
          "internalType": "contract ERC20",
          "name": "asset",
          "type": "address"
        },
        {
          "components": [
            {
              "internalType": "uint256",
              "name": "lendFactor",
              "type": "uint256"
            },
            {
              "internalType": "uint256",
              "name": "borrowFactor",
              "type": "uint256"
            }
          ],
          "indexed": false,
          "internalType": "struct LendingPool.Configuration",
          "name": "newConfiguration",
          "type": "tuple"
        }
      ],
      "name": "AssetConfigurationUpdated",
      "type": "event"
    },
    {
      "anonymous": false,
      "inputs": [
        {
          "indexed": true,
          "internalType": "address",
          "name": "user",
          "type": "address"
        },
        {
          "indexed": true,
          "internalType": "contract ERC20",
          "name": "asset",
          "type": "address"
        },
        {
          "indexed": true,
          "internalType": "contract ERC4626",
          "name": "vault",
          "type": "address"
        },
        {
          "components": [
            {
              "internalType": "uint256",
              "name": "lendFactor",
              "type": "uint256"
            },
            {
              "internalType": "uint256",
              "name": "borrowFactor",
              "type": "uint256"
            }
          ],
          "indexed": false,
          "internalType": "struct LendingPool.Configuration",
          "name": "configuration",
          "type": "tuple"
        }
      ],
      "name": "AssetConfigured",
      "type": "event"
    },
    {
      "anonymous": false,
      "inputs": [
        {
          "indexed": true,
          "internalType": "address",
          "name": "from",
          "type": "address"
        },
        {
          "indexed": true,
          "internalType": "contract ERC20",
          "name": "asset",
          "type": "address"
        }
      ],
      "name": "AssetDisabled",
      "type": "event"
    },
    {
      "anonymous": false,
      "inputs": [
        {
          "indexed": true,
          "internalType": "address",
          "name": "from",
          "type": "address"
        },
        {
          "indexed": true,
          "internalType": "contract ERC20",
          "name": "asset",
          "type": "address"
        }
      ],
      "name": "AssetEnabled",
      "type": "event"
    },
    {
      "anonymous": false,
      "inputs": [
        {
          "indexed": true,
          "internalType": "address",
          "name": "user",
          "type": "address"
        },
        {
          "indexed": true,
          "internalType": "contract Authority",
          "name": "newAuthority",
          "type": "address"
        }
      ],
      "name": "AuthorityUpdated",
      "type": "event"
    },
    {
      "anonymous": false,
      "inputs": [
        {
          "indexed": true,
          "internalType": "address",
          "name": "from",
          "type": "address"
        },
        {
          "indexed": true,
          "internalType": "contract ERC20",
          "name": "asset",
          "type": "address"
        },
        {
          "indexed": false,
          "internalType": "uint256",
          "name": "amount",
          "type": "uint256"
        }
      ],
      "name": "Borrow",
      "type": "event"
    },
    {
      "anonymous": false,
      "inputs": [
        {
          "indexed": true,
          "internalType": "address",
          "name": "from",
          "type": "address"
        },
        {
          "indexed": true,
          "internalType": "contract ERC20",
          "name": "asset",
          "type": "address"
        },
        {
          "indexed": false,
          "internalType": "uint256",
          "name": "amount",
          "type": "uint256"
        }
      ],
      "name": "Deposit",
      "type": "event"
    },
    {
      "anonymous": false,
      "inputs": [
        {
          "indexed": true,
          "internalType": "address",
          "name": "from",
          "type": "address"
        },
        {
          "indexed": true,
          "internalType": "contract FlashBorrower",
          "name": "borrower",
          "type": "address"
        },
        {
          "indexed": true,
          "internalType": "contract ERC20",
          "name": "asset",
          "type": "address"
        },
        {
          "indexed": false,
          "internalType": "uint256",
          "name": "amount",
          "type": "uint256"
        }
      ],
      "name": "FlashBorrow",
      "type": "event"
    },
    {
      "anonymous": false,
      "inputs": [
        {
          "indexed": false,
          "internalType": "address",
          "name": "user",
          "type": "address"
        },
        {
          "indexed": false,
          "internalType": "contract ERC20",
          "name": "asset",
          "type": "address"
        },
        {
          "indexed": false,
          "internalType": "contract InterestRateModel",
          "name": "newInterestRateModel",
          "type": "address"
        }
      ],
      "name": "InterestRateModelUpdated",
      "type": "event"
    },
    {
      "anonymous": false,
      "inputs": [
        {
          "indexed": true,
          "internalType": "address",
          "name": "user",
          "type": "address"
        },
        {
          "indexed": true,
          "internalType": "contract PriceOracle",
          "name": "newOracle",
          "type": "address"
        }
      ],
      "name": "OracleUpdated",
      "type": "event"
    },
    {
      "anonymous": false,
      "inputs": [
        {
          "indexed": true,
          "internalType": "address",
          "name": "user",
          "type": "address"
        },
        {
          "indexed": true,
          "internalType": "address",
          "name": "newOwner",
          "type": "address"
        }
      ],
      "name": "OwnershipTransferred",
      "type": "event"
    },
    {
      "anonymous": false,
      "inputs": [
        {
          "indexed": true,
          "internalType": "address",
          "name": "from",
          "type": "address"
        },
        {
          "indexed": true,
          "internalType": "contract ERC20",
          "name": "asset",
          "type": "address"
        },
        {
          "indexed": false,
          "internalType": "uint256",
          "name": "amount",
          "type": "uint256"
        }
      ],
      "name": "Repay",
      "type": "event"
    },
    {
      "anonymous": false,
      "inputs": [
        {
          "indexed": true,
          "internalType": "address",
          "name": "from",
          "type": "address"
        },
        {
          "indexed": true,
          "internalType": "contract ERC20",
          "name": "asset",
          "type": "address"
        },
        {
          "indexed": false,
          "internalType": "uint256",
          "name": "amount",
          "type": "uint256"
        }
      ],
      "name": "Withdraw",
      "type": "event"
    },
    {
      "inputs": [],
      "name": "MAX_HEALTH_FACTOR",
      "outputs": [
        {
          "internalType": "uint256",
          "name": "",
          "type": "uint256"
        }
      ],
      "stateMutability": "view",
      "type": "function"
    },
    {
      "inputs": [],
      "name": "authority",
      "outputs": [
        {
          "internalType": "contract Authority",
          "name": "",
          "type": "address"
        }
      ],
      "stateMutability": "view",
      "type": "function"
    },
    {
      "inputs": [
        {
          "internalType": "contract ERC20",
          "name": "asset",
          "type": "address"
        }
      ],
      "name": "availableLiquidity",
      "outputs": [
        {
          "internalType": "uint256",
          "name": "",
          "type": "uint256"
        }
      ],
      "stateMutability": "view",
      "type": "function"
    },
    {
      "inputs": [
        {
          "internalType": "contract ERC20",
          "name": "asset",
          "type": "address"
        },
        {
          "internalType": "address",
          "name": "user",
          "type": "address"
        }
      ],
      "name": "balanceOf",
      "outputs": [
        {
          "internalType": "uint256",
          "name": "",
          "type": "uint256"
        }
      ],
      "stateMutability": "view",
      "type": "function"
    },
    {
      "inputs": [
        {
          "internalType": "contract ERC20",
          "name": "",
          "type": "address"
        }
      ],
      "name": "baseUnits",
      "outputs": [
        {
          "internalType": "uint256",
          "name": "",
          "type": "uint256"
        }
      ],
      "stateMutability": "view",
      "type": "function"
    },
    {
      "inputs": [
        {
          "internalType": "contract ERC20",
          "name": "asset",
          "type": "address"
        },
        {
          "internalType": "uint256",
          "name": "amount",
          "type": "uint256"
        }
      ],
      "name": "borrow",
      "outputs": [],
      "stateMutability": "nonpayable",
      "type": "function"
    },
    {
      "inputs": [
        {
          "internalType": "contract ERC20",
          "name": "asset",
          "type": "address"
        },
        {
          "internalType": "address",
          "name": "user",
          "type": "address"
        }
      ],
      "name": "borrowBalance",
      "outputs": [
        {
          "internalType": "uint256",
          "name": "",
          "type": "uint256"
        }
      ],
      "stateMutability": "view",
      "type": "function"
    },
    {
      "inputs": [
        {
          "internalType": "contract ERC20",
          "name": "asset",
          "type": "address"
        },
        {
          "internalType": "address",
          "name": "user",
          "type": "address"
        },
        {
          "internalType": "uint256",
          "name": "amount",
          "type": "uint256"
        }
      ],
      "name": "calculateHealthFactor",
      "outputs": [
        {
          "internalType": "uint256",
          "name": "",
          "type": "uint256"
        }
      ],
      "stateMutability": "view",
      "type": "function"
    },
    {
      "inputs": [
        {
          "internalType": "contract ERC20",
          "name": "",
          "type": "address"
        }
      ],
      "name": "configurations",
      "outputs": [
        {
          "internalType": "uint256",
          "name": "lendFactor",
          "type": "uint256"
        },
        {
          "internalType": "uint256",
          "name": "borrowFactor",
          "type": "uint256"
        }
      ],
      "stateMutability": "view",
      "type": "function"
    },
    {
      "inputs": [
        {
          "internalType": "contract ERC20",
          "name": "asset",
          "type": "address"
        },
        {
          "internalType": "contract ERC4626",
          "name": "vault",
          "type": "address"
        },
        {
          "components": [
            {
              "internalType": "uint256",
              "name": "lendFactor",
              "type": "uint256"
            },
            {
              "internalType": "uint256",
              "name": "borrowFactor",
              "type": "uint256"
            }
          ],
          "internalType": "struct LendingPool.Configuration",
          "name": "configuration",
          "type": "tuple"
        }
      ],
      "name": "configureAsset",
      "outputs": [],
      "stateMutability": "nonpayable",
      "type": "function"
    },
    {
      "inputs": [
        {
          "internalType": "contract ERC20",
          "name": "asset",
          "type": "address"
        },
        {
          "internalType": "uint256",
          "name": "amount",
          "type": "uint256"
        },
        {
          "internalType": "bool",
          "name": "enable",
          "type": "bool"
        }
      ],
      "name": "deposit",
      "outputs": [],
      "stateMutability": "nonpayable",
      "type": "function"
    },
    {
      "inputs": [
        {
          "internalType": "contract ERC20",
          "name": "asset",
          "type": "address"
        }
      ],
      "name": "disableAsset",
      "outputs": [],
      "stateMutability": "nonpayable",
      "type": "function"
    },
    {
      "inputs": [
        {
          "internalType": "contract ERC20",
          "name": "asset",
          "type": "address"
        }
      ],
      "name": "enableAsset",
      "outputs": [],
      "stateMutability": "nonpayable",
      "type": "function"
    },
    {
      "inputs": [
        {
          "internalType": "address",
          "name": "",
          "type": "address"
        },
        {
          "internalType": "contract ERC20",
          "name": "",
          "type": "address"
        }
      ],
      "name": "enabledCollateral",
      "outputs": [
        {
          "internalType": "bool",
          "name": "",
          "type": "bool"
        }
      ],
      "stateMutability": "view",
      "type": "function"
    },
    {
      "inputs": [
        {
          "internalType": "contract FlashBorrower",
          "name": "borrower",
          "type": "address"
        },
        {
          "internalType": "bytes",
          "name": "data",
          "type": "bytes"
        },
        {
          "internalType": "contract ERC20",
          "name": "asset",
          "type": "address"
        },
        {
          "internalType": "uint256",
          "name": "amount",
          "type": "uint256"
        }
      ],
      "name": "flashBorrow",
      "outputs": [],
      "stateMutability": "nonpayable",
      "type": "function"
    },
    {
      "inputs": [
        {
          "internalType": "address",
          "name": "user",
          "type": "address"
        }
      ],
      "name": "getCollateral",
      "outputs": [
        {
          "internalType": "contract ERC20[]",
          "name": "",
          "type": "address[]"
        }
      ],
      "stateMutability": "nonpayable",
      "type": "function"
    },
    {
      "inputs": [
        {
          "internalType": "contract ERC20",
          "name": "",
          "type": "address"
        }
      ],
      "name": "interestRateModels",
      "outputs": [
        {
          "internalType": "contract InterestRateModel",
          "name": "",
          "type": "address"
        }
      ],
      "stateMutability": "view",
      "type": "function"
    },
    {
      "inputs": [
        {
          "internalType": "contract ERC20",
          "name": "borrowedAsset",
          "type": "address"
        },
        {
          "internalType": "contract ERC20",
          "name": "collateralAsset",
          "type": "address"
        },
        {
          "internalType": "address",
          "name": "borrower",
          "type": "address"
        },
        {
          "internalType": "uint256",
          "name": "repayAmount",
          "type": "uint256"
        }
      ],
      "name": "liquidateUser",
      "outputs": [],
      "stateMutability": "nonpayable",
      "type": "function"
    },
    {
      "inputs": [],
      "name": "maxBorrowable",
      "outputs": [
        {
          "internalType": "uint256",
          "name": "maximumBorrowable",
          "type": "uint256"
        }
      ],
      "stateMutability": "nonpayable",
      "type": "function"
    },
    {
      "inputs": [],
      "name": "name",
      "outputs": [
        {
          "internalType": "string",
          "name": "",
          "type": "string"
        }
      ],
      "stateMutability": "view",
      "type": "function"
    },
    {
      "inputs": [],
      "name": "oracle",
      "outputs": [
        {
          "internalType": "contract PriceOracle",
          "name": "",
          "type": "address"
        }
      ],
      "stateMutability": "view",
      "type": "function"
    },
    {
      "inputs": [],
      "name": "owner",
      "outputs": [
        {
          "internalType": "address",
          "name": "",
          "type": "address"
        }
      ],
      "stateMutability": "view",
      "type": "function"
    },
    {
      "inputs": [
        {
          "internalType": "contract ERC20",
          "name": "asset",
          "type": "address"
        },
        {
          "internalType": "uint256",
          "name": "amount",
          "type": "uint256"
        }
      ],
      "name": "repay",
      "outputs": [],
      "stateMutability": "nonpayable",
      "type": "function"
    },
    {
      "inputs": [
        {
          "internalType": "contract ERC20",
          "name": "borrowedAsset",
          "type": "address"
        },
        {
          "internalType": "contract ERC20",
          "name": "collateralAsset",
          "type": "address"
        },
        {
          "internalType": "uint256",
          "name": "repayAmount",
          "type": "uint256"
        }
      ],
      "name": "seizeCollateral",
      "outputs": [
        {
          "internalType": "uint256",
          "name": "",
          "type": "uint256"
        }
      ],
      "stateMutability": "view",
      "type": "function"
    },
    {
      "inputs": [
        {
          "internalType": "contract Authority",
          "name": "newAuthority",
          "type": "address"
        }
      ],
      "name": "setAuthority",
      "outputs": [],
      "stateMutability": "nonpayable",
      "type": "function"
    },
    {
      "inputs": [
        {
          "internalType": "contract ERC20",
          "name": "asset",
          "type": "address"
        },
        {
          "internalType": "contract InterestRateModel",
          "name": "newInterestRateModel",
          "type": "address"
        }
      ],
      "name": "setInterestRateModel",
      "outputs": [],
      "stateMutability": "nonpayable",
      "type": "function"
    },
    {
      "inputs": [
        {
          "internalType": "contract PriceOracle",
          "name": "newOracle",
          "type": "address"
        }
      ],
      "name": "setOracle",
      "outputs": [],
      "stateMutability": "nonpayable",
      "type": "function"
    },
    {
      "inputs": [
        {
          "internalType": "contract ERC20",
          "name": "asset",
          "type": "address"
        }
      ],
      "name": "totalBorrows",
      "outputs": [
        {
          "internalType": "uint256",
          "name": "",
          "type": "uint256"
        }
      ],
      "stateMutability": "view",
      "type": "function"
    },
    {
      "inputs": [
        {
          "internalType": "contract ERC20",
          "name": "asset",
          "type": "address"
        }
      ],
      "name": "totalUnderlying",
      "outputs": [
        {
          "internalType": "uint256",
          "name": "",
          "type": "uint256"
        }
      ],
      "stateMutability": "view",
      "type": "function"
    },
    {
      "inputs": [
        {
          "internalType": "address",
          "name": "newOwner",
          "type": "address"
        }
      ],
      "name": "transferOwnership",
      "outputs": [],
      "stateMutability": "nonpayable",
      "type": "function"
    },
    {
      "inputs": [
        {
          "internalType": "contract ERC20",
          "name": "asset",
          "type": "address"
        },
        {
          "components": [
            {
              "internalType": "uint256",
              "name": "lendFactor",
              "type": "uint256"
            },
            {
              "internalType": "uint256",
              "name": "borrowFactor",
              "type": "uint256"
            }
          ],
          "internalType": "struct LendingPool.Configuration",
          "name": "newConfiguration",
          "type": "tuple"
        }
      ],
      "name": "updateConfiguration",
      "outputs": [],
      "stateMutability": "nonpayable",
      "type": "function"
    },
    {
      "inputs": [
        {
          "internalType": "address",
          "name": "",
          "type": "address"
        },
        {
          "internalType": "uint256",
          "name": "",
          "type": "uint256"
        }
      ],
      "name": "userCollateral",
      "outputs": [
        {
          "internalType": "contract ERC20",
          "name": "",
          "type": "address"
        }
      ],
      "stateMutability": "view",
      "type": "function"
    },
    {
      "inputs": [
        {
          "internalType": "address",
          "name": "user",
          "type": "address"
        }
      ],
      "name": "userLiquidatable",
      "outputs": [
        {
          "internalType": "bool",
          "name": "",
          "type": "bool"
        }
      ],
      "stateMutability": "view",
      "type": "function"
    },
    {
      "inputs": [
        {
          "internalType": "contract ERC20",
          "name": "",
          "type": "address"
        }
      ],
      "name": "vaults",
      "outputs": [
        {
          "internalType": "contract ERC4626",
          "name": "",
          "type": "address"
        }
      ],
      "stateMutability": "view",
      "type": "function"
    },
    {
      "inputs": [
        {
          "internalType": "contract ERC20",
          "name": "asset",
          "type": "address"
        },
        {
          "internalType": "uint256",
          "name": "amount",
          "type": "uint256"
        },
        {
          "internalType": "bool",
          "name": "disable",
          "type": "bool"
        }
      ],
      "name": "withdraw",
      "outputs": [],
      "stateMutability": "nonpayable",
      "type": "function"
    }
  ],
  "bytecode": "0x60806040523480156200001157600080fd5b50336001600160a01b0316638da5cb5b6040518163ffffffff1660e01b8152600401602060405180830381865afa15801562000051573d6000803e3d6000fd5b505050506040513d601f19601f8201168201806040525081019062000077919062000205565b336001600160a01b031663bf7e214f6040518163ffffffff1660e01b8152600401602060405180830381865afa158015620000b6573d6000803e3d6000fd5b505050506040513d601f19601f82011682018060405250810190620000dc919062000205565b600080546001600160a01b03199081166001600160a01b0385811691821784556001805490931690851617909155604051909133917f8be0079c531659141344cd1fd0a4f28419497f9722a3daafe3b4186f6b6457e09190a36040516001600160a01b0382169033907fa3396fd7f6e0a21b50e5089d2da70d5ac0a3bbbd1f617a93f134b7638998019890600090a35050336001600160a01b03166331041db76040518163ffffffff1660e01b8152600401600060405180830381865afa158015620001ac573d6000803e3d6000fd5b505050506040513d6000823e601f3d908101601f19168201604052620001d6919081019062000242565b600290620001e59082620003a8565b5062000474565b6001600160a01b03811681146200020257600080fd5b50565b6000602082840312156200021857600080fd5b81516200022581620001ec565b9392505050565b634e487b7160e01b600052604160045260246000fd5b600060208083850312156200025657600080fd5b82516001600160401b03808211156200026e57600080fd5b818501915085601f8301126200028357600080fd5b8151818111156200029857620002986200022c565b604051601f8201601f19908116603f01168101908382118183101715620002c357620002c36200022c565b816040528281528886848701011115620002dc57600080fd5b600093505b82841015620003005784840186015181850187015292850192620002e1565b600086848301015280965050505050505092915050565b600181811c908216806200032c57607f821691505b6020821081036200034d57634e487b7160e01b600052602260045260246000fd5b50919050565b601f821115620003a3576000816000526020600020601f850160051c810160208610156200037e5750805b601f850160051c820191505b818110156200039f578281556001016200038a565b5050505b505050565b81516001600160401b03811115620003c457620003c46200022c565b620003dc81620003d5845462000317565b8462000353565b602080601f831160018114620004145760008415620003fb5750858301515b600019600386901b1c1916600185901b1785556200039f565b600085815260208120601f198616915b82811015620004455788860151825594840194600190910190840162000424565b5085821015620004645787850151600019600388901b60f8161c191681555b5050505050600190811b01905550565b612c1f80620004846000396000f3fe608060405234801561001057600080fd5b50600436106102115760003560e01c80638d73012411610125578063c2127d9c116100ad578063ead5d3591161007c578063ead5d359146104e9578063ece3d236146104fc578063ed29fddb1461050f578063f2fde38b1461054b578063f7888aec1461055e57600080fd5b8063c2127d9c14610487578063cc77a477146104b0578063ccdbe8b1146104c3578063e00711b7146104d657600080fd5b8063a622ee7c116100f4578063a622ee7c146103fb578063a74c076514610424578063b05e75c614610433578063bac5917e14610461578063bf7e214f1461047457600080fd5b80638d730124146103a25780638da5cb5b146103b55780639b56d6c9146103c8578063a3bb06b8146103e857600080fd5b80633357d7d8116101a8578063708075281161017757806370807528146103275780637a9e5e4b1461033a5780637adbf9731461034d5780637d22f9d0146103605780637dc0d1d01461037757600080fd5b80633357d7d8146102e65780633edd1128146102ee5780634b8a3529146103015780636ea08e2a1461031457600080fd5b806320e4cbc5116101e457806320e4cbc51461028d57806322867d78146102a05780632aef4024146102b35780632c79b99d146102c657600080fd5b806306fdde0314610216578063102ba52b1461023457806317585b1214610257578063181f37c81461026c575b600080fd5b61021e610571565b60405161022b91906125cd565b60405180910390f35b6102476102423660046125f8565b6105ff565b604051901515815260200161022b565b61026a610265366004612625565b610615565b005b61027f61027a3660046125f8565b6106c4565b60405190815260200161022b565b61026a61029b36600461265e565b6107af565b61026a6102ae3660046126af565b61085d565b61026a6102c13660046125f8565b610978565b61027f6102d43660046125f8565b60076020526000908152604090205481565b61027f610a2d565b61026a6102fc3660046126e9565b610b9a565b61026a61030f3660046126af565b610dba565b61027f6103223660046125f8565b610fdb565b61026a6103353660046125f8565b611020565b61026a6103483660046125f8565b611219565b61026a61035b3660046125f8565b611303565b61027f61036e36600461272b565b60009392505050565b60035461038a906001600160a01b031681565b6040516001600160a01b03909116815260200161022b565b61027f6103b03660046125f8565b611381565b60005461038a906001600160a01b031681565b6103db6103d63660046125f8565b611554565b60405161022b919061276c565b61026a6103f636600461284f565b6115ca565b61038a6104093660046125f8565b6005602052600090815260409020546001600160a01b031681565b61027f671158e460913d000081565b610247610441366004612625565b600a60209081526000928352604080842090915290825290205460ff1681565b61026a61046f366004612897565b61177c565b60015461038a906001600160a01b031681565b61038a6104953660046125f8565b6004602052600090815260409020546001600160a01b031681565b61038a6104be3660046126af565b61181c565b61027f6104d1366004612625565b611854565b61027f6104e436600461272b565b611899565b61026a6104f73660046126e9565b611c46565b61026a61050a3660046128cd565b611dcf565b61053661051d3660046125f8565b6006602052600090815260409020805460019091015482565b6040805192835260208301919091520161022b565b61026a6105593660046125f8565b6120de565b61027f61056c366004612625565b61215b565b6002805461057e9061297d565b80601f01602080910402602001604051908101604052809291908181526020018280546105aa9061297d565b80156105f75780601f106105cc576101008083540402835291602001916105f7565b820191906000526020600020905b8154815290600101906020018083116105da57829003601f168201915b505050505081565b600061060e60008360006121a0565b1592915050565b61062b336000356001600160e01b0319166121c0565b6106505760405162461bcd60e51b8152600401610647906129b7565b60405180910390fd5b6001600160a01b0382811660008181526004602090815260409182902080546001600160a01b03191694861694851790558151338152908101929092528101919091527f407513407a8c0732b9ef5dda8b7403a709b075e8ebdfabe290e90c417269145a9060600160405180910390a15050565b6001600160a01b038181166000908152600560205260408082205490516370a0823160e01b81523060048201529192169081906307a2d13a9082906370a0823190602401602060405180830381865afa158015610725573d6000803e3d6000fd5b505050506040513d601f19601f8201168201806040525081019061074991906129dd565b6040518263ffffffff1660e01b815260040161076791815260200190565b602060405180830381865afa158015610784573d6000803e3d6000fd5b505050506040513d601f19601f820116820180604052508101906107a891906129dd565b9392505050565b6107b8826105ff565b6108045760405162461bcd60e51b815260206004820152601d60248201527f43414e4e4f545f4c49515549444154455f4845414c5448595f555345520000006044820152606401610647565b6000671158e460913d000061081b86856000611899565b146108565760405162461bcd60e51b815260206004820152600b60248201526a4e4f545f4845414c54485960a81b6044820152606401610647565b5050505050565b6000811161087d5760405162461bcd60e51b8152600401610647906129f6565b6001600160a01b0382166000908152600760205260408120546108ab906108a38561226a565b8491906122ce565b6001600160a01b0384166000908152600d602090815260408083203384529091528120805492935083929091906108e3908490612a34565b90915550506001600160a01b0383166000908152600e60205260409020805482900390556109293330610917600186612a34565b6001600160a01b0387169291906122ec565b61093283612381565b6040518281526001600160a01b0384169033907f05f2eeda0e08e4b437f487c8d7d29b14537d15e3488170dc3de5dbdf8dac4684906020015b60405180910390a3505050565b336000908152600a602090815260408083206001600160a01b038516845290915290205460ff16156109a75750565b3360008181526009602090815260408083208054600180820183559185528385200180546001600160a01b0319166001600160a01b038816908117909155858552600a8452828520818652909352818420805460ff19169091179055519092917f573cdc79fc9f5f5f34a9dd4c0e36c27cef2329ac569cc1e851e22b91adfdea7991a350565b33600090815260096020908152604080832080548251818502810185019093528083528493830182828015610a8b57602002820191906000526020600020905b81546001600160a01b03168152600190910190602001808311610a6d575b50505050509050600080600090505b8251811015610b9457828181518110610ab557610ab5612a47565b6020908102919091018101516001600160a01b038082166000818152600690945260409384902054600354945163fc57d4df60e01b81526004810192909252929550610b8093670de0b6b3a764000092610b799291169063fc57d4df90602401602060405180830381865afa158015610b32573d6000803e3d6000fd5b505050506040513d601f19601f82011682018060405250810190610b5691906129dd565b6001600160a01b038716600090815260076020526040902054610b79883361215b565b91906122ce565b610b8a9085612a5d565b9350600101610a9a565b50505090565b60008211610bdb5760405162461bcd60e51b815260206004820152600e60248201526d1253959053125117d05353d5539560921b6044820152606401610647565b6001600160a01b038316600090815260076020526040812054610c0990610c01866123b4565b8591906122ce565b6001600160a01b0385166000818152600b602090815260408083203384528252808320805486019055928252600c905290812080549293508392909190610c51908490612a5d565b90915550610c6c90506001600160a01b0385163330866122ec565b6001600160a01b038481166000818152600560205260409081902054905163095ea7b360e01b8152921660048301819052602483018690529163095ea7b3906044016020604051808303816000875af1158015610ccd573d6000803e3d6000fd5b505050506040513d601f19601f82011682018060405250810190610cf19190612a70565b50604051636e553f6560e01b8152600481018590523060248201526001600160a01b03821690636e553f65906044016020604051808303816000875af1158015610d3f573d6000803e3d6000fd5b505050506040513d601f19601f82011682018060405250810190610d6391906129dd565b508215610d7357610d7385610978565b6040518481526001600160a01b0386169033907f5548c837ab068cf56a2c2479df0882a4922fd203edb7517321831d95078c5f629060200160405180910390a35050505050565b60008111610dda5760405162461bcd60e51b8152600401610647906129f6565b610de382612381565b610dec82610978565b610df78233836121a0565b610e0057600080fd5b6001600160a01b038216600090815260076020526040812054610e26906108a38561226a565b6001600160a01b0384166000818152600d602090815260408083203384528252808320805486019055928252600e905290812080549293508392909190610e6e908490612a5d565b90915550506001600160a01b0383166000908152600f602052604081208054849290610e9b908490612a5d565b90915550506001600160a01b0383811660009081526005602052604090819020549051632d182be560e21b8152600481018590523060248201819052604482015291169063b460af94906064016020604051808303816000875af1158015610f07573d6000803e3d6000fd5b505050506040513d601f19601f82011682018060405250810190610f2b91906129dd565b5060405163a9059cbb60e01b8152336004820152602481018390526001600160a01b0384169063a9059cbb906044016020604051808303816000875af1158015610f79573d6000803e3d6000fd5b505050506040513d601f19601f82011682018060405250810190610f9d9190612a70565b506040518281526001600160a01b0384169033907f312a5e5e1079f5dda4e95dbbd0b908b291fd5b992ef22073643ab691572c5b529060200161096b565b6001600160a01b038116600090815260086020526040812054610ffd83611381565b611006846106c4565b6110109190612a5d565b61101a9190612a5d565b92915050565b6001600160a01b0381166000908152600d602090815260408083203384529091529020541561104c5750565b336000908152600a602090815260408083206001600160a01b038516845290915290205460ff1661107a5750565b60005b336000908152600960205260409020548110156111c25733600090815260096020526040902080546001600160a01b0384169190839081106110c1576110c1612a47565b6000918252602090912001546001600160a01b0316036111ba5733600090815260096020526040812080546110f890600190612a34565b8154811061110857611108612a47565b60009182526020808320909101543383526009909152604090912080546001600160a01b0390921692509061113f90600190612a34565b8154811061114f5761114f612a47565b6000918252602080832090910180546001600160a01b0319169055338252600990526040902080548291908490811061118a5761118a612a47565b9060005260206000200160006101000a8154816001600160a01b0302191690836001600160a01b03160217905550505b60010161107d565b50336000818152600a602090815260408083206001600160a01b0386168085529252808320805460ff19169055519092917f9eec4b6d877f137d56d88f5efc210046b29226b775b6000411249fa4b937ee2891a350565b6000546001600160a01b03163314806112ae575060015460405163b700961360e01b81526001600160a01b039091169063b70096139061126d90339030906001600160e01b03196000351690600401612a8d565b602060405180830381865afa15801561128a573d6000803e3d6000fd5b505050506040513d601f19601f820116820180604052508101906112ae9190612a70565b6112b757600080fd5b600180546001600160a01b0319166001600160a01b03831690811790915560405133907fa3396fd7f6e0a21b50e5089d2da70d5ac0a3bbbd1f617a93f134b7638998019890600090a350565b611319336000356001600160e01b0319166121c0565b6113355760405162461bcd60e51b8152600401610647906129b7565b600380546001600160a01b0319166001600160a01b03831690811790915560405133907f078c3b417dadf69374a59793b829c52001247130433427049317bde56607b1b790600090a350565b6001600160a01b03808216600090815260046020526040812054909116806113eb5760405162461bcd60e51b815260206004820152601b60248201527f494e5445524553545f524154455f4d4f44454c5f4e4f545f53455400000000006044820152606401610647565b6001600160a01b038316600090815260086020908152604080832054600f909252822054611418866106c4565b6114229190612a5d565b61142c9190612a5d565b6001600160a01b038581166000908152600f60205260408082205490516315f2405360e01b81526004810185905260248101919091526044810182905292935091908416906315f2405390606401602060405180830381865afa158015611497573d6000803e3d6000fd5b505050506040513d601f19601f820116820180604052508101906114bb91906129dd565b6001600160a01b038616600090815260106020526040812054919250906114e29043612a34565b905043810361150e575050506001600160a01b039092166000908152600f602052604090205492915050565b60006115238383670de0b6b3a7640000612418565b6001600160a01b0388166000908152600f602052604090205490915061154990826124d6565b979650505050505050565b6001600160a01b0381166000908152600960209081526040918290208054835181840281018401909452808452606093928301828280156115be57602002820191906000526020600020905b81546001600160a01b031681526001909101906020018083116115a0575b50505050509050919050565b6115e0336000356001600160e01b0319166121c0565b6115fc5760405162461bcd60e51b8152600401610647906129b7565b6001600160a01b0383811660009081526005602052604090205416156116645760405162461bcd60e51b815260206004820152601860248201527f41535345545f414c52454144595f434f4e4649475552454400000000000000006044820152606401610647565b6001600160a01b03838116600081815260056020908152604080832080546001600160a01b031916958816959095179094556006815290839020845181558482015160019190910155825163313ce56760e01b81529251919263313ce56792600480830193928290030181865afa1580156116e3573d6000803e3d6000fd5b505050506040513d601f19601f820116820180604052508101906117079190612aba565b61171290600a612bc1565b6001600160a01b0384811660008181526007602090815260409182902094909455805185518152858501519481019490945291851692909133917fe5975b02d380ef2cebe9e8327ab6a673824888180980468567e2b84d0fea3caf910160405180910390a4505050565b611792336000356001600160e01b0319166121c0565b6117ae5760405162461bcd60e51b8152600401610647906129b7565b6001600160a01b03821660008181526006602090815260409182902084518082558583018051600190930192909255835190815290519181019190915233917fd4a873b2914d9cdf498e42960b285e20f9e2811d3595b730b891be43b8439ff1910160405180910390a35050565b6009602052816000526040600020818154811061183857600080fd5b6000918252602090912001546001600160a01b03169150829050565b60006107a86118628461226a565b6001600160a01b03808616600090815260076020908152604080832054600d835281842094891684529390915290205491906122ce565b60006118c66040518060800160405280600081526020016000815260200160008152602001600081525090565b6001600160a01b03841660009081526009602090815260408083208054825181850281018501909352808352919290919083018282801561193057602002820191906000526020600020905b81546001600160a01b03168152600190910190602001808311611912575b5050505050905060008060005b8351811015611c035783818151811061195857611958612a47565b6020908102919091018101516001600160a01b038082166000818152600690945260409384902054600354945163fc57d4df60e01b81526004810192909252929550611a1c93670de0b6b3a764000092610b799291169063fc57d4df90602401602060405180830381865afa1580156119d5573d6000803e3d6000fd5b505050506040513d601f19601f820116820180604052508101906119f991906129dd565b6001600160a01b038716600090815260076020526040902054610b79888f61215b565b85602001818151611a2d9190612a5d565b9052506001600160a01b03828116908a1614611a4a576000611a4c565b865b6001600160a01b0383166000908152600d6020908152604080832033845290915290205490935015611a8f57611a828289611854565b611a8c9084612a5d565b92505b60035460405163fc57d4df60e01b81526001600160a01b038481166004830152611b2092169063fc57d4df90602401602060405180830381865afa158015611adb573d6000803e3d6000fd5b505050506040513d601f19601f82011682018060405250810190611aff91906129dd565b6001600160a01b0384166000908152600760205260409020548591906122ce565b85518690611b2f908390612a5d565b9052506001600160a01b038281166000818152600660205260409081902060010154600354915163fc57d4df60e01b81526004810193909352611be7939092611be1929091169063fc57d4df90602401602060405180830381865afa158015611b9c573d6000803e3d6000fd5b505050506040513d601f19601f82011682018060405250810190611bc091906129dd565b6001600160a01b0386166000908152600760205260409020548791906122ce565b906124d6565b85604001818151611bf89190612a5d565b90525060010161193d565b506000611c298560200151611be1876000015188604001516124eb90919063ffffffff16565b8551909150611c399082906124eb565b9998505050505050505050565b60008211611c665760405162461bcd60e51b8152600401610647906129f6565b6001600160a01b038316600090815260076020526040812054611c8c90610c01866123b4565b6001600160a01b0385166000908152600b60209081526040808320338452909152812080549293508392909190611cc4908490612a34565b90915550506001600160a01b038481166000908152600c6020908152604080832080548690039055600590915290819020549051632d182be560e21b8152600481018690523060248201819052604482015291169063b460af94906064016020604051808303816000875af1158015611d41573d6000803e3d6000fd5b505050506040513d601f19601f82011682018060405250810190611d6591906129dd565b50611d7a6001600160a01b0385163385612500565b8115611d8957611d8984611020565b6040518381526001600160a01b0385169033907f9b1bfa7fa9ee420a16e124f794c35ac9f90472acc99140eb2f6447c714cad8eb9060200160405180910390a350505050565b6001600160a01b03821660009081526008602052604090205415611e355760405162461bcd60e51b815260206004820152601860248201527f464c4153485f424f52524f575f494e5f50524f475245535300000000000000006044820152606401610647565b6000611e40836106c4565b6001600160a01b0384811660009081526005602052604090819020549051632d182be560e21b8152600481018690528883166024820152306044820152929350169063b460af94906064016020604051808303816000875af1158015611eaa573d6000803e3d6000fd5b505050506040513d601f19601f82011682018060405250810190611ece91906129dd565b506001600160a01b0380841660009081526008602052604090819020849055516359efcb1560e01b8152908616906359efcb1590611f129085908890600401612bd0565b600060405180830381600087803b158015611f2c57600080fd5b505af1158015611f40573d6000803e3d6000fd5b505050506001600160a01b03838116600090815260056020526040908190205490516370a0823160e01b81523060048201529116908290849083906307a2d13a9082906370a0823190602401602060405180830381865afa158015611fa9573d6000803e3d6000fd5b505050506040513d601f19601f82011682018060405250810190611fcd91906129dd565b6040518263ffffffff1660e01b8152600401611feb91815260200190565b602060405180830381865afa158015612008573d6000803e3d6000fd5b505050506040513d601f19601f8201168201806040525081019061202c91906129dd565b6120369190612a5d565b116120795760405162461bcd60e51b8152602060048201526013602482015272105353d5539517d393d517d491551554939151606a1b6044820152606401610647565b6001600160a01b038085166000818152600860205260408082209190915551909188169033907fc688ff9bd4a1c369dd44c5cf64efa9db6652fb6b280aa765cd43f17d256b816e906120ce9088815260200190565b60405180910390a4505050505050565b6120f4336000356001600160e01b0319166121c0565b6121105760405162461bcd60e51b8152600401610647906129b7565b600080546001600160a01b0319166001600160a01b0383169081178255604051909133917f8be0079c531659141344cd1fd0a4f28419497f9722a3daafe3b4186f6b6457e09190a350565b60006107a8612169846123b4565b6001600160a01b03808616600090815260076020908152604080832054600b835281842094891684529390915290205491906122ce565b6000670de0b6b3a76400006121b6858585611899565b1015949350505050565b6001546000906001600160a01b0316801580159061224a575060405163b700961360e01b81526001600160a01b0382169063b70096139061220990879030908890600401612a8d565b602060405180830381865afa158015612226573d6000803e3d6000fd5b505050506040513d601f19601f8201168201806040525081019061224a9190612a70565b8061226257506000546001600160a01b038581169116145b949350505050565b6001600160a01b0381166000908152600e60205260408120548082036122a75750506001600160a01b031660009081526007602052604090205490565b6001600160a01b0383166000908152600760205260409020546107a89082610b7986611381565b60008260001904841183021582026122e557600080fd5b5091020490565b60006040516323b872dd60e01b81526001600160a01b03851660048201526001600160a01b03841660248201528260448201526020600060648360008a5af13d15601f3d11600160005114161716915050806108565760405162461bcd60e51b81526020600482015260146024820152731514905394d1915497d19493d357d1905253115160621b6044820152606401610647565b61238a81611381565b6001600160a01b039091166000908152600f60209081526040808320939093556010905220439055565b6001600160a01b0381166000908152600c60205260408120548082036123f15750506001600160a01b031660009081526007602052604090205490565b6001600160a01b0383166000908152600760205260409020546107a89082610b7986610fdb565b60008380156124b85760018416801561243357859250612437565b8392505b508260011c8460011c94505b84156124b2578560801c1561245757600080fd5b8586028181018181101561246a57600080fd5b85900496505060018516156124a757858302838782041461249057861561249057600080fd5b818101818110156124a057600080fd5b8590049350505b8460011c9450612443565b506124ce565b8380156124c857600092506124cc565b8392505b505b509392505050565b60006107a88383670de0b6b3a76400006122ce565b60006107a883670de0b6b3a7640000846122ce565b600060405163a9059cbb60e01b81526001600160a01b0384166004820152826024820152602060006044836000895af13d15601f3d11600160005114161716915050806125815760405162461bcd60e51b815260206004820152600f60248201526e1514905394d1915497d19052531151608a1b6044820152606401610647565b50505050565b6000815180845260005b818110156125ad57602081850181015186830182015201612591565b506000602082860101526020601f19601f83011685010191505092915050565b6020815260006107a86020830184612587565b6001600160a01b03811681146125f557600080fd5b50565b60006020828403121561260a57600080fd5b81356107a8816125e0565b8035612620816125e0565b919050565b6000806040838503121561263857600080fd5b8235612643816125e0565b91506020830135612653816125e0565b809150509250929050565b6000806000806080858703121561267457600080fd5b843561267f816125e0565b9350602085013561268f816125e0565b9250604085013561269f816125e0565b9396929550929360600135925050565b600080604083850312156126c257600080fd5b82356126cd816125e0565b946020939093013593505050565b80151581146125f557600080fd5b6000806000606084860312156126fe57600080fd5b8335612709816125e0565b9250602084013591506040840135612720816126db565b809150509250925092565b60008060006060848603121561274057600080fd5b833561274b816125e0565b9250602084013561275b816125e0565b929592945050506040919091013590565b6020808252825182820181905260009190848201906040850190845b818110156127ad5783516001600160a01b031683529284019291840191600101612788565b50909695505050505050565b634e487b7160e01b600052604160045260246000fd5b604051601f8201601f1916810167ffffffffffffffff811182821017156127f8576127f86127b9565b604052919050565b60006040828403121561281257600080fd5b6040516040810181811067ffffffffffffffff82111715612835576128356127b9565b604052823581526020928301359281019290925250919050565b60008060006080848603121561286457600080fd5b833561286f816125e0565b9250602084013561287f816125e0565b915061288e8560408601612800565b90509250925092565b600080606083850312156128aa57600080fd5b82356128b5816125e0565b91506128c48460208501612800565b90509250929050565b600080600080608085870312156128e357600080fd5b84356128ee816125e0565b935060208581013567ffffffffffffffff8082111561290c57600080fd5b818801915088601f83011261292057600080fd5b813581811115612932576129326127b9565b612944601f8201601f191685016127cf565b9150808252898482850101111561295a57600080fd5b808484018584013760008482840101525080955050505061269f60408601612615565b600181811c9082168061299157607f821691505b6020821081036129b157634e487b7160e01b600052602260045260246000fd5b50919050565b6020808252600c908201526b15539055551213d49256915160a21b604082015260600190565b6000602082840312156129ef57600080fd5b5051919050565b6020808252600e908201526d414d4f554e545f544f4f5f4c4f5760901b604082015260600190565b634e487b7160e01b600052601160045260246000fd5b8181038181111561101a5761101a612a1e565b634e487b7160e01b600052603260045260246000fd5b8082018082111561101a5761101a612a1e565b600060208284031215612a8257600080fd5b81516107a8816126db565b6001600160a01b0393841681529190921660208201526001600160e01b0319909116604082015260600190565b600060208284031215612acc57600080fd5b815160ff811681146107a857600080fd5b600181815b80851115612b18578160001904821115612afe57612afe612a1e565b80851615612b0b57918102915b93841c9390800290612ae2565b509250929050565b600082612b2f5750600161101a565b81612b3c5750600061101a565b8160018114612b525760028114612b5c57612b78565b600191505061101a565b60ff841115612b6d57612b6d612a1e565b50506001821b61101a565b5060208310610133831016604e8410600b8410161715612b9b575081810a61101a565b612ba58383612add565b8060001904821115612bb957612bb9612a1e565b029392505050565b60006107a860ff841683612b20565b828152604060208201526000612262604083018461258756fea2646970667358221220cacbc464c0dca582f2b3e5ddd54b4eac120e04434652a211da649a5dc333bb2d64736f6c63430008180033",
  "linkReferences": {},
  "deployedLinkReferences": {}
}