{
  "_format": "hh-sol-artifact-1",
  "contractName": "infraLayerZero",
  "sourceName": "contracts/crossChain/samples/layerZeroInfra.sol",
  "abi": [
    {
      "inputs": [
        {
          "internalType": "address",
          "name": "_endpoint",
          "type": "address"
        },
        {
          "internalType": "address",
          "name": "_owner",
          "type": "address"
        }
      ],
      "stateMutability": "nonpayable",
      "type": "constructor"
    },
    {
      "inputs": [],
      "name": "InvalidDelegate",
      "type": "error"
    },
    {
      "inputs": [],
      "name": "InvalidEndpointCall",
      "type": "error"
    },
    {
      "inputs": [],
      "name": "LzTokenUnavailable",
      "type": "error"
    },
    {
      "inputs": [
        {
          "internalType": "uint32",
          "name": "eid",
          "type": "uint32"
        }
      ],
      "name": "NoPeer",
      "type": "error"
    },
    {
      "inputs": [
        {
          "internalType": "uint256",
          "name": "msgValue",
          "type": "uint256"
        }
      ],
      "name": "NotEnoughNative",
      "type": "error"
    },
    {
      "inputs": [
        {
          "internalType": "address",
          "name": "addr",
          "type": "address"
        }
      ],
      "name": "OnlyEndpoint",
      "type": "error"
    },
    {
      "inputs": [
        {
          "internalType": "uint32",
          "name": "eid",
          "type": "uint32"
        },
        {
          "internalType": "bytes32",
          "name": "sender",
          "type": "bytes32"
        }
      ],
      "name": "OnlyPeer",
      "type": "error"
    },
    {
      "inputs": [
        {
          "internalType": "address",
          "name": "owner",
          "type": "address"
        }
      ],
      "name": "OwnableInvalidOwner",
      "type": "error"
    },
    {
      "inputs": [
        {
          "internalType": "address",
          "name": "account",
          "type": "address"
        }
      ],
      "name": "OwnableUnauthorizedAccount",
      "type": "error"
    },
    {
      "anonymous": false,
      "inputs": [
        {
          "indexed": true,
          "internalType": "address",
          "name": "previousOwner",
          "type": "address"
        },
        {
          "indexed": true,
          "internalType": "address",
          "name": "newOwner",
          "type": "address"
        }
      ],
      "name": "OwnershipTransferred",
      "type": "event"
    },
    {
      "anonymous": false,
      "inputs": [
        {
          "indexed": false,
          "internalType": "uint32",
          "name": "eid",
          "type": "uint32"
        },
        {
          "indexed": false,
          "internalType": "bytes32",
          "name": "peer",
          "type": "bytes32"
        }
      ],
      "name": "PeerSet",
      "type": "event"
    },
    {
      "inputs": [
        {
          "components": [
            {
              "internalType": "uint32",
              "name": "srcEid",
              "type": "uint32"
            },
            {
              "internalType": "bytes32",
              "name": "sender",
              "type": "bytes32"
            },
            {
              "internalType": "uint64",
              "name": "nonce",
              "type": "uint64"
            }
          ],
          "internalType": "struct Origin",
          "name": "origin",
          "type": "tuple"
        }
      ],
      "name": "allowInitializePath",
      "outputs": [
        {
          "internalType": "bool",
          "name": "",
          "type": "bool"
        }
      ],
      "stateMutability": "view",
      "type": "function"
    },
    {
      "inputs": [],
      "name": "endpoint",
      "outputs": [
        {
          "internalType": "contract ILayerZeroEndpointV2",
          "name": "",
          "type": "address"
        }
      ],
      "stateMutability": "view",
      "type": "function"
    },
    {
      "inputs": [
        {
          "components": [
            {
              "internalType": "uint32",
              "name": "srcEid",
              "type": "uint32"
            },
            {
              "internalType": "bytes32",
              "name": "sender",
              "type": "bytes32"
            },
            {
              "internalType": "uint64",
              "name": "nonce",
              "type": "uint64"
            }
          ],
          "internalType": "struct Origin",
          "name": "",
          "type": "tuple"
        },
        {
          "internalType": "bytes",
          "name": "",
          "type": "bytes"
        },
        {
          "internalType": "address",
          "name": "_sender",
          "type": "address"
        }
      ],
      "name": "isComposeMsgSender",
      "outputs": [
        {
          "internalType": "bool",
          "name": "",
          "type": "bool"
        }
      ],
      "stateMutability": "view",
      "type": "function"
    },
    {
      "inputs": [
        {
          "components": [
            {
              "internalType": "uint32",
              "name": "srcEid",
              "type": "uint32"
            },
            {
              "internalType": "bytes32",
              "name": "sender",
              "type": "bytes32"
            },
            {
              "internalType": "uint64",
              "name": "nonce",
              "type": "uint64"
            }
          ],
          "internalType": "struct Origin",
          "name": "_origin",
          "type": "tuple"
        },
        {
          "internalType": "bytes32",
          "name": "_guid",
          "type": "bytes32"
        },
        {
          "internalType": "bytes",
          "name": "_message",
          "type": "bytes"
        },
        {
          "internalType": "address",
          "name": "_executor",
          "type": "address"
        },
        {
          "internalType": "bytes",
          "name": "_extraData",
          "type": "bytes"
        }
      ],
      "name": "lzReceive",
      "outputs": [],
      "stateMutability": "payable",
      "type": "function"
    },
    {
      "inputs": [
        {
          "internalType": "uint32",
          "name": "",
          "type": "uint32"
        },
        {
          "internalType": "bytes32",
          "name": "",
          "type": "bytes32"
        }
      ],
      "name": "nextNonce",
      "outputs": [
        {
          "internalType": "uint64",
          "name": "nonce",
          "type": "uint64"
        }
      ],
      "stateMutability": "view",
      "type": "function"
    },
    {
      "inputs": [],
      "name": "oAppVersion",
      "outputs": [
        {
          "internalType": "uint64",
          "name": "senderVersion",
          "type": "uint64"
        },
        {
          "internalType": "uint64",
          "name": "receiverVersion",
          "type": "uint64"
        }
      ],
      "stateMutability": "pure",
      "type": "function"
    },
    {
      "inputs": [],
      "name": "owner",
      "outputs": [
        {
          "internalType": "address",
          "name": "",
          "type": "address"
        }
      ],
      "stateMutability": "view",
      "type": "function"
    },
    {
      "inputs": [
        {
          "internalType": "uint32",
          "name": "eid",
          "type": "uint32"
        }
      ],
      "name": "peers",
      "outputs": [
        {
          "internalType": "bytes32",
          "name": "peer",
          "type": "bytes32"
        }
      ],
      "stateMutability": "view",
      "type": "function"
    },
    {
      "inputs": [],
      "name": "renounceOwnership",
      "outputs": [],
      "stateMutability": "nonpayable",
      "type": "function"
    },
    {
      "inputs": [
        {
          "internalType": "uint32",
          "name": "_dstEid",
          "type": "uint32"
        },
        {
          "internalType": "string",
          "name": "_message",
          "type": "string"
        },
        {
          "internalType": "bytes",
          "name": "_options",
          "type": "bytes"
        }
      ],
      "name": "send",
      "outputs": [],
      "stateMutability": "payable",
      "type": "function"
    },
    {
      "inputs": [
        {
          "internalType": "address",
          "name": "_delegate",
          "type": "address"
        }
      ],
      "name": "setDelegate",
      "outputs": [],
      "stateMutability": "nonpayable",
      "type": "function"
    },
    {
      "inputs": [
        {
          "internalType": "uint32",
          "name": "_eid",
          "type": "uint32"
        },
        {
          "internalType": "bytes32",
          "name": "_peer",
          "type": "bytes32"
        }
      ],
      "name": "setPeer",
      "outputs": [],
      "stateMutability": "nonpayable",
      "type": "function"
    },
    {
      "inputs": [
        {
          "internalType": "address",
          "name": "newOwner",
          "type": "address"
        }
      ],
      "name": "transferOwnership",
      "outputs": [],
      "stateMutability": "nonpayable",
      "type": "function"
    },
    {
      "stateMutability": "payable",
      "type": "receive"
    }
  ],
  "bytecode": "0x60a060405234801561001057600080fd5b50604051610ad9380380610ad983398101604081905261002f9161016f565b81818181806001600160a01b03811661006257604051631e4fbdf760e01b81526000600482015260240160405180910390fd5b61006b81610103565b506001600160a01b03808316608052811661009957604051632d618d8160e21b815260040160405180910390fd5b60805160405163ca5eb5e160e01b81526001600160a01b0383811660048301529091169063ca5eb5e190602401600060405180830381600087803b1580156100e057600080fd5b505af11580156100f4573d6000803e3d6000fd5b505050505050505050506101a2565b600080546001600160a01b038381166001600160a01b0319831681178455604051919092169283917f8be0079c531659141344cd1fd0a4f28419497f9722a3daafe3b4186f6b6457e09190a35050565b80516001600160a01b038116811461016a57600080fd5b919050565b6000806040838503121561018257600080fd5b61018b83610153565b915061019960208401610153565b90509250929050565b60805161090e6101cb60003960008181610140015281816102d901526103d9015261090e6000f3fe6080604052600436106100c65760003560e01c806382413eac1161007f578063ca5eb5e111610059578063ca5eb5e114610263578063e0539e5814610283578063f2fde38b14610297578063ff7bd03d146102b757600080fd5b806382413eac146101cb5780638da5cb5b1461020a578063bb0b6a531461022857600080fd5b806313137d65146100d257806317442b70146100e75780633400288b1461010e5780635e280f111461012e578063715018a61461017a5780637d25a05e1461018f57600080fd5b366100cd57005b600080fd5b6100e56100e036600461063d565b6102d7565b005b3480156100f357600080fd5b50604080516001815260026020820152015b60405180910390f35b34801561011a57600080fd5b506100e56101293660046106f0565b610388565b34801561013a57600080fd5b506101627f000000000000000000000000000000000000000000000000000000000000000081565b6040516001600160a01b039091168152602001610105565b34801561018657600080fd5b506100e561039e565b34801561019b57600080fd5b506101b26101aa3660046106f0565b600092915050565b60405167ffffffffffffffff9091168152602001610105565b3480156101d757600080fd5b506101fa6101e636600461071a565b6001600160a01b0381163014949350505050565b6040519015158152602001610105565b34801561021657600080fd5b506000546001600160a01b0316610162565b34801561023457600080fd5b50610255610243366004610780565b60016020526000908152604090205481565b604051908152602001610105565b34801561026f57600080fd5b506100e561027e3660046107a2565b6103b2565b6100e56102913660046107d3565b50505050565b3480156102a357600080fd5b506100e56102b23660046107a2565b610438565b3480156102c357600080fd5b506101fa6102d23660046108bc565b610476565b7f00000000000000000000000000000000000000000000000000000000000000006001600160a01b03163314610327576040516391ac5e4f60e01b81523360048201526024015b60405180910390fd5b602087018035906103419061033c908a610780565b6104ac565b1461037f576103536020880188610780565b60405163309afaf360e21b815263ffffffff90911660048201526020880135602482015260440161031e565b50505050505050565b6103906104ee565b61039a828261051b565b5050565b6103a66104ee565b6103b06000610570565b565b6103ba6104ee565b60405163ca5eb5e160e01b81526001600160a01b0382811660048301527f0000000000000000000000000000000000000000000000000000000000000000169063ca5eb5e190602401600060405180830381600087803b15801561041d57600080fd5b505af1158015610431573d6000803e3d6000fd5b5050505050565b6104406104ee565b6001600160a01b03811661046a57604051631e4fbdf760e01b81526000600482015260240161031e565b61047381610570565b50565b600060208201803590600190839061048e9086610780565b63ffffffff1681526020810191909152604001600020541492915050565b63ffffffff8116600090815260016020526040812054806104e85760405163f6ff4fb760e01b815263ffffffff8416600482015260240161031e565b92915050565b6000546001600160a01b031633146103b05760405163118cdaa760e01b815233600482015260240161031e565b63ffffffff8216600081815260016020908152604091829020849055815192835282018390527f238399d427b947898edb290f5ff0f9109849b1c3ba196a42e35f00c50a54b98b910160405180910390a15050565b600080546001600160a01b038381166001600160a01b0319831681178455604051919092169283917f8be0079c531659141344cd1fd0a4f28419497f9722a3daafe3b4186f6b6457e09190a35050565b6000606082840312156105d257600080fd5b50919050565b60008083601f8401126105ea57600080fd5b50813567ffffffffffffffff81111561060257600080fd5b60208301915083602082850101111561061a57600080fd5b9250929050565b80356001600160a01b038116811461063857600080fd5b919050565b600080600080600080600060e0888a03121561065857600080fd5b61066289896105c0565b965060608801359550608088013567ffffffffffffffff8082111561068657600080fd5b6106928b838c016105d8565b90975095508591506106a660a08b01610621565b945060c08a01359150808211156106bc57600080fd5b506106c98a828b016105d8565b989b979a50959850939692959293505050565b803563ffffffff8116811461063857600080fd5b6000806040838503121561070357600080fd5b61070c836106dc565b946020939093013593505050565b60008060008060a0858703121561073057600080fd5b61073a86866105c0565b9350606085013567ffffffffffffffff81111561075657600080fd5b610762878288016105d8565b9094509250610775905060808601610621565b905092959194509250565b60006020828403121561079257600080fd5b61079b826106dc565b9392505050565b6000602082840312156107b457600080fd5b61079b82610621565b634e487b7160e01b600052604160045260246000fd5b600080600080606085870312156107e957600080fd5b6107f2856106dc565b9350602085013567ffffffffffffffff8082111561080f57600080fd5b818701915087601f83011261082357600080fd5b813581811115610835576108356107bd565b604051601f8201601f19908116603f0116810190838211818310171561085d5761085d6107bd565b816040528281528a602084870101111561087657600080fd5b8260208601602083013760006020848301015280975050505060408701359150808211156108a357600080fd5b506108b0878288016105d8565b95989497509550505050565b6000606082840312156108ce57600080fd5b61079b83836105c056fea2646970667358221220b6649893c3dc1428301ecc3ae97199dc1e3cd7d4bcafe5eb3d7c0d125c110bbd64736f6c63430008180033",
  "linkReferences": {},
  "deployedLinkReferences": {}
}