{
  "_format": "hh-sol-artifact-1",
  "contractName": "astarL2ZkAstrEvm",
  "sourceName": "contracts/crossChain/samples/astarL2ZkEvmAstrUsd.sol",
  "abi": [
    {
      "inputs": [],
      "stateMutability": "nonpayable",
      "type": "constructor"
    },
    {
      "inputs": [],
      "name": "ECDSAInvalidSignature",
      "type": "error"
    },
    {
      "inputs": [
        {
          "internalType": "uint256",
          "name": "length",
          "type": "uint256"
        }
      ],
      "name": "ECDSAInvalidSignatureLength",
      "type": "error"
    },
    {
      "inputs": [
        {
          "internalType": "bytes32",
          "name": "s",
          "type": "bytes32"
        }
      ],
      "name": "ECDSAInvalidSignatureS",
      "type": "error"
    },
    {
      "inputs": [
        {
          "internalType": "address",
          "name": "spender",
          "type": "address"
        },
        {
          "internalType": "uint256",
          "name": "allowance",
          "type": "uint256"
        },
        {
          "internalType": "uint256",
          "name": "needed",
          "type": "uint256"
        }
      ],
      "name": "ERC20InsufficientAllowance",
      "type": "error"
    },
    {
      "inputs": [
        {
          "internalType": "address",
          "name": "sender",
          "type": "address"
        },
        {
          "internalType": "uint256",
          "name": "balance",
          "type": "uint256"
        },
        {
          "internalType": "uint256",
          "name": "needed",
          "type": "uint256"
        }
      ],
      "name": "ERC20InsufficientBalance",
      "type": "error"
    },
    {
      "inputs": [
        {
          "internalType": "address",
          "name": "approver",
          "type": "address"
        }
      ],
      "name": "ERC20InvalidApprover",
      "type": "error"
    },
    {
      "inputs": [
        {
          "internalType": "address",
          "name": "receiver",
          "type": "address"
        }
      ],
      "name": "ERC20InvalidReceiver",
      "type": "error"
    },
    {
      "inputs": [
        {
          "internalType": "address",
          "name": "sender",
          "type": "address"
        }
      ],
      "name": "ERC20InvalidSender",
      "type": "error"
    },
    {
      "inputs": [
        {
          "internalType": "address",
          "name": "spender",
          "type": "address"
        }
      ],
      "name": "ERC20InvalidSpender",
      "type": "error"
    },
    {
      "inputs": [
        {
          "internalType": "uint256",
          "name": "deadline",
          "type": "uint256"
        }
      ],
      "name": "ERC2612ExpiredSignature",
      "type": "error"
    },
    {
      "inputs": [
        {
          "internalType": "address",
          "name": "signer",
          "type": "address"
        },
        {
          "internalType": "address",
          "name": "owner",
          "type": "address"
        }
      ],
      "name": "ERC2612InvalidSigner",
      "type": "error"
    },
    {
      "inputs": [
        {
          "internalType": "address",
          "name": "account",
          "type": "address"
        },
        {
          "internalType": "uint256",
          "name": "currentNonce",
          "type": "uint256"
        }
      ],
      "name": "InvalidAccountNonce",
      "type": "error"
    },
    {
      "inputs": [],
      "name": "InvalidDelegate",
      "type": "error"
    },
    {
      "inputs": [],
      "name": "InvalidEndpointCall",
      "type": "error"
    },
    {
      "inputs": [],
      "name": "InvalidShortString",
      "type": "error"
    },
    {
      "inputs": [],
      "name": "LzTokenUnavailable",
      "type": "error"
    },
    {
      "inputs": [
        {
          "internalType": "uint32",
          "name": "eid",
          "type": "uint32"
        }
      ],
      "name": "NoPeer",
      "type": "error"
    },
    {
      "inputs": [
        {
          "internalType": "uint256",
          "name": "msgValue",
          "type": "uint256"
        }
      ],
      "name": "NotEnoughNative",
      "type": "error"
    },
    {
      "inputs": [
        {
          "internalType": "address",
          "name": "addr",
          "type": "address"
        }
      ],
      "name": "OnlyEndpoint",
      "type": "error"
    },
    {
      "inputs": [
        {
          "internalType": "uint32",
          "name": "eid",
          "type": "uint32"
        },
        {
          "internalType": "bytes32",
          "name": "sender",
          "type": "bytes32"
        }
      ],
      "name": "OnlyPeer",
      "type": "error"
    },
    {
      "inputs": [
        {
          "internalType": "address",
          "name": "owner",
          "type": "address"
        }
      ],
      "name": "OwnableInvalidOwner",
      "type": "error"
    },
    {
      "inputs": [
        {
          "internalType": "address",
          "name": "account",
          "type": "address"
        }
      ],
      "name": "OwnableUnauthorizedAccount",
      "type": "error"
    },
    {
      "inputs": [
        {
          "internalType": "string",
          "name": "str",
          "type": "string"
        }
      ],
      "name": "StringTooLong",
      "type": "error"
    },
    {
      "anonymous": false,
      "inputs": [
        {
          "indexed": true,
          "internalType": "address",
          "name": "owner",
          "type": "address"
        },
        {
          "indexed": true,
          "internalType": "address",
          "name": "spender",
          "type": "address"
        },
        {
          "indexed": false,
          "internalType": "uint256",
          "name": "value",
          "type": "uint256"
        }
      ],
      "name": "Approval",
      "type": "event"
    },
    {
      "anonymous": false,
      "inputs": [],
      "name": "EIP712DomainChanged",
      "type": "event"
    },
    {
      "anonymous": false,
      "inputs": [
        {
          "indexed": true,
          "internalType": "address",
          "name": "previousOwner",
          "type": "address"
        },
        {
          "indexed": true,
          "internalType": "address",
          "name": "newOwner",
          "type": "address"
        }
      ],
      "name": "OwnershipTransferred",
      "type": "event"
    },
    {
      "anonymous": false,
      "inputs": [
        {
          "indexed": false,
          "internalType": "uint32",
          "name": "eid",
          "type": "uint32"
        },
        {
          "indexed": false,
          "internalType": "bytes32",
          "name": "peer",
          "type": "bytes32"
        }
      ],
      "name": "PeerSet",
      "type": "event"
    },
    {
      "anonymous": false,
      "inputs": [
        {
          "indexed": true,
          "internalType": "address",
          "name": "from",
          "type": "address"
        },
        {
          "indexed": true,
          "internalType": "address",
          "name": "to",
          "type": "address"
        },
        {
          "indexed": false,
          "internalType": "uint256",
          "name": "value",
          "type": "uint256"
        }
      ],
      "name": "Transfer",
      "type": "event"
    },
    {
      "inputs": [],
      "name": "DESTINATION_CHAIN_ADDRESS",
      "outputs": [
        {
          "internalType": "address",
          "name": "",
          "type": "address"
        }
      ],
      "stateMutability": "view",
      "type": "function"
    },
    {
      "inputs": [],
      "name": "DESTINATION_EID",
      "outputs": [
        {
          "internalType": "uint32",
          "name": "",
          "type": "uint32"
        }
      ],
      "stateMutability": "view",
      "type": "function"
    },
    {
      "inputs": [],
      "name": "DOMAIN_SEPARATOR",
      "outputs": [
        {
          "internalType": "bytes32",
          "name": "",
          "type": "bytes32"
        }
      ],
      "stateMutability": "view",
      "type": "function"
    },
    {
      "inputs": [
        {
          "components": [
            {
              "internalType": "uint32",
              "name": "srcEid",
              "type": "uint32"
            },
            {
              "internalType": "bytes32",
              "name": "sender",
              "type": "bytes32"
            },
            {
              "internalType": "uint64",
              "name": "nonce",
              "type": "uint64"
            }
          ],
          "internalType": "struct Origin",
          "name": "origin",
          "type": "tuple"
        }
      ],
      "name": "allowInitializePath",
      "outputs": [
        {
          "internalType": "bool",
          "name": "",
          "type": "bool"
        }
      ],
      "stateMutability": "view",
      "type": "function"
    },
    {
      "inputs": [
        {
          "internalType": "address",
          "name": "owner",
          "type": "address"
        },
        {
          "internalType": "address",
          "name": "spender",
          "type": "address"
        }
      ],
      "name": "allowance",
      "outputs": [
        {
          "internalType": "uint256",
          "name": "",
          "type": "uint256"
        }
      ],
      "stateMutability": "view",
      "type": "function"
    },
    {
      "inputs": [
        {
          "internalType": "address",
          "name": "spender",
          "type": "address"
        },
        {
          "internalType": "uint256",
          "name": "value",
          "type": "uint256"
        }
      ],
      "name": "approve",
      "outputs": [
        {
          "internalType": "bool",
          "name": "",
          "type": "bool"
        }
      ],
      "stateMutability": "nonpayable",
      "type": "function"
    },
    {
      "inputs": [
        {
          "internalType": "address",
          "name": "account",
          "type": "address"
        }
      ],
      "name": "balanceOf",
      "outputs": [
        {
          "internalType": "uint256",
          "name": "",
          "type": "uint256"
        }
      ],
      "stateMutability": "view",
      "type": "function"
    },
    {
      "inputs": [
        {
          "internalType": "uint256",
          "name": "value",
          "type": "uint256"
        }
      ],
      "name": "burn",
      "outputs": [],
      "stateMutability": "nonpayable",
      "type": "function"
    },
    {
      "inputs": [
        {
          "internalType": "address",
          "name": "account",
          "type": "address"
        },
        {
          "internalType": "uint256",
          "name": "value",
          "type": "uint256"
        }
      ],
      "name": "burnFrom",
      "outputs": [],
      "stateMutability": "nonpayable",
      "type": "function"
    },
    {
      "inputs": [],
      "name": "decimals",
      "outputs": [
        {
          "internalType": "uint8",
          "name": "",
          "type": "uint8"
        }
      ],
      "stateMutability": "view",
      "type": "function"
    },
    {
      "inputs": [],
      "name": "eip712Domain",
      "outputs": [
        {
          "internalType": "bytes1",
          "name": "fields",
          "type": "bytes1"
        },
        {
          "internalType": "string",
          "name": "name",
          "type": "string"
        },
        {
          "internalType": "string",
          "name": "version",
          "type": "string"
        },
        {
          "internalType": "uint256",
          "name": "chainId",
          "type": "uint256"
        },
        {
          "internalType": "address",
          "name": "verifyingContract",
          "type": "address"
        },
        {
          "internalType": "bytes32",
          "name": "salt",
          "type": "bytes32"
        },
        {
          "internalType": "uint256[]",
          "name": "extensions",
          "type": "uint256[]"
        }
      ],
      "stateMutability": "view",
      "type": "function"
    },
    {
      "inputs": [],
      "name": "endpoint",
      "outputs": [
        {
          "internalType": "contract ILayerZeroEndpointV2",
          "name": "",
          "type": "address"
        }
      ],
      "stateMutability": "view",
      "type": "function"
    },
    {
      "inputs": [
        {
          "components": [
            {
              "internalType": "uint32",
              "name": "srcEid",
              "type": "uint32"
            },
            {
              "internalType": "bytes32",
              "name": "sender",
              "type": "bytes32"
            },
            {
              "internalType": "uint64",
              "name": "nonce",
              "type": "uint64"
            }
          ],
          "internalType": "struct Origin",
          "name": "",
          "type": "tuple"
        },
        {
          "internalType": "bytes",
          "name": "",
          "type": "bytes"
        },
        {
          "internalType": "address",
          "name": "_sender",
          "type": "address"
        }
      ],
      "name": "isComposeMsgSender",
      "outputs": [
        {
          "internalType": "bool",
          "name": "",
          "type": "bool"
        }
      ],
      "stateMutability": "view",
      "type": "function"
    },
    {
      "inputs": [
        {
          "components": [
            {
              "internalType": "uint32",
              "name": "srcEid",
              "type": "uint32"
            },
            {
              "internalType": "bytes32",
              "name": "sender",
              "type": "bytes32"
            },
            {
              "internalType": "uint64",
              "name": "nonce",
              "type": "uint64"
            }
          ],
          "internalType": "struct Origin",
          "name": "_origin",
          "type": "tuple"
        },
        {
          "internalType": "bytes32",
          "name": "_guid",
          "type": "bytes32"
        },
        {
          "internalType": "bytes",
          "name": "_message",
          "type": "bytes"
        },
        {
          "internalType": "address",
          "name": "_executor",
          "type": "address"
        },
        {
          "internalType": "bytes",
          "name": "_extraData",
          "type": "bytes"
        }
      ],
      "name": "lzReceive",
      "outputs": [],
      "stateMutability": "payable",
      "type": "function"
    },
    {
      "inputs": [],
      "name": "name",
      "outputs": [
        {
          "internalType": "string",
          "name": "",
          "type": "string"
        }
      ],
      "stateMutability": "view",
      "type": "function"
    },
    {
      "inputs": [
        {
          "internalType": "uint32",
          "name": "",
          "type": "uint32"
        },
        {
          "internalType": "bytes32",
          "name": "",
          "type": "bytes32"
        }
      ],
      "name": "nextNonce",
      "outputs": [
        {
          "internalType": "uint64",
          "name": "nonce",
          "type": "uint64"
        }
      ],
      "stateMutability": "view",
      "type": "function"
    },
    {
      "inputs": [
        {
          "internalType": "address",
          "name": "owner",
          "type": "address"
        }
      ],
      "name": "nonces",
      "outputs": [
        {
          "internalType": "uint256",
          "name": "",
          "type": "uint256"
        }
      ],
      "stateMutability": "view",
      "type": "function"
    },
    {
      "inputs": [],
      "name": "oAppVersion",
      "outputs": [
        {
          "internalType": "uint64",
          "name": "senderVersion",
          "type": "uint64"
        },
        {
          "internalType": "uint64",
          "name": "receiverVersion",
          "type": "uint64"
        }
      ],
      "stateMutability": "pure",
      "type": "function"
    },
    {
      "inputs": [],
      "name": "owner",
      "outputs": [
        {
          "internalType": "address",
          "name": "",
          "type": "address"
        }
      ],
      "stateMutability": "view",
      "type": "function"
    },
    {
      "inputs": [
        {
          "internalType": "uint32",
          "name": "eid",
          "type": "uint32"
        }
      ],
      "name": "peers",
      "outputs": [
        {
          "internalType": "bytes32",
          "name": "peer",
          "type": "bytes32"
        }
      ],
      "stateMutability": "view",
      "type": "function"
    },
    {
      "inputs": [
        {
          "internalType": "address",
          "name": "owner",
          "type": "address"
        },
        {
          "internalType": "address",
          "name": "spender",
          "type": "address"
        },
        {
          "internalType": "uint256",
          "name": "value",
          "type": "uint256"
        },
        {
          "internalType": "uint256",
          "name": "deadline",
          "type": "uint256"
        },
        {
          "internalType": "uint8",
          "name": "v",
          "type": "uint8"
        },
        {
          "internalType": "bytes32",
          "name": "r",
          "type": "bytes32"
        },
        {
          "internalType": "bytes32",
          "name": "s",
          "type": "bytes32"
        }
      ],
      "name": "permit",
      "outputs": [],
      "stateMutability": "nonpayable",
      "type": "function"
    },
    {
      "inputs": [],
      "name": "renounceOwnership",
      "outputs": [],
      "stateMutability": "nonpayable",
      "type": "function"
    },
    {
      "inputs": [
        {
          "internalType": "uint32",
          "name": "_dstEid",
          "type": "uint32"
        },
        {
          "internalType": "string",
          "name": "_message",
          "type": "string"
        },
        {
          "internalType": "bytes",
          "name": "_options",
          "type": "bytes"
        }
      ],
      "name": "send",
      "outputs": [],
      "stateMutability": "payable",
      "type": "function"
    },
    {
      "inputs": [
        {
          "internalType": "address",
          "name": "_delegate",
          "type": "address"
        }
      ],
      "name": "setDelegate",
      "outputs": [],
      "stateMutability": "nonpayable",
      "type": "function"
    },
    {
      "inputs": [
        {
          "internalType": "uint32",
          "name": "_eid",
          "type": "uint32"
        },
        {
          "internalType": "bytes32",
          "name": "_peer",
          "type": "bytes32"
        }
      ],
      "name": "setPeer",
      "outputs": [],
      "stateMutability": "nonpayable",
      "type": "function"
    },
    {
      "inputs": [],
      "name": "symbol",
      "outputs": [
        {
          "internalType": "string",
          "name": "",
          "type": "string"
        }
      ],
      "stateMutability": "view",
      "type": "function"
    },
    {
      "inputs": [],
      "name": "totalSupply",
      "outputs": [
        {
          "internalType": "uint256",
          "name": "",
          "type": "uint256"
        }
      ],
      "stateMutability": "view",
      "type": "function"
    },
    {
      "inputs": [
        {
          "internalType": "address",
          "name": "to",
          "type": "address"
        },
        {
          "internalType": "uint256",
          "name": "value",
          "type": "uint256"
        }
      ],
      "name": "transfer",
      "outputs": [
        {
          "internalType": "bool",
          "name": "",
          "type": "bool"
        }
      ],
      "stateMutability": "nonpayable",
      "type": "function"
    },
    {
      "inputs": [
        {
          "internalType": "address",
          "name": "from",
          "type": "address"
        },
        {
          "internalType": "address",
          "name": "to",
          "type": "address"
        },
        {
          "internalType": "uint256",
          "name": "value",
          "type": "uint256"
        }
      ],
      "name": "transferFrom",
      "outputs": [
        {
          "internalType": "bool",
          "name": "",
          "type": "bool"
        }
      ],
      "stateMutability": "nonpayable",
      "type": "function"
    },
    {
      "inputs": [
        {
          "internalType": "address",
          "name": "newOwner",
          "type": "address"
        }
      ],
      "name": "transferOwnership",
      "outputs": [],
      "stateMutability": "nonpayable",
      "type": "function"
    },
    {
      "stateMutability": "payable",
      "type": "receive"
    }
  ],
  "bytecode": "0x6101806040523480156200001257600080fd5b5060405180604001604052806008815260200167185cdd185c955cd960c21b81525080604051806040016040528060018152602001603160f81b81525060405180604001604052806008815260200167185cdd185c955cd960c21b81525060405180604001604052806008815260200167185cdd185c955cd960c21b815250736edce65403992e310a62460808c4b910d972f10f33818181818460006001600160a01b0316816001600160a01b031603620000e857604051631e4fbdf760e01b8152600060048201526024015b60405180910390fd5b620000f3816200026c565b506001600160a01b0380831660805281166200012257604051632d618d8160e21b815260040160405180910390fd5b60805160405163ca5eb5e160e01b81526001600160a01b0383811660048301529091169063ca5eb5e190602401600060405180830381600087803b1580156200016a57600080fd5b505af11580156200017f573d6000803e3d6000fd5b5050505050505050505081600590816200019a9190620003df565b506006620001a98282620003df565b50620001bb91508390506007620002bc565b61014052620001cc816008620002bc565b61016052815160208084019190912061010052815190820120610120524660c0526200025c6101005161012051604080517f8b73c3c69bb8fe3d512ecc4cf759cc79239f7b179b0ffacaa9a75d522b39400f60208201529081019290925260608201524660808201523060a082015260009060c00160405160208183030381529060405280519060200120905090565b60a05250503060e0525062000521565b600080546001600160a01b038381166001600160a01b0319831681178455604051919092169283917f8be0079c531659141344cd1fd0a4f28419497f9722a3daafe3b4186f6b6457e09190a35050565b6000602083511015620002dc57620002d483620002f5565b9050620002ef565b81620002e98482620003df565b5060ff90505b92915050565b600080829050601f8151111562000323578260405163305a27a960e01b8152600401620000df9190620004ab565b80516200033082620004fc565b179392505050565b634e487b7160e01b600052604160045260246000fd5b600181811c908216806200036357607f821691505b6020821081036200038457634e487b7160e01b600052602260045260246000fd5b50919050565b601f821115620003da576000816000526020600020601f850160051c81016020861015620003b55750805b601f850160051c820191505b81811015620003d657828155600101620003c1565b5050505b505050565b81516001600160401b03811115620003fb57620003fb62000338565b62000413816200040c84546200034e565b846200038a565b602080601f8311600181146200044b5760008415620004325750858301515b600019600386901b1c1916600185901b178555620003d6565b600085815260208120601f198616915b828110156200047c578886015182559484019460019091019084016200045b565b50858210156200049b5787850151600019600388901b60f8161c191681555b5050505050600190811b01905550565b60006020808352835180602085015260005b81811015620004db57858101830151858201604001528201620004bd565b506000604082860101526040601f19601f8301168501019250505092915050565b80516020808301519190811015620003845760001960209190910360031b1b16919050565b60805160a05160c05160e05161010051610120516101405161016051611932620005956000396000610e5601526000610e2901526000610d4b01526000610d2301526000610c7e01526000610ca801526000610cd2015260008181610369015281816106ea01526108c001526119326000f3fe6080604052600436106101d15760003560e01c80637d25a05e116100f7578063bb0b6a5311610095578063e0539e5811610064578063e0539e58146105af578063f2fde38b146105c3578063f7daa821146105e3578063ff7bd03d1461061c57600080fd5b8063bb0b6a53146104fc578063ca5eb5e114610529578063d505accf14610549578063dd62ed3e1461056957600080fd5b806384b0196e116100d157806384b0196e146104815780638da5cb5b146104a957806395d89b41146104c7578063a9059cbb146104dc57600080fd5b80637d25a05e146103f65780637ecebe001461043257806382413eac1461045257600080fd5b8063313ce5671161016f5780635e280f111161013e5780635e280f111461035757806370a082311461038b578063715018a6146103c157806379cc6790146103d657600080fd5b8063313ce567146102e65780633400288b146103025780633644e5151461032257806342966c681461033757600080fd5b806317442b70116101ab57806317442b701461024d57806318160ddd1461026f5780631b89690c1461028e57806323b872dd146102c657600080fd5b806306fdde03146101dd578063095ea7b31461020857806313137d651461023857600080fd5b366101d857005b600080fd5b3480156101e957600080fd5b506101f261063c565b6040516101ff91906113b6565b60405180910390f35b34801561021457600080fd5b506102286102233660046113ec565b6106ce565b60405190151581526020016101ff565b61024b610246366004611477565b6106e8565b005b34801561025957600080fd5b50604080516001815260026020820152016101ff565b34801561027b57600080fd5b506004545b6040519081526020016101ff565b34801561029a57600080fd5b50600a546102ae906001600160a01b031681565b6040516001600160a01b0390911681526020016101ff565b3480156102d257600080fd5b506102286102e1366004611516565b610799565b3480156102f257600080fd5b50604051601281526020016101ff565b34801561030e57600080fd5b5061024b61031d366004611566565b6107bd565b34801561032e57600080fd5b506102806107d3565b34801561034357600080fd5b5061024b610352366004611582565b6107e2565b34801561036357600080fd5b506102ae7f000000000000000000000000000000000000000000000000000000000000000081565b34801561039757600080fd5b506102806103a636600461159b565b6001600160a01b031660009081526002602052604090205490565b3480156103cd57600080fd5b5061024b6107ef565b3480156103e257600080fd5b5061024b6103f13660046113ec565b610803565b34801561040257600080fd5b50610419610411366004611566565b600092915050565b60405167ffffffffffffffff90911681526020016101ff565b34801561043e57600080fd5b5061028061044d36600461159b565b610818565b34801561045e57600080fd5b5061022861046d3660046115b6565b6001600160a01b0381163014949350505050565b34801561048d57600080fd5b50610496610836565b6040516101ff979695949392919061161c565b3480156104b557600080fd5b506000546001600160a01b03166102ae565b3480156104d357600080fd5b506101f261087c565b3480156104e857600080fd5b506102286104f73660046113ec565b61088b565b34801561050857600080fd5b506102806105173660046116b5565b60016020526000908152604090205481565b34801561053557600080fd5b5061024b61054436600461159b565b610899565b34801561055557600080fd5b5061024b6105643660046116d0565b61091f565b34801561057557600080fd5b50610280610584366004611743565b6001600160a01b03918216600090815260036020908152604080832093909416825291909152205490565b61024b6105bd36600461178c565b50505050565b3480156105cf57600080fd5b5061024b6105de36600461159b565b610a59565b3480156105ef57600080fd5b50600a5461060790600160a01b900463ffffffff1681565b60405163ffffffff90911681526020016101ff565b34801561062857600080fd5b50610228610637366004611875565b610a94565b60606005805461064b90611891565b80601f016020809104026020016040519081016040528092919081815260200182805461067790611891565b80156106c45780601f10610699576101008083540402835291602001916106c4565b820191906000526020600020905b8154815290600101906020018083116106a757829003601f168201915b5050505050905090565b6000336106dc818585610aca565b60019150505b92915050565b7f00000000000000000000000000000000000000000000000000000000000000006001600160a01b03163314610738576040516391ac5e4f60e01b81523360048201526024015b60405180910390fd5b602087018035906107529061074d908a6116b5565b610adc565b146107905761076460208801886116b5565b60405163309afaf360e21b815263ffffffff90911660048201526020880135602482015260440161072f565b50505050505050565b6000336107a7858285610b18565b6107b2858585610b90565b506001949350505050565b6107c5610bef565b6107cf8282610c1c565b5050565b60006107dd610c71565b905090565b6107ec3382610d9c565b50565b6107f7610bef565b6108016000610dd2565b565b61080e823383610b18565b6107cf8282610d9c565b6001600160a01b0381166000908152600960205260408120546106e2565b60006060806000806000606061084a610e22565b610852610e4f565b60408051600080825260208201909252600f60f81b9b939a50919850469750309650945092509050565b60606006805461064b90611891565b6000336106dc818585610b90565b6108a1610bef565b60405163ca5eb5e160e01b81526001600160a01b0382811660048301527f0000000000000000000000000000000000000000000000000000000000000000169063ca5eb5e190602401600060405180830381600087803b15801561090457600080fd5b505af1158015610918573d6000803e3d6000fd5b5050505050565b834211156109435760405163313c898160e11b81526004810185905260240161072f565b60007f6e71edae12b1b97f4d1f60370fef10105fa2faae0126114a169c64845d6126c98888886109908c6001600160a01b0316600090815260096020526040902080546001810190915590565b6040805160208101969096526001600160a01b0394851690860152929091166060840152608083015260a082015260c0810186905260e00160405160208183030381529060405280519060200120905060006109eb82610e7c565b905060006109fb82878787610ea9565b9050896001600160a01b0316816001600160a01b031614610a42576040516325c0072360e11b81526001600160a01b0380831660048301528b16602482015260440161072f565b610a4d8a8a8a610aca565b50505050505050505050565b610a61610bef565b6001600160a01b038116610a8b57604051631e4fbdf760e01b81526000600482015260240161072f565b6107ec81610dd2565b6000602082018035906001908390610aac90866116b5565b63ffffffff1681526020810191909152604001600020541492915050565b610ad78383836001610ed7565b505050565b63ffffffff8116600090815260016020526040812054806106e25760405163f6ff4fb760e01b815263ffffffff8416600482015260240161072f565b6001600160a01b0383811660009081526003602090815260408083209386168352929052205460001981146105bd5781811015610b8157604051637dc7a0d960e11b81526001600160a01b0384166004820152602481018290526044810183905260640161072f565b6105bd84848484036000610ed7565b6001600160a01b038316610bba57604051634b637e8f60e11b81526000600482015260240161072f565b6001600160a01b038216610be45760405163ec442f0560e01b81526000600482015260240161072f565b610ad7838383610fac565b6000546001600160a01b031633146108015760405163118cdaa760e01b815233600482015260240161072f565b63ffffffff8216600081815260016020908152604091829020849055815192835282018390527f238399d427b947898edb290f5ff0f9109849b1c3ba196a42e35f00c50a54b98b910160405180910390a15050565b6000306001600160a01b037f000000000000000000000000000000000000000000000000000000000000000016148015610cca57507f000000000000000000000000000000000000000000000000000000000000000046145b15610cf457507f000000000000000000000000000000000000000000000000000000000000000090565b6107dd604080517f8b73c3c69bb8fe3d512ecc4cf759cc79239f7b179b0ffacaa9a75d522b39400f60208201527f0000000000000000000000000000000000000000000000000000000000000000918101919091527f000000000000000000000000000000000000000000000000000000000000000060608201524660808201523060a082015260009060c00160405160208183030381529060405280519060200120905090565b6001600160a01b038216610dc657604051634b637e8f60e11b81526000600482015260240161072f565b6107cf82600083610fac565b600080546001600160a01b038381166001600160a01b0319831681178455604051919092169283917f8be0079c531659141344cd1fd0a4f28419497f9722a3daafe3b4186f6b6457e09190a35050565b60606107dd7f000000000000000000000000000000000000000000000000000000000000000060076110d6565b60606107dd7f000000000000000000000000000000000000000000000000000000000000000060086110d6565b60006106e2610e89610c71565b8360405161190160f01b8152600281019290925260228201526042902090565b600080600080610ebb88888888611181565b925092509250610ecb8282611250565b50909695505050505050565b6001600160a01b038416610f015760405163e602df0560e01b81526000600482015260240161072f565b6001600160a01b038316610f2b57604051634a1406b160e11b81526000600482015260240161072f565b6001600160a01b03808516600090815260036020908152604080832093871683529290522082905580156105bd57826001600160a01b0316846001600160a01b03167f8c5be1e5ebec7d5bd14f71427d1e84f3dd0314c0f7b2291e5b200ac8c7c3b92584604051610f9e91815260200190565b60405180910390a350505050565b6001600160a01b038316610fd7578060046000828254610fcc91906118c5565b909155506110499050565b6001600160a01b0383166000908152600260205260409020548181101561102a5760405163391434e360e21b81526001600160a01b0385166004820152602481018290526044810183905260640161072f565b6001600160a01b03841660009081526002602052604090209082900390555b6001600160a01b03821661106557600480548290039055611084565b6001600160a01b03821660009081526002602052604090208054820190555b816001600160a01b0316836001600160a01b03167fddf252ad1be2c89b69c2b068fc378daa952ba7f163c4a11628f55a4df523b3ef836040516110c991815260200190565b60405180910390a3505050565b606060ff83146110f0576110e983611309565b90506106e2565b8180546110fc90611891565b80601f016020809104026020016040519081016040528092919081815260200182805461112890611891565b80156111755780601f1061114a57610100808354040283529160200191611175565b820191906000526020600020905b81548152906001019060200180831161115857829003601f168201915b505050505090506106e2565b600080807f7fffffffffffffffffffffffffffffff5d576e7357a4501ddfe92f46681b20a08411156111bc5750600091506003905082611246565b604080516000808252602082018084528a905260ff891692820192909252606081018790526080810186905260019060a0016020604051602081039080840390855afa158015611210573d6000803e3d6000fd5b5050604051601f1901519150506001600160a01b03811661123c57506000925060019150829050611246565b9250600091508190505b9450945094915050565b6000826003811115611264576112646118e6565b0361126d575050565b6001826003811115611281576112816118e6565b0361129f5760405163f645eedf60e01b815260040160405180910390fd5b60028260038111156112b3576112b36118e6565b036112d45760405163fce698f760e01b81526004810182905260240161072f565b60038260038111156112e8576112e86118e6565b036107cf576040516335e2f38360e21b81526004810182905260240161072f565b6060600061131683611348565b604080516020808252818301909252919250600091906020820181803683375050509182525060208101929092525090565b600060ff8216601f8111156106e257604051632cd44ac360e21b815260040160405180910390fd5b6000815180845260005b818110156113965760208185018101518683018201520161137a565b506000602082860101526020601f19601f83011685010191505092915050565b6020815260006113c96020830184611370565b9392505050565b80356001600160a01b03811681146113e757600080fd5b919050565b600080604083850312156113ff57600080fd5b611408836113d0565b946020939093013593505050565b60006060828403121561142857600080fd5b50919050565b60008083601f84011261144057600080fd5b50813567ffffffffffffffff81111561145857600080fd5b60208301915083602082850101111561147057600080fd5b9250929050565b600080600080600080600060e0888a03121561149257600080fd5b61149c8989611416565b965060608801359550608088013567ffffffffffffffff808211156114c057600080fd5b6114cc8b838c0161142e565b90975095508591506114e060a08b016113d0565b945060c08a01359150808211156114f657600080fd5b506115038a828b0161142e565b989b979a50959850939692959293505050565b60008060006060848603121561152b57600080fd5b611534846113d0565b9250611542602085016113d0565b9150604084013590509250925092565b803563ffffffff811681146113e757600080fd5b6000806040838503121561157957600080fd5b61140883611552565b60006020828403121561159457600080fd5b5035919050565b6000602082840312156115ad57600080fd5b6113c9826113d0565b60008060008060a085870312156115cc57600080fd5b6115d68686611416565b9350606085013567ffffffffffffffff8111156115f257600080fd5b6115fe8782880161142e565b90945092506116119050608086016113d0565b905092959194509250565b60ff60f81b881681526000602060e0602084015261163d60e084018a611370565b838103604085015261164f818a611370565b606085018990526001600160a01b038816608086015260a0850187905284810360c08601528551808252602080880193509091019060005b818110156116a357835183529284019291840191600101611687565b50909c9b505050505050505050505050565b6000602082840312156116c757600080fd5b6113c982611552565b600080600080600080600060e0888a0312156116eb57600080fd5b6116f4886113d0565b9650611702602089016113d0565b95506040880135945060608801359350608088013560ff8116811461172657600080fd5b9699959850939692959460a0840135945060c09093013592915050565b6000806040838503121561175657600080fd5b61175f836113d0565b915061176d602084016113d0565b90509250929050565b634e487b7160e01b600052604160045260246000fd5b600080600080606085870312156117a257600080fd5b6117ab85611552565b9350602085013567ffffffffffffffff808211156117c857600080fd5b818701915087601f8301126117dc57600080fd5b8135818111156117ee576117ee611776565b604051601f8201601f19908116603f0116810190838211818310171561181657611816611776565b816040528281528a602084870101111561182f57600080fd5b82602086016020830137600060208483010152809750505050604087013591508082111561185c57600080fd5b506118698782880161142e565b95989497509550505050565b60006060828403121561188757600080fd5b6113c98383611416565b600181811c908216806118a557607f821691505b60208210810361142857634e487b7160e01b600052602260045260246000fd5b808201808211156106e257634e487b7160e01b600052601160045260246000fd5b634e487b7160e01b600052602160045260246000fdfea2646970667358221220c493f6b22292b49a5852a99e4f6d72bc3d80fced05c0cc679a96079a0a78ab2464736f6c63430008180033",
  "linkReferences": {},
  "deployedLinkReferences": {}
}