{
  "_format": "hh-sol-artifact-1",
  "contractName": "astarL2ZkAstrEvm",
  "sourceName": "contracts/crossChain/samples/astarL2ZkEvmAstrUsd.sol",
  "abi": [
    {
      "inputs": [],
      "stateMutability": "nonpayable",
      "type": "constructor"
    },
    {
      "inputs": [],
      "name": "ECDSAInvalidSignature",
      "type": "error"
    },
    {
      "inputs": [
        {
          "internalType": "uint256",
          "name": "length",
          "type": "uint256"
        }
      ],
      "name": "ECDSAInvalidSignatureLength",
      "type": "error"
    },
    {
      "inputs": [
        {
          "internalType": "bytes32",
          "name": "s",
          "type": "bytes32"
        }
      ],
      "name": "ECDSAInvalidSignatureS",
      "type": "error"
    },
    {
      "inputs": [
        {
          "internalType": "address",
          "name": "spender",
          "type": "address"
        },
        {
          "internalType": "uint256",
          "name": "allowance",
          "type": "uint256"
        },
        {
          "internalType": "uint256",
          "name": "needed",
          "type": "uint256"
        }
      ],
      "name": "ERC20InsufficientAllowance",
      "type": "error"
    },
    {
      "inputs": [
        {
          "internalType": "address",
          "name": "sender",
          "type": "address"
        },
        {
          "internalType": "uint256",
          "name": "balance",
          "type": "uint256"
        },
        {
          "internalType": "uint256",
          "name": "needed",
          "type": "uint256"
        }
      ],
      "name": "ERC20InsufficientBalance",
      "type": "error"
    },
    {
      "inputs": [
        {
          "internalType": "address",
          "name": "approver",
          "type": "address"
        }
      ],
      "name": "ERC20InvalidApprover",
      "type": "error"
    },
    {
      "inputs": [
        {
          "internalType": "address",
          "name": "receiver",
          "type": "address"
        }
      ],
      "name": "ERC20InvalidReceiver",
      "type": "error"
    },
    {
      "inputs": [
        {
          "internalType": "address",
          "name": "sender",
          "type": "address"
        }
      ],
      "name": "ERC20InvalidSender",
      "type": "error"
    },
    {
      "inputs": [
        {
          "internalType": "address",
          "name": "spender",
          "type": "address"
        }
      ],
      "name": "ERC20InvalidSpender",
      "type": "error"
    },
    {
      "inputs": [
        {
          "internalType": "uint256",
          "name": "deadline",
          "type": "uint256"
        }
      ],
      "name": "ERC2612ExpiredSignature",
      "type": "error"
    },
    {
      "inputs": [
        {
          "internalType": "address",
          "name": "signer",
          "type": "address"
        },
        {
          "internalType": "address",
          "name": "owner",
          "type": "address"
        }
      ],
      "name": "ERC2612InvalidSigner",
      "type": "error"
    },
    {
      "inputs": [
        {
          "internalType": "address",
          "name": "account",
          "type": "address"
        },
        {
          "internalType": "uint256",
          "name": "currentNonce",
          "type": "uint256"
        }
      ],
      "name": "InvalidAccountNonce",
      "type": "error"
    },
    {
      "inputs": [],
      "name": "InvalidDelegate",
      "type": "error"
    },
    {
      "inputs": [],
      "name": "InvalidEndpointCall",
      "type": "error"
    },
    {
      "inputs": [],
      "name": "InvalidShortString",
      "type": "error"
    },
    {
      "inputs": [],
      "name": "LzTokenUnavailable",
      "type": "error"
    },
    {
      "inputs": [
        {
          "internalType": "uint32",
          "name": "eid",
          "type": "uint32"
        }
      ],
      "name": "NoPeer",
      "type": "error"
    },
    {
      "inputs": [
        {
          "internalType": "uint256",
          "name": "msgValue",
          "type": "uint256"
        }
      ],
      "name": "NotEnoughNative",
      "type": "error"
    },
    {
      "inputs": [
        {
          "internalType": "address",
          "name": "addr",
          "type": "address"
        }
      ],
      "name": "OnlyEndpoint",
      "type": "error"
    },
    {
      "inputs": [
        {
          "internalType": "uint32",
          "name": "eid",
          "type": "uint32"
        },
        {
          "internalType": "bytes32",
          "name": "sender",
          "type": "bytes32"
        }
      ],
      "name": "OnlyPeer",
      "type": "error"
    },
    {
      "inputs": [
        {
          "internalType": "address",
          "name": "owner",
          "type": "address"
        }
      ],
      "name": "OwnableInvalidOwner",
      "type": "error"
    },
    {
      "inputs": [
        {
          "internalType": "address",
          "name": "account",
          "type": "address"
        }
      ],
      "name": "OwnableUnauthorizedAccount",
      "type": "error"
    },
    {
      "inputs": [
        {
          "internalType": "string",
          "name": "str",
          "type": "string"
        }
      ],
      "name": "StringTooLong",
      "type": "error"
    },
    {
      "anonymous": false,
      "inputs": [
        {
          "indexed": true,
          "internalType": "address",
          "name": "owner",
          "type": "address"
        },
        {
          "indexed": true,
          "internalType": "address",
          "name": "spender",
          "type": "address"
        },
        {
          "indexed": false,
          "internalType": "uint256",
          "name": "value",
          "type": "uint256"
        }
      ],
      "name": "Approval",
      "type": "event"
    },
    {
      "anonymous": false,
      "inputs": [],
      "name": "EIP712DomainChanged",
      "type": "event"
    },
    {
      "anonymous": false,
      "inputs": [
        {
          "indexed": true,
          "internalType": "address",
          "name": "previousOwner",
          "type": "address"
        },
        {
          "indexed": true,
          "internalType": "address",
          "name": "newOwner",
          "type": "address"
        }
      ],
      "name": "OwnershipTransferred",
      "type": "event"
    },
    {
      "anonymous": false,
      "inputs": [
        {
          "indexed": false,
          "internalType": "uint32",
          "name": "eid",
          "type": "uint32"
        },
        {
          "indexed": false,
          "internalType": "bytes32",
          "name": "peer",
          "type": "bytes32"
        }
      ],
      "name": "PeerSet",
      "type": "event"
    },
    {
      "anonymous": false,
      "inputs": [
        {
          "indexed": true,
          "internalType": "address",
          "name": "from",
          "type": "address"
        },
        {
          "indexed": true,
          "internalType": "address",
          "name": "to",
          "type": "address"
        },
        {
          "indexed": false,
          "internalType": "uint256",
          "name": "value",
          "type": "uint256"
        }
      ],
      "name": "Transfer",
      "type": "event"
    },
    {
      "inputs": [],
      "name": "DESTINATION_CHAIN_ADDRESS",
      "outputs": [
        {
          "internalType": "address",
          "name": "",
          "type": "address"
        }
      ],
      "stateMutability": "view",
      "type": "function"
    },
    {
      "inputs": [],
      "name": "DESTINATION_EID",
      "outputs": [
        {
          "internalType": "uint32",
          "name": "",
          "type": "uint32"
        }
      ],
      "stateMutability": "view",
      "type": "function"
    },
    {
      "inputs": [],
      "name": "DOMAIN_SEPARATOR",
      "outputs": [
        {
          "internalType": "bytes32",
          "name": "",
          "type": "bytes32"
        }
      ],
      "stateMutability": "view",
      "type": "function"
    },
    {
      "inputs": [
        {
          "internalType": "address",
          "name": "account",
          "type": "address"
        },
        {
          "internalType": "uint256",
          "name": "value",
          "type": "uint256"
        }
      ],
      "name": "adminBurn",
      "outputs": [],
      "stateMutability": "nonpayable",
      "type": "function"
    },
    {
      "inputs": [
        {
          "components": [
            {
              "internalType": "uint32",
              "name": "srcEid",
              "type": "uint32"
            },
            {
              "internalType": "bytes32",
              "name": "sender",
              "type": "bytes32"
            },
            {
              "internalType": "uint64",
              "name": "nonce",
              "type": "uint64"
            }
          ],
          "internalType": "struct Origin",
          "name": "origin",
          "type": "tuple"
        }
      ],
      "name": "allowInitializePath",
      "outputs": [
        {
          "internalType": "bool",
          "name": "",
          "type": "bool"
        }
      ],
      "stateMutability": "view",
      "type": "function"
    },
    {
      "inputs": [
        {
          "internalType": "address",
          "name": "owner",
          "type": "address"
        },
        {
          "internalType": "address",
          "name": "spender",
          "type": "address"
        }
      ],
      "name": "allowance",
      "outputs": [
        {
          "internalType": "uint256",
          "name": "",
          "type": "uint256"
        }
      ],
      "stateMutability": "view",
      "type": "function"
    },
    {
      "inputs": [
        {
          "internalType": "address",
          "name": "spender",
          "type": "address"
        },
        {
          "internalType": "uint256",
          "name": "value",
          "type": "uint256"
        }
      ],
      "name": "approve",
      "outputs": [
        {
          "internalType": "bool",
          "name": "",
          "type": "bool"
        }
      ],
      "stateMutability": "nonpayable",
      "type": "function"
    },
    {
      "inputs": [
        {
          "internalType": "address",
          "name": "account",
          "type": "address"
        }
      ],
      "name": "balanceOf",
      "outputs": [
        {
          "internalType": "uint256",
          "name": "",
          "type": "uint256"
        }
      ],
      "stateMutability": "view",
      "type": "function"
    },
    {
      "inputs": [
        {
          "internalType": "uint256",
          "name": "value",
          "type": "uint256"
        }
      ],
      "name": "burn",
      "outputs": [],
      "stateMutability": "nonpayable",
      "type": "function"
    },
    {
      "inputs": [
        {
          "internalType": "address",
          "name": "account",
          "type": "address"
        },
        {
          "internalType": "uint256",
          "name": "value",
          "type": "uint256"
        }
      ],
      "name": "burnFrom",
      "outputs": [],
      "stateMutability": "nonpayable",
      "type": "function"
    },
    {
      "inputs": [],
      "name": "decimals",
      "outputs": [
        {
          "internalType": "uint8",
          "name": "",
          "type": "uint8"
        }
      ],
      "stateMutability": "view",
      "type": "function"
    },
    {
      "inputs": [],
      "name": "eip712Domain",
      "outputs": [
        {
          "internalType": "bytes1",
          "name": "fields",
          "type": "bytes1"
        },
        {
          "internalType": "string",
          "name": "name",
          "type": "string"
        },
        {
          "internalType": "string",
          "name": "version",
          "type": "string"
        },
        {
          "internalType": "uint256",
          "name": "chainId",
          "type": "uint256"
        },
        {
          "internalType": "address",
          "name": "verifyingContract",
          "type": "address"
        },
        {
          "internalType": "bytes32",
          "name": "salt",
          "type": "bytes32"
        },
        {
          "internalType": "uint256[]",
          "name": "extensions",
          "type": "uint256[]"
        }
      ],
      "stateMutability": "view",
      "type": "function"
    },
    {
      "inputs": [],
      "name": "endpoint",
      "outputs": [
        {
          "internalType": "contract ILayerZeroEndpointV2",
          "name": "",
          "type": "address"
        }
      ],
      "stateMutability": "view",
      "type": "function"
    },
    {
      "inputs": [
        {
          "components": [
            {
              "internalType": "uint32",
              "name": "srcEid",
              "type": "uint32"
            },
            {
              "internalType": "bytes32",
              "name": "sender",
              "type": "bytes32"
            },
            {
              "internalType": "uint64",
              "name": "nonce",
              "type": "uint64"
            }
          ],
          "internalType": "struct Origin",
          "name": "",
          "type": "tuple"
        },
        {
          "internalType": "bytes",
          "name": "",
          "type": "bytes"
        },
        {
          "internalType": "address",
          "name": "_sender",
          "type": "address"
        }
      ],
      "name": "isComposeMsgSender",
      "outputs": [
        {
          "internalType": "bool",
          "name": "",
          "type": "bool"
        }
      ],
      "stateMutability": "view",
      "type": "function"
    },
    {
      "inputs": [
        {
          "components": [
            {
              "internalType": "uint32",
              "name": "srcEid",
              "type": "uint32"
            },
            {
              "internalType": "bytes32",
              "name": "sender",
              "type": "bytes32"
            },
            {
              "internalType": "uint64",
              "name": "nonce",
              "type": "uint64"
            }
          ],
          "internalType": "struct Origin",
          "name": "_origin",
          "type": "tuple"
        },
        {
          "internalType": "bytes32",
          "name": "_guid",
          "type": "bytes32"
        },
        {
          "internalType": "bytes",
          "name": "_message",
          "type": "bytes"
        },
        {
          "internalType": "address",
          "name": "_executor",
          "type": "address"
        },
        {
          "internalType": "bytes",
          "name": "_extraData",
          "type": "bytes"
        }
      ],
      "name": "lzReceive",
      "outputs": [],
      "stateMutability": "payable",
      "type": "function"
    },
    {
      "inputs": [],
      "name": "name",
      "outputs": [
        {
          "internalType": "string",
          "name": "",
          "type": "string"
        }
      ],
      "stateMutability": "view",
      "type": "function"
    },
    {
      "inputs": [
        {
          "internalType": "uint32",
          "name": "",
          "type": "uint32"
        },
        {
          "internalType": "bytes32",
          "name": "",
          "type": "bytes32"
        }
      ],
      "name": "nextNonce",
      "outputs": [
        {
          "internalType": "uint64",
          "name": "nonce",
          "type": "uint64"
        }
      ],
      "stateMutability": "view",
      "type": "function"
    },
    {
      "inputs": [
        {
          "internalType": "address",
          "name": "owner",
          "type": "address"
        }
      ],
      "name": "nonces",
      "outputs": [
        {
          "internalType": "uint256",
          "name": "",
          "type": "uint256"
        }
      ],
      "stateMutability": "view",
      "type": "function"
    },
    {
      "inputs": [],
      "name": "oAppVersion",
      "outputs": [
        {
          "internalType": "uint64",
          "name": "senderVersion",
          "type": "uint64"
        },
        {
          "internalType": "uint64",
          "name": "receiverVersion",
          "type": "uint64"
        }
      ],
      "stateMutability": "pure",
      "type": "function"
    },
    {
      "inputs": [],
      "name": "owner",
      "outputs": [
        {
          "internalType": "address",
          "name": "",
          "type": "address"
        }
      ],
      "stateMutability": "view",
      "type": "function"
    },
    {
      "inputs": [
        {
          "internalType": "uint32",
          "name": "eid",
          "type": "uint32"
        }
      ],
      "name": "peers",
      "outputs": [
        {
          "internalType": "bytes32",
          "name": "peer",
          "type": "bytes32"
        }
      ],
      "stateMutability": "view",
      "type": "function"
    },
    {
      "inputs": [
        {
          "internalType": "address",
          "name": "owner",
          "type": "address"
        },
        {
          "internalType": "address",
          "name": "spender",
          "type": "address"
        },
        {
          "internalType": "uint256",
          "name": "value",
          "type": "uint256"
        },
        {
          "internalType": "uint256",
          "name": "deadline",
          "type": "uint256"
        },
        {
          "internalType": "uint8",
          "name": "v",
          "type": "uint8"
        },
        {
          "internalType": "bytes32",
          "name": "r",
          "type": "bytes32"
        },
        {
          "internalType": "bytes32",
          "name": "s",
          "type": "bytes32"
        }
      ],
      "name": "permit",
      "outputs": [],
      "stateMutability": "nonpayable",
      "type": "function"
    },
    {
      "inputs": [],
      "name": "renounceOwnership",
      "outputs": [],
      "stateMutability": "nonpayable",
      "type": "function"
    },
    {
      "inputs": [
        {
          "internalType": "uint32",
          "name": "_dstEid",
          "type": "uint32"
        },
        {
          "internalType": "string",
          "name": "_message",
          "type": "string"
        },
        {
          "internalType": "bytes",
          "name": "_options",
          "type": "bytes"
        }
      ],
      "name": "send",
      "outputs": [],
      "stateMutability": "payable",
      "type": "function"
    },
    {
      "inputs": [
        {
          "internalType": "address",
          "name": "_delegate",
          "type": "address"
        }
      ],
      "name": "setDelegate",
      "outputs": [],
      "stateMutability": "nonpayable",
      "type": "function"
    },
    {
      "inputs": [
        {
          "internalType": "uint32",
          "name": "_eid",
          "type": "uint32"
        },
        {
          "internalType": "bytes32",
          "name": "_peer",
          "type": "bytes32"
        }
      ],
      "name": "setPeer",
      "outputs": [],
      "stateMutability": "nonpayable",
      "type": "function"
    },
    {
      "inputs": [],
      "name": "symbol",
      "outputs": [
        {
          "internalType": "string",
          "name": "",
          "type": "string"
        }
      ],
      "stateMutability": "view",
      "type": "function"
    },
    {
      "inputs": [],
      "name": "totalSupply",
      "outputs": [
        {
          "internalType": "uint256",
          "name": "",
          "type": "uint256"
        }
      ],
      "stateMutability": "view",
      "type": "function"
    },
    {
      "inputs": [
        {
          "internalType": "address",
          "name": "to",
          "type": "address"
        },
        {
          "internalType": "uint256",
          "name": "value",
          "type": "uint256"
        }
      ],
      "name": "transfer",
      "outputs": [
        {
          "internalType": "bool",
          "name": "",
          "type": "bool"
        }
      ],
      "stateMutability": "nonpayable",
      "type": "function"
    },
    {
      "inputs": [
        {
          "internalType": "address",
          "name": "from",
          "type": "address"
        },
        {
          "internalType": "address",
          "name": "to",
          "type": "address"
        },
        {
          "internalType": "uint256",
          "name": "value",
          "type": "uint256"
        }
      ],
      "name": "transferFrom",
      "outputs": [
        {
          "internalType": "bool",
          "name": "",
          "type": "bool"
        }
      ],
      "stateMutability": "nonpayable",
      "type": "function"
    },
    {
      "inputs": [
        {
          "internalType": "address",
          "name": "newOwner",
          "type": "address"
        }
      ],
      "name": "transferOwnership",
      "outputs": [],
      "stateMutability": "nonpayable",
      "type": "function"
    },
    {
      "stateMutability": "payable",
      "type": "receive"
    }
  ],
  "bytecode": "0x6101806040523480156200001257600080fd5b5060405180604001604052806008815260200167185cdd185c955cd960c21b81525080604051806040016040528060018152602001603160f81b81525060405180604001604052806008815260200167185cdd185c955cd960c21b81525060405180604001604052806008815260200167185cdd185c955cd960c21b815250736edce65403992e310a62460808c4b910d972f10f33818181818460006001600160a01b0316816001600160a01b031603620000e857604051631e4fbdf760e01b8152600060048201526024015b60405180910390fd5b620000f3816200027c565b506001600160a01b0380831660805281166200012257604051632d618d8160e21b815260040160405180910390fd5b60805160405163ca5eb5e160e01b81526001600160a01b0383811660048301529091169063ca5eb5e190602401600060405180830381600087803b1580156200016a57600080fd5b505af11580156200017f573d6000803e3d6000fd5b5050505050505050505081600590816200019a9190620003ef565b506006620001a98282620003ef565b5050600780546001600160a01b0319163317905550620001cb826008620002cc565b61014052620001dc816009620002cc565b61016052815160208084019190912061010052815190820120610120524660c0526200026c6101005161012051604080517f8b73c3c69bb8fe3d512ecc4cf759cc79239f7b179b0ffacaa9a75d522b39400f60208201529081019290925260608201524660808201523060a082015260009060c00160405160208183030381529060405280519060200120905090565b60a05250503060e0525062000531565b600080546001600160a01b038381166001600160a01b0319831681178455604051919092169283917f8be0079c531659141344cd1fd0a4f28419497f9722a3daafe3b4186f6b6457e09190a35050565b6000602083511015620002ec57620002e48362000305565b9050620002ff565b81620002f98482620003ef565b5060ff90505b92915050565b600080829050601f8151111562000333578260405163305a27a960e01b8152600401620000df9190620004bb565b805162000340826200050c565b179392505050565b634e487b7160e01b600052604160045260246000fd5b600181811c908216806200037357607f821691505b6020821081036200039457634e487b7160e01b600052602260045260246000fd5b50919050565b601f821115620003ea576000816000526020600020601f850160051c81016020861015620003c55750805b601f850160051c820191505b81811015620003e657828155600101620003d1565b5050505b505050565b81516001600160401b038111156200040b576200040b62000348565b62000423816200041c84546200035e565b846200039a565b602080601f8311600181146200045b5760008415620004425750858301515b600019600386901b1c1916600185901b178555620003e6565b600085815260208120601f198616915b828110156200048c578886015182559484019460019091019084016200046b565b5085821015620004ab5787850151600019600388901b60f8161c191681555b5050505050600190811b01905550565b60006020808352835180602085015260005b81811015620004eb57858101830151858201604001528201620004cd565b506000604082860101526040601f19601f8301168501019250505092915050565b80516020808301519190811015620003945760001960209190910360031b1b16919050565b60805160a05160c05160e051610100516101205161014051610160516119a4620005a56000396000610ec801526000610e9b01526000610df301526000610dcb01526000610d2601526000610d5001526000610d7a0152600081816103940152818161076f015261093201526119a46000f3fe6080604052600436106101dc5760003560e01c806379cc679011610102578063bb0b6a5311610095578063e0539e5811610064578063e0539e58146105da578063f2fde38b146105ee578063f7daa8211461060e578063ff7bd03d1461064757600080fd5b8063bb0b6a5314610527578063ca5eb5e114610554578063d505accf14610574578063dd62ed3e1461059457600080fd5b806384b0196e116100d157806384b0196e146104ac5780638da5cb5b146104d457806395d89b41146104f2578063a9059cbb1461050757600080fd5b806379cc6790146104015780637d25a05e146104215780637ecebe001461045d57806382413eac1461047d57600080fd5b806323b872dd1161017a57806342966c681161014957806342966c68146103625780635e280f111461038257806370a08231146103b6578063715018a6146103ec57600080fd5b806323b872dd146102f1578063313ce567146103115780633400288b1461032d5780633644e5151461034d57600080fd5b806313137d65116101b657806313137d651461026557806317442b701461027857806318160ddd1461029a5780631b89690c146102b957600080fd5b806306dd0419146101e857806306fdde031461020a578063095ea7b31461023557600080fd5b366101e357005b600080fd5b3480156101f457600080fd5b506102086102033660046113fe565b610667565b005b34801561021657600080fd5b5061021f6106c1565b60405161022c919061146e565b60405180910390f35b34801561024157600080fd5b506102556102503660046113fe565b610753565b604051901515815260200161022c565b6102086102733660046114e9565b61076d565b34801561028457600080fd5b506040805160018152600260208201520161022c565b3480156102a657600080fd5b506004545b60405190815260200161022c565b3480156102c557600080fd5b50600b546102d9906001600160a01b031681565b6040516001600160a01b03909116815260200161022c565b3480156102fd57600080fd5b5061025561030c366004611588565b610819565b34801561031d57600080fd5b506040516012815260200161022c565b34801561033957600080fd5b506102086103483660046115d8565b61083d565b34801561035957600080fd5b506102ab61084f565b34801561036e57600080fd5b5061020861037d3660046115f4565b61085e565b34801561038e57600080fd5b506102d97f000000000000000000000000000000000000000000000000000000000000000081565b3480156103c257600080fd5b506102ab6103d136600461160d565b6001600160a01b031660009081526002602052604090205490565b3480156103f857600080fd5b5061020861086b565b34801561040d57600080fd5b5061020861041c3660046113fe565b61087f565b34801561042d57600080fd5b5061044461043c3660046115d8565b600092915050565b60405167ffffffffffffffff909116815260200161022c565b34801561046957600080fd5b506102ab61047836600461160d565b61088a565b34801561048957600080fd5b50610255610498366004611628565b6001600160a01b0381163014949350505050565b3480156104b857600080fd5b506104c16108a8565b60405161022c979695949392919061168e565b3480156104e057600080fd5b506000546001600160a01b03166102d9565b3480156104fe57600080fd5b5061021f6108ee565b34801561051357600080fd5b506102556105223660046113fe565b6108fd565b34801561053357600080fd5b506102ab610542366004611727565b60016020526000908152604090205481565b34801561056057600080fd5b5061020861056f36600461160d565b61090b565b34801561058057600080fd5b5061020861058f366004611742565b610991565b3480156105a057600080fd5b506102ab6105af3660046117b5565b6001600160a01b03918216600090815260036020908152604080832093909416825291909152205490565b6102086105e83660046117fe565b50505050565b3480156105fa57600080fd5b5061020861060936600461160d565b610acb565b34801561061a57600080fd5b50600b5461063290600160a01b900463ffffffff1681565b60405163ffffffff909116815260200161022c565b34801561065357600080fd5b506102556106623660046118e7565b610b06565b6007546001600160a01b031633146106b35760405162461bcd60e51b815260206004820152600a6024820152692737ba1037bbb732b91760b11b60448201526064015b60405180910390fd5b6106bd8282610b3c565b5050565b6060600580546106d090611903565b80601f01602080910402602001604051908101604052809291908181526020018280546106fc90611903565b80156107495780601f1061071e57610100808354040283529160200191610749565b820191906000526020600020905b81548152906001019060200180831161072c57829003601f168201915b5050505050905090565b600033610761818585610b72565b60019150505b92915050565b7f00000000000000000000000000000000000000000000000000000000000000006001600160a01b031633146107b8576040516391ac5e4f60e01b81523360048201526024016106aa565b602087018035906107d2906107cd908a611727565b610b84565b14610810576107e46020880188611727565b60405163309afaf360e21b815263ffffffff9091166004820152602088013560248201526044016106aa565b50505050505050565b600033610827858285610bc0565b610832858585610c38565b506001949350505050565b610845610c97565b6106bd8282610cc4565b6000610859610d19565b905090565b6108683382610b3c565b50565b610873610c97565b61087d6000610e44565b565b6106b3823383610bc0565b6001600160a01b0381166000908152600a6020526040812054610767565b6000606080600080600060606108bc610e94565b6108c4610ec1565b60408051600080825260208201909252600f60f81b9b939a50919850469750309650945092509050565b6060600680546106d090611903565b600033610761818585610c38565b610913610c97565b60405163ca5eb5e160e01b81526001600160a01b0382811660048301527f0000000000000000000000000000000000000000000000000000000000000000169063ca5eb5e190602401600060405180830381600087803b15801561097657600080fd5b505af115801561098a573d6000803e3d6000fd5b5050505050565b834211156109b55760405163313c898160e11b8152600481018590526024016106aa565b60007f6e71edae12b1b97f4d1f60370fef10105fa2faae0126114a169c64845d6126c9888888610a028c6001600160a01b03166000908152600a6020526040902080546001810190915590565b6040805160208101969096526001600160a01b0394851690860152929091166060840152608083015260a082015260c0810186905260e0016040516020818303038152906040528051906020012090506000610a5d82610eee565b90506000610a6d82878787610f1b565b9050896001600160a01b0316816001600160a01b031614610ab4576040516325c0072360e11b81526001600160a01b0380831660048301528b1660248201526044016106aa565b610abf8a8a8a610b72565b50505050505050505050565b610ad3610c97565b6001600160a01b038116610afd57604051631e4fbdf760e01b8152600060048201526024016106aa565b61086881610e44565b6000602082018035906001908390610b1e9086611727565b63ffffffff1681526020810191909152604001600020541492915050565b6001600160a01b038216610b6657604051634b637e8f60e11b8152600060048201526024016106aa565b6106bd82600083610f49565b610b7f8383836001611073565b505050565b63ffffffff8116600090815260016020526040812054806107675760405163f6ff4fb760e01b815263ffffffff841660048201526024016106aa565b6001600160a01b0383811660009081526003602090815260408083209386168352929052205460001981146105e85781811015610c2957604051637dc7a0d960e11b81526001600160a01b038416600482015260248101829052604481018390526064016106aa565b6105e884848484036000611073565b6001600160a01b038316610c6257604051634b637e8f60e11b8152600060048201526024016106aa565b6001600160a01b038216610c8c5760405163ec442f0560e01b8152600060048201526024016106aa565b610b7f838383610f49565b6000546001600160a01b0316331461087d5760405163118cdaa760e01b81523360048201526024016106aa565b63ffffffff8216600081815260016020908152604091829020849055815192835282018390527f238399d427b947898edb290f5ff0f9109849b1c3ba196a42e35f00c50a54b98b910160405180910390a15050565b6000306001600160a01b037f000000000000000000000000000000000000000000000000000000000000000016148015610d7257507f000000000000000000000000000000000000000000000000000000000000000046145b15610d9c57507f000000000000000000000000000000000000000000000000000000000000000090565b610859604080517f8b73c3c69bb8fe3d512ecc4cf759cc79239f7b179b0ffacaa9a75d522b39400f60208201527f0000000000000000000000000000000000000000000000000000000000000000918101919091527f000000000000000000000000000000000000000000000000000000000000000060608201524660808201523060a082015260009060c00160405160208183030381529060405280519060200120905090565b600080546001600160a01b038381166001600160a01b0319831681178455604051919092169283917f8be0079c531659141344cd1fd0a4f28419497f9722a3daafe3b4186f6b6457e09190a35050565b60606108597f00000000000000000000000000000000000000000000000000000000000000006008611148565b60606108597f00000000000000000000000000000000000000000000000000000000000000006009611148565b6000610767610efb610d19565b8360405161190160f01b8152600281019290925260228201526042902090565b600080600080610f2d888888886111f3565b925092509250610f3d82826112c2565b50909695505050505050565b6001600160a01b038316610f74578060046000828254610f699190611937565b90915550610fe69050565b6001600160a01b03831660009081526002602052604090205481811015610fc75760405163391434e360e21b81526001600160a01b038516600482015260248101829052604481018390526064016106aa565b6001600160a01b03841660009081526002602052604090209082900390555b6001600160a01b03821661100257600480548290039055611021565b6001600160a01b03821660009081526002602052604090208054820190555b816001600160a01b0316836001600160a01b03167fddf252ad1be2c89b69c2b068fc378daa952ba7f163c4a11628f55a4df523b3ef8360405161106691815260200190565b60405180910390a3505050565b6001600160a01b03841661109d5760405163e602df0560e01b8152600060048201526024016106aa565b6001600160a01b0383166110c757604051634a1406b160e11b8152600060048201526024016106aa565b6001600160a01b03808516600090815260036020908152604080832093871683529290522082905580156105e857826001600160a01b0316846001600160a01b03167f8c5be1e5ebec7d5bd14f71427d1e84f3dd0314c0f7b2291e5b200ac8c7c3b9258460405161113a91815260200190565b60405180910390a350505050565b606060ff83146111625761115b8361137b565b9050610767565b81805461116e90611903565b80601f016020809104026020016040519081016040528092919081815260200182805461119a90611903565b80156111e75780601f106111bc576101008083540402835291602001916111e7565b820191906000526020600020905b8154815290600101906020018083116111ca57829003601f168201915b50505050509050610767565b600080807f7fffffffffffffffffffffffffffffff5d576e7357a4501ddfe92f46681b20a084111561122e57506000915060039050826112b8565b604080516000808252602082018084528a905260ff891692820192909252606081018790526080810186905260019060a0016020604051602081039080840390855afa158015611282573d6000803e3d6000fd5b5050604051601f1901519150506001600160a01b0381166112ae575060009250600191508290506112b8565b9250600091508190505b9450945094915050565b60008260038111156112d6576112d6611958565b036112df575050565b60018260038111156112f3576112f3611958565b036113115760405163f645eedf60e01b815260040160405180910390fd5b600282600381111561132557611325611958565b036113465760405163fce698f760e01b8152600481018290526024016106aa565b600382600381111561135a5761135a611958565b036106bd576040516335e2f38360e21b8152600481018290526024016106aa565b60606000611388836113ba565b604080516020808252818301909252919250600091906020820181803683375050509182525060208101929092525090565b600060ff8216601f81111561076757604051632cd44ac360e21b815260040160405180910390fd5b80356001600160a01b03811681146113f957600080fd5b919050565b6000806040838503121561141157600080fd5b61141a836113e2565b946020939093013593505050565b6000815180845260005b8181101561144e57602081850181015186830182015201611432565b506000602082860101526020601f19601f83011685010191505092915050565b6020815260006114816020830184611428565b9392505050565b60006060828403121561149a57600080fd5b50919050565b60008083601f8401126114b257600080fd5b50813567ffffffffffffffff8111156114ca57600080fd5b6020830191508360208285010111156114e257600080fd5b9250929050565b600080600080600080600060e0888a03121561150457600080fd5b61150e8989611488565b965060608801359550608088013567ffffffffffffffff8082111561153257600080fd5b61153e8b838c016114a0565b909750955085915061155260a08b016113e2565b945060c08a013591508082111561156857600080fd5b506115758a828b016114a0565b989b979a50959850939692959293505050565b60008060006060848603121561159d57600080fd5b6115a6846113e2565b92506115b4602085016113e2565b9150604084013590509250925092565b803563ffffffff811681146113f957600080fd5b600080604083850312156115eb57600080fd5b61141a836115c4565b60006020828403121561160657600080fd5b5035919050565b60006020828403121561161f57600080fd5b611481826113e2565b60008060008060a0858703121561163e57600080fd5b6116488686611488565b9350606085013567ffffffffffffffff81111561166457600080fd5b611670878288016114a0565b90945092506116839050608086016113e2565b905092959194509250565b60ff60f81b881681526000602060e060208401526116af60e084018a611428565b83810360408501526116c1818a611428565b606085018990526001600160a01b038816608086015260a0850187905284810360c08601528551808252602080880193509091019060005b81811015611715578351835292840192918401916001016116f9565b50909c9b505050505050505050505050565b60006020828403121561173957600080fd5b611481826115c4565b600080600080600080600060e0888a03121561175d57600080fd5b611766886113e2565b9650611774602089016113e2565b95506040880135945060608801359350608088013560ff8116811461179857600080fd5b9699959850939692959460a0840135945060c09093013592915050565b600080604083850312156117c857600080fd5b6117d1836113e2565b91506117df602084016113e2565b90509250929050565b634e487b7160e01b600052604160045260246000fd5b6000806000806060858703121561181457600080fd5b61181d856115c4565b9350602085013567ffffffffffffffff8082111561183a57600080fd5b818701915087601f83011261184e57600080fd5b813581811115611860576118606117e8565b604051601f8201601f19908116603f01168101908382118183101715611888576118886117e8565b816040528281528a60208487010111156118a157600080fd5b8260208601602083013760006020848301015280975050505060408701359150808211156118ce57600080fd5b506118db878288016114a0565b95989497509550505050565b6000606082840312156118f957600080fd5b6114818383611488565b600181811c9082168061191757607f821691505b60208210810361149a57634e487b7160e01b600052602260045260246000fd5b8082018082111561076757634e487b7160e01b600052601160045260246000fd5b634e487b7160e01b600052602160045260246000fdfea2646970667358221220b5518eef500a193a70b0d79a6966187f910428ed350728a7a2881b10ecf8da7164736f6c63430008180033",
  "linkReferences": {},
  "deployedLinkReferences": {}
}