{"contracts/astar/dappStakingInteraction.sol":{"dappStakingInteraction":{"abi":[{"inputs":[],"name":"DAPPS_STAKING","outputs":[{"internalType":"contract dappStakingPrecompile","name":"","type":"address"}],"stateMutability":"view","type":"function"},{"inputs":[],"name":"getAndUpdateUnlockingPeriod","outputs":[],"stateMutability":"nonpayable","type":"function"},{"inputs":[],"name":"getUnlockingPeriod","outputs":[{"internalType":"uint256","name":"","type":"uint256"}],"stateMutability":"view","type":"function"},{"inputs":[],"name":"protocolStateValue","outputs":[{"internalType":"uint256","name":"era","type":"uint256"},{"internalType":"uint256","name":"period","type":"uint256"},{"internalType":"enum dappStakingInteraction.Subperiod","name":"subperiod","type":"uint8"}],"stateMutability":"view","type":"function"},{"inputs":[],"name":"unlockingPeriodValue","outputs":[{"internalType":"uint256","name":"","type":"uint256"}],"stateMutability":"view","type":"function"}],"evm":{"bytecode":{"linkReferences":{},"object":"608060405234801561001057600080fd5b5061022f806100206000396000f3fe608060405234801561001057600080fd5b50600436106100575760003560e01c806359b40f411461005c5780638abf40361461008257806391d1e4571461008c578063bdea98b8146100a2578063fc0df9de146100c6575b600080fd5b61006561500181565b6040516001600160a01b0390911681526020015b60405180910390f35b61008a6100cf565b005b61009461013b565b604051908152602001610079565b6000546001546002546100b792919060ff1683565b604051610079939291906101a6565b61009460035481565b60006150016001600160a01b031663eaca67546040518163ffffffff1660e01b8152600401602060405180830381865afa158015610111573d6000803e3d6000fd5b505050506040513d601f19601f8201168201806040525081019061013591906101e0565b60035550565b60006150016001600160a01b031663eaca67546040518163ffffffff1660e01b8152600401602060405180830381865afa15801561017d573d6000803e3d6000fd5b505050506040513d601f19601f820116820180604052508101906101a191906101e0565b905090565b8381526020810183905260608101600283106101d257634e487b7160e01b600052602160045260246000fd5b826040830152949350505050565b6000602082840312156101f257600080fd5b505191905056fea26469706673582212202c5bc20dd4e915e8f9b5ab9cde14ce538dee2564d926307102fe47912267f21164736f6c63430008180033","opcodes":"PUSH1 0x80 PUSH1 0x40 MSTORE CALLVALUE DUP1 ISZERO PUSH2 0x10 JUMPI PUSH1 0x0 DUP1 REVERT JUMPDEST POP PUSH2 0x22F DUP1 PUSH2 0x20 PUSH1 0x0 CODECOPY PUSH1 0x0 RETURN INVALID PUSH1 0x80 PUSH1 0x40 MSTORE CALLVALUE DUP1 ISZERO PUSH2 0x10 JUMPI PUSH1 0x0 DUP1 REVERT JUMPDEST POP PUSH1 0x4 CALLDATASIZE LT PUSH2 0x57 JUMPI PUSH1 0x0 CALLDATALOAD PUSH1 0xE0 SHR DUP1 PUSH4 0x59B40F41 EQ PUSH2 0x5C JUMPI DUP1 PUSH4 0x8ABF4036 EQ PUSH2 0x82 JUMPI DUP1 PUSH4 0x91D1E457 EQ PUSH2 0x8C JUMPI DUP1 PUSH4 0xBDEA98B8 EQ PUSH2 0xA2 JUMPI DUP1 PUSH4 0xFC0DF9DE EQ PUSH2 0xC6 JUMPI JUMPDEST PUSH1 0x0 DUP1 REVERT JUMPDEST PUSH2 0x65 PUSH2 0x5001 DUP2 JUMP JUMPDEST PUSH1 0x40 MLOAD PUSH1 0x1 PUSH1 0x1 PUSH1 0xA0 SHL SUB SWAP1 SWAP2 AND DUP2 MSTORE PUSH1 0x20 ADD JUMPDEST PUSH1 0x40 MLOAD DUP1 SWAP2 SUB SWAP1 RETURN JUMPDEST PUSH2 0x8A PUSH2 0xCF JUMP JUMPDEST STOP JUMPDEST PUSH2 0x94 PUSH2 0x13B JUMP JUMPDEST PUSH1 0x40 MLOAD SWAP1 DUP2 MSTORE PUSH1 0x20 ADD PUSH2 0x79 JUMP JUMPDEST PUSH1 0x0 SLOAD PUSH1 0x1 SLOAD PUSH1 0x2 SLOAD PUSH2 0xB7 SWAP3 SWAP2 SWAP1 PUSH1 0xFF AND DUP4 JUMP JUMPDEST PUSH1 0x40 MLOAD PUSH2 0x79 SWAP4 SWAP3 SWAP2 SWAP1 PUSH2 0x1A6 JUMP JUMPDEST PUSH2 0x94 PUSH1 0x3 SLOAD DUP2 JUMP JUMPDEST PUSH1 0x0 PUSH2 0x5001 PUSH1 0x1 PUSH1 0x1 PUSH1 0xA0 SHL SUB AND PUSH4 0xEACA6754 PUSH1 0x40 MLOAD DUP2 PUSH4 0xFFFFFFFF AND PUSH1 0xE0 SHL DUP2 MSTORE PUSH1 0x4 ADD PUSH1 0x20 PUSH1 0x40 MLOAD DUP1 DUP4 SUB DUP2 DUP7 GAS STATICCALL ISZERO DUP1 ISZERO PUSH2 0x111 JUMPI RETURNDATASIZE PUSH1 0x0 DUP1 RETURNDATACOPY RETURNDATASIZE PUSH1 0x0 REVERT JUMPDEST POP POP POP POP PUSH1 0x40 MLOAD RETURNDATASIZE PUSH1 0x1F NOT PUSH1 0x1F DUP3 ADD AND DUP3 ADD DUP1 PUSH1 0x40 MSTORE POP DUP2 ADD SWAP1 PUSH2 0x135 SWAP2 SWAP1 PUSH2 0x1E0 JUMP JUMPDEST PUSH1 0x3 SSTORE POP JUMP JUMPDEST PUSH1 0x0 PUSH2 0x5001 PUSH1 0x1 PUSH1 0x1 PUSH1 0xA0 SHL SUB AND PUSH4 0xEACA6754 PUSH1 0x40 MLOAD DUP2 PUSH4 0xFFFFFFFF AND PUSH1 0xE0 SHL DUP2 MSTORE PUSH1 0x4 ADD PUSH1 0x20 PUSH1 0x40 MLOAD DUP1 DUP4 SUB DUP2 DUP7 GAS STATICCALL ISZERO DUP1 ISZERO PUSH2 0x17D JUMPI RETURNDATASIZE PUSH1 0x0 DUP1 RETURNDATACOPY RETURNDATASIZE PUSH1 0x0 REVERT JUMPDEST POP POP POP POP PUSH1 0x40 MLOAD RETURNDATASIZE PUSH1 0x1F NOT PUSH1 0x1F DUP3 ADD AND DUP3 ADD DUP1 PUSH1 0x40 MSTORE POP DUP2 ADD SWAP1 PUSH2 0x1A1 SWAP2 SWAP1 PUSH2 0x1E0 JUMP JUMPDEST SWAP1 POP SWAP1 JUMP JUMPDEST DUP4 DUP2 MSTORE PUSH1 0x20 DUP2 ADD DUP4 SWAP1 MSTORE PUSH1 0x60 DUP2 ADD PUSH1 0x2 DUP4 LT PUSH2 0x1D2 JUMPI PUSH4 0x4E487B71 PUSH1 0xE0 SHL PUSH1 0x0 MSTORE PUSH1 0x21 PUSH1 0x4 MSTORE PUSH1 0x24 PUSH1 0x0 REVERT JUMPDEST DUP3 PUSH1 0x40 DUP4 ADD MSTORE SWAP5 SWAP4 POP POP POP POP JUMP JUMPDEST PUSH1 0x0 PUSH1 0x20 DUP3 DUP5 SUB SLT ISZERO PUSH2 0x1F2 JUMPI PUSH1 0x0 DUP1 REVERT JUMPDEST POP MLOAD SWAP2 SWAP1 POP JUMP INVALID LOG2 PUSH5 0x6970667358 0x22 SLT KECCAK256 0x2C JUMPDEST 0xC2 0xD 0xD4 0xE9 ISZERO 0xE8 0xF9 0xB5 0xAB SWAP13 0xDE EQ 0xCE MSTORE8 DUP14 0xEE 0x25 PUSH5 0xD926307102 INVALID SELFBALANCE SWAP2 0x22 PUSH8 0xF21164736F6C6343 STOP ADDMOD XOR STOP CALLER "},"methodIdentifiers":{"DAPPS_STAKING()":"59b40f41","getAndUpdateUnlockingPeriod()":"8abf4036","getUnlockingPeriod()":"91d1e457","protocolStateValue()":"bdea98b8","unlockingPeriodValue()":"fc0df9de"}}}}}