{"contracts/metapool/mpVault.sol":{"mpVault":{"abi":[{"inputs":[],"stateMutability":"nonpayable","type":"constructor"},{"inputs":[],"name":"ETH_USD_PAIR_PRICE_FEED_ADDRESS","outputs":[{"internalType":"address","name":"","type":"address"}],"stateMutability":"view","type":"function"},{"inputs":[],"name":"METAPOOL_STAKING_AND_MPETH_TOKEN_ADDRESS","outputs":[{"internalType":"address","name":"","type":"address"}],"stateMutability":"view","type":"function"},{"inputs":[],"name":"assetsValue","outputs":[{"internalType":"uint256","name":"","type":"uint256"}],"stateMutability":"view","type":"function"},{"inputs":[],"name":"depositEthProxy","outputs":[],"stateMutability":"payable","type":"function"},{"inputs":[],"name":"getAndUpdateAssetsValueProxy","outputs":[],"stateMutability":"nonpayable","type":"function"},{"inputs":[],"name":"getAssetsValueProxy","outputs":[{"internalType":"uint256","name":"","type":"uint256"}],"stateMutability":"nonpayable","type":"function"},{"inputs":[{"internalType":"uint256","name":"paramEthQuantityToUse","type":"uint256"}],"name":"getEthToStablecoin","outputs":[{"internalType":"uint256","name":"","type":"uint256"}],"stateMutability":"view","type":"function"},{"inputs":[],"name":"getEthUsdPrice18Decimals","outputs":[{"internalType":"uint256","name":"","type":"uint256"}],"stateMutability":"view","type":"function"},{"inputs":[],"name":"getMpUsdStablecoinAddress","outputs":[{"internalType":"address","name":"","type":"address"}],"stateMutability":"view","type":"function"},{"inputs":[],"name":"mintMpUsdStablecoin","outputs":[],"stateMutability":"payable","type":"function"},{"inputs":[{"internalType":"address","name":"","type":"address"}],"name":"userMpethOnVault","outputs":[{"internalType":"uint256","name":"","type":"uint256"}],"stateMutability":"view","type":"function"},{"inputs":[{"internalType":"address","name":"","type":"address"}],"name":"userUsedMpethToMintStablecoin","outputs":[{"internalType":"uint256","name":"","type":"uint256"}],"stateMutability":"view","type":"function"}],"evm":{"bytecode":{"linkReferences":{},"object":"6080604052600180546001600160a01b031990811673e50339fe67402cd59c32656d679479801990579f179091556002805490911673694aa1769357215de4fac081bf1f309adc32530617905534801561005857600080fd5b5030604051610066906100b8565b6001600160a01b039091168152602001604051809103906000f080158015610092573d6000803e3d6000fd5b50600380546001600160a01b0319166001600160a01b03929092169190911790556100c5565b61166e8061087783390190565b6107a3806100d46000396000f3fe6080604052600436106100a75760003560e01c80637cfe33c0116100645780637cfe33c0146101615780637faa640e14610181578063848c5510146101ae578063bd386f8a146101c3578063c744186f146101d8578063cad4301c146101e057600080fd5b806310be13e4146100ac578063348f62c8146100e957806334f82783146100f3578063427e1918146101085780634cf8025d1461012c578063606d3c5d14610141575b600080fd5b3480156100b857600080fd5b506002546100cc906001600160a01b031681565b6040516001600160a01b0390911681526020015b60405180910390f35b6100f161020d565b005b3480156100ff57600080fd5b506100f1610340565b34801561011457600080fd5b5061011e60005481565b6040519081526020016100e0565b34801561013857600080fd5b5061011e6103b4565b34801561014d57600080fd5b506001546100cc906001600160a01b031681565b34801561016d57600080fd5b5061011e61017c3660046105de565b610427565b34801561018d57600080fd5b5061011e61019c36600461060c565b60056020526000908152604090205481565b3480156101ba57600080fd5b5061011e610466565b3480156101cf57600080fd5b506100cc6104fd565b6100f161056b565b3480156101ec57600080fd5b5061011e6101fb36600461060c565b60046020526000908152604090205481565b600154604051631696d40360e11b81523060048201526000916001600160a01b031690632d2da80690349060240160206040518083038185885af1158015610259573d6000803e3d6000fd5b50505050506040513d601f19601f8201168201806040525081019061027e9190610630565b336000908152600460205260408120805492935083929091906102a290849061065f565b909155505033600090815260056020526040812080548392906102c690849061065f565b90915550600090506102d734610427565b6003546040516340c10f1960e01b8152336004820152602481018390529192506001600160a01b0316906340c10f1990604401600060405180830381600087803b15801561032457600080fd5b505af1158015610338573d6000803e3d6000fd5b505050505050565b600154604080516278744560e21b815290516000926001600160a01b0316916301e1d114916004808301926020929190829003018187875af115801561038a573d6000803e3d6000fd5b505050506040513d601f19601f820116820180604052508101906103ae9190610630565b60005550565b600154604080516278744560e21b815290516000926001600160a01b0316916301e1d114916004808301926020929190829003018187875af11580156103fe573d6000803e3d6000fd5b505050506040513d601f19601f820116820180604052508101906104229190610630565b905090565b600080670de0b6b3a764000061043b610466565b6104459085610678565b61044f919061068f565b9050600061045e60028361068f565b949350505050565b600080600260009054906101000a90046001600160a01b03166001600160a01b031663feaf968c6040518163ffffffff1660e01b815260040160a060405180830381865afa1580156104bc573d6000803e3d6000fd5b505050506040513d601f19601f820116820180604052508101906104e091906106d0565b505050915050806402540be4006104f79190610720565b91505090565b600354604080516338cc483160e01b815290516000926001600160a01b0316916338cc48319160048083019260209291908290030181865afa158015610547573d6000803e3d6000fd5b505050506040513d601f19601f820116820180604052508101906104229190610750565b600154604051631696d40360e11b81523360048201526001600160a01b0390911690632d2da80690349060240160206040518083038185885af11580156105b6573d6000803e3d6000fd5b50505050506040513d601f19601f820116820180604052508101906105db9190610630565b50565b6000602082840312156105f057600080fd5b5035919050565b6001600160a01b03811681146105db57600080fd5b60006020828403121561061e57600080fd5b8135610629816105f7565b9392505050565b60006020828403121561064257600080fd5b5051919050565b634e487b7160e01b600052601160045260246000fd5b8082018082111561067257610672610649565b92915050565b808202811582820484141761067257610672610649565b6000826106ac57634e487b7160e01b600052601260045260246000fd5b500490565b805169ffffffffffffffffffff811681146106cb57600080fd5b919050565b600080600080600060a086880312156106e857600080fd5b6106f1866106b1565b9450602086015193506040860151925060608601519150610714608087016106b1565b90509295509295909350565b80820260008212600160ff1b8414161561073c5761073c610649565b818105831482151761067257610672610649565b60006020828403121561076257600080fd5b8151610629816105f756fea2646970667358221220b55aa404ec7bee00c684b3a1cc68bbea455f671485c71119562f7f57868faa4264736f6c634300081800336101606040523480156200001257600080fd5b506040516200166e3803806200166e833981016040819052620000359162000296565b604051806040016040528060058152602001641b5c155cd960da1b81525080604051806040016040528060018152602001603160f81b81525083604051806040016040528060058152602001641b5c155cd960da1b815250604051806040016040528060058152602001641b5c155cd960da1b8152508160039081620000bc91906200036f565b506004620000cb82826200036f565b5050506001600160a01b038116620000fe57604051631e4fbdf760e01b8152600060048201526024015b60405180910390fd5b6200010981620001c8565b50620001178260066200021a565b61012052620001288160076200021a565b61014052815160208084019190912060e052815190820120610100524660a052620001b660e05161010051604080517f8b73c3c69bb8fe3d512ecc4cf759cc79239f7b179b0ffacaa9a75d522b39400f60208201529081019290925260608201524660808201523060a082015260009060c00160405160208183030381529060405280519060200120905090565b60805250503060c05250620004b19050565b600580546001600160a01b038381166001600160a01b0319831681179093556040519116919082907f8be0079c531659141344cd1fd0a4f28419497f9722a3daafe3b4186f6b6457e090600090a35050565b60006020835110156200023a57620002328362000253565b90506200024d565b816200024784826200036f565b5060ff90505b92915050565b600080829050601f8151111562000281578260405163305a27a960e01b8152600401620000f591906200043b565b80516200028e826200048c565b179392505050565b600060208284031215620002a957600080fd5b81516001600160a01b0381168114620002c157600080fd5b9392505050565b634e487b7160e01b600052604160045260246000fd5b600181811c90821680620002f357607f821691505b6020821081036200031457634e487b7160e01b600052602260045260246000fd5b50919050565b601f8211156200036a576000816000526020600020601f850160051c81016020861015620003455750805b601f850160051c820191505b81811015620003665782815560010162000351565b5050505b505050565b81516001600160401b038111156200038b576200038b620002c8565b620003a3816200039c8454620002de565b846200031a565b602080601f831160018114620003db5760008415620003c25750858301515b600019600386901b1c1916600185901b17855562000366565b600085815260208120601f198616915b828110156200040c57888601518255948401946001909101908401620003eb565b50858210156200042b5787850151600019600388901b60f8161c191681555b5050505050600190811b01905550565b60006020808352835180602085015260005b818110156200046b578581018301518582016040015282016200044d565b506000604082860101526040601f19601f8301168501019250505092915050565b80516020808301519190811015620003145760001960209190910360031b1b16919050565b60805160a05160c05160e0516101005161012051610140516111626200050c600039600061094c0152600061091f015260006107dc015260006107b40152600061070f015260006107390152600061076301526111626000f3fe608060405234801561001057600080fd5b506004361061012c5760003560e01c8063715018a6116100ad57806395d89b411161007157806395d89b4114610273578063a9059cbb1461027b578063d505accf1461028e578063dd62ed3e146102a1578063f2fde38b146102da57600080fd5b8063715018a61461021957806379cc6790146102215780637ecebe001461023457806384b0196e146102475780638da5cb5b1461026257600080fd5b80633644e515116100f45780633644e515146101a657806338cc4831146101ae57806340c10f19146101c857806342966c68146101dd57806370a08231146101f057600080fd5b806306fdde0314610131578063095ea7b31461014f57806318160ddd1461017257806323b872dd14610184578063313ce56714610197575b600080fd5b6101396102ed565b6040516101469190610eac565b60405180910390f35b61016261015d366004610ee2565b61037f565b6040519015158152602001610146565b6002545b604051908152602001610146565b610162610192366004610f0c565b610399565b60405160128152602001610146565b6101766103bd565b305b6040516001600160a01b039091168152602001610146565b6101db6101d6366004610ee2565b6103cc565b005b6101db6101eb366004610f48565b6103e2565b6101766101fe366004610f61565b6001600160a01b031660009081526020819052604090205490565b6101db6103ef565b6101db61022f366004610ee2565b610403565b610176610242366004610f61565b610418565b61024f610436565b6040516101469796959493929190610f7c565b6005546001600160a01b03166101b0565b61013961047c565b610162610289366004610ee2565b61048b565b6101db61029c366004611015565b610499565b6101766102af366004611088565b6001600160a01b03918216600090815260016020908152604080832093909416825291909152205490565b6101db6102e8366004610f61565b6105d8565b6060600380546102fc906110bb565b80601f0160208091040260200160405190810160405280929190818152602001828054610328906110bb565b80156103755780601f1061034a57610100808354040283529160200191610375565b820191906000526020600020905b81548152906001019060200180831161035857829003601f168201915b5050505050905090565b60003361038d818585610613565b60019150505b92915050565b6000336103a7858285610625565b6103b28585856106a3565b506001949350505050565b60006103c7610702565b905090565b6103d461082d565b6103de828261085a565b5050565b6103ec3382610890565b50565b6103f761082d565b61040160006108c6565b565b61040e823383610625565b6103de8282610890565b6001600160a01b038116600090815260086020526040812054610393565b60006060806000806000606061044a610918565b610452610945565b60408051600080825260208201909252600f60f81b9b939a50919850469750309650945092509050565b6060600480546102fc906110bb565b60003361038d8185856106a3565b834211156104c25760405163313c898160e11b8152600481018590526024015b60405180910390fd5b60007f6e71edae12b1b97f4d1f60370fef10105fa2faae0126114a169c64845d6126c988888861050f8c6001600160a01b0316600090815260086020526040902080546001810190915590565b6040805160208101969096526001600160a01b0394851690860152929091166060840152608083015260a082015260c0810186905260e001604051602081830303815290604052805190602001209050600061056a82610972565b9050600061057a8287878761099f565b9050896001600160a01b0316816001600160a01b0316146105c1576040516325c0072360e11b81526001600160a01b0380831660048301528b1660248201526044016104b9565b6105cc8a8a8a610613565b50505050505050505050565b6105e061082d565b6001600160a01b03811661060a57604051631e4fbdf760e01b8152600060048201526024016104b9565b6103ec816108c6565b61062083838360016109cd565b505050565b6001600160a01b03838116600090815260016020908152604080832093861683529290522054600019811461069d578181101561068e57604051637dc7a0d960e11b81526001600160a01b038416600482015260248101829052604481018390526064016104b9565b61069d848484840360006109cd565b50505050565b6001600160a01b0383166106cd57604051634b637e8f60e11b8152600060048201526024016104b9565b6001600160a01b0382166106f75760405163ec442f0560e01b8152600060048201526024016104b9565b610620838383610aa2565b6000306001600160a01b037f00000000000000000000000000000000000000000000000000000000000000001614801561075b57507f000000000000000000000000000000000000000000000000000000000000000046145b1561078557507f000000000000000000000000000000000000000000000000000000000000000090565b6103c7604080517f8b73c3c69bb8fe3d512ecc4cf759cc79239f7b179b0ffacaa9a75d522b39400f60208201527f0000000000000000000000000000000000000000000000000000000000000000918101919091527f000000000000000000000000000000000000000000000000000000000000000060608201524660808201523060a082015260009060c00160405160208183030381529060405280519060200120905090565b6005546001600160a01b031633146104015760405163118cdaa760e01b81523360048201526024016104b9565b6001600160a01b0382166108845760405163ec442f0560e01b8152600060048201526024016104b9565b6103de60008383610aa2565b6001600160a01b0382166108ba57604051634b637e8f60e11b8152600060048201526024016104b9565b6103de82600083610aa2565b600580546001600160a01b038381166001600160a01b0319831681179093556040519116919082907f8be0079c531659141344cd1fd0a4f28419497f9722a3daafe3b4186f6b6457e090600090a35050565b60606103c77f00000000000000000000000000000000000000000000000000000000000000006006610bcc565b60606103c77f00000000000000000000000000000000000000000000000000000000000000006007610bcc565b600061039361097f610702565b8360405161190160f01b8152600281019290925260228201526042902090565b6000806000806109b188888888610c77565b9250925092506109c18282610d46565b50909695505050505050565b6001600160a01b0384166109f75760405163e602df0560e01b8152600060048201526024016104b9565b6001600160a01b038316610a2157604051634a1406b160e11b8152600060048201526024016104b9565b6001600160a01b038085166000908152600160209081526040808320938716835292905220829055801561069d57826001600160a01b0316846001600160a01b03167f8c5be1e5ebec7d5bd14f71427d1e84f3dd0314c0f7b2291e5b200ac8c7c3b92584604051610a9491815260200190565b60405180910390a350505050565b6001600160a01b038316610acd578060026000828254610ac291906110f5565b90915550610b3f9050565b6001600160a01b03831660009081526020819052604090205481811015610b205760405163391434e360e21b81526001600160a01b038516600482015260248101829052604481018390526064016104b9565b6001600160a01b03841660009081526020819052604090209082900390555b6001600160a01b038216610b5b57600280548290039055610b7a565b6001600160a01b03821660009081526020819052604090208054820190555b816001600160a01b0316836001600160a01b03167fddf252ad1be2c89b69c2b068fc378daa952ba7f163c4a11628f55a4df523b3ef83604051610bbf91815260200190565b60405180910390a3505050565b606060ff8314610be657610bdf83610dff565b9050610393565b818054610bf2906110bb565b80601f0160208091040260200160405190810160405280929190818152602001828054610c1e906110bb565b8015610c6b5780601f10610c4057610100808354040283529160200191610c6b565b820191906000526020600020905b815481529060010190602001808311610c4e57829003601f168201915b50505050509050610393565b600080807f7fffffffffffffffffffffffffffffff5d576e7357a4501ddfe92f46681b20a0841115610cb25750600091506003905082610d3c565b604080516000808252602082018084528a905260ff891692820192909252606081018790526080810186905260019060a0016020604051602081039080840390855afa158015610d06573d6000803e3d6000fd5b5050604051601f1901519150506001600160a01b038116610d3257506000925060019150829050610d3c565b9250600091508190505b9450945094915050565b6000826003811115610d5a57610d5a611116565b03610d63575050565b6001826003811115610d7757610d77611116565b03610d955760405163f645eedf60e01b815260040160405180910390fd5b6002826003811115610da957610da9611116565b03610dca5760405163fce698f760e01b8152600481018290526024016104b9565b6003826003811115610dde57610dde611116565b036103de576040516335e2f38360e21b8152600481018290526024016104b9565b60606000610e0c83610e3e565b604080516020808252818301909252919250600091906020820181803683375050509182525060208101929092525090565b600060ff8216601f81111561039357604051632cd44ac360e21b815260040160405180910390fd5b6000815180845260005b81811015610e8c57602081850181015186830182015201610e70565b506000602082860101526020601f19601f83011685010191505092915050565b602081526000610ebf6020830184610e66565b9392505050565b80356001600160a01b0381168114610edd57600080fd5b919050565b60008060408385031215610ef557600080fd5b610efe83610ec6565b946020939093013593505050565b600080600060608486031215610f2157600080fd5b610f2a84610ec6565b9250610f3860208501610ec6565b9150604084013590509250925092565b600060208284031215610f5a57600080fd5b5035919050565b600060208284031215610f7357600080fd5b610ebf82610ec6565b60ff60f81b881681526000602060e06020840152610f9d60e084018a610e66565b8381036040850152610faf818a610e66565b606085018990526001600160a01b038816608086015260a0850187905284810360c08601528551808252602080880193509091019060005b8181101561100357835183529284019291840191600101610fe7565b50909c9b505050505050505050505050565b600080600080600080600060e0888a03121561103057600080fd5b61103988610ec6565b965061104760208901610ec6565b95506040880135945060608801359350608088013560ff8116811461106b57600080fd5b9699959850939692959460a0840135945060c09093013592915050565b6000806040838503121561109b57600080fd5b6110a483610ec6565b91506110b260208401610ec6565b90509250929050565b600181811c908216806110cf57607f821691505b6020821081036110ef57634e487b7160e01b600052602260045260246000fd5b50919050565b8082018082111561039357634e487b7160e01b600052601160045260246000fd5b634e487b7160e01b600052602160045260246000fdfea26469706673582212202cb075b5410a4b065d899c536766f2d8d00dc64c2a8aec317f9ef5b2e770d60864736f6c63430008180033","opcodes":"PUSH1 0x80 PUSH1 0x40 MSTORE PUSH1 0x1 DUP1 SLOAD PUSH1 0x1 PUSH1 0x1 PUSH1 0xA0 SHL SUB NOT SWAP1 DUP2 AND PUSH20 0xE50339FE67402CD59C32656D679479801990579F OR SWAP1 SWAP2 SSTORE PUSH1 0x2 DUP1 SLOAD SWAP1 SWAP2 AND PUSH20 0x694AA1769357215DE4FAC081BF1F309ADC325306 OR SWAP1 SSTORE CALLVALUE DUP1 ISZERO PUSH2 0x58 JUMPI PUSH1 0x0 DUP1 REVERT JUMPDEST POP ADDRESS PUSH1 0x40 MLOAD PUSH2 0x66 SWAP1 PUSH2 0xB8 JUMP JUMPDEST PUSH1 0x1 PUSH1 0x1 PUSH1 0xA0 SHL SUB SWAP1 SWAP2 AND DUP2 MSTORE PUSH1 0x20 ADD PUSH1 0x40 MLOAD DUP1 SWAP2 SUB SWAP1 PUSH1 0x0 CREATE DUP1 ISZERO DUP1 ISZERO PUSH2 0x92 JUMPI RETURNDATASIZE PUSH1 0x0 DUP1 RETURNDATACOPY RETURNDATASIZE PUSH1 0x0 REVERT JUMPDEST POP PUSH1 0x3 DUP1 SLOAD PUSH1 0x1 PUSH1 0x1 PUSH1 0xA0 SHL SUB NOT AND PUSH1 0x1 PUSH1 0x1 PUSH1 0xA0 SHL SUB SWAP3 SWAP1 SWAP3 AND SWAP2 SWAP1 SWAP2 OR SWAP1 SSTORE PUSH2 0xC5 JUMP JUMPDEST PUSH2 0x166E DUP1 PUSH2 0x877 DUP4 CODECOPY ADD SWAP1 JUMP JUMPDEST PUSH2 0x7A3 DUP1 PUSH2 0xD4 PUSH1 0x0 CODECOPY PUSH1 0x0 RETURN INVALID PUSH1 0x80 PUSH1 0x40 MSTORE PUSH1 0x4 CALLDATASIZE LT PUSH2 0xA7 JUMPI PUSH1 0x0 CALLDATALOAD PUSH1 0xE0 SHR DUP1 PUSH4 0x7CFE33C0 GT PUSH2 0x64 JUMPI DUP1 PUSH4 0x7CFE33C0 EQ PUSH2 0x161 JUMPI DUP1 PUSH4 0x7FAA640E EQ PUSH2 0x181 JUMPI DUP1 PUSH4 0x848C5510 EQ PUSH2 0x1AE JUMPI DUP1 PUSH4 0xBD386F8A EQ PUSH2 0x1C3 JUMPI DUP1 PUSH4 0xC744186F EQ PUSH2 0x1D8 JUMPI DUP1 PUSH4 0xCAD4301C EQ PUSH2 0x1E0 JUMPI PUSH1 0x0 DUP1 REVERT JUMPDEST DUP1 PUSH4 0x10BE13E4 EQ PUSH2 0xAC JUMPI DUP1 PUSH4 0x348F62C8 EQ PUSH2 0xE9 JUMPI DUP1 PUSH4 0x34F82783 EQ PUSH2 0xF3 JUMPI DUP1 PUSH4 0x427E1918 EQ PUSH2 0x108 JUMPI DUP1 PUSH4 0x4CF8025D EQ PUSH2 0x12C JUMPI DUP1 PUSH4 0x606D3C5D EQ PUSH2 0x141 JUMPI JUMPDEST PUSH1 0x0 DUP1 REVERT JUMPDEST CALLVALUE DUP1 ISZERO PUSH2 0xB8 JUMPI PUSH1 0x0 DUP1 REVERT JUMPDEST POP PUSH1 0x2 SLOAD PUSH2 0xCC SWAP1 PUSH1 0x1 PUSH1 0x1 PUSH1 0xA0 SHL SUB AND DUP2 JUMP JUMPDEST PUSH1 0x40 MLOAD PUSH1 0x1 PUSH1 0x1 PUSH1 0xA0 SHL SUB SWAP1 SWAP2 AND DUP2 MSTORE PUSH1 0x20 ADD JUMPDEST PUSH1 0x40 MLOAD DUP1 SWAP2 SUB SWAP1 RETURN JUMPDEST PUSH2 0xF1 PUSH2 0x20D JUMP JUMPDEST STOP JUMPDEST CALLVALUE DUP1 ISZERO PUSH2 0xFF JUMPI PUSH1 0x0 DUP1 REVERT JUMPDEST POP PUSH2 0xF1 PUSH2 0x340 JUMP JUMPDEST CALLVALUE DUP1 ISZERO PUSH2 0x114 JUMPI PUSH1 0x0 DUP1 REVERT JUMPDEST POP PUSH2 0x11E PUSH1 0x0 SLOAD DUP2 JUMP JUMPDEST PUSH1 0x40 MLOAD SWAP1 DUP2 MSTORE PUSH1 0x20 ADD PUSH2 0xE0 JUMP JUMPDEST CALLVALUE DUP1 ISZERO PUSH2 0x138 JUMPI PUSH1 0x0 DUP1 REVERT JUMPDEST POP PUSH2 0x11E PUSH2 0x3B4 JUMP JUMPDEST CALLVALUE DUP1 ISZERO PUSH2 0x14D JUMPI PUSH1 0x0 DUP1 REVERT JUMPDEST POP PUSH1 0x1 SLOAD PUSH2 0xCC SWAP1 PUSH1 0x1 PUSH1 0x1 PUSH1 0xA0 SHL SUB AND DUP2 JUMP JUMPDEST CALLVALUE DUP1 ISZERO PUSH2 0x16D JUMPI PUSH1 0x0 DUP1 REVERT JUMPDEST POP PUSH2 0x11E PUSH2 0x17C CALLDATASIZE PUSH1 0x4 PUSH2 0x5DE JUMP JUMPDEST PUSH2 0x427 JUMP JUMPDEST CALLVALUE DUP1 ISZERO PUSH2 0x18D JUMPI PUSH1 0x0 DUP1 REVERT JUMPDEST POP PUSH2 0x11E PUSH2 0x19C CALLDATASIZE PUSH1 0x4 PUSH2 0x60C JUMP JUMPDEST PUSH1 0x5 PUSH1 0x20 MSTORE PUSH1 0x0 SWAP1 DUP2 MSTORE PUSH1 0x40 SWAP1 KECCAK256 SLOAD DUP2 JUMP JUMPDEST CALLVALUE DUP1 ISZERO PUSH2 0x1BA JUMPI PUSH1 0x0 DUP1 REVERT JUMPDEST POP PUSH2 0x11E PUSH2 0x466 JUMP JUMPDEST CALLVALUE DUP1 ISZERO PUSH2 0x1CF JUMPI PUSH1 0x0 DUP1 REVERT JUMPDEST POP PUSH2 0xCC PUSH2 0x4FD JUMP JUMPDEST PUSH2 0xF1 PUSH2 0x56B JUMP JUMPDEST CALLVALUE DUP1 ISZERO PUSH2 0x1EC JUMPI PUSH1 0x0 DUP1 REVERT JUMPDEST POP PUSH2 0x11E PUSH2 0x1FB CALLDATASIZE PUSH1 0x4 PUSH2 0x60C JUMP JUMPDEST PUSH1 0x4 PUSH1 0x20 MSTORE PUSH1 0x0 SWAP1 DUP2 MSTORE PUSH1 0x40 SWAP1 KECCAK256 SLOAD DUP2 JUMP JUMPDEST PUSH1 0x1 SLOAD PUSH1 0x40 MLOAD PUSH4 0x1696D403 PUSH1 0xE1 SHL DUP2 MSTORE ADDRESS PUSH1 0x4 DUP3 ADD MSTORE PUSH1 0x0 SWAP2 PUSH1 0x1 PUSH1 0x1 PUSH1 0xA0 SHL SUB AND SWAP1 PUSH4 0x2D2DA806 SWAP1 CALLVALUE SWAP1 PUSH1 0x24 ADD PUSH1 0x20 PUSH1 0x40 MLOAD DUP1 DUP4 SUB DUP2 DUP6 DUP9 GAS CALL ISZERO DUP1 ISZERO PUSH2 0x259 JUMPI RETURNDATASIZE PUSH1 0x0 DUP1 RETURNDATACOPY RETURNDATASIZE PUSH1 0x0 REVERT JUMPDEST POP POP POP POP POP PUSH1 0x40 MLOAD RETURNDATASIZE PUSH1 0x1F NOT PUSH1 0x1F DUP3 ADD AND DUP3 ADD DUP1 PUSH1 0x40 MSTORE POP DUP2 ADD SWAP1 PUSH2 0x27E SWAP2 SWAP1 PUSH2 0x630 JUMP JUMPDEST CALLER PUSH1 0x0 SWAP1 DUP2 MSTORE PUSH1 0x4 PUSH1 0x20 MSTORE PUSH1 0x40 DUP2 KECCAK256 DUP1 SLOAD SWAP3 SWAP4 POP DUP4 SWAP3 SWAP1 SWAP2 SWAP1 PUSH2 0x2A2 SWAP1 DUP5 SWAP1 PUSH2 0x65F JUMP JUMPDEST SWAP1 SWAP2 SSTORE POP POP CALLER PUSH1 0x0 SWAP1 DUP2 MSTORE PUSH1 0x5 PUSH1 0x20 MSTORE PUSH1 0x40 DUP2 KECCAK256 DUP1 SLOAD DUP4 SWAP3 SWAP1 PUSH2 0x2C6 SWAP1 DUP5 SWAP1 PUSH2 0x65F JUMP JUMPDEST SWAP1 SWAP2 SSTORE POP PUSH1 0x0 SWAP1 POP PUSH2 0x2D7 CALLVALUE PUSH2 0x427 JUMP JUMPDEST PUSH1 0x3 SLOAD PUSH1 0x40 MLOAD PUSH4 0x40C10F19 PUSH1 0xE0 SHL DUP2 MSTORE CALLER PUSH1 0x4 DUP3 ADD MSTORE PUSH1 0x24 DUP2 ADD DUP4 SWAP1 MSTORE SWAP2 SWAP3 POP PUSH1 0x1 PUSH1 0x1 PUSH1 0xA0 SHL SUB AND SWAP1 PUSH4 0x40C10F19 SWAP1 PUSH1 0x44 ADD PUSH1 0x0 PUSH1 0x40 MLOAD DUP1 DUP4 SUB DUP2 PUSH1 0x0 DUP8 DUP1 EXTCODESIZE ISZERO DUP1 ISZERO PUSH2 0x324 JUMPI PUSH1 0x0 DUP1 REVERT JUMPDEST POP GAS CALL ISZERO DUP1 ISZERO PUSH2 0x338 JUMPI RETURNDATASIZE PUSH1 0x0 DUP1 RETURNDATACOPY RETURNDATASIZE PUSH1 0x0 REVERT JUMPDEST POP POP POP POP POP POP JUMP JUMPDEST PUSH1 0x1 SLOAD PUSH1 0x40 DUP1 MLOAD PUSH3 0x787445 PUSH1 0xE2 SHL DUP2 MSTORE SWAP1 MLOAD PUSH1 0x0 SWAP3 PUSH1 0x1 PUSH1 0x1 PUSH1 0xA0 SHL SUB AND SWAP2 PUSH4 0x1E1D114 SWAP2 PUSH1 0x4 DUP1 DUP4 ADD SWAP3 PUSH1 0x20 SWAP3 SWAP2 SWAP1 DUP3 SWAP1 SUB ADD DUP2 DUP8 DUP8 GAS CALL ISZERO DUP1 ISZERO PUSH2 0x38A JUMPI RETURNDATASIZE PUSH1 0x0 DUP1 RETURNDATACOPY RETURNDATASIZE PUSH1 0x0 REVERT JUMPDEST POP POP POP POP PUSH1 0x40 MLOAD RETURNDATASIZE PUSH1 0x1F NOT PUSH1 0x1F DUP3 ADD AND DUP3 ADD DUP1 PUSH1 0x40 MSTORE POP DUP2 ADD SWAP1 PUSH2 0x3AE SWAP2 SWAP1 PUSH2 0x630 JUMP JUMPDEST PUSH1 0x0 SSTORE POP JUMP JUMPDEST PUSH1 0x1 SLOAD PUSH1 0x40 DUP1 MLOAD PUSH3 0x787445 PUSH1 0xE2 SHL DUP2 MSTORE SWAP1 MLOAD PUSH1 0x0 SWAP3 PUSH1 0x1 PUSH1 0x1 PUSH1 0xA0 SHL SUB AND SWAP2 PUSH4 0x1E1D114 SWAP2 PUSH1 0x4 DUP1 DUP4 ADD SWAP3 PUSH1 0x20 SWAP3 SWAP2 SWAP1 DUP3 SWAP1 SUB ADD DUP2 DUP8 DUP8 GAS CALL ISZERO DUP1 ISZERO PUSH2 0x3FE JUMPI RETURNDATASIZE PUSH1 0x0 DUP1 RETURNDATACOPY RETURNDATASIZE PUSH1 0x0 REVERT JUMPDEST POP POP POP POP PUSH1 0x40 MLOAD RETURNDATASIZE PUSH1 0x1F NOT PUSH1 0x1F DUP3 ADD AND DUP3 ADD DUP1 PUSH1 0x40 MSTORE POP DUP2 ADD SWAP1 PUSH2 0x422 SWAP2 SWAP1 PUSH2 0x630 JUMP JUMPDEST SWAP1 POP SWAP1 JUMP JUMPDEST PUSH1 0x0 DUP1 PUSH8 0xDE0B6B3A7640000 PUSH2 0x43B PUSH2 0x466 JUMP JUMPDEST PUSH2 0x445 SWAP1 DUP6 PUSH2 0x678 JUMP JUMPDEST PUSH2 0x44F SWAP2 SWAP1 PUSH2 0x68F JUMP JUMPDEST SWAP1 POP PUSH1 0x0 PUSH2 0x45E PUSH1 0x2 DUP4 PUSH2 0x68F JUMP JUMPDEST SWAP5 SWAP4 POP POP POP POP JUMP JUMPDEST PUSH1 0x0 DUP1 PUSH1 0x2 PUSH1 0x0 SWAP1 SLOAD SWAP1 PUSH2 0x100 EXP SWAP1 DIV PUSH1 0x1 PUSH1 0x1 PUSH1 0xA0 SHL SUB AND PUSH1 0x1 PUSH1 0x1 PUSH1 0xA0 SHL SUB AND PUSH4 0xFEAF968C PUSH1 0x40 MLOAD DUP2 PUSH4 0xFFFFFFFF AND PUSH1 0xE0 SHL DUP2 MSTORE PUSH1 0x4 ADD PUSH1 0xA0 PUSH1 0x40 MLOAD DUP1 DUP4 SUB DUP2 DUP7 GAS STATICCALL ISZERO DUP1 ISZERO PUSH2 0x4BC JUMPI RETURNDATASIZE PUSH1 0x0 DUP1 RETURNDATACOPY RETURNDATASIZE PUSH1 0x0 REVERT JUMPDEST POP POP POP POP PUSH1 0x40 MLOAD RETURNDATASIZE PUSH1 0x1F NOT PUSH1 0x1F DUP3 ADD AND DUP3 ADD DUP1 PUSH1 0x40 MSTORE POP DUP2 ADD SWAP1 PUSH2 0x4E0 SWAP2 SWAP1 PUSH2 0x6D0 JUMP JUMPDEST POP POP POP SWAP2 POP POP DUP1 PUSH5 0x2540BE400 PUSH2 0x4F7 SWAP2 SWAP1 PUSH2 0x720 JUMP JUMPDEST SWAP2 POP POP SWAP1 JUMP JUMPDEST PUSH1 0x3 SLOAD PUSH1 0x40 DUP1 MLOAD PUSH4 0x38CC4831 PUSH1 0xE0 SHL DUP2 MSTORE SWAP1 MLOAD PUSH1 0x0 SWAP3 PUSH1 0x1 PUSH1 0x1 PUSH1 0xA0 SHL SUB AND SWAP2 PUSH4 0x38CC4831 SWAP2 PUSH1 0x4 DUP1 DUP4 ADD SWAP3 PUSH1 0x20 SWAP3 SWAP2 SWAP1 DUP3 SWAP1 SUB ADD DUP2 DUP7 GAS STATICCALL ISZERO DUP1 ISZERO PUSH2 0x547 JUMPI RETURNDATASIZE PUSH1 0x0 DUP1 RETURNDATACOPY RETURNDATASIZE PUSH1 0x0 REVERT JUMPDEST POP POP POP POP PUSH1 0x40 MLOAD RETURNDATASIZE PUSH1 0x1F NOT PUSH1 0x1F DUP3 ADD AND DUP3 ADD DUP1 PUSH1 0x40 MSTORE POP DUP2 ADD SWAP1 PUSH2 0x422 SWAP2 SWAP1 PUSH2 0x750 JUMP JUMPDEST PUSH1 0x1 SLOAD PUSH1 0x40 MLOAD PUSH4 0x1696D403 PUSH1 0xE1 SHL DUP2 MSTORE CALLER PUSH1 0x4 DUP3 ADD MSTORE PUSH1 0x1 PUSH1 0x1 PUSH1 0xA0 SHL SUB SWAP1 SWAP2 AND SWAP1 PUSH4 0x2D2DA806 SWAP1 CALLVALUE SWAP1 PUSH1 0x24 ADD PUSH1 0x20 PUSH1 0x40 MLOAD DUP1 DUP4 SUB DUP2 DUP6 DUP9 GAS CALL ISZERO DUP1 ISZERO PUSH2 0x5B6 JUMPI RETURNDATASIZE PUSH1 0x0 DUP1 RETURNDATACOPY RETURNDATASIZE PUSH1 0x0 REVERT JUMPDEST POP POP POP POP POP PUSH1 0x40 MLOAD RETURNDATASIZE PUSH1 0x1F NOT PUSH1 0x1F DUP3 ADD AND DUP3 ADD DUP1 PUSH1 0x40 MSTORE POP DUP2 ADD SWAP1 PUSH2 0x5DB SWAP2 SWAP1 PUSH2 0x630 JUMP JUMPDEST POP JUMP JUMPDEST PUSH1 0x0 PUSH1 0x20 DUP3 DUP5 SUB SLT ISZERO PUSH2 0x5F0 JUMPI PUSH1 0x0 DUP1 REVERT JUMPDEST POP CALLDATALOAD SWAP2 SWAP1 POP JUMP JUMPDEST PUSH1 0x1 PUSH1 0x1 PUSH1 0xA0 SHL SUB DUP2 AND DUP2 EQ PUSH2 0x5DB JUMPI PUSH1 0x0 DUP1 REVERT JUMPDEST PUSH1 0x0 PUSH1 0x20 DUP3 DUP5 SUB SLT ISZERO PUSH2 0x61E JUMPI PUSH1 0x0 DUP1 REVERT JUMPDEST DUP2 CALLDATALOAD PUSH2 0x629 DUP2 PUSH2 0x5F7 JUMP JUMPDEST SWAP4 SWAP3 POP POP POP JUMP JUMPDEST PUSH1 0x0 PUSH1 0x20 DUP3 DUP5 SUB SLT ISZERO PUSH2 0x642 JUMPI PUSH1 0x0 DUP1 REVERT JUMPDEST POP MLOAD SWAP2 SWAP1 POP JUMP JUMPDEST PUSH4 0x4E487B71 PUSH1 0xE0 SHL PUSH1 0x0 MSTORE PUSH1 0x11 PUSH1 0x4 MSTORE PUSH1 0x24 PUSH1 0x0 REVERT JUMPDEST DUP1 DUP3 ADD DUP1 DUP3 GT ISZERO PUSH2 0x672 JUMPI PUSH2 0x672 PUSH2 0x649 JUMP JUMPDEST SWAP3 SWAP2 POP POP JUMP JUMPDEST DUP1 DUP3 MUL DUP2 ISZERO DUP3 DUP3 DIV DUP5 EQ OR PUSH2 0x672 JUMPI PUSH2 0x672 PUSH2 0x649 JUMP JUMPDEST PUSH1 0x0 DUP3 PUSH2 0x6AC JUMPI PUSH4 0x4E487B71 PUSH1 0xE0 SHL PUSH1 0x0 MSTORE PUSH1 0x12 PUSH1 0x4 MSTORE PUSH1 0x24 PUSH1 0x0 REVERT JUMPDEST POP DIV SWAP1 JUMP JUMPDEST DUP1 MLOAD PUSH10 0xFFFFFFFFFFFFFFFFFFFF DUP2 AND DUP2 EQ PUSH2 0x6CB JUMPI PUSH1 0x0 DUP1 REVERT JUMPDEST SWAP2 SWAP1 POP JUMP JUMPDEST PUSH1 0x0 DUP1 PUSH1 0x0 DUP1 PUSH1 0x0 PUSH1 0xA0 DUP7 DUP9 SUB SLT ISZERO PUSH2 0x6E8 JUMPI PUSH1 0x0 DUP1 REVERT JUMPDEST PUSH2 0x6F1 DUP7 PUSH2 0x6B1 JUMP JUMPDEST SWAP5 POP PUSH1 0x20 DUP7 ADD MLOAD SWAP4 POP PUSH1 0x40 DUP7 ADD MLOAD SWAP3 POP PUSH1 0x60 DUP7 ADD MLOAD SWAP2 POP PUSH2 0x714 PUSH1 0x80 DUP8 ADD PUSH2 0x6B1 JUMP JUMPDEST SWAP1 POP SWAP3 SWAP6 POP SWAP3 SWAP6 SWAP1 SWAP4 POP JUMP JUMPDEST DUP1 DUP3 MUL PUSH1 0x0 DUP3 SLT PUSH1 0x1 PUSH1 0xFF SHL DUP5 EQ AND ISZERO PUSH2 0x73C JUMPI PUSH2 0x73C PUSH2 0x649 JUMP JUMPDEST DUP2 DUP2 SDIV DUP4 EQ DUP3 ISZERO OR PUSH2 0x672 JUMPI PUSH2 0x672 PUSH2 0x649 JUMP JUMPDEST PUSH1 0x0 PUSH1 0x20 DUP3 DUP5 SUB SLT ISZERO PUSH2 0x762 JUMPI PUSH1 0x0 DUP1 REVERT JUMPDEST DUP2 MLOAD PUSH2 0x629 DUP2 PUSH2 0x5F7 JUMP INVALID LOG2 PUSH5 0x6970667358 0x22 SLT KECCAK256 0xB5 GAS LOG4 DIV 0xEC PUSH28 0xEE00C684B3A1CC68BBEA455F671485C71119562F7F57868FAA426473 PUSH16 0x6C634300081800336101606040523480 ISZERO PUSH3 0x12 JUMPI PUSH1 0x0 DUP1 REVERT JUMPDEST POP PUSH1 0x40 MLOAD PUSH3 0x166E CODESIZE SUB DUP1 PUSH3 0x166E DUP4 CODECOPY DUP2 ADD PUSH1 0x40 DUP2 SWAP1 MSTORE PUSH3 0x35 SWAP2 PUSH3 0x296 JUMP JUMPDEST PUSH1 0x40 MLOAD DUP1 PUSH1 0x40 ADD PUSH1 0x40 MSTORE DUP1 PUSH1 0x5 DUP2 MSTORE PUSH1 0x20 ADD PUSH5 0x1B5C155CD9 PUSH1 0xDA SHL DUP2 MSTORE POP DUP1 PUSH1 0x40 MLOAD DUP1 PUSH1 0x40 ADD PUSH1 0x40 MSTORE DUP1 PUSH1 0x1 DUP2 MSTORE PUSH1 0x20 ADD PUSH1 0x31 PUSH1 0xF8 SHL DUP2 MSTORE POP DUP4 PUSH1 0x40 MLOAD DUP1 PUSH1 0x40 ADD PUSH1 0x40 MSTORE DUP1 PUSH1 0x5 DUP2 MSTORE PUSH1 0x20 ADD PUSH5 0x1B5C155CD9 PUSH1 0xDA SHL DUP2 MSTORE POP PUSH1 0x40 MLOAD DUP1 PUSH1 0x40 ADD PUSH1 0x40 MSTORE DUP1 PUSH1 0x5 DUP2 MSTORE PUSH1 0x20 ADD PUSH5 0x1B5C155CD9 PUSH1 0xDA SHL DUP2 MSTORE POP DUP2 PUSH1 0x3 SWAP1 DUP2 PUSH3 0xBC SWAP2 SWAP1 PUSH3 0x36F JUMP JUMPDEST POP PUSH1 0x4 PUSH3 0xCB DUP3 DUP3 PUSH3 0x36F JUMP JUMPDEST POP POP POP PUSH1 0x1 PUSH1 0x1 PUSH1 0xA0 SHL SUB DUP2 AND PUSH3 0xFE JUMPI PUSH1 0x40 MLOAD PUSH4 0x1E4FBDF7 PUSH1 0xE0 SHL DUP2 MSTORE PUSH1 0x0 PUSH1 0x4 DUP3 ADD MSTORE PUSH1 0x24 ADD JUMPDEST PUSH1 0x40 MLOAD DUP1 SWAP2 SUB SWAP1 REVERT JUMPDEST PUSH3 0x109 DUP2 PUSH3 0x1C8 JUMP JUMPDEST POP PUSH3 0x117 DUP3 PUSH1 0x6 PUSH3 0x21A JUMP JUMPDEST PUSH2 0x120 MSTORE PUSH3 0x128 DUP2 PUSH1 0x7 PUSH3 0x21A JUMP JUMPDEST PUSH2 0x140 MSTORE DUP2 MLOAD PUSH1 0x20 DUP1 DUP5 ADD SWAP2 SWAP1 SWAP2 KECCAK256 PUSH1 0xE0 MSTORE DUP2 MLOAD SWAP1 DUP3 ADD KECCAK256 PUSH2 0x100 MSTORE CHAINID PUSH1 0xA0 MSTORE PUSH3 0x1B6 PUSH1 0xE0 MLOAD PUSH2 0x100 MLOAD PUSH1 0x40 DUP1 MLOAD PUSH32 0x8B73C3C69BB8FE3D512ECC4CF759CC79239F7B179B0FFACAA9A75D522B39400F PUSH1 0x20 DUP3 ADD MSTORE SWAP1 DUP2 ADD SWAP3 SWAP1 SWAP3 MSTORE PUSH1 0x60 DUP3 ADD MSTORE CHAINID PUSH1 0x80 DUP3 ADD MSTORE ADDRESS PUSH1 0xA0 DUP3 ADD MSTORE PUSH1 0x0 SWAP1 PUSH1 0xC0 ADD PUSH1 0x40 MLOAD PUSH1 0x20 DUP2 DUP4 SUB SUB DUP2 MSTORE SWAP1 PUSH1 0x40 MSTORE DUP1 MLOAD SWAP1 PUSH1 0x20 ADD KECCAK256 SWAP1 POP SWAP1 JUMP JUMPDEST PUSH1 0x80 MSTORE POP POP ADDRESS PUSH1 0xC0 MSTORE POP PUSH3 0x4B1 SWAP1 POP JUMP JUMPDEST PUSH1 0x5 DUP1 SLOAD PUSH1 0x1 PUSH1 0x1 PUSH1 0xA0 SHL SUB DUP4 DUP2 AND PUSH1 0x1 PUSH1 0x1 PUSH1 0xA0 SHL SUB NOT DUP4 AND DUP2 OR SWAP1 SWAP4 SSTORE PUSH1 0x40 MLOAD SWAP2 AND SWAP2 SWAP1 DUP3 SWAP1 PUSH32 0x8BE0079C531659141344CD1FD0A4F28419497F9722A3DAAFE3B4186F6B6457E0 SWAP1 PUSH1 0x0 SWAP1 LOG3 POP POP JUMP JUMPDEST PUSH1 0x0 PUSH1 0x20 DUP4 MLOAD LT ISZERO PUSH3 0x23A JUMPI PUSH3 0x232 DUP4 PUSH3 0x253 JUMP JUMPDEST SWAP1 POP PUSH3 0x24D JUMP JUMPDEST DUP2 PUSH3 0x247 DUP5 DUP3 PUSH3 0x36F JUMP JUMPDEST POP PUSH1 0xFF SWAP1 POP JUMPDEST SWAP3 SWAP2 POP POP JUMP JUMPDEST PUSH1 0x0 DUP1 DUP3 SWAP1 POP PUSH1 0x1F DUP2 MLOAD GT ISZERO PUSH3 0x281 JUMPI DUP3 PUSH1 0x40 MLOAD PUSH4 0x305A27A9 PUSH1 0xE0 SHL DUP2 MSTORE PUSH1 0x4 ADD PUSH3 0xF5 SWAP2 SWAP1 PUSH3 0x43B JUMP JUMPDEST DUP1 MLOAD PUSH3 0x28E DUP3 PUSH3 0x48C JUMP JUMPDEST OR SWAP4 SWAP3 POP POP POP JUMP JUMPDEST PUSH1 0x0 PUSH1 0x20 DUP3 DUP5 SUB SLT ISZERO PUSH3 0x2A9 JUMPI PUSH1 0x0 DUP1 REVERT JUMPDEST DUP2 MLOAD PUSH1 0x1 PUSH1 0x1 PUSH1 0xA0 SHL SUB DUP2 AND DUP2 EQ PUSH3 0x2C1 JUMPI PUSH1 0x0 DUP1 REVERT JUMPDEST SWAP4 SWAP3 POP POP POP JUMP JUMPDEST PUSH4 0x4E487B71 PUSH1 0xE0 SHL PUSH1 0x0 MSTORE PUSH1 0x41 PUSH1 0x4 MSTORE PUSH1 0x24 PUSH1 0x0 REVERT JUMPDEST PUSH1 0x1 DUP2 DUP2 SHR SWAP1 DUP3 AND DUP1 PUSH3 0x2F3 JUMPI PUSH1 0x7F DUP3 AND SWAP2 POP JUMPDEST PUSH1 0x20 DUP3 LT DUP2 SUB PUSH3 0x314 JUMPI PUSH4 0x4E487B71 PUSH1 0xE0 SHL PUSH1 0x0 MSTORE PUSH1 0x22 PUSH1 0x4 MSTORE PUSH1 0x24 PUSH1 0x0 REVERT JUMPDEST POP SWAP2 SWAP1 POP JUMP JUMPDEST PUSH1 0x1F DUP3 GT ISZERO PUSH3 0x36A JUMPI PUSH1 0x0 DUP2 PUSH1 0x0 MSTORE PUSH1 0x20 PUSH1 0x0 KECCAK256 PUSH1 0x1F DUP6 ADD PUSH1 0x5 SHR DUP2 ADD PUSH1 0x20 DUP7 LT ISZERO PUSH3 0x345 JUMPI POP DUP1 JUMPDEST PUSH1 0x1F DUP6 ADD PUSH1 0x5 SHR DUP3 ADD SWAP2 POP JUMPDEST DUP2 DUP2 LT ISZERO PUSH3 0x366 JUMPI DUP3 DUP2 SSTORE PUSH1 0x1 ADD PUSH3 0x351 JUMP JUMPDEST POP POP POP JUMPDEST POP POP POP JUMP JUMPDEST DUP2 MLOAD PUSH1 0x1 PUSH1 0x1 PUSH1 0x40 SHL SUB DUP2 GT ISZERO PUSH3 0x38B JUMPI PUSH3 0x38B PUSH3 0x2C8 JUMP JUMPDEST PUSH3 0x3A3 DUP2 PUSH3 0x39C DUP5 SLOAD PUSH3 0x2DE JUMP JUMPDEST DUP5 PUSH3 0x31A JUMP JUMPDEST PUSH1 0x20 DUP1 PUSH1 0x1F DUP4 GT PUSH1 0x1 DUP2 EQ PUSH3 0x3DB JUMPI PUSH1 0x0 DUP5 ISZERO PUSH3 0x3C2 JUMPI POP DUP6 DUP4 ADD MLOAD JUMPDEST PUSH1 0x0 NOT PUSH1 0x3 DUP7 SWAP1 SHL SHR NOT AND PUSH1 0x1 DUP6 SWAP1 SHL OR DUP6 SSTORE PUSH3 0x366 JUMP JUMPDEST PUSH1 0x0 DUP6 DUP2 MSTORE PUSH1 0x20 DUP2 KECCAK256 PUSH1 0x1F NOT DUP7 AND SWAP2 JUMPDEST DUP3 DUP2 LT ISZERO PUSH3 0x40C JUMPI DUP9 DUP7 ADD MLOAD DUP3 SSTORE SWAP5 DUP5 ADD SWAP5 PUSH1 0x1 SWAP1 SWAP2 ADD SWAP1 DUP5 ADD PUSH3 0x3EB JUMP JUMPDEST POP DUP6 DUP3 LT ISZERO PUSH3 0x42B JUMPI DUP8 DUP6 ADD MLOAD PUSH1 0x0 NOT PUSH1 0x3 DUP9 SWAP1 SHL PUSH1 0xF8 AND SHR NOT AND DUP2 SSTORE JUMPDEST POP POP POP POP POP PUSH1 0x1 SWAP1 DUP2 SHL ADD SWAP1 SSTORE POP JUMP JUMPDEST PUSH1 0x0 PUSH1 0x20 DUP1 DUP4 MSTORE DUP4 MLOAD DUP1 PUSH1 0x20 DUP6 ADD MSTORE PUSH1 0x0 JUMPDEST DUP2 DUP2 LT ISZERO PUSH3 0x46B JUMPI DUP6 DUP2 ADD DUP4 ADD MLOAD DUP6 DUP3 ADD PUSH1 0x40 ADD MSTORE DUP3 ADD PUSH3 0x44D JUMP JUMPDEST POP PUSH1 0x0 PUSH1 0x40 DUP3 DUP7 ADD ADD MSTORE PUSH1 0x40 PUSH1 0x1F NOT PUSH1 0x1F DUP4 ADD AND DUP6 ADD ADD SWAP3 POP POP POP SWAP3 SWAP2 POP POP JUMP JUMPDEST DUP1 MLOAD PUSH1 0x20 DUP1 DUP4 ADD MLOAD SWAP2 SWAP1 DUP2 LT ISZERO PUSH3 0x314 JUMPI PUSH1 0x0 NOT PUSH1 0x20 SWAP2 SWAP1 SWAP2 SUB PUSH1 0x3 SHL SHL AND SWAP2 SWAP1 POP JUMP JUMPDEST PUSH1 0x80 MLOAD PUSH1 0xA0 MLOAD PUSH1 0xC0 MLOAD PUSH1 0xE0 MLOAD PUSH2 0x100 MLOAD PUSH2 0x120 MLOAD PUSH2 0x140 MLOAD PUSH2 0x1162 PUSH3 0x50C PUSH1 0x0 CODECOPY PUSH1 0x0 PUSH2 0x94C ADD MSTORE PUSH1 0x0 PUSH2 0x91F ADD MSTORE PUSH1 0x0 PUSH2 0x7DC ADD MSTORE PUSH1 0x0 PUSH2 0x7B4 ADD MSTORE PUSH1 0x0 PUSH2 0x70F ADD MSTORE PUSH1 0x0 PUSH2 0x739 ADD MSTORE PUSH1 0x0 PUSH2 0x763 ADD MSTORE PUSH2 0x1162 PUSH1 0x0 RETURN INVALID PUSH1 0x80 PUSH1 0x40 MSTORE CALLVALUE DUP1 ISZERO PUSH2 0x10 JUMPI PUSH1 0x0 DUP1 REVERT JUMPDEST POP PUSH1 0x4 CALLDATASIZE LT PUSH2 0x12C JUMPI PUSH1 0x0 CALLDATALOAD PUSH1 0xE0 SHR DUP1 PUSH4 0x715018A6 GT PUSH2 0xAD JUMPI DUP1 PUSH4 0x95D89B41 GT PUSH2 0x71 JUMPI DUP1 PUSH4 0x95D89B41 EQ PUSH2 0x273 JUMPI DUP1 PUSH4 0xA9059CBB EQ PUSH2 0x27B JUMPI DUP1 PUSH4 0xD505ACCF EQ PUSH2 0x28E JUMPI DUP1 PUSH4 0xDD62ED3E EQ PUSH2 0x2A1 JUMPI DUP1 PUSH4 0xF2FDE38B EQ PUSH2 0x2DA JUMPI PUSH1 0x0 DUP1 REVERT JUMPDEST DUP1 PUSH4 0x715018A6 EQ PUSH2 0x219 JUMPI DUP1 PUSH4 0x79CC6790 EQ PUSH2 0x221 JUMPI DUP1 PUSH4 0x7ECEBE00 EQ PUSH2 0x234 JUMPI DUP1 PUSH4 0x84B0196E EQ PUSH2 0x247 JUMPI DUP1 PUSH4 0x8DA5CB5B EQ PUSH2 0x262 JUMPI PUSH1 0x0 DUP1 REVERT JUMPDEST DUP1 PUSH4 0x3644E515 GT PUSH2 0xF4 JUMPI DUP1 PUSH4 0x3644E515 EQ PUSH2 0x1A6 JUMPI DUP1 PUSH4 0x38CC4831 EQ PUSH2 0x1AE JUMPI DUP1 PUSH4 0x40C10F19 EQ PUSH2 0x1C8 JUMPI DUP1 PUSH4 0x42966C68 EQ PUSH2 0x1DD JUMPI DUP1 PUSH4 0x70A08231 EQ PUSH2 0x1F0 JUMPI PUSH1 0x0 DUP1 REVERT JUMPDEST DUP1 PUSH4 0x6FDDE03 EQ PUSH2 0x131 JUMPI DUP1 PUSH4 0x95EA7B3 EQ PUSH2 0x14F JUMPI DUP1 PUSH4 0x18160DDD EQ PUSH2 0x172 JUMPI DUP1 PUSH4 0x23B872DD EQ PUSH2 0x184 JUMPI DUP1 PUSH4 0x313CE567 EQ PUSH2 0x197 JUMPI JUMPDEST PUSH1 0x0 DUP1 REVERT JUMPDEST PUSH2 0x139 PUSH2 0x2ED JUMP JUMPDEST PUSH1 0x40 MLOAD PUSH2 0x146 SWAP2 SWAP1 PUSH2 0xEAC JUMP JUMPDEST PUSH1 0x40 MLOAD DUP1 SWAP2 SUB SWAP1 RETURN JUMPDEST PUSH2 0x162 PUSH2 0x15D CALLDATASIZE PUSH1 0x4 PUSH2 0xEE2 JUMP JUMPDEST PUSH2 0x37F JUMP JUMPDEST PUSH1 0x40 MLOAD SWAP1 ISZERO ISZERO DUP2 MSTORE PUSH1 0x20 ADD PUSH2 0x146 JUMP JUMPDEST PUSH1 0x2 SLOAD JUMPDEST PUSH1 0x40 MLOAD SWAP1 DUP2 MSTORE PUSH1 0x20 ADD PUSH2 0x146 JUMP JUMPDEST PUSH2 0x162 PUSH2 0x192 CALLDATASIZE PUSH1 0x4 PUSH2 0xF0C JUMP JUMPDEST PUSH2 0x399 JUMP JUMPDEST PUSH1 0x40 MLOAD PUSH1 0x12 DUP2 MSTORE PUSH1 0x20 ADD PUSH2 0x146 JUMP JUMPDEST PUSH2 0x176 PUSH2 0x3BD JUMP JUMPDEST ADDRESS JUMPDEST PUSH1 0x40 MLOAD PUSH1 0x1 PUSH1 0x1 PUSH1 0xA0 SHL SUB SWAP1 SWAP2 AND DUP2 MSTORE PUSH1 0x20 ADD PUSH2 0x146 JUMP JUMPDEST PUSH2 0x1DB PUSH2 0x1D6 CALLDATASIZE PUSH1 0x4 PUSH2 0xEE2 JUMP JUMPDEST PUSH2 0x3CC JUMP JUMPDEST STOP JUMPDEST PUSH2 0x1DB PUSH2 0x1EB CALLDATASIZE PUSH1 0x4 PUSH2 0xF48 JUMP JUMPDEST PUSH2 0x3E2 JUMP JUMPDEST PUSH2 0x176 PUSH2 0x1FE CALLDATASIZE PUSH1 0x4 PUSH2 0xF61 JUMP JUMPDEST PUSH1 0x1 PUSH1 0x1 PUSH1 0xA0 SHL SUB AND PUSH1 0x0 SWAP1 DUP2 MSTORE PUSH1 0x20 DUP2 SWAP1 MSTORE PUSH1 0x40 SWAP1 KECCAK256 SLOAD SWAP1 JUMP JUMPDEST PUSH2 0x1DB PUSH2 0x3EF JUMP JUMPDEST PUSH2 0x1DB PUSH2 0x22F CALLDATASIZE PUSH1 0x4 PUSH2 0xEE2 JUMP JUMPDEST PUSH2 0x403 JUMP JUMPDEST PUSH2 0x176 PUSH2 0x242 CALLDATASIZE PUSH1 0x4 PUSH2 0xF61 JUMP JUMPDEST PUSH2 0x418 JUMP JUMPDEST PUSH2 0x24F PUSH2 0x436 JUMP JUMPDEST PUSH1 0x40 MLOAD PUSH2 0x146 SWAP8 SWAP7 SWAP6 SWAP5 SWAP4 SWAP3 SWAP2 SWAP1 PUSH2 0xF7C JUMP JUMPDEST PUSH1 0x5 SLOAD PUSH1 0x1 PUSH1 0x1 PUSH1 0xA0 SHL SUB AND PUSH2 0x1B0 JUMP JUMPDEST PUSH2 0x139 PUSH2 0x47C JUMP JUMPDEST PUSH2 0x162 PUSH2 0x289 CALLDATASIZE PUSH1 0x4 PUSH2 0xEE2 JUMP JUMPDEST PUSH2 0x48B JUMP JUMPDEST PUSH2 0x1DB PUSH2 0x29C CALLDATASIZE PUSH1 0x4 PUSH2 0x1015 JUMP JUMPDEST PUSH2 0x499 JUMP JUMPDEST PUSH2 0x176 PUSH2 0x2AF CALLDATASIZE PUSH1 0x4 PUSH2 0x1088 JUMP JUMPDEST PUSH1 0x1 PUSH1 0x1 PUSH1 0xA0 SHL SUB SWAP2 DUP3 AND PUSH1 0x0 SWAP1 DUP2 MSTORE PUSH1 0x1 PUSH1 0x20 SWAP1 DUP2 MSTORE PUSH1 0x40 DUP1 DUP4 KECCAK256 SWAP4 SWAP1 SWAP5 AND DUP3 MSTORE SWAP2 SWAP1 SWAP2 MSTORE KECCAK256 SLOAD SWAP1 JUMP JUMPDEST PUSH2 0x1DB PUSH2 0x2E8 CALLDATASIZE PUSH1 0x4 PUSH2 0xF61 JUMP JUMPDEST PUSH2 0x5D8 JUMP JUMPDEST PUSH1 0x60 PUSH1 0x3 DUP1 SLOAD PUSH2 0x2FC SWAP1 PUSH2 0x10BB JUMP JUMPDEST DUP1 PUSH1 0x1F ADD PUSH1 0x20 DUP1 SWAP2 DIV MUL PUSH1 0x20 ADD PUSH1 0x40 MLOAD SWAP1 DUP2 ADD PUSH1 0x40 MSTORE DUP1 SWAP3 SWAP2 SWAP1 DUP2 DUP2 MSTORE PUSH1 0x20 ADD DUP3 DUP1 SLOAD PUSH2 0x328 SWAP1 PUSH2 0x10BB JUMP JUMPDEST DUP1 ISZERO PUSH2 0x375 JUMPI DUP1 PUSH1 0x1F LT PUSH2 0x34A JUMPI PUSH2 0x100 DUP1 DUP4 SLOAD DIV MUL DUP4 MSTORE SWAP2 PUSH1 0x20 ADD SWAP2 PUSH2 0x375 JUMP JUMPDEST DUP3 ADD SWAP2 SWAP1 PUSH1 0x0 MSTORE PUSH1 0x20 PUSH1 0x0 KECCAK256 SWAP1 JUMPDEST DUP2 SLOAD DUP2 MSTORE SWAP1 PUSH1 0x1 ADD SWAP1 PUSH1 0x20 ADD DUP1 DUP4 GT PUSH2 0x358 JUMPI DUP3 SWAP1 SUB PUSH1 0x1F AND DUP3 ADD SWAP2 JUMPDEST POP POP POP POP POP SWAP1 POP SWAP1 JUMP JUMPDEST PUSH1 0x0 CALLER PUSH2 0x38D DUP2 DUP6 DUP6 PUSH2 0x613 JUMP JUMPDEST PUSH1 0x1 SWAP2 POP POP JUMPDEST SWAP3 SWAP2 POP POP JUMP JUMPDEST PUSH1 0x0 CALLER PUSH2 0x3A7 DUP6 DUP3 DUP6 PUSH2 0x625 JUMP JUMPDEST PUSH2 0x3B2 DUP6 DUP6 DUP6 PUSH2 0x6A3 JUMP JUMPDEST POP PUSH1 0x1 SWAP5 SWAP4 POP POP POP POP JUMP JUMPDEST PUSH1 0x0 PUSH2 0x3C7 PUSH2 0x702 JUMP JUMPDEST SWAP1 POP SWAP1 JUMP JUMPDEST PUSH2 0x3D4 PUSH2 0x82D JUMP JUMPDEST PUSH2 0x3DE DUP3 DUP3 PUSH2 0x85A JUMP JUMPDEST POP POP JUMP JUMPDEST PUSH2 0x3EC CALLER DUP3 PUSH2 0x890 JUMP JUMPDEST POP JUMP JUMPDEST PUSH2 0x3F7 PUSH2 0x82D JUMP JUMPDEST PUSH2 0x401 PUSH1 0x0 PUSH2 0x8C6 JUMP JUMPDEST JUMP JUMPDEST PUSH2 0x40E DUP3 CALLER DUP4 PUSH2 0x625 JUMP JUMPDEST PUSH2 0x3DE DUP3 DUP3 PUSH2 0x890 JUMP JUMPDEST PUSH1 0x1 PUSH1 0x1 PUSH1 0xA0 SHL SUB DUP2 AND PUSH1 0x0 SWAP1 DUP2 MSTORE PUSH1 0x8 PUSH1 0x20 MSTORE PUSH1 0x40 DUP2 KECCAK256 SLOAD PUSH2 0x393 JUMP JUMPDEST PUSH1 0x0 PUSH1 0x60 DUP1 PUSH1 0x0 DUP1 PUSH1 0x0 PUSH1 0x60 PUSH2 0x44A PUSH2 0x918 JUMP JUMPDEST PUSH2 0x452 PUSH2 0x945 JUMP JUMPDEST PUSH1 0x40 DUP1 MLOAD PUSH1 0x0 DUP1 DUP3 MSTORE PUSH1 0x20 DUP3 ADD SWAP1 SWAP3 MSTORE PUSH1 0xF PUSH1 0xF8 SHL SWAP12 SWAP4 SWAP11 POP SWAP2 SWAP9 POP CHAINID SWAP8 POP ADDRESS SWAP7 POP SWAP5 POP SWAP3 POP SWAP1 POP JUMP JUMPDEST PUSH1 0x60 PUSH1 0x4 DUP1 SLOAD PUSH2 0x2FC SWAP1 PUSH2 0x10BB JUMP JUMPDEST PUSH1 0x0 CALLER PUSH2 0x38D DUP2 DUP6 DUP6 PUSH2 0x6A3 JUMP JUMPDEST DUP4 TIMESTAMP GT ISZERO PUSH2 0x4C2 JUMPI PUSH1 0x40 MLOAD PUSH4 0x313C8981 PUSH1 0xE1 SHL DUP2 MSTORE PUSH1 0x4 DUP2 ADD DUP6 SWAP1 MSTORE PUSH1 0x24 ADD JUMPDEST PUSH1 0x40 MLOAD DUP1 SWAP2 SUB SWAP1 REVERT JUMPDEST PUSH1 0x0 PUSH32 0x6E71EDAE12B1B97F4D1F60370FEF10105FA2FAAE0126114A169C64845D6126C9 DUP9 DUP9 DUP9 PUSH2 0x50F DUP13 PUSH1 0x1 PUSH1 0x1 PUSH1 0xA0 SHL SUB AND PUSH1 0x0 SWAP1 DUP2 MSTORE PUSH1 0x8 PUSH1 0x20 MSTORE PUSH1 0x40 SWAP1 KECCAK256 DUP1 SLOAD PUSH1 0x1 DUP2 ADD SWAP1 SWAP2 SSTORE SWAP1 JUMP JUMPDEST PUSH1 0x40 DUP1 MLOAD PUSH1 0x20 DUP2 ADD SWAP7 SWAP1 SWAP7 MSTORE PUSH1 0x1 PUSH1 0x1 PUSH1 0xA0 SHL SUB SWAP5 DUP6 AND SWAP1 DUP7 ADD MSTORE SWAP3 SWAP1 SWAP2 AND PUSH1 0x60 DUP5 ADD MSTORE PUSH1 0x80 DUP4 ADD MSTORE PUSH1 0xA0 DUP3 ADD MSTORE PUSH1 0xC0 DUP2 ADD DUP7 SWAP1 MSTORE PUSH1 0xE0 ADD PUSH1 0x40 MLOAD PUSH1 0x20 DUP2 DUP4 SUB SUB DUP2 MSTORE SWAP1 PUSH1 0x40 MSTORE DUP1 MLOAD SWAP1 PUSH1 0x20 ADD KECCAK256 SWAP1 POP PUSH1 0x0 PUSH2 0x56A DUP3 PUSH2 0x972 JUMP JUMPDEST SWAP1 POP PUSH1 0x0 PUSH2 0x57A DUP3 DUP8 DUP8 DUP8 PUSH2 0x99F JUMP JUMPDEST SWAP1 POP DUP10 PUSH1 0x1 PUSH1 0x1 PUSH1 0xA0 SHL SUB AND DUP2 PUSH1 0x1 PUSH1 0x1 PUSH1 0xA0 SHL SUB AND EQ PUSH2 0x5C1 JUMPI PUSH1 0x40 MLOAD PUSH4 0x25C00723 PUSH1 0xE1 SHL DUP2 MSTORE PUSH1 0x1 PUSH1 0x1 PUSH1 0xA0 SHL SUB DUP1 DUP4 AND PUSH1 0x4 DUP4 ADD MSTORE DUP12 AND PUSH1 0x24 DUP3 ADD MSTORE PUSH1 0x44 ADD PUSH2 0x4B9 JUMP JUMPDEST PUSH2 0x5CC DUP11 DUP11 DUP11 PUSH2 0x613 JUMP JUMPDEST POP POP POP POP POP POP POP POP POP POP JUMP JUMPDEST PUSH2 0x5E0 PUSH2 0x82D JUMP JUMPDEST PUSH1 0x1 PUSH1 0x1 PUSH1 0xA0 SHL SUB DUP2 AND PUSH2 0x60A JUMPI PUSH1 0x40 MLOAD PUSH4 0x1E4FBDF7 PUSH1 0xE0 SHL DUP2 MSTORE PUSH1 0x0 PUSH1 0x4 DUP3 ADD MSTORE PUSH1 0x24 ADD PUSH2 0x4B9 JUMP JUMPDEST PUSH2 0x3EC DUP2 PUSH2 0x8C6 JUMP JUMPDEST PUSH2 0x620 DUP4 DUP4 DUP4 PUSH1 0x1 PUSH2 0x9CD JUMP JUMPDEST POP POP POP JUMP JUMPDEST PUSH1 0x1 PUSH1 0x1 PUSH1 0xA0 SHL SUB DUP4 DUP2 AND PUSH1 0x0 SWAP1 DUP2 MSTORE PUSH1 0x1 PUSH1 0x20 SWAP1 DUP2 MSTORE PUSH1 0x40 DUP1 DUP4 KECCAK256 SWAP4 DUP7 AND DUP4 MSTORE SWAP3 SWAP1 MSTORE KECCAK256 SLOAD PUSH1 0x0 NOT DUP2 EQ PUSH2 0x69D JUMPI DUP2 DUP2 LT ISZERO PUSH2 0x68E JUMPI PUSH1 0x40 MLOAD PUSH4 0x7DC7A0D9 PUSH1 0xE1 SHL DUP2 MSTORE PUSH1 0x1 PUSH1 0x1 PUSH1 0xA0 SHL SUB DUP5 AND PUSH1 0x4 DUP3 ADD MSTORE PUSH1 0x24 DUP2 ADD DUP3 SWAP1 MSTORE PUSH1 0x44 DUP2 ADD DUP4 SWAP1 MSTORE PUSH1 0x64 ADD PUSH2 0x4B9 JUMP JUMPDEST PUSH2 0x69D DUP5 DUP5 DUP5 DUP5 SUB PUSH1 0x0 PUSH2 0x9CD JUMP JUMPDEST POP POP POP POP JUMP JUMPDEST PUSH1 0x1 PUSH1 0x1 PUSH1 0xA0 SHL SUB DUP4 AND PUSH2 0x6CD JUMPI PUSH1 0x40 MLOAD PUSH4 0x4B637E8F PUSH1 0xE1 SHL DUP2 MSTORE PUSH1 0x0 PUSH1 0x4 DUP3 ADD MSTORE PUSH1 0x24 ADD PUSH2 0x4B9 JUMP JUMPDEST PUSH1 0x1 PUSH1 0x1 PUSH1 0xA0 SHL SUB DUP3 AND PUSH2 0x6F7 JUMPI PUSH1 0x40 MLOAD PUSH4 0xEC442F05 PUSH1 0xE0 SHL DUP2 MSTORE PUSH1 0x0 PUSH1 0x4 DUP3 ADD MSTORE PUSH1 0x24 ADD PUSH2 0x4B9 JUMP JUMPDEST PUSH2 0x620 DUP4 DUP4 DUP4 PUSH2 0xAA2 JUMP JUMPDEST PUSH1 0x0 ADDRESS PUSH1 0x1 PUSH1 0x1 PUSH1 0xA0 SHL SUB PUSH32 0x0 AND EQ DUP1 ISZERO PUSH2 0x75B JUMPI POP PUSH32 0x0 CHAINID EQ JUMPDEST ISZERO PUSH2 0x785 JUMPI POP PUSH32 0x0 SWAP1 JUMP JUMPDEST PUSH2 0x3C7 PUSH1 0x40 DUP1 MLOAD PUSH32 0x8B73C3C69BB8FE3D512ECC4CF759CC79239F7B179B0FFACAA9A75D522B39400F PUSH1 0x20 DUP3 ADD MSTORE PUSH32 0x0 SWAP2 DUP2 ADD SWAP2 SWAP1 SWAP2 MSTORE PUSH32 0x0 PUSH1 0x60 DUP3 ADD MSTORE CHAINID PUSH1 0x80 DUP3 ADD MSTORE ADDRESS PUSH1 0xA0 DUP3 ADD MSTORE PUSH1 0x0 SWAP1 PUSH1 0xC0 ADD PUSH1 0x40 MLOAD PUSH1 0x20 DUP2 DUP4 SUB SUB DUP2 MSTORE SWAP1 PUSH1 0x40 MSTORE DUP1 MLOAD SWAP1 PUSH1 0x20 ADD KECCAK256 SWAP1 POP SWAP1 JUMP JUMPDEST PUSH1 0x5 SLOAD PUSH1 0x1 PUSH1 0x1 PUSH1 0xA0 SHL SUB AND CALLER EQ PUSH2 0x401 JUMPI PUSH1 0x40 MLOAD PUSH4 0x118CDAA7 PUSH1 0xE0 SHL DUP2 MSTORE CALLER PUSH1 0x4 DUP3 ADD MSTORE PUSH1 0x24 ADD PUSH2 0x4B9 JUMP JUMPDEST PUSH1 0x1 PUSH1 0x1 PUSH1 0xA0 SHL SUB DUP3 AND PUSH2 0x884 JUMPI PUSH1 0x40 MLOAD PUSH4 0xEC442F05 PUSH1 0xE0 SHL DUP2 MSTORE PUSH1 0x0 PUSH1 0x4 DUP3 ADD MSTORE PUSH1 0x24 ADD PUSH2 0x4B9 JUMP JUMPDEST PUSH2 0x3DE PUSH1 0x0 DUP4 DUP4 PUSH2 0xAA2 JUMP JUMPDEST PUSH1 0x1 PUSH1 0x1 PUSH1 0xA0 SHL SUB DUP3 AND PUSH2 0x8BA JUMPI PUSH1 0x40 MLOAD PUSH4 0x4B637E8F PUSH1 0xE1 SHL DUP2 MSTORE PUSH1 0x0 PUSH1 0x4 DUP3 ADD MSTORE PUSH1 0x24 ADD PUSH2 0x4B9 JUMP JUMPDEST PUSH2 0x3DE DUP3 PUSH1 0x0 DUP4 PUSH2 0xAA2 JUMP JUMPDEST PUSH1 0x5 DUP1 SLOAD PUSH1 0x1 PUSH1 0x1 PUSH1 0xA0 SHL SUB DUP4 DUP2 AND PUSH1 0x1 PUSH1 0x1 PUSH1 0xA0 SHL SUB NOT DUP4 AND DUP2 OR SWAP1 SWAP4 SSTORE PUSH1 0x40 MLOAD SWAP2 AND SWAP2 SWAP1 DUP3 SWAP1 PUSH32 0x8BE0079C531659141344CD1FD0A4F28419497F9722A3DAAFE3B4186F6B6457E0 SWAP1 PUSH1 0x0 SWAP1 LOG3 POP POP JUMP JUMPDEST PUSH1 0x60 PUSH2 0x3C7 PUSH32 0x0 PUSH1 0x6 PUSH2 0xBCC JUMP JUMPDEST PUSH1 0x60 PUSH2 0x3C7 PUSH32 0x0 PUSH1 0x7 PUSH2 0xBCC JUMP JUMPDEST PUSH1 0x0 PUSH2 0x393 PUSH2 0x97F PUSH2 0x702 JUMP JUMPDEST DUP4 PUSH1 0x40 MLOAD PUSH2 0x1901 PUSH1 0xF0 SHL DUP2 MSTORE PUSH1 0x2 DUP2 ADD SWAP3 SWAP1 SWAP3 MSTORE PUSH1 0x22 DUP3 ADD MSTORE PUSH1 0x42 SWAP1 KECCAK256 SWAP1 JUMP JUMPDEST PUSH1 0x0 DUP1 PUSH1 0x0 DUP1 PUSH2 0x9B1 DUP9 DUP9 DUP9 DUP9 PUSH2 0xC77 JUMP JUMPDEST SWAP3 POP SWAP3 POP SWAP3 POP PUSH2 0x9C1 DUP3 DUP3 PUSH2 0xD46 JUMP JUMPDEST POP SWAP1 SWAP7 SWAP6 POP POP POP POP POP POP JUMP JUMPDEST PUSH1 0x1 PUSH1 0x1 PUSH1 0xA0 SHL SUB DUP5 AND PUSH2 0x9F7 JUMPI PUSH1 0x40 MLOAD PUSH4 0xE602DF05 PUSH1 0xE0 SHL DUP2 MSTORE PUSH1 0x0 PUSH1 0x4 DUP3 ADD MSTORE PUSH1 0x24 ADD PUSH2 0x4B9 JUMP JUMPDEST PUSH1 0x1 PUSH1 0x1 PUSH1 0xA0 SHL SUB DUP4 AND PUSH2 0xA21 JUMPI PUSH1 0x40 MLOAD PUSH4 0x4A1406B1 PUSH1 0xE1 SHL DUP2 MSTORE PUSH1 0x0 PUSH1 0x4 DUP3 ADD MSTORE PUSH1 0x24 ADD PUSH2 0x4B9 JUMP JUMPDEST PUSH1 0x1 PUSH1 0x1 PUSH1 0xA0 SHL SUB DUP1 DUP6 AND PUSH1 0x0 SWAP1 DUP2 MSTORE PUSH1 0x1 PUSH1 0x20 SWAP1 DUP2 MSTORE PUSH1 0x40 DUP1 DUP4 KECCAK256 SWAP4 DUP8 AND DUP4 MSTORE SWAP3 SWAP1 MSTORE KECCAK256 DUP3 SWAP1 SSTORE DUP1 ISZERO PUSH2 0x69D JUMPI DUP3 PUSH1 0x1 PUSH1 0x1 PUSH1 0xA0 SHL SUB AND DUP5 PUSH1 0x1 PUSH1 0x1 PUSH1 0xA0 SHL SUB AND PUSH32 0x8C5BE1E5EBEC7D5BD14F71427D1E84F3DD0314C0F7B2291E5B200AC8C7C3B925 DUP5 PUSH1 0x40 MLOAD PUSH2 0xA94 SWAP2 DUP2 MSTORE PUSH1 0x20 ADD SWAP1 JUMP JUMPDEST PUSH1 0x40 MLOAD DUP1 SWAP2 SUB SWAP1 LOG3 POP POP POP POP JUMP JUMPDEST PUSH1 0x1 PUSH1 0x1 PUSH1 0xA0 SHL SUB DUP4 AND PUSH2 0xACD JUMPI DUP1 PUSH1 0x2 PUSH1 0x0 DUP3 DUP3 SLOAD PUSH2 0xAC2 SWAP2 SWAP1 PUSH2 0x10F5 JUMP JUMPDEST SWAP1 SWAP2 SSTORE POP PUSH2 0xB3F SWAP1 POP JUMP JUMPDEST PUSH1 0x1 PUSH1 0x1 PUSH1 0xA0 SHL SUB DUP4 AND PUSH1 0x0 SWAP1 DUP2 MSTORE PUSH1 0x20 DUP2 SWAP1 MSTORE PUSH1 0x40 SWAP1 KECCAK256 SLOAD DUP2 DUP2 LT ISZERO PUSH2 0xB20 JUMPI PUSH1 0x40 MLOAD PUSH4 0x391434E3 PUSH1 0xE2 SHL DUP2 MSTORE PUSH1 0x1 PUSH1 0x1 PUSH1 0xA0 SHL SUB DUP6 AND PUSH1 0x4 DUP3 ADD MSTORE PUSH1 0x24 DUP2 ADD DUP3 SWAP1 MSTORE PUSH1 0x44 DUP2 ADD DUP4 SWAP1 MSTORE PUSH1 0x64 ADD PUSH2 0x4B9 JUMP JUMPDEST PUSH1 0x1 PUSH1 0x1 PUSH1 0xA0 SHL SUB DUP5 AND PUSH1 0x0 SWAP1 DUP2 MSTORE PUSH1 0x20 DUP2 SWAP1 MSTORE PUSH1 0x40 SWAP1 KECCAK256 SWAP1 DUP3 SWAP1 SUB SWAP1 SSTORE JUMPDEST PUSH1 0x1 PUSH1 0x1 PUSH1 0xA0 SHL SUB DUP3 AND PUSH2 0xB5B JUMPI PUSH1 0x2 DUP1 SLOAD DUP3 SWAP1 SUB SWAP1 SSTORE PUSH2 0xB7A JUMP JUMPDEST PUSH1 0x1 PUSH1 0x1 PUSH1 0xA0 SHL SUB DUP3 AND PUSH1 0x0 SWAP1 DUP2 MSTORE PUSH1 0x20 DUP2 SWAP1 MSTORE PUSH1 0x40 SWAP1 KECCAK256 DUP1 SLOAD DUP3 ADD SWAP1 SSTORE JUMPDEST DUP2 PUSH1 0x1 PUSH1 0x1 PUSH1 0xA0 SHL SUB AND DUP4 PUSH1 0x1 PUSH1 0x1 PUSH1 0xA0 SHL SUB AND PUSH32 0xDDF252AD1BE2C89B69C2B068FC378DAA952BA7F163C4A11628F55A4DF523B3EF DUP4 PUSH1 0x40 MLOAD PUSH2 0xBBF SWAP2 DUP2 MSTORE PUSH1 0x20 ADD SWAP1 JUMP JUMPDEST PUSH1 0x40 MLOAD DUP1 SWAP2 SUB SWAP1 LOG3 POP POP POP JUMP JUMPDEST PUSH1 0x60 PUSH1 0xFF DUP4 EQ PUSH2 0xBE6 JUMPI PUSH2 0xBDF DUP4 PUSH2 0xDFF JUMP JUMPDEST SWAP1 POP PUSH2 0x393 JUMP JUMPDEST DUP2 DUP1 SLOAD PUSH2 0xBF2 SWAP1 PUSH2 0x10BB JUMP JUMPDEST DUP1 PUSH1 0x1F ADD PUSH1 0x20 DUP1 SWAP2 DIV MUL PUSH1 0x20 ADD PUSH1 0x40 MLOAD SWAP1 DUP2 ADD PUSH1 0x40 MSTORE DUP1 SWAP3 SWAP2 SWAP1 DUP2 DUP2 MSTORE PUSH1 0x20 ADD DUP3 DUP1 SLOAD PUSH2 0xC1E SWAP1 PUSH2 0x10BB JUMP JUMPDEST DUP1 ISZERO PUSH2 0xC6B JUMPI DUP1 PUSH1 0x1F LT PUSH2 0xC40 JUMPI PUSH2 0x100 DUP1 DUP4 SLOAD DIV MUL DUP4 MSTORE SWAP2 PUSH1 0x20 ADD SWAP2 PUSH2 0xC6B JUMP JUMPDEST DUP3 ADD SWAP2 SWAP1 PUSH1 0x0 MSTORE PUSH1 0x20 PUSH1 0x0 KECCAK256 SWAP1 JUMPDEST DUP2 SLOAD DUP2 MSTORE SWAP1 PUSH1 0x1 ADD SWAP1 PUSH1 0x20 ADD DUP1 DUP4 GT PUSH2 0xC4E JUMPI DUP3 SWAP1 SUB PUSH1 0x1F AND DUP3 ADD SWAP2 JUMPDEST POP POP POP POP POP SWAP1 POP PUSH2 0x393 JUMP JUMPDEST PUSH1 0x0 DUP1 DUP1 PUSH32 0x7FFFFFFFFFFFFFFFFFFFFFFFFFFFFFFF5D576E7357A4501DDFE92F46681B20A0 DUP5 GT ISZERO PUSH2 0xCB2 JUMPI POP PUSH1 0x0 SWAP2 POP PUSH1 0x3 SWAP1 POP DUP3 PUSH2 0xD3C JUMP JUMPDEST PUSH1 0x40 DUP1 MLOAD PUSH1 0x0 DUP1 DUP3 MSTORE PUSH1 0x20 DUP3 ADD DUP1 DUP5 MSTORE DUP11 SWAP1 MSTORE PUSH1 0xFF DUP10 AND SWAP3 DUP3 ADD SWAP3 SWAP1 SWAP3 MSTORE PUSH1 0x60 DUP2 ADD DUP8 SWAP1 MSTORE PUSH1 0x80 DUP2 ADD DUP7 SWAP1 MSTORE PUSH1 0x1 SWAP1 PUSH1 0xA0 ADD PUSH1 0x20 PUSH1 0x40 MLOAD PUSH1 0x20 DUP2 SUB SWAP1 DUP1 DUP5 SUB SWAP1 DUP6 GAS STATICCALL ISZERO DUP1 ISZERO PUSH2 0xD06 JUMPI RETURNDATASIZE PUSH1 0x0 DUP1 RETURNDATACOPY RETURNDATASIZE PUSH1 0x0 REVERT JUMPDEST POP POP PUSH1 0x40 MLOAD PUSH1 0x1F NOT ADD MLOAD SWAP2 POP POP PUSH1 0x1 PUSH1 0x1 PUSH1 0xA0 SHL SUB DUP2 AND PUSH2 0xD32 JUMPI POP PUSH1 0x0 SWAP3 POP PUSH1 0x1 SWAP2 POP DUP3 SWAP1 POP PUSH2 0xD3C JUMP JUMPDEST SWAP3 POP PUSH1 0x0 SWAP2 POP DUP2 SWAP1 POP JUMPDEST SWAP5 POP SWAP5 POP SWAP5 SWAP2 POP POP JUMP JUMPDEST PUSH1 0x0 DUP3 PUSH1 0x3 DUP2 GT ISZERO PUSH2 0xD5A JUMPI PUSH2 0xD5A PUSH2 0x1116 JUMP JUMPDEST SUB PUSH2 0xD63 JUMPI POP POP JUMP JUMPDEST PUSH1 0x1 DUP3 PUSH1 0x3 DUP2 GT ISZERO PUSH2 0xD77 JUMPI PUSH2 0xD77 PUSH2 0x1116 JUMP JUMPDEST SUB PUSH2 0xD95 JUMPI PUSH1 0x40 MLOAD PUSH4 0xF645EEDF PUSH1 0xE0 SHL DUP2 MSTORE PUSH1 0x4 ADD PUSH1 0x40 MLOAD DUP1 SWAP2 SUB SWAP1 REVERT JUMPDEST PUSH1 0x2 DUP3 PUSH1 0x3 DUP2 GT ISZERO PUSH2 0xDA9 JUMPI PUSH2 0xDA9 PUSH2 0x1116 JUMP JUMPDEST SUB PUSH2 0xDCA JUMPI PUSH1 0x40 MLOAD PUSH4 0xFCE698F7 PUSH1 0xE0 SHL DUP2 MSTORE PUSH1 0x4 DUP2 ADD DUP3 SWAP1 MSTORE PUSH1 0x24 ADD PUSH2 0x4B9 JUMP JUMPDEST PUSH1 0x3 DUP3 PUSH1 0x3 DUP2 GT ISZERO PUSH2 0xDDE JUMPI PUSH2 0xDDE PUSH2 0x1116 JUMP JUMPDEST SUB PUSH2 0x3DE JUMPI PUSH1 0x40 MLOAD PUSH4 0x35E2F383 PUSH1 0xE2 SHL DUP2 MSTORE PUSH1 0x4 DUP2 ADD DUP3 SWAP1 MSTORE PUSH1 0x24 ADD PUSH2 0x4B9 JUMP JUMPDEST PUSH1 0x60 PUSH1 0x0 PUSH2 0xE0C DUP4 PUSH2 0xE3E JUMP JUMPDEST PUSH1 0x40 DUP1 MLOAD PUSH1 0x20 DUP1 DUP3 MSTORE DUP2 DUP4 ADD SWAP1 SWAP3 MSTORE SWAP2 SWAP3 POP PUSH1 0x0 SWAP2 SWAP1 PUSH1 0x20 DUP3 ADD DUP2 DUP1 CALLDATASIZE DUP4 CALLDATACOPY POP POP POP SWAP2 DUP3 MSTORE POP PUSH1 0x20 DUP2 ADD SWAP3 SWAP1 SWAP3 MSTORE POP SWAP1 JUMP JUMPDEST PUSH1 0x0 PUSH1 0xFF DUP3 AND PUSH1 0x1F DUP2 GT ISZERO PUSH2 0x393 JUMPI PUSH1 0x40 MLOAD PUSH4 0x2CD44AC3 PUSH1 0xE2 SHL DUP2 MSTORE PUSH1 0x4 ADD PUSH1 0x40 MLOAD DUP1 SWAP2 SUB SWAP1 REVERT JUMPDEST PUSH1 0x0 DUP2 MLOAD DUP1 DUP5 MSTORE PUSH1 0x0 JUMPDEST DUP2 DUP2 LT ISZERO PUSH2 0xE8C JUMPI PUSH1 0x20 DUP2 DUP6 ADD DUP2 ADD MLOAD DUP7 DUP4 ADD DUP3 ADD MSTORE ADD PUSH2 0xE70 JUMP JUMPDEST POP PUSH1 0x0 PUSH1 0x20 DUP3 DUP7 ADD ADD MSTORE PUSH1 0x20 PUSH1 0x1F NOT PUSH1 0x1F DUP4 ADD AND DUP6 ADD ADD SWAP2 POP POP SWAP3 SWAP2 POP POP JUMP JUMPDEST PUSH1 0x20 DUP2 MSTORE PUSH1 0x0 PUSH2 0xEBF PUSH1 0x20 DUP4 ADD DUP5 PUSH2 0xE66 JUMP JUMPDEST SWAP4 SWAP3 POP POP POP JUMP JUMPDEST DUP1 CALLDATALOAD PUSH1 0x1 PUSH1 0x1 PUSH1 0xA0 SHL SUB DUP2 AND DUP2 EQ PUSH2 0xEDD JUMPI PUSH1 0x0 DUP1 REVERT JUMPDEST SWAP2 SWAP1 POP JUMP JUMPDEST PUSH1 0x0 DUP1 PUSH1 0x40 DUP4 DUP6 SUB SLT ISZERO PUSH2 0xEF5 JUMPI PUSH1 0x0 DUP1 REVERT JUMPDEST PUSH2 0xEFE DUP4 PUSH2 0xEC6 JUMP JUMPDEST SWAP5 PUSH1 0x20 SWAP4 SWAP1 SWAP4 ADD CALLDATALOAD SWAP4 POP POP POP JUMP JUMPDEST PUSH1 0x0 DUP1 PUSH1 0x0 PUSH1 0x60 DUP5 DUP7 SUB SLT ISZERO PUSH2 0xF21 JUMPI PUSH1 0x0 DUP1 REVERT JUMPDEST PUSH2 0xF2A DUP5 PUSH2 0xEC6 JUMP JUMPDEST SWAP3 POP PUSH2 0xF38 PUSH1 0x20 DUP6 ADD PUSH2 0xEC6 JUMP JUMPDEST SWAP2 POP PUSH1 0x40 DUP5 ADD CALLDATALOAD SWAP1 POP SWAP3 POP SWAP3 POP SWAP3 JUMP JUMPDEST PUSH1 0x0 PUSH1 0x20 DUP3 DUP5 SUB SLT ISZERO PUSH2 0xF5A JUMPI PUSH1 0x0 DUP1 REVERT JUMPDEST POP CALLDATALOAD SWAP2 SWAP1 POP JUMP JUMPDEST PUSH1 0x0 PUSH1 0x20 DUP3 DUP5 SUB SLT ISZERO PUSH2 0xF73 JUMPI PUSH1 0x0 DUP1 REVERT JUMPDEST PUSH2 0xEBF DUP3 PUSH2 0xEC6 JUMP JUMPDEST PUSH1 0xFF PUSH1 0xF8 SHL DUP9 AND DUP2 MSTORE PUSH1 0x0 PUSH1 0x20 PUSH1 0xE0 PUSH1 0x20 DUP5 ADD MSTORE PUSH2 0xF9D PUSH1 0xE0 DUP5 ADD DUP11 PUSH2 0xE66 JUMP JUMPDEST DUP4 DUP2 SUB PUSH1 0x40 DUP6 ADD MSTORE PUSH2 0xFAF DUP2 DUP11 PUSH2 0xE66 JUMP JUMPDEST PUSH1 0x60 DUP6 ADD DUP10 SWAP1 MSTORE PUSH1 0x1 PUSH1 0x1 PUSH1 0xA0 SHL SUB DUP9 AND PUSH1 0x80 DUP7 ADD MSTORE PUSH1 0xA0 DUP6 ADD DUP8 SWAP1 MSTORE DUP5 DUP2 SUB PUSH1 0xC0 DUP7 ADD MSTORE DUP6 MLOAD DUP1 DUP3 MSTORE PUSH1 0x20 DUP1 DUP9 ADD SWAP4 POP SWAP1 SWAP2 ADD SWAP1 PUSH1 0x0 JUMPDEST DUP2 DUP2 LT ISZERO PUSH2 0x1003 JUMPI DUP4 MLOAD DUP4 MSTORE SWAP3 DUP5 ADD SWAP3 SWAP2 DUP5 ADD SWAP2 PUSH1 0x1 ADD PUSH2 0xFE7 JUMP JUMPDEST POP SWAP1 SWAP13 SWAP12 POP POP POP POP POP POP POP POP POP POP POP POP JUMP JUMPDEST PUSH1 0x0 DUP1 PUSH1 0x0 DUP1 PUSH1 0x0 DUP1 PUSH1 0x0 PUSH1 0xE0 DUP9 DUP11 SUB SLT ISZERO PUSH2 0x1030 JUMPI PUSH1 0x0 DUP1 REVERT JUMPDEST PUSH2 0x1039 DUP9 PUSH2 0xEC6 JUMP JUMPDEST SWAP7 POP PUSH2 0x1047 PUSH1 0x20 DUP10 ADD PUSH2 0xEC6 JUMP JUMPDEST SWAP6 POP PUSH1 0x40 DUP9 ADD CALLDATALOAD SWAP5 POP PUSH1 0x60 DUP9 ADD CALLDATALOAD SWAP4 POP PUSH1 0x80 DUP9 ADD CALLDATALOAD PUSH1 0xFF DUP2 AND DUP2 EQ PUSH2 0x106B JUMPI PUSH1 0x0 DUP1 REVERT JUMPDEST SWAP7 SWAP10 SWAP6 SWAP9 POP SWAP4 SWAP7 SWAP3 SWAP6 SWAP5 PUSH1 0xA0 DUP5 ADD CALLDATALOAD SWAP5 POP PUSH1 0xC0 SWAP1 SWAP4 ADD CALLDATALOAD SWAP3 SWAP2 POP POP JUMP JUMPDEST PUSH1 0x0 DUP1 PUSH1 0x40 DUP4 DUP6 SUB SLT ISZERO PUSH2 0x109B JUMPI PUSH1 0x0 DUP1 REVERT JUMPDEST PUSH2 0x10A4 DUP4 PUSH2 0xEC6 JUMP JUMPDEST SWAP2 POP PUSH2 0x10B2 PUSH1 0x20 DUP5 ADD PUSH2 0xEC6 JUMP JUMPDEST SWAP1 POP SWAP3 POP SWAP3 SWAP1 POP JUMP JUMPDEST PUSH1 0x1 DUP2 DUP2 SHR SWAP1 DUP3 AND DUP1 PUSH2 0x10CF JUMPI PUSH1 0x7F DUP3 AND SWAP2 POP JUMPDEST PUSH1 0x20 DUP3 LT DUP2 SUB PUSH2 0x10EF JUMPI PUSH4 0x4E487B71 PUSH1 0xE0 SHL PUSH1 0x0 MSTORE PUSH1 0x22 PUSH1 0x4 MSTORE PUSH1 0x24 PUSH1 0x0 REVERT JUMPDEST POP SWAP2 SWAP1 POP JUMP JUMPDEST DUP1 DUP3 ADD DUP1 DUP3 GT ISZERO PUSH2 0x393 JUMPI PUSH4 0x4E487B71 PUSH1 0xE0 SHL PUSH1 0x0 MSTORE PUSH1 0x11 PUSH1 0x4 MSTORE PUSH1 0x24 PUSH1 0x0 REVERT JUMPDEST PUSH4 0x4E487B71 PUSH1 0xE0 SHL PUSH1 0x0 MSTORE PUSH1 0x21 PUSH1 0x4 MSTORE PUSH1 0x24 PUSH1 0x0 REVERT INVALID LOG2 PUSH5 0x6970667358 0x22 SLT KECCAK256 0x2C 0xB0 PUSH22 0xB5410A4B065D899C536766F2D8D00DC64C2A8AEC317F SWAP15 CREATE2 0xB2 0xE7 PUSH17 0xD60864736F6C6343000818003300000000 "},"methodIdentifiers":{"ETH_USD_PAIR_PRICE_FEED_ADDRESS()":"10be13e4","METAPOOL_STAKING_AND_MPETH_TOKEN_ADDRESS()":"606d3c5d","assetsValue()":"427e1918","depositEthProxy()":"c744186f","getAndUpdateAssetsValueProxy()":"34f82783","getAssetsValueProxy()":"4cf8025d","getEthToStablecoin(uint256)":"7cfe33c0","getEthUsdPrice18Decimals()":"848c5510","getMpUsdStablecoinAddress()":"bd386f8a","mintMpUsdStablecoin()":"348f62c8","userMpethOnVault(address)":"7faa640e","userUsedMpethToMintStablecoin(address)":"cad4301c"}}}}}