{
  "_format": "hh-sol-artifact-1",
  "contractName": "astarUsd",
  "sourceName": "contracts/astar/astarUsd.sol",
  "abi": [
    {
      "inputs": [
        {
          "internalType": "address",
          "name": "initialOwner",
          "type": "address"
        }
      ],
      "stateMutability": "nonpayable",
      "type": "constructor"
    },
    {
      "inputs": [],
      "name": "ECDSAInvalidSignature",
      "type": "error"
    },
    {
      "inputs": [
        {
          "internalType": "uint256",
          "name": "length",
          "type": "uint256"
        }
      ],
      "name": "ECDSAInvalidSignatureLength",
      "type": "error"
    },
    {
      "inputs": [
        {
          "internalType": "bytes32",
          "name": "s",
          "type": "bytes32"
        }
      ],
      "name": "ECDSAInvalidSignatureS",
      "type": "error"
    },
    {
      "inputs": [
        {
          "internalType": "address",
          "name": "spender",
          "type": "address"
        },
        {
          "internalType": "uint256",
          "name": "allowance",
          "type": "uint256"
        },
        {
          "internalType": "uint256",
          "name": "needed",
          "type": "uint256"
        }
      ],
      "name": "ERC20InsufficientAllowance",
      "type": "error"
    },
    {
      "inputs": [
        {
          "internalType": "address",
          "name": "sender",
          "type": "address"
        },
        {
          "internalType": "uint256",
          "name": "balance",
          "type": "uint256"
        },
        {
          "internalType": "uint256",
          "name": "needed",
          "type": "uint256"
        }
      ],
      "name": "ERC20InsufficientBalance",
      "type": "error"
    },
    {
      "inputs": [
        {
          "internalType": "address",
          "name": "approver",
          "type": "address"
        }
      ],
      "name": "ERC20InvalidApprover",
      "type": "error"
    },
    {
      "inputs": [
        {
          "internalType": "address",
          "name": "receiver",
          "type": "address"
        }
      ],
      "name": "ERC20InvalidReceiver",
      "type": "error"
    },
    {
      "inputs": [
        {
          "internalType": "address",
          "name": "sender",
          "type": "address"
        }
      ],
      "name": "ERC20InvalidSender",
      "type": "error"
    },
    {
      "inputs": [
        {
          "internalType": "address",
          "name": "spender",
          "type": "address"
        }
      ],
      "name": "ERC20InvalidSpender",
      "type": "error"
    },
    {
      "inputs": [
        {
          "internalType": "uint256",
          "name": "deadline",
          "type": "uint256"
        }
      ],
      "name": "ERC2612ExpiredSignature",
      "type": "error"
    },
    {
      "inputs": [
        {
          "internalType": "address",
          "name": "signer",
          "type": "address"
        },
        {
          "internalType": "address",
          "name": "owner",
          "type": "address"
        }
      ],
      "name": "ERC2612InvalidSigner",
      "type": "error"
    },
    {
      "inputs": [
        {
          "internalType": "address",
          "name": "account",
          "type": "address"
        },
        {
          "internalType": "uint256",
          "name": "currentNonce",
          "type": "uint256"
        }
      ],
      "name": "InvalidAccountNonce",
      "type": "error"
    },
    {
      "inputs": [],
      "name": "InvalidShortString",
      "type": "error"
    },
    {
      "inputs": [
        {
          "internalType": "address",
          "name": "owner",
          "type": "address"
        }
      ],
      "name": "OwnableInvalidOwner",
      "type": "error"
    },
    {
      "inputs": [
        {
          "internalType": "address",
          "name": "account",
          "type": "address"
        }
      ],
      "name": "OwnableUnauthorizedAccount",
      "type": "error"
    },
    {
      "inputs": [
        {
          "internalType": "string",
          "name": "str",
          "type": "string"
        }
      ],
      "name": "StringTooLong",
      "type": "error"
    },
    {
      "anonymous": false,
      "inputs": [
        {
          "indexed": true,
          "internalType": "address",
          "name": "owner",
          "type": "address"
        },
        {
          "indexed": true,
          "internalType": "address",
          "name": "spender",
          "type": "address"
        },
        {
          "indexed": false,
          "internalType": "uint256",
          "name": "value",
          "type": "uint256"
        }
      ],
      "name": "Approval",
      "type": "event"
    },
    {
      "anonymous": false,
      "inputs": [],
      "name": "EIP712DomainChanged",
      "type": "event"
    },
    {
      "anonymous": false,
      "inputs": [
        {
          "indexed": true,
          "internalType": "address",
          "name": "previousOwner",
          "type": "address"
        },
        {
          "indexed": true,
          "internalType": "address",
          "name": "newOwner",
          "type": "address"
        }
      ],
      "name": "OwnershipTransferred",
      "type": "event"
    },
    {
      "anonymous": false,
      "inputs": [
        {
          "indexed": true,
          "internalType": "address",
          "name": "from",
          "type": "address"
        },
        {
          "indexed": true,
          "internalType": "address",
          "name": "to",
          "type": "address"
        },
        {
          "indexed": false,
          "internalType": "uint256",
          "name": "value",
          "type": "uint256"
        }
      ],
      "name": "Transfer",
      "type": "event"
    },
    {
      "inputs": [],
      "name": "DOMAIN_SEPARATOR",
      "outputs": [
        {
          "internalType": "bytes32",
          "name": "",
          "type": "bytes32"
        }
      ],
      "stateMutability": "view",
      "type": "function"
    },
    {
      "inputs": [
        {
          "internalType": "address",
          "name": "owner",
          "type": "address"
        },
        {
          "internalType": "address",
          "name": "spender",
          "type": "address"
        }
      ],
      "name": "allowance",
      "outputs": [
        {
          "internalType": "uint256",
          "name": "",
          "type": "uint256"
        }
      ],
      "stateMutability": "view",
      "type": "function"
    },
    {
      "inputs": [
        {
          "internalType": "address",
          "name": "spender",
          "type": "address"
        },
        {
          "internalType": "uint256",
          "name": "value",
          "type": "uint256"
        }
      ],
      "name": "approve",
      "outputs": [
        {
          "internalType": "bool",
          "name": "",
          "type": "bool"
        }
      ],
      "stateMutability": "nonpayable",
      "type": "function"
    },
    {
      "inputs": [
        {
          "internalType": "address",
          "name": "account",
          "type": "address"
        }
      ],
      "name": "balanceOf",
      "outputs": [
        {
          "internalType": "uint256",
          "name": "",
          "type": "uint256"
        }
      ],
      "stateMutability": "view",
      "type": "function"
    },
    {
      "inputs": [
        {
          "internalType": "uint256",
          "name": "value",
          "type": "uint256"
        }
      ],
      "name": "burn",
      "outputs": [],
      "stateMutability": "nonpayable",
      "type": "function"
    },
    {
      "inputs": [
        {
          "internalType": "address",
          "name": "account",
          "type": "address"
        },
        {
          "internalType": "uint256",
          "name": "value",
          "type": "uint256"
        }
      ],
      "name": "burnFrom",
      "outputs": [],
      "stateMutability": "nonpayable",
      "type": "function"
    },
    {
      "inputs": [],
      "name": "decimals",
      "outputs": [
        {
          "internalType": "uint8",
          "name": "",
          "type": "uint8"
        }
      ],
      "stateMutability": "view",
      "type": "function"
    },
    {
      "inputs": [],
      "name": "eip712Domain",
      "outputs": [
        {
          "internalType": "bytes1",
          "name": "fields",
          "type": "bytes1"
        },
        {
          "internalType": "string",
          "name": "name",
          "type": "string"
        },
        {
          "internalType": "string",
          "name": "version",
          "type": "string"
        },
        {
          "internalType": "uint256",
          "name": "chainId",
          "type": "uint256"
        },
        {
          "internalType": "address",
          "name": "verifyingContract",
          "type": "address"
        },
        {
          "internalType": "bytes32",
          "name": "salt",
          "type": "bytes32"
        },
        {
          "internalType": "uint256[]",
          "name": "extensions",
          "type": "uint256[]"
        }
      ],
      "stateMutability": "view",
      "type": "function"
    },
    {
      "inputs": [],
      "name": "getAddress",
      "outputs": [
        {
          "internalType": "address",
          "name": "",
          "type": "address"
        }
      ],
      "stateMutability": "view",
      "type": "function"
    },
    {
      "inputs": [
        {
          "internalType": "address",
          "name": "to",
          "type": "address"
        },
        {
          "internalType": "uint256",
          "name": "amount",
          "type": "uint256"
        }
      ],
      "name": "mint",
      "outputs": [],
      "stateMutability": "nonpayable",
      "type": "function"
    },
    {
      "inputs": [],
      "name": "name",
      "outputs": [
        {
          "internalType": "string",
          "name": "",
          "type": "string"
        }
      ],
      "stateMutability": "view",
      "type": "function"
    },
    {
      "inputs": [
        {
          "internalType": "address",
          "name": "owner",
          "type": "address"
        }
      ],
      "name": "nonces",
      "outputs": [
        {
          "internalType": "uint256",
          "name": "",
          "type": "uint256"
        }
      ],
      "stateMutability": "view",
      "type": "function"
    },
    {
      "inputs": [],
      "name": "owner",
      "outputs": [
        {
          "internalType": "address",
          "name": "",
          "type": "address"
        }
      ],
      "stateMutability": "view",
      "type": "function"
    },
    {
      "inputs": [
        {
          "internalType": "address",
          "name": "owner",
          "type": "address"
        },
        {
          "internalType": "address",
          "name": "spender",
          "type": "address"
        },
        {
          "internalType": "uint256",
          "name": "value",
          "type": "uint256"
        },
        {
          "internalType": "uint256",
          "name": "deadline",
          "type": "uint256"
        },
        {
          "internalType": "uint8",
          "name": "v",
          "type": "uint8"
        },
        {
          "internalType": "bytes32",
          "name": "r",
          "type": "bytes32"
        },
        {
          "internalType": "bytes32",
          "name": "s",
          "type": "bytes32"
        }
      ],
      "name": "permit",
      "outputs": [],
      "stateMutability": "nonpayable",
      "type": "function"
    },
    {
      "inputs": [],
      "name": "renounceOwnership",
      "outputs": [],
      "stateMutability": "nonpayable",
      "type": "function"
    },
    {
      "inputs": [],
      "name": "symbol",
      "outputs": [
        {
          "internalType": "string",
          "name": "",
          "type": "string"
        }
      ],
      "stateMutability": "view",
      "type": "function"
    },
    {
      "inputs": [],
      "name": "totalSupply",
      "outputs": [
        {
          "internalType": "uint256",
          "name": "",
          "type": "uint256"
        }
      ],
      "stateMutability": "view",
      "type": "function"
    },
    {
      "inputs": [
        {
          "internalType": "address",
          "name": "to",
          "type": "address"
        },
        {
          "internalType": "uint256",
          "name": "value",
          "type": "uint256"
        }
      ],
      "name": "transfer",
      "outputs": [
        {
          "internalType": "bool",
          "name": "",
          "type": "bool"
        }
      ],
      "stateMutability": "nonpayable",
      "type": "function"
    },
    {
      "inputs": [
        {
          "internalType": "address",
          "name": "from",
          "type": "address"
        },
        {
          "internalType": "address",
          "name": "to",
          "type": "address"
        },
        {
          "internalType": "uint256",
          "name": "value",
          "type": "uint256"
        }
      ],
      "name": "transferFrom",
      "outputs": [
        {
          "internalType": "bool",
          "name": "",
          "type": "bool"
        }
      ],
      "stateMutability": "nonpayable",
      "type": "function"
    },
    {
      "inputs": [
        {
          "internalType": "address",
          "name": "newOwner",
          "type": "address"
        }
      ],
      "name": "transferOwnership",
      "outputs": [],
      "stateMutability": "nonpayable",
      "type": "function"
    }
  ],
  "bytecode": "0x6101606040523480156200001257600080fd5b50604051620016773803806200167783398101604081905262000035916200029f565b60405180604001604052806008815260200167185cdd185c955cd960c21b81525080604051806040016040528060018152602001603160f81b8152508360405180604001604052806008815260200167185cdd185c955cd960c21b81525060405180604001604052806008815260200167185cdd185c955cd960c21b8152508160039081620000c5919062000378565b506004620000d4828262000378565b5050506001600160a01b0381166200010757604051631e4fbdf760e01b8152600060048201526024015b60405180910390fd5b6200011281620001d1565b506200012082600662000223565b610120526200013181600762000223565b61014052815160208084019190912060e052815190820120610100524660a052620001bf60e05161010051604080517f8b73c3c69bb8fe3d512ecc4cf759cc79239f7b179b0ffacaa9a75d522b39400f60208201529081019290925260608201524660808201523060a082015260009060c00160405160208183030381529060405280519060200120905090565b60805250503060c05250620004ba9050565b600580546001600160a01b038381166001600160a01b0319831681179093556040519116919082907f8be0079c531659141344cd1fd0a4f28419497f9722a3daafe3b4186f6b6457e090600090a35050565b600060208351101562000243576200023b836200025c565b905062000256565b8162000250848262000378565b5060ff90505b92915050565b600080829050601f815111156200028a578260405163305a27a960e01b8152600401620000fe919062000444565b8051620002978262000495565b179392505050565b600060208284031215620002b257600080fd5b81516001600160a01b0381168114620002ca57600080fd5b9392505050565b634e487b7160e01b600052604160045260246000fd5b600181811c90821680620002fc57607f821691505b6020821081036200031d57634e487b7160e01b600052602260045260246000fd5b50919050565b601f82111562000373576000816000526020600020601f850160051c810160208610156200034e5750805b601f850160051c820191505b818110156200036f578281556001016200035a565b5050505b505050565b81516001600160401b03811115620003945762000394620002d1565b620003ac81620003a58454620002e7565b8462000323565b602080601f831160018114620003e45760008415620003cb5750858301515b600019600386901b1c1916600185901b1785556200036f565b600085815260208120601f198616915b828110156200041557888601518255948401946001909101908401620003f4565b5085821015620004345787850151600019600388901b60f8161c191681555b5050505050600190811b01905550565b60006020808352835180602085015260005b81811015620004745785810183015185820160400152820162000456565b506000604082860101526040601f19601f8301168501019250505092915050565b805160208083015191908110156200031d5760001960209190910360031b1b16919050565b60805160a05160c05160e05161010051610120516101405161116262000515600039600061094c0152600061091f015260006107dc015260006107b40152600061070f015260006107390152600061076301526111626000f3fe608060405234801561001057600080fd5b506004361061012c5760003560e01c8063715018a6116100ad57806395d89b411161007157806395d89b4114610273578063a9059cbb1461027b578063d505accf1461028e578063dd62ed3e146102a1578063f2fde38b146102da57600080fd5b8063715018a61461021957806379cc6790146102215780637ecebe001461023457806384b0196e146102475780638da5cb5b1461026257600080fd5b80633644e515116100f45780633644e515146101a657806338cc4831146101ae57806340c10f19146101c857806342966c68146101dd57806370a08231146101f057600080fd5b806306fdde0314610131578063095ea7b31461014f57806318160ddd1461017257806323b872dd14610184578063313ce56714610197575b600080fd5b6101396102ed565b6040516101469190610eac565b60405180910390f35b61016261015d366004610ee2565b61037f565b6040519015158152602001610146565b6002545b604051908152602001610146565b610162610192366004610f0c565b610399565b60405160128152602001610146565b6101766103bd565b305b6040516001600160a01b039091168152602001610146565b6101db6101d6366004610ee2565b6103cc565b005b6101db6101eb366004610f48565b6103e2565b6101766101fe366004610f61565b6001600160a01b031660009081526020819052604090205490565b6101db6103ef565b6101db61022f366004610ee2565b610403565b610176610242366004610f61565b610418565b61024f610436565b6040516101469796959493929190610f7c565b6005546001600160a01b03166101b0565b61013961047c565b610162610289366004610ee2565b61048b565b6101db61029c366004611015565b610499565b6101766102af366004611088565b6001600160a01b03918216600090815260016020908152604080832093909416825291909152205490565b6101db6102e8366004610f61565b6105d8565b6060600380546102fc906110bb565b80601f0160208091040260200160405190810160405280929190818152602001828054610328906110bb565b80156103755780601f1061034a57610100808354040283529160200191610375565b820191906000526020600020905b81548152906001019060200180831161035857829003601f168201915b5050505050905090565b60003361038d818585610613565b60019150505b92915050565b6000336103a7858285610625565b6103b28585856106a3565b506001949350505050565b60006103c7610702565b905090565b6103d461082d565b6103de828261085a565b5050565b6103ec3382610890565b50565b6103f761082d565b61040160006108c6565b565b61040e823383610625565b6103de8282610890565b6001600160a01b038116600090815260086020526040812054610393565b60006060806000806000606061044a610918565b610452610945565b60408051600080825260208201909252600f60f81b9b939a50919850469750309650945092509050565b6060600480546102fc906110bb565b60003361038d8185856106a3565b834211156104c25760405163313c898160e11b8152600481018590526024015b60405180910390fd5b60007f6e71edae12b1b97f4d1f60370fef10105fa2faae0126114a169c64845d6126c988888861050f8c6001600160a01b0316600090815260086020526040902080546001810190915590565b6040805160208101969096526001600160a01b0394851690860152929091166060840152608083015260a082015260c0810186905260e001604051602081830303815290604052805190602001209050600061056a82610972565b9050600061057a8287878761099f565b9050896001600160a01b0316816001600160a01b0316146105c1576040516325c0072360e11b81526001600160a01b0380831660048301528b1660248201526044016104b9565b6105cc8a8a8a610613565b50505050505050505050565b6105e061082d565b6001600160a01b03811661060a57604051631e4fbdf760e01b8152600060048201526024016104b9565b6103ec816108c6565b61062083838360016109cd565b505050565b6001600160a01b03838116600090815260016020908152604080832093861683529290522054600019811461069d578181101561068e57604051637dc7a0d960e11b81526001600160a01b038416600482015260248101829052604481018390526064016104b9565b61069d848484840360006109cd565b50505050565b6001600160a01b0383166106cd57604051634b637e8f60e11b8152600060048201526024016104b9565b6001600160a01b0382166106f75760405163ec442f0560e01b8152600060048201526024016104b9565b610620838383610aa2565b6000306001600160a01b037f00000000000000000000000000000000000000000000000000000000000000001614801561075b57507f000000000000000000000000000000000000000000000000000000000000000046145b1561078557507f000000000000000000000000000000000000000000000000000000000000000090565b6103c7604080517f8b73c3c69bb8fe3d512ecc4cf759cc79239f7b179b0ffacaa9a75d522b39400f60208201527f0000000000000000000000000000000000000000000000000000000000000000918101919091527f000000000000000000000000000000000000000000000000000000000000000060608201524660808201523060a082015260009060c00160405160208183030381529060405280519060200120905090565b6005546001600160a01b031633146104015760405163118cdaa760e01b81523360048201526024016104b9565b6001600160a01b0382166108845760405163ec442f0560e01b8152600060048201526024016104b9565b6103de60008383610aa2565b6001600160a01b0382166108ba57604051634b637e8f60e11b8152600060048201526024016104b9565b6103de82600083610aa2565b600580546001600160a01b038381166001600160a01b0319831681179093556040519116919082907f8be0079c531659141344cd1fd0a4f28419497f9722a3daafe3b4186f6b6457e090600090a35050565b60606103c77f00000000000000000000000000000000000000000000000000000000000000006006610bcc565b60606103c77f00000000000000000000000000000000000000000000000000000000000000006007610bcc565b600061039361097f610702565b8360405161190160f01b8152600281019290925260228201526042902090565b6000806000806109b188888888610c77565b9250925092506109c18282610d46565b50909695505050505050565b6001600160a01b0384166109f75760405163e602df0560e01b8152600060048201526024016104b9565b6001600160a01b038316610a2157604051634a1406b160e11b8152600060048201526024016104b9565b6001600160a01b038085166000908152600160209081526040808320938716835292905220829055801561069d57826001600160a01b0316846001600160a01b03167f8c5be1e5ebec7d5bd14f71427d1e84f3dd0314c0f7b2291e5b200ac8c7c3b92584604051610a9491815260200190565b60405180910390a350505050565b6001600160a01b038316610acd578060026000828254610ac291906110f5565b90915550610b3f9050565b6001600160a01b03831660009081526020819052604090205481811015610b205760405163391434e360e21b81526001600160a01b038516600482015260248101829052604481018390526064016104b9565b6001600160a01b03841660009081526020819052604090209082900390555b6001600160a01b038216610b5b57600280548290039055610b7a565b6001600160a01b03821660009081526020819052604090208054820190555b816001600160a01b0316836001600160a01b03167fddf252ad1be2c89b69c2b068fc378daa952ba7f163c4a11628f55a4df523b3ef83604051610bbf91815260200190565b60405180910390a3505050565b606060ff8314610be657610bdf83610dff565b9050610393565b818054610bf2906110bb565b80601f0160208091040260200160405190810160405280929190818152602001828054610c1e906110bb565b8015610c6b5780601f10610c4057610100808354040283529160200191610c6b565b820191906000526020600020905b815481529060010190602001808311610c4e57829003601f168201915b50505050509050610393565b600080807f7fffffffffffffffffffffffffffffff5d576e7357a4501ddfe92f46681b20a0841115610cb25750600091506003905082610d3c565b604080516000808252602082018084528a905260ff891692820192909252606081018790526080810186905260019060a0016020604051602081039080840390855afa158015610d06573d6000803e3d6000fd5b5050604051601f1901519150506001600160a01b038116610d3257506000925060019150829050610d3c565b9250600091508190505b9450945094915050565b6000826003811115610d5a57610d5a611116565b03610d63575050565b6001826003811115610d7757610d77611116565b03610d955760405163f645eedf60e01b815260040160405180910390fd5b6002826003811115610da957610da9611116565b03610dca5760405163fce698f760e01b8152600481018290526024016104b9565b6003826003811115610dde57610dde611116565b036103de576040516335e2f38360e21b8152600481018290526024016104b9565b60606000610e0c83610e3e565b604080516020808252818301909252919250600091906020820181803683375050509182525060208101929092525090565b600060ff8216601f81111561039357604051632cd44ac360e21b815260040160405180910390fd5b6000815180845260005b81811015610e8c57602081850181015186830182015201610e70565b506000602082860101526020601f19601f83011685010191505092915050565b602081526000610ebf6020830184610e66565b9392505050565b80356001600160a01b0381168114610edd57600080fd5b919050565b60008060408385031215610ef557600080fd5b610efe83610ec6565b946020939093013593505050565b600080600060608486031215610f2157600080fd5b610f2a84610ec6565b9250610f3860208501610ec6565b9150604084013590509250925092565b600060208284031215610f5a57600080fd5b5035919050565b600060208284031215610f7357600080fd5b610ebf82610ec6565b60ff60f81b881681526000602060e06020840152610f9d60e084018a610e66565b8381036040850152610faf818a610e66565b606085018990526001600160a01b038816608086015260a0850187905284810360c08601528551808252602080880193509091019060005b8181101561100357835183529284019291840191600101610fe7565b50909c9b505050505050505050505050565b600080600080600080600060e0888a03121561103057600080fd5b61103988610ec6565b965061104760208901610ec6565b95506040880135945060608801359350608088013560ff8116811461106b57600080fd5b9699959850939692959460a0840135945060c09093013592915050565b6000806040838503121561109b57600080fd5b6110a483610ec6565b91506110b260208401610ec6565b90509250929050565b600181811c908216806110cf57607f821691505b6020821081036110ef57634e487b7160e01b600052602260045260246000fd5b50919050565b8082018082111561039357634e487b7160e01b600052601160045260246000fd5b634e487b7160e01b600052602160045260246000fdfea2646970667358221220019b3aa405825db42676f0eb738267b8b8f8dd8c3aa614da60985d08e00d19d064736f6c63430008180033",
  "linkReferences": {},
  "deployedLinkReferences": {}
}