{
  "_format": "hh-sol-artifact-1",
  "contractName": "astarUsd",
  "sourceName": "contracts/astar/astarUsd.sol",
  "abi": [
    {
      "inputs": [
        {
          "internalType": "address",
          "name": "initialOwner",
          "type": "address"
        }
      ],
      "stateMutability": "nonpayable",
      "type": "constructor"
    },
    {
      "inputs": [],
      "name": "ECDSAInvalidSignature",
      "type": "error"
    },
    {
      "inputs": [
        {
          "internalType": "uint256",
          "name": "length",
          "type": "uint256"
        }
      ],
      "name": "ECDSAInvalidSignatureLength",
      "type": "error"
    },
    {
      "inputs": [
        {
          "internalType": "bytes32",
          "name": "s",
          "type": "bytes32"
        }
      ],
      "name": "ECDSAInvalidSignatureS",
      "type": "error"
    },
    {
      "inputs": [
        {
          "internalType": "address",
          "name": "spender",
          "type": "address"
        },
        {
          "internalType": "uint256",
          "name": "allowance",
          "type": "uint256"
        },
        {
          "internalType": "uint256",
          "name": "needed",
          "type": "uint256"
        }
      ],
      "name": "ERC20InsufficientAllowance",
      "type": "error"
    },
    {
      "inputs": [
        {
          "internalType": "address",
          "name": "sender",
          "type": "address"
        },
        {
          "internalType": "uint256",
          "name": "balance",
          "type": "uint256"
        },
        {
          "internalType": "uint256",
          "name": "needed",
          "type": "uint256"
        }
      ],
      "name": "ERC20InsufficientBalance",
      "type": "error"
    },
    {
      "inputs": [
        {
          "internalType": "address",
          "name": "approver",
          "type": "address"
        }
      ],
      "name": "ERC20InvalidApprover",
      "type": "error"
    },
    {
      "inputs": [
        {
          "internalType": "address",
          "name": "receiver",
          "type": "address"
        }
      ],
      "name": "ERC20InvalidReceiver",
      "type": "error"
    },
    {
      "inputs": [
        {
          "internalType": "address",
          "name": "sender",
          "type": "address"
        }
      ],
      "name": "ERC20InvalidSender",
      "type": "error"
    },
    {
      "inputs": [
        {
          "internalType": "address",
          "name": "spender",
          "type": "address"
        }
      ],
      "name": "ERC20InvalidSpender",
      "type": "error"
    },
    {
      "inputs": [
        {
          "internalType": "uint256",
          "name": "deadline",
          "type": "uint256"
        }
      ],
      "name": "ERC2612ExpiredSignature",
      "type": "error"
    },
    {
      "inputs": [
        {
          "internalType": "address",
          "name": "signer",
          "type": "address"
        },
        {
          "internalType": "address",
          "name": "owner",
          "type": "address"
        }
      ],
      "name": "ERC2612InvalidSigner",
      "type": "error"
    },
    {
      "inputs": [
        {
          "internalType": "address",
          "name": "account",
          "type": "address"
        },
        {
          "internalType": "uint256",
          "name": "currentNonce",
          "type": "uint256"
        }
      ],
      "name": "InvalidAccountNonce",
      "type": "error"
    },
    {
      "inputs": [],
      "name": "InvalidShortString",
      "type": "error"
    },
    {
      "inputs": [
        {
          "internalType": "address",
          "name": "owner",
          "type": "address"
        }
      ],
      "name": "OwnableInvalidOwner",
      "type": "error"
    },
    {
      "inputs": [
        {
          "internalType": "address",
          "name": "account",
          "type": "address"
        }
      ],
      "name": "OwnableUnauthorizedAccount",
      "type": "error"
    },
    {
      "inputs": [
        {
          "internalType": "string",
          "name": "str",
          "type": "string"
        }
      ],
      "name": "StringTooLong",
      "type": "error"
    },
    {
      "anonymous": false,
      "inputs": [
        {
          "indexed": true,
          "internalType": "address",
          "name": "owner",
          "type": "address"
        },
        {
          "indexed": true,
          "internalType": "address",
          "name": "spender",
          "type": "address"
        },
        {
          "indexed": false,
          "internalType": "uint256",
          "name": "value",
          "type": "uint256"
        }
      ],
      "name": "Approval",
      "type": "event"
    },
    {
      "anonymous": false,
      "inputs": [],
      "name": "EIP712DomainChanged",
      "type": "event"
    },
    {
      "anonymous": false,
      "inputs": [
        {
          "indexed": true,
          "internalType": "address",
          "name": "previousOwner",
          "type": "address"
        },
        {
          "indexed": true,
          "internalType": "address",
          "name": "newOwner",
          "type": "address"
        }
      ],
      "name": "OwnershipTransferred",
      "type": "event"
    },
    {
      "anonymous": false,
      "inputs": [
        {
          "indexed": true,
          "internalType": "address",
          "name": "from",
          "type": "address"
        },
        {
          "indexed": true,
          "internalType": "address",
          "name": "to",
          "type": "address"
        },
        {
          "indexed": false,
          "internalType": "uint256",
          "name": "value",
          "type": "uint256"
        }
      ],
      "name": "Transfer",
      "type": "event"
    },
    {
      "inputs": [],
      "name": "DOMAIN_SEPARATOR",
      "outputs": [
        {
          "internalType": "bytes32",
          "name": "",
          "type": "bytes32"
        }
      ],
      "stateMutability": "view",
      "type": "function"
    },
    {
      "inputs": [
        {
          "internalType": "address",
          "name": "account",
          "type": "address"
        },
        {
          "internalType": "uint256",
          "name": "value",
          "type": "uint256"
        }
      ],
      "name": "adminBurn",
      "outputs": [],
      "stateMutability": "nonpayable",
      "type": "function"
    },
    {
      "inputs": [
        {
          "internalType": "address",
          "name": "owner",
          "type": "address"
        },
        {
          "internalType": "address",
          "name": "spender",
          "type": "address"
        }
      ],
      "name": "allowance",
      "outputs": [
        {
          "internalType": "uint256",
          "name": "",
          "type": "uint256"
        }
      ],
      "stateMutability": "view",
      "type": "function"
    },
    {
      "inputs": [
        {
          "internalType": "address",
          "name": "spender",
          "type": "address"
        },
        {
          "internalType": "uint256",
          "name": "value",
          "type": "uint256"
        }
      ],
      "name": "approve",
      "outputs": [
        {
          "internalType": "bool",
          "name": "",
          "type": "bool"
        }
      ],
      "stateMutability": "nonpayable",
      "type": "function"
    },
    {
      "inputs": [
        {
          "internalType": "address",
          "name": "account",
          "type": "address"
        }
      ],
      "name": "balanceOf",
      "outputs": [
        {
          "internalType": "uint256",
          "name": "",
          "type": "uint256"
        }
      ],
      "stateMutability": "view",
      "type": "function"
    },
    {
      "inputs": [
        {
          "internalType": "uint256",
          "name": "value",
          "type": "uint256"
        }
      ],
      "name": "burn",
      "outputs": [],
      "stateMutability": "nonpayable",
      "type": "function"
    },
    {
      "inputs": [
        {
          "internalType": "address",
          "name": "account",
          "type": "address"
        },
        {
          "internalType": "uint256",
          "name": "value",
          "type": "uint256"
        }
      ],
      "name": "burnFrom",
      "outputs": [],
      "stateMutability": "nonpayable",
      "type": "function"
    },
    {
      "inputs": [],
      "name": "decimals",
      "outputs": [
        {
          "internalType": "uint8",
          "name": "",
          "type": "uint8"
        }
      ],
      "stateMutability": "view",
      "type": "function"
    },
    {
      "inputs": [],
      "name": "eip712Domain",
      "outputs": [
        {
          "internalType": "bytes1",
          "name": "fields",
          "type": "bytes1"
        },
        {
          "internalType": "string",
          "name": "name",
          "type": "string"
        },
        {
          "internalType": "string",
          "name": "version",
          "type": "string"
        },
        {
          "internalType": "uint256",
          "name": "chainId",
          "type": "uint256"
        },
        {
          "internalType": "address",
          "name": "verifyingContract",
          "type": "address"
        },
        {
          "internalType": "bytes32",
          "name": "salt",
          "type": "bytes32"
        },
        {
          "internalType": "uint256[]",
          "name": "extensions",
          "type": "uint256[]"
        }
      ],
      "stateMutability": "view",
      "type": "function"
    },
    {
      "inputs": [],
      "name": "getAddress",
      "outputs": [
        {
          "internalType": "address",
          "name": "",
          "type": "address"
        }
      ],
      "stateMutability": "view",
      "type": "function"
    },
    {
      "inputs": [
        {
          "internalType": "address",
          "name": "to",
          "type": "address"
        },
        {
          "internalType": "uint256",
          "name": "amount",
          "type": "uint256"
        }
      ],
      "name": "mint",
      "outputs": [],
      "stateMutability": "nonpayable",
      "type": "function"
    },
    {
      "inputs": [],
      "name": "name",
      "outputs": [
        {
          "internalType": "string",
          "name": "",
          "type": "string"
        }
      ],
      "stateMutability": "view",
      "type": "function"
    },
    {
      "inputs": [
        {
          "internalType": "address",
          "name": "owner",
          "type": "address"
        }
      ],
      "name": "nonces",
      "outputs": [
        {
          "internalType": "uint256",
          "name": "",
          "type": "uint256"
        }
      ],
      "stateMutability": "view",
      "type": "function"
    },
    {
      "inputs": [],
      "name": "owner",
      "outputs": [
        {
          "internalType": "address",
          "name": "",
          "type": "address"
        }
      ],
      "stateMutability": "view",
      "type": "function"
    },
    {
      "inputs": [
        {
          "internalType": "address",
          "name": "owner",
          "type": "address"
        },
        {
          "internalType": "address",
          "name": "spender",
          "type": "address"
        },
        {
          "internalType": "uint256",
          "name": "value",
          "type": "uint256"
        },
        {
          "internalType": "uint256",
          "name": "deadline",
          "type": "uint256"
        },
        {
          "internalType": "uint8",
          "name": "v",
          "type": "uint8"
        },
        {
          "internalType": "bytes32",
          "name": "r",
          "type": "bytes32"
        },
        {
          "internalType": "bytes32",
          "name": "s",
          "type": "bytes32"
        }
      ],
      "name": "permit",
      "outputs": [],
      "stateMutability": "nonpayable",
      "type": "function"
    },
    {
      "inputs": [],
      "name": "renounceOwnership",
      "outputs": [],
      "stateMutability": "nonpayable",
      "type": "function"
    },
    {
      "inputs": [],
      "name": "symbol",
      "outputs": [
        {
          "internalType": "string",
          "name": "",
          "type": "string"
        }
      ],
      "stateMutability": "view",
      "type": "function"
    },
    {
      "inputs": [],
      "name": "totalSupply",
      "outputs": [
        {
          "internalType": "uint256",
          "name": "",
          "type": "uint256"
        }
      ],
      "stateMutability": "view",
      "type": "function"
    },
    {
      "inputs": [
        {
          "internalType": "address",
          "name": "to",
          "type": "address"
        },
        {
          "internalType": "uint256",
          "name": "value",
          "type": "uint256"
        }
      ],
      "name": "transfer",
      "outputs": [
        {
          "internalType": "bool",
          "name": "",
          "type": "bool"
        }
      ],
      "stateMutability": "nonpayable",
      "type": "function"
    },
    {
      "inputs": [
        {
          "internalType": "address",
          "name": "from",
          "type": "address"
        },
        {
          "internalType": "address",
          "name": "to",
          "type": "address"
        },
        {
          "internalType": "uint256",
          "name": "value",
          "type": "uint256"
        }
      ],
      "name": "transferFrom",
      "outputs": [
        {
          "internalType": "bool",
          "name": "",
          "type": "bool"
        }
      ],
      "stateMutability": "nonpayable",
      "type": "function"
    },
    {
      "inputs": [
        {
          "internalType": "address",
          "name": "newOwner",
          "type": "address"
        }
      ],
      "name": "transferOwnership",
      "outputs": [],
      "stateMutability": "nonpayable",
      "type": "function"
    }
  ],
  "bytecode": "0x6101606040523480156200001257600080fd5b50604051620016ee380380620016ee8339810160408190526200003591620002b1565b60405180604001604052806008815260200167185cdd185c955cd960c21b81525080604051806040016040528060018152602001603160f81b8152508360405180604001604052806008815260200167185cdd185c955cd960c21b81525060405180604001604052806008815260200167185cdd185c955cd960c21b8152508160039081620000c591906200038a565b506004620000d482826200038a565b5050600580546001600160a01b03191633179055506001600160a01b0381166200011957604051631e4fbdf760e01b8152600060048201526024015b60405180910390fd5b6200012481620001e3565b506200013282600762000235565b610120526200014381600862000235565b61014052815160208084019190912060e052815190820120610100524660a052620001d160e05161010051604080517f8b73c3c69bb8fe3d512ecc4cf759cc79239f7b179b0ffacaa9a75d522b39400f60208201529081019290925260608201524660808201523060a082015260009060c00160405160208183030381529060405280519060200120905090565b60805250503060c05250620004cc9050565b600680546001600160a01b038381166001600160a01b0319831681179093556040519116919082907f8be0079c531659141344cd1fd0a4f28419497f9722a3daafe3b4186f6b6457e090600090a35050565b600060208351101562000255576200024d836200026e565b905062000268565b816200026284826200038a565b5060ff90505b92915050565b600080829050601f815111156200029c578260405163305a27a960e01b815260040162000110919062000456565b8051620002a982620004a7565b179392505050565b600060208284031215620002c457600080fd5b81516001600160a01b0381168114620002dc57600080fd5b9392505050565b634e487b7160e01b600052604160045260246000fd5b600181811c908216806200030e57607f821691505b6020821081036200032f57634e487b7160e01b600052602260045260246000fd5b50919050565b601f82111562000385576000816000526020600020601f850160051c81016020861015620003605750805b601f850160051c820191505b8181101562000381578281556001016200036c565b5050505b505050565b81516001600160401b03811115620003a657620003a6620002e3565b620003be81620003b78454620002f9565b8462000335565b602080601f831160018114620003f65760008415620003dd5750858301515b600019600386901b1c1916600185901b17855562000381565b600085815260208120601f198616915b82811015620004275788860151825594840194600190910190840162000406565b5085821015620004465787850151600019600388901b60f8161c191681555b5050505050600190811b01905550565b60006020808352835180602085015260005b81811015620004865785810183015185820160400152820162000468565b506000604082860101526040601f19601f8301168501019250505092915050565b805160208083015191908110156200032f5760001960209190910360031b1b16919050565b60805160a05160c05160e0516101005161012051610140516111c76200052760003960006109b101526000610984015260006108770152600061084f015260006107aa015260006107d4015260006107fe01526111c76000f3fe608060405234801561001057600080fd5b50600436106101375760003560e01c806370a08231116100b85780638da5cb5b1161007c5780638da5cb5b1461028057806395d89b4114610291578063a9059cbb14610299578063d505accf146102ac578063dd62ed3e146102bf578063f2fde38b146102f857600080fd5b806370a082311461020e578063715018a61461023757806379cc67901461023f5780637ecebe001461025257806384b0196e1461026557600080fd5b8063313ce567116100ff578063313ce567146101b75780633644e515146101c657806338cc4831146101ce57806340c10f19146101e857806342966c68146101fb57600080fd5b806306dd04191461013c57806306fdde0314610151578063095ea7b31461016f57806318160ddd1461019257806323b872dd146101a4575b600080fd5b61014f61014a366004610ee7565b61030b565b005b610159610365565b6040516101669190610f57565b60405180910390f35b61018261017d366004610ee7565b6103f7565b6040519015158152602001610166565b6002545b604051908152602001610166565b6101826101b2366004610f71565b610411565b60405160128152602001610166565b610196610435565b305b6040516001600160a01b039091168152602001610166565b61014f6101f6366004610ee7565b610444565b61014f610209366004610fad565b610456565b61019661021c366004610fc6565b6001600160a01b031660009081526020819052604090205490565b61014f610463565b61014f61024d366004610ee7565b610477565b610196610260366004610fc6565b610482565b61026d6104a0565b6040516101669796959493929190610fe1565b6006546001600160a01b03166101d0565b6101596104e6565b6101826102a7366004610ee7565b6104f5565b61014f6102ba36600461107a565b610503565b6101966102cd3660046110ed565b6001600160a01b03918216600090815260016020908152604080832093909416825291909152205490565b61014f610306366004610fc6565b61063d565b6005546001600160a01b031633146103575760405162461bcd60e51b815260206004820152600a6024820152692737ba1037bbb732b91760b11b60448201526064015b60405180910390fd5b6103618282610678565b5050565b60606003805461037490611120565b80601f01602080910402602001604051908101604052809291908181526020018280546103a090611120565b80156103ed5780601f106103c2576101008083540402835291602001916103ed565b820191906000526020600020905b8154815290600101906020018083116103d057829003601f168201915b5050505050905090565b6000336104058185856106ae565b60019150505b92915050565b60003361041f8582856106c0565b61042a85858561073e565b506001949350505050565b600061043f61079d565b905090565b61044c6108c8565b61036182826108f5565b6104603382610678565b50565b61046b6108c8565b610475600061092b565b565b6103578233836106c0565b6001600160a01b03811660009081526009602052604081205461040b565b6000606080600080600060606104b461097d565b6104bc6109aa565b60408051600080825260208201909252600f60f81b9b939a50919850469750309650945092509050565b60606004805461037490611120565b60003361040581858561073e565b834211156105275760405163313c898160e11b81526004810185905260240161034e565b60007f6e71edae12b1b97f4d1f60370fef10105fa2faae0126114a169c64845d6126c98888886105748c6001600160a01b0316600090815260096020526040902080546001810190915590565b6040805160208101969096526001600160a01b0394851690860152929091166060840152608083015260a082015260c0810186905260e00160405160208183030381529060405280519060200120905060006105cf826109d7565b905060006105df82878787610a04565b9050896001600160a01b0316816001600160a01b031614610626576040516325c0072360e11b81526001600160a01b0380831660048301528b16602482015260440161034e565b6106318a8a8a6106ae565b50505050505050505050565b6106456108c8565b6001600160a01b03811661066f57604051631e4fbdf760e01b81526000600482015260240161034e565b6104608161092b565b6001600160a01b0382166106a257604051634b637e8f60e11b81526000600482015260240161034e565b61036182600083610a32565b6106bb8383836001610b5c565b505050565b6001600160a01b038381166000908152600160209081526040808320938616835292905220546000198114610738578181101561072957604051637dc7a0d960e11b81526001600160a01b0384166004820152602481018290526044810183905260640161034e565b61073884848484036000610b5c565b50505050565b6001600160a01b03831661076857604051634b637e8f60e11b81526000600482015260240161034e565b6001600160a01b0382166107925760405163ec442f0560e01b81526000600482015260240161034e565b6106bb838383610a32565b6000306001600160a01b037f0000000000000000000000000000000000000000000000000000000000000000161480156107f657507f000000000000000000000000000000000000000000000000000000000000000046145b1561082057507f000000000000000000000000000000000000000000000000000000000000000090565b61043f604080517f8b73c3c69bb8fe3d512ecc4cf759cc79239f7b179b0ffacaa9a75d522b39400f60208201527f0000000000000000000000000000000000000000000000000000000000000000918101919091527f000000000000000000000000000000000000000000000000000000000000000060608201524660808201523060a082015260009060c00160405160208183030381529060405280519060200120905090565b6006546001600160a01b031633146104755760405163118cdaa760e01b815233600482015260240161034e565b6001600160a01b03821661091f5760405163ec442f0560e01b81526000600482015260240161034e565b61036160008383610a32565b600680546001600160a01b038381166001600160a01b0319831681179093556040519116919082907f8be0079c531659141344cd1fd0a4f28419497f9722a3daafe3b4186f6b6457e090600090a35050565b606061043f7f00000000000000000000000000000000000000000000000000000000000000006007610c31565b606061043f7f00000000000000000000000000000000000000000000000000000000000000006008610c31565b600061040b6109e461079d565b8360405161190160f01b8152600281019290925260228201526042902090565b600080600080610a1688888888610cdc565b925092509250610a268282610dab565b50909695505050505050565b6001600160a01b038316610a5d578060026000828254610a52919061115a565b90915550610acf9050565b6001600160a01b03831660009081526020819052604090205481811015610ab05760405163391434e360e21b81526001600160a01b0385166004820152602481018290526044810183905260640161034e565b6001600160a01b03841660009081526020819052604090209082900390555b6001600160a01b038216610aeb57600280548290039055610b0a565b6001600160a01b03821660009081526020819052604090208054820190555b816001600160a01b0316836001600160a01b03167fddf252ad1be2c89b69c2b068fc378daa952ba7f163c4a11628f55a4df523b3ef83604051610b4f91815260200190565b60405180910390a3505050565b6001600160a01b038416610b865760405163e602df0560e01b81526000600482015260240161034e565b6001600160a01b038316610bb057604051634a1406b160e11b81526000600482015260240161034e565b6001600160a01b038085166000908152600160209081526040808320938716835292905220829055801561073857826001600160a01b0316846001600160a01b03167f8c5be1e5ebec7d5bd14f71427d1e84f3dd0314c0f7b2291e5b200ac8c7c3b92584604051610c2391815260200190565b60405180910390a350505050565b606060ff8314610c4b57610c4483610e64565b905061040b565b818054610c5790611120565b80601f0160208091040260200160405190810160405280929190818152602001828054610c8390611120565b8015610cd05780601f10610ca557610100808354040283529160200191610cd0565b820191906000526020600020905b815481529060010190602001808311610cb357829003601f168201915b5050505050905061040b565b600080807f7fffffffffffffffffffffffffffffff5d576e7357a4501ddfe92f46681b20a0841115610d175750600091506003905082610da1565b604080516000808252602082018084528a905260ff891692820192909252606081018790526080810186905260019060a0016020604051602081039080840390855afa158015610d6b573d6000803e3d6000fd5b5050604051601f1901519150506001600160a01b038116610d9757506000925060019150829050610da1565b9250600091508190505b9450945094915050565b6000826003811115610dbf57610dbf61117b565b03610dc8575050565b6001826003811115610ddc57610ddc61117b565b03610dfa5760405163f645eedf60e01b815260040160405180910390fd5b6002826003811115610e0e57610e0e61117b565b03610e2f5760405163fce698f760e01b81526004810182905260240161034e565b6003826003811115610e4357610e4361117b565b03610361576040516335e2f38360e21b81526004810182905260240161034e565b60606000610e7183610ea3565b604080516020808252818301909252919250600091906020820181803683375050509182525060208101929092525090565b600060ff8216601f81111561040b57604051632cd44ac360e21b815260040160405180910390fd5b80356001600160a01b0381168114610ee257600080fd5b919050565b60008060408385031215610efa57600080fd5b610f0383610ecb565b946020939093013593505050565b6000815180845260005b81811015610f3757602081850181015186830182015201610f1b565b506000602082860101526020601f19601f83011685010191505092915050565b602081526000610f6a6020830184610f11565b9392505050565b600080600060608486031215610f8657600080fd5b610f8f84610ecb565b9250610f9d60208501610ecb565b9150604084013590509250925092565b600060208284031215610fbf57600080fd5b5035919050565b600060208284031215610fd857600080fd5b610f6a82610ecb565b60ff60f81b881681526000602060e0602084015261100260e084018a610f11565b8381036040850152611014818a610f11565b606085018990526001600160a01b038816608086015260a0850187905284810360c08601528551808252602080880193509091019060005b818110156110685783518352928401929184019160010161104c565b50909c9b505050505050505050505050565b600080600080600080600060e0888a03121561109557600080fd5b61109e88610ecb565b96506110ac60208901610ecb565b95506040880135945060608801359350608088013560ff811681146110d057600080fd5b9699959850939692959460a0840135945060c09093013592915050565b6000806040838503121561110057600080fd5b61110983610ecb565b915061111760208401610ecb565b90509250929050565b600181811c9082168061113457607f821691505b60208210810361115457634e487b7160e01b600052602260045260246000fd5b50919050565b8082018082111561040b57634e487b7160e01b600052601160045260246000fd5b634e487b7160e01b600052602160045260246000fdfea26469706673582212205e293d4df70a67c2e7584f79f58138caaa3b243bc67d6aa66a7fa7fc768219ad64736f6c63430008180033",
  "linkReferences": {},
  "deployedLinkReferences": {}
}