{
  "_format": "hh-sol-artifact-1",
  "contractName": "ethereum",
  "sourceName": "contracts/OTHER/layerZeroTests/ethereum.sol",
  "abi": [
    {
      "inputs": [],
      "stateMutability": "nonpayable",
      "type": "constructor"
    },
    {
      "inputs": [
        {
          "internalType": "address",
          "name": "target",
          "type": "address"
        }
      ],
      "name": "AddressEmptyCode",
      "type": "error"
    },
    {
      "inputs": [
        {
          "internalType": "address",
          "name": "account",
          "type": "address"
        }
      ],
      "name": "AddressInsufficientBalance",
      "type": "error"
    },
    {
      "inputs": [],
      "name": "FailedInnerCall",
      "type": "error"
    },
    {
      "inputs": [],
      "name": "InvalidDelegate",
      "type": "error"
    },
    {
      "inputs": [],
      "name": "InvalidEndpointCall",
      "type": "error"
    },
    {
      "inputs": [
        {
          "internalType": "uint16",
          "name": "optionType",
          "type": "uint16"
        }
      ],
      "name": "InvalidOptionType",
      "type": "error"
    },
    {
      "inputs": [],
      "name": "LzTokenUnavailable",
      "type": "error"
    },
    {
      "inputs": [
        {
          "internalType": "uint32",
          "name": "eid",
          "type": "uint32"
        }
      ],
      "name": "NoPeer",
      "type": "error"
    },
    {
      "inputs": [
        {
          "internalType": "uint256",
          "name": "msgValue",
          "type": "uint256"
        }
      ],
      "name": "NotEnoughNative",
      "type": "error"
    },
    {
      "inputs": [
        {
          "internalType": "address",
          "name": "addr",
          "type": "address"
        }
      ],
      "name": "OnlyEndpoint",
      "type": "error"
    },
    {
      "inputs": [
        {
          "internalType": "uint32",
          "name": "eid",
          "type": "uint32"
        },
        {
          "internalType": "bytes32",
          "name": "sender",
          "type": "bytes32"
        }
      ],
      "name": "OnlyPeer",
      "type": "error"
    },
    {
      "inputs": [
        {
          "internalType": "address",
          "name": "owner",
          "type": "address"
        }
      ],
      "name": "OwnableInvalidOwner",
      "type": "error"
    },
    {
      "inputs": [
        {
          "internalType": "address",
          "name": "account",
          "type": "address"
        }
      ],
      "name": "OwnableUnauthorizedAccount",
      "type": "error"
    },
    {
      "inputs": [
        {
          "internalType": "uint8",
          "name": "bits",
          "type": "uint8"
        },
        {
          "internalType": "uint256",
          "name": "value",
          "type": "uint256"
        }
      ],
      "name": "SafeCastOverflowedUintDowncast",
      "type": "error"
    },
    {
      "inputs": [
        {
          "internalType": "address",
          "name": "token",
          "type": "address"
        }
      ],
      "name": "SafeERC20FailedOperation",
      "type": "error"
    },
    {
      "anonymous": false,
      "inputs": [
        {
          "indexed": true,
          "internalType": "address",
          "name": "previousOwner",
          "type": "address"
        },
        {
          "indexed": true,
          "internalType": "address",
          "name": "newOwner",
          "type": "address"
        }
      ],
      "name": "OwnershipTransferred",
      "type": "event"
    },
    {
      "anonymous": false,
      "inputs": [
        {
          "indexed": false,
          "internalType": "uint32",
          "name": "eid",
          "type": "uint32"
        },
        {
          "indexed": false,
          "internalType": "bytes32",
          "name": "peer",
          "type": "bytes32"
        }
      ],
      "name": "PeerSet",
      "type": "event"
    },
    {
      "inputs": [
        {
          "components": [
            {
              "internalType": "uint32",
              "name": "srcEid",
              "type": "uint32"
            },
            {
              "internalType": "bytes32",
              "name": "sender",
              "type": "bytes32"
            },
            {
              "internalType": "uint64",
              "name": "nonce",
              "type": "uint64"
            }
          ],
          "internalType": "struct Origin",
          "name": "origin",
          "type": "tuple"
        }
      ],
      "name": "allowInitializePath",
      "outputs": [
        {
          "internalType": "bool",
          "name": "",
          "type": "bool"
        }
      ],
      "stateMutability": "view",
      "type": "function"
    },
    {
      "inputs": [],
      "name": "data",
      "outputs": [
        {
          "internalType": "string",
          "name": "",
          "type": "string"
        }
      ],
      "stateMutability": "view",
      "type": "function"
    },
    {
      "inputs": [],
      "name": "endpoint",
      "outputs": [
        {
          "internalType": "contract ILayerZeroEndpointV2",
          "name": "",
          "type": "address"
        }
      ],
      "stateMutability": "view",
      "type": "function"
    },
    {
      "inputs": [
        {
          "components": [
            {
              "internalType": "uint32",
              "name": "srcEid",
              "type": "uint32"
            },
            {
              "internalType": "bytes32",
              "name": "sender",
              "type": "bytes32"
            },
            {
              "internalType": "uint64",
              "name": "nonce",
              "type": "uint64"
            }
          ],
          "internalType": "struct Origin",
          "name": "",
          "type": "tuple"
        },
        {
          "internalType": "bytes",
          "name": "",
          "type": "bytes"
        },
        {
          "internalType": "address",
          "name": "_sender",
          "type": "address"
        }
      ],
      "name": "isComposeMsgSender",
      "outputs": [
        {
          "internalType": "bool",
          "name": "",
          "type": "bool"
        }
      ],
      "stateMutability": "view",
      "type": "function"
    },
    {
      "inputs": [
        {
          "components": [
            {
              "internalType": "uint32",
              "name": "srcEid",
              "type": "uint32"
            },
            {
              "internalType": "bytes32",
              "name": "sender",
              "type": "bytes32"
            },
            {
              "internalType": "uint64",
              "name": "nonce",
              "type": "uint64"
            }
          ],
          "internalType": "struct Origin",
          "name": "_origin",
          "type": "tuple"
        },
        {
          "internalType": "bytes32",
          "name": "_guid",
          "type": "bytes32"
        },
        {
          "internalType": "bytes",
          "name": "_message",
          "type": "bytes"
        },
        {
          "internalType": "address",
          "name": "_executor",
          "type": "address"
        },
        {
          "internalType": "bytes",
          "name": "_extraData",
          "type": "bytes"
        }
      ],
      "name": "lzReceive",
      "outputs": [],
      "stateMutability": "payable",
      "type": "function"
    },
    {
      "inputs": [
        {
          "internalType": "uint32",
          "name": "",
          "type": "uint32"
        },
        {
          "internalType": "bytes32",
          "name": "",
          "type": "bytes32"
        }
      ],
      "name": "nextNonce",
      "outputs": [
        {
          "internalType": "uint64",
          "name": "nonce",
          "type": "uint64"
        }
      ],
      "stateMutability": "view",
      "type": "function"
    },
    {
      "inputs": [],
      "name": "oAppVersion",
      "outputs": [
        {
          "internalType": "uint64",
          "name": "senderVersion",
          "type": "uint64"
        },
        {
          "internalType": "uint64",
          "name": "receiverVersion",
          "type": "uint64"
        }
      ],
      "stateMutability": "pure",
      "type": "function"
    },
    {
      "inputs": [],
      "name": "owner",
      "outputs": [
        {
          "internalType": "address",
          "name": "",
          "type": "address"
        }
      ],
      "stateMutability": "view",
      "type": "function"
    },
    {
      "inputs": [
        {
          "internalType": "uint32",
          "name": "eid",
          "type": "uint32"
        }
      ],
      "name": "peers",
      "outputs": [
        {
          "internalType": "bytes32",
          "name": "peer",
          "type": "bytes32"
        }
      ],
      "stateMutability": "view",
      "type": "function"
    },
    {
      "inputs": [],
      "name": "renounceOwnership",
      "outputs": [],
      "stateMutability": "nonpayable",
      "type": "function"
    },
    {
      "inputs": [
        {
          "internalType": "uint32",
          "name": "_dstEid",
          "type": "uint32"
        },
        {
          "internalType": "string",
          "name": "_message",
          "type": "string"
        },
        {
          "internalType": "uint16",
          "name": "_index",
          "type": "uint16"
        },
        {
          "internalType": "uint128",
          "name": "_gas",
          "type": "uint128"
        },
        {
          "internalType": "uint128",
          "name": "_value",
          "type": "uint128"
        }
      ],
      "name": "sendCompose",
      "outputs": [],
      "stateMutability": "payable",
      "type": "function"
    },
    {
      "inputs": [
        {
          "internalType": "uint32",
          "name": "_dstEid",
          "type": "uint32"
        },
        {
          "internalType": "string",
          "name": "_message",
          "type": "string"
        },
        {
          "internalType": "uint128",
          "name": "_amount",
          "type": "uint128"
        },
        {
          "internalType": "bytes32",
          "name": "_receiver",
          "type": "bytes32"
        }
      ],
      "name": "sendDrop",
      "outputs": [],
      "stateMutability": "payable",
      "type": "function"
    },
    {
      "inputs": [
        {
          "internalType": "uint32",
          "name": "_dstEid",
          "type": "uint32"
        },
        {
          "internalType": "string",
          "name": "_message",
          "type": "string"
        },
        {
          "internalType": "uint128",
          "name": "_gas",
          "type": "uint128"
        },
        {
          "internalType": "uint128",
          "name": "_value",
          "type": "uint128"
        }
      ],
      "name": "sendReceive",
      "outputs": [],
      "stateMutability": "payable",
      "type": "function"
    },
    {
      "inputs": [
        {
          "internalType": "address",
          "name": "_delegate",
          "type": "address"
        }
      ],
      "name": "setDelegate",
      "outputs": [],
      "stateMutability": "nonpayable",
      "type": "function"
    },
    {
      "inputs": [
        {
          "internalType": "uint32",
          "name": "_eid",
          "type": "uint32"
        },
        {
          "internalType": "bytes32",
          "name": "_peer",
          "type": "bytes32"
        }
      ],
      "name": "setPeer",
      "outputs": [],
      "stateMutability": "nonpayable",
      "type": "function"
    },
    {
      "inputs": [
        {
          "internalType": "address",
          "name": "newOwner",
          "type": "address"
        }
      ],
      "name": "transferOwnership",
      "outputs": [],
      "stateMutability": "nonpayable",
      "type": "function"
    }
  ],
  "bytecode": "0x60a060405234801561001057600080fd5b50736edce65403992e310a62460808c4b910d972f10f338181808061004f57604051631e4fbdf760e01b81526000600482015260240160405180910390fd5b610058816100ee565b506001600160a01b03808316608052811661008657604051632d618d8160e21b815260040160405180910390fd5b60805160405163ca5eb5e160e01b81526001600160a01b0383811660048301529091169063ca5eb5e190602401600060405180830381600087803b1580156100cd57600080fd5b505af11580156100e1573d6000803e3d6000fd5b505050505050505061013e565b600080546001600160a01b038381166001600160a01b0319831681178455604051919092169283917f8be0079c531659141344cd1fd0a4f28419497f9722a3daafe3b4186f6b6457e09190a35050565b60805161179861017c6000396000818161016601528181610342015281816105580152818161087601528181610afb0152610bb401526117986000f3fe6080604052600436106100f35760003560e01c80638da5cb5b1161008a578063ca5eb5e111610059578063ca5eb5e1146102cd578063f2fde38b146102ed578063f96d74511461030d578063ff7bd03d1461032057600080fd5b80638da5cb5b1461024e5780639714148c1461026c578063a60379071461027f578063bb0b6a531461029257600080fd5b8063715018a6116100c6578063715018a6146101a057806373d4a13a146101b55780637d25a05e146101d757806382413eac1461020f57600080fd5b806313137d65146100f857806317442b701461010d5780633400288b146101345780635e280f1114610154575b600080fd5b61010b610106366004610f95565b610340565b005b34801561011957600080fd5b50604080516001815260026020820152015b60405180910390f35b34801561014057600080fd5b5061010b61014f36600461104d565b610400565b34801561016057600080fd5b506101887f000000000000000000000000000000000000000000000000000000000000000081565b6040516001600160a01b03909116815260200161012b565b3480156101ac57600080fd5b5061010b610416565b3480156101c157600080fd5b506101ca61042a565b60405161012b91906110c7565b3480156101e357600080fd5b506101f76101f236600461104d565b6104b8565b6040516001600160401b03909116815260200161012b565b34801561021b57600080fd5b5061023e61022a3660046110da565b6001600160a01b0381163014949350505050565b604051901515815260200161012b565b34801561025a57600080fd5b506000546001600160a01b0316610188565b61010b61027a366004611221565b6104c1565b61010b61028d366004611286565b61051b565b34801561029e57600080fd5b506102bf6102ad3660046112f4565b60016020526000908152604090205481565b60405190815260200161012b565b3480156102d957600080fd5b5061010b6102e836600461130f565b610531565b3480156102f957600080fd5b5061010b61030836600461130f565b6105b7565b61010b61031b36600461132c565b6105f5565b34801561032c57600080fd5b5061023e61033b3660046113b4565b61065b565b7f00000000000000000000000000000000000000000000000000000000000000006001600160a01b03163314610390576040516391ac5e4f60e01b81523360048201526024015b60405180910390fd5b602087018035906103aa906103a5908a6112f4565b610691565b146103e8576103bc60208801886112f4565b60405163309afaf360e21b815263ffffffff909116600482015260208801356024820152604401610387565b6103f7878787878787876106cd565b50505050505050565b6104086106e6565b6104128282610713565b5050565b61041e6106e6565b6104286000610768565b565b60028054610437906113d0565b80601f0160208091040260200160405190810160405280929190818152602001828054610463906113d0565b80156104b05780601f10610485576101008083540402835291602001916104b0565b820191906000526020600020905b81548152906001019060200180831161049357829003601f168201915b505050505081565b60005b92915050565b60006104d783836104d06107b8565b91906107db565b90506000846040516020016104ec91906110c7565b60408051601f198184030181528282019091523482526000602083015291506103f79087908390859033610843565b60006104d7838361052a6107b8565b919061094e565b6105396106e6565b60405163ca5eb5e160e01b81526001600160a01b0382811660048301527f0000000000000000000000000000000000000000000000000000000000000000169063ca5eb5e190602401600060405180830381600087803b15801561059c57600080fd5b505af11580156105b0573d6000803e3d6000fd5b5050505050565b6105bf6106e6565b6001600160a01b0381166105e957604051631e4fbdf760e01b815260006004820152602401610387565b6105f281610768565b50565b600061060d8484846106056107b8565b92919061098c565b905060008560405160200161062291906110c7565b60408051601f198184030181528282019091523482526000602083015291506106519088908390859033610843565b5050505050505050565b600060208201803590600190839061067390866112f4565b63ffffffff1681526020810191909152604001600020541492915050565b63ffffffff8116600090815260016020526040812054806104bb5760405163f6ff4fb760e01b815263ffffffff84166004820152602401610387565b6106d984860186611404565b6002906106519082611488565b6000546001600160a01b031633146104285760405163118cdaa760e01b8152336004820152602401610387565b63ffffffff8216600081815260016020908152604091829020849055815192835282018390527f238399d427b947898edb290f5ff0f9109849b1c3ba196a42e35f00c50a54b98b910160405180910390a15050565b600080546001600160a01b038381166001600160a01b0319831681178455604051919092169283917f8be0079c531659141344cd1fd0a4f28419497f9722a3daafe3b4186f6b6457e09190a35050565b60408051600360f01b602082015281516002818303018152602290910190915290565b60608360036107eb8260006109cb565b61ffff161461081f576107ff8160006109cb565b604051633a51740d60e01b815261ffff9091166004820152602401610387565b600061082b8585610a28565b905061083986600283610a64565b9695505050505050565b61084b610ed9565b600061085a8460000151610acf565b602085015190915015610874576108748460200151610af7565b7f00000000000000000000000000000000000000000000000000000000000000006001600160a01b0316632637a450826040518060a001604052808b63ffffffff1681526020016108c48c610691565b81526020018a815260200189815260200160008960200151111515815250866040518463ffffffff1660e01b8152600401610900929190611547565b60806040518083038185885af115801561091e573d6000803e3d6000fd5b50505050506040513d601f19601f8201168201806040525081019061094391906115c0565b979650505050505050565b606083600361095e8260006109cb565b61ffff1614610972576107ff8160006109cb565b600061097e8585610bd9565b905061083986600183610a64565b606084600361099c8260006109cb565b61ffff16146109b0576107ff8160006109cb565b60006109bd868686610c47565b905061094387600383610a64565b60006109d882600261166b565b83511015610a1f5760405162461bcd60e51b8152602060048201526014602482015273746f55696e7431365f6f75744f66426f756e647360601b6044820152606401610387565b50016002015190565b6040516001600160801b0319608084901b166020820152603081018290526060906050015b604051602081830303815290604052905092915050565b6060836003610a748260006109cb565b61ffff1614610a88576107ff8160006109cb565b846001610a958551610cea565b610aa090600161167e565b8686604051602001610ab69594939291906116a0565b6040516020818303038152906040529150509392505050565b6000813414610af3576040516304fb820960e51b8152346004820152602401610387565b5090565b60007f00000000000000000000000000000000000000000000000000000000000000006001600160a01b031663e4fe1d946040518163ffffffff1660e01b8152600401602060405180830381865afa158015610b57573d6000803e3d6000fd5b505050506040513d601f19601f82011682018060405250810190610b7b9190611707565b90506001600160a01b038116610ba4576040516329b99a9560e11b815260040160405180910390fd5b6104126001600160a01b038216337f000000000000000000000000000000000000000000000000000000000000000085610d19565b60606001600160801b03821615610c2157604080516001600160801b0319608086811b8216602084015285901b16603082015201604051602081830303815290604052610c40565b6040516001600160801b0319608085901b166020820152603001610a4d565b9392505050565b60606001600160801b03821615610ca4576040516001600160f01b031960f086901b1660208201526001600160801b0319608085811b8216602284015284901b166032820152604201604051602081830303815290604052610ce2565b6040516001600160f01b031960f086901b1660208201526001600160801b0319608085901b1660228201526032016040516020818303038152906040525b949350505050565b600061ffff821115610af3576040516306dfcc6560e41b81526010600482015260248101839052604401610387565b604080516001600160a01b0385811660248301528416604482015260648082018490528251808303909101815260849091019091526020810180516001600160e01b03166323b872dd60e01b179052610d73908590610d79565b50505050565b6000610d8e6001600160a01b03841683610de1565b90508051600014158015610db3575080806020019051810190610db19190611724565b155b15610ddc57604051635274afe760e01b81526001600160a01b0384166004820152602401610387565b505050565b6060610c408383600084600080856001600160a01b03168486604051610e079190611746565b60006040518083038185875af1925050503d8060008114610e44576040519150601f19603f3d011682016040523d82523d6000602084013e610e49565b606091505b5091509150610839868383606082610e6957610e6482610eb0565b610c40565b8151158015610e8057506001600160a01b0384163b155b15610ea957604051639996b31560e01b81526001600160a01b0385166004820152602401610387565b5080610c40565b805115610ec05780518082602001fd5b604051630a12f52160e11b815260040160405180910390fd5b60405180606001604052806000801916815260200160006001600160401b03168152602001610f1b604051806040016040528060008152602001600081525090565b905290565b600060608284031215610f3257600080fd5b50919050565b60008083601f840112610f4a57600080fd5b5081356001600160401b03811115610f6157600080fd5b602083019150836020828501011115610f7957600080fd5b9250929050565b6001600160a01b03811681146105f257600080fd5b600080600080600080600060e0888a031215610fb057600080fd5b610fba8989610f20565b96506060880135955060808801356001600160401b0380821115610fdd57600080fd5b610fe98b838c01610f38565b909750955060a08a01359150610ffe82610f80565b90935060c0890135908082111561101457600080fd5b506110218a828b01610f38565b989b979a50959850939692959293505050565b803563ffffffff8116811461104857600080fd5b919050565b6000806040838503121561106057600080fd5b61106983611034565b946020939093013593505050565b60005b8381101561109257818101518382015260200161107a565b50506000910152565b600081518084526110b3816020860160208601611077565b601f01601f19169290920160200192915050565b602081526000610c40602083018461109b565b60008060008060a085870312156110f057600080fd5b6110fa8686610f20565b935060608501356001600160401b0381111561111557600080fd5b61112187828801610f38565b909450925050608085013561113581610f80565b939692955090935050565b634e487b7160e01b600052604160045260246000fd5b604080519081016001600160401b038111828210171561117857611178611140565b60405290565b600082601f83011261118f57600080fd5b81356001600160401b03808211156111a9576111a9611140565b604051601f8301601f19908116603f011681019082821181831017156111d1576111d1611140565b816040528381528660208588010111156111ea57600080fd5b836020870160208301376000602085830101528094505050505092915050565b80356001600160801b038116811461104857600080fd5b6000806000806080858703121561123757600080fd5b61124085611034565b935060208501356001600160401b0381111561125b57600080fd5b6112678782880161117e565b9350506112766040860161120a565b9396929550929360600135925050565b6000806000806080858703121561129c57600080fd5b6112a585611034565b935060208501356001600160401b038111156112c057600080fd5b6112cc8782880161117e565b9350506112db6040860161120a565b91506112e96060860161120a565b905092959194509250565b60006020828403121561130657600080fd5b610c4082611034565b60006020828403121561132157600080fd5b8135610c4081610f80565b600080600080600060a0868803121561134457600080fd5b61134d86611034565b945060208601356001600160401b0381111561136857600080fd5b6113748882890161117e565b945050604086013561ffff8116811461138c57600080fd5b925061139a6060870161120a565b91506113a86080870161120a565b90509295509295909350565b6000606082840312156113c657600080fd5b610c408383610f20565b600181811c908216806113e457607f821691505b602082108103610f3257634e487b7160e01b600052602260045260246000fd5b60006020828403121561141657600080fd5b81356001600160401b0381111561142c57600080fd5b610ce28482850161117e565b601f821115610ddc576000816000526020600020601f850160051c810160208610156114615750805b601f850160051c820191505b818110156114805782815560010161146d565b505050505050565b81516001600160401b038111156114a1576114a1611140565b6114b5816114af84546113d0565b84611438565b602080601f8311600181146114ea57600084156114d25750858301515b600019600386901b1c1916600185901b178555611480565b600085815260208120601f198616915b82811015611519578886015182559484019460019091019084016114fa565b50858210156115375787850151600019600388901b60f8161c191681555b5050505050600190811b01905550565b6040815263ffffffff8351166040820152602083015160608201526000604084015160a0608084015261157d60e084018261109b565b90506060850151603f198483030160a085015261159a828261109b565b60809690960151151560c08501525050506001600160a01b039190911660209091015290565b600081830360808112156115d357600080fd5b604051606081016001600160401b0382821081831117156115f6576115f6611140565b816040528551835260208601519150808216821461161357600080fd5b5060208201526040603f198301121561162b57600080fd5b611633611156565b6040858101518252606090950151602082015293810193909352509092915050565b634e487b7160e01b600052601160045260246000fd5b808201808211156104bb576104bb611655565b61ffff81811683821601908082111561169957611699611655565b5092915050565b600086516116b2818460208b01611077565b6001600160f81b031960f888811b82169285019283526001600160f01b031960f089901b16600184015286901b16600382015283516116f8816004840160208801611077565b01600401979650505050505050565b60006020828403121561171957600080fd5b8151610c4081610f80565b60006020828403121561173657600080fd5b81518015158114610c4057600080fd5b60008251611758818460208701611077565b919091019291505056fea26469706673582212206e2084c67b07c384c4fe1fa5a0ea324d55c92f8cf6898d400fbb4f0cf4ffae5364736f6c63430008180033",
  "linkReferences": {},
  "deployedLinkReferences": {}
}