{
  "_format": "hh-sol-artifact-1",
  "contractName": "zkL2AstarUsd",
  "sourceName": "contracts/crossChain/zkL2AstarUsd.sol",
  "abi": [
    {
      "inputs": [
        {
          "internalType": "address",
          "name": "initialOwner",
          "type": "address"
        }
      ],
      "stateMutability": "nonpayable",
      "type": "constructor"
    },
    {
      "inputs": [],
      "name": "ECDSAInvalidSignature",
      "type": "error"
    },
    {
      "inputs": [
        {
          "internalType": "uint256",
          "name": "length",
          "type": "uint256"
        }
      ],
      "name": "ECDSAInvalidSignatureLength",
      "type": "error"
    },
    {
      "inputs": [
        {
          "internalType": "bytes32",
          "name": "s",
          "type": "bytes32"
        }
      ],
      "name": "ECDSAInvalidSignatureS",
      "type": "error"
    },
    {
      "inputs": [
        {
          "internalType": "address",
          "name": "spender",
          "type": "address"
        },
        {
          "internalType": "uint256",
          "name": "allowance",
          "type": "uint256"
        },
        {
          "internalType": "uint256",
          "name": "needed",
          "type": "uint256"
        }
      ],
      "name": "ERC20InsufficientAllowance",
      "type": "error"
    },
    {
      "inputs": [
        {
          "internalType": "address",
          "name": "sender",
          "type": "address"
        },
        {
          "internalType": "uint256",
          "name": "balance",
          "type": "uint256"
        },
        {
          "internalType": "uint256",
          "name": "needed",
          "type": "uint256"
        }
      ],
      "name": "ERC20InsufficientBalance",
      "type": "error"
    },
    {
      "inputs": [
        {
          "internalType": "address",
          "name": "approver",
          "type": "address"
        }
      ],
      "name": "ERC20InvalidApprover",
      "type": "error"
    },
    {
      "inputs": [
        {
          "internalType": "address",
          "name": "receiver",
          "type": "address"
        }
      ],
      "name": "ERC20InvalidReceiver",
      "type": "error"
    },
    {
      "inputs": [
        {
          "internalType": "address",
          "name": "sender",
          "type": "address"
        }
      ],
      "name": "ERC20InvalidSender",
      "type": "error"
    },
    {
      "inputs": [
        {
          "internalType": "address",
          "name": "spender",
          "type": "address"
        }
      ],
      "name": "ERC20InvalidSpender",
      "type": "error"
    },
    {
      "inputs": [
        {
          "internalType": "uint256",
          "name": "deadline",
          "type": "uint256"
        }
      ],
      "name": "ERC2612ExpiredSignature",
      "type": "error"
    },
    {
      "inputs": [
        {
          "internalType": "address",
          "name": "signer",
          "type": "address"
        },
        {
          "internalType": "address",
          "name": "owner",
          "type": "address"
        }
      ],
      "name": "ERC2612InvalidSigner",
      "type": "error"
    },
    {
      "inputs": [
        {
          "internalType": "address",
          "name": "account",
          "type": "address"
        },
        {
          "internalType": "uint256",
          "name": "currentNonce",
          "type": "uint256"
        }
      ],
      "name": "InvalidAccountNonce",
      "type": "error"
    },
    {
      "inputs": [],
      "name": "InvalidShortString",
      "type": "error"
    },
    {
      "inputs": [
        {
          "internalType": "address",
          "name": "owner",
          "type": "address"
        }
      ],
      "name": "OwnableInvalidOwner",
      "type": "error"
    },
    {
      "inputs": [
        {
          "internalType": "address",
          "name": "account",
          "type": "address"
        }
      ],
      "name": "OwnableUnauthorizedAccount",
      "type": "error"
    },
    {
      "inputs": [
        {
          "internalType": "string",
          "name": "str",
          "type": "string"
        }
      ],
      "name": "StringTooLong",
      "type": "error"
    },
    {
      "anonymous": false,
      "inputs": [
        {
          "indexed": true,
          "internalType": "address",
          "name": "owner",
          "type": "address"
        },
        {
          "indexed": true,
          "internalType": "address",
          "name": "spender",
          "type": "address"
        },
        {
          "indexed": false,
          "internalType": "uint256",
          "name": "value",
          "type": "uint256"
        }
      ],
      "name": "Approval",
      "type": "event"
    },
    {
      "anonymous": false,
      "inputs": [],
      "name": "EIP712DomainChanged",
      "type": "event"
    },
    {
      "anonymous": false,
      "inputs": [
        {
          "indexed": true,
          "internalType": "address",
          "name": "previousOwner",
          "type": "address"
        },
        {
          "indexed": true,
          "internalType": "address",
          "name": "newOwner",
          "type": "address"
        }
      ],
      "name": "OwnershipTransferred",
      "type": "event"
    },
    {
      "anonymous": false,
      "inputs": [
        {
          "indexed": true,
          "internalType": "address",
          "name": "from",
          "type": "address"
        },
        {
          "indexed": true,
          "internalType": "address",
          "name": "to",
          "type": "address"
        },
        {
          "indexed": false,
          "internalType": "uint256",
          "name": "value",
          "type": "uint256"
        }
      ],
      "name": "Transfer",
      "type": "event"
    },
    {
      "inputs": [],
      "name": "DOMAIN_SEPARATOR",
      "outputs": [
        {
          "internalType": "bytes32",
          "name": "",
          "type": "bytes32"
        }
      ],
      "stateMutability": "view",
      "type": "function"
    },
    {
      "inputs": [
        {
          "internalType": "address",
          "name": "owner",
          "type": "address"
        },
        {
          "internalType": "address",
          "name": "spender",
          "type": "address"
        }
      ],
      "name": "allowance",
      "outputs": [
        {
          "internalType": "uint256",
          "name": "",
          "type": "uint256"
        }
      ],
      "stateMutability": "view",
      "type": "function"
    },
    {
      "inputs": [
        {
          "internalType": "address",
          "name": "spender",
          "type": "address"
        },
        {
          "internalType": "uint256",
          "name": "value",
          "type": "uint256"
        }
      ],
      "name": "approve",
      "outputs": [
        {
          "internalType": "bool",
          "name": "",
          "type": "bool"
        }
      ],
      "stateMutability": "nonpayable",
      "type": "function"
    },
    {
      "inputs": [
        {
          "internalType": "address",
          "name": "account",
          "type": "address"
        }
      ],
      "name": "balanceOf",
      "outputs": [
        {
          "internalType": "uint256",
          "name": "",
          "type": "uint256"
        }
      ],
      "stateMutability": "view",
      "type": "function"
    },
    {
      "inputs": [
        {
          "internalType": "uint256",
          "name": "value",
          "type": "uint256"
        }
      ],
      "name": "burn",
      "outputs": [],
      "stateMutability": "nonpayable",
      "type": "function"
    },
    {
      "inputs": [
        {
          "internalType": "address",
          "name": "account",
          "type": "address"
        },
        {
          "internalType": "uint256",
          "name": "value",
          "type": "uint256"
        }
      ],
      "name": "burnFrom",
      "outputs": [],
      "stateMutability": "nonpayable",
      "type": "function"
    },
    {
      "inputs": [],
      "name": "decimals",
      "outputs": [
        {
          "internalType": "uint8",
          "name": "",
          "type": "uint8"
        }
      ],
      "stateMutability": "view",
      "type": "function"
    },
    {
      "inputs": [],
      "name": "eip712Domain",
      "outputs": [
        {
          "internalType": "bytes1",
          "name": "fields",
          "type": "bytes1"
        },
        {
          "internalType": "string",
          "name": "name",
          "type": "string"
        },
        {
          "internalType": "string",
          "name": "version",
          "type": "string"
        },
        {
          "internalType": "uint256",
          "name": "chainId",
          "type": "uint256"
        },
        {
          "internalType": "address",
          "name": "verifyingContract",
          "type": "address"
        },
        {
          "internalType": "bytes32",
          "name": "salt",
          "type": "bytes32"
        },
        {
          "internalType": "uint256[]",
          "name": "extensions",
          "type": "uint256[]"
        }
      ],
      "stateMutability": "view",
      "type": "function"
    },
    {
      "inputs": [],
      "name": "getAddress",
      "outputs": [
        {
          "internalType": "address",
          "name": "",
          "type": "address"
        }
      ],
      "stateMutability": "view",
      "type": "function"
    },
    {
      "inputs": [
        {
          "internalType": "address",
          "name": "to",
          "type": "address"
        },
        {
          "internalType": "uint256",
          "name": "amount",
          "type": "uint256"
        }
      ],
      "name": "mint",
      "outputs": [],
      "stateMutability": "nonpayable",
      "type": "function"
    },
    {
      "inputs": [],
      "name": "name",
      "outputs": [
        {
          "internalType": "string",
          "name": "",
          "type": "string"
        }
      ],
      "stateMutability": "view",
      "type": "function"
    },
    {
      "inputs": [
        {
          "internalType": "address",
          "name": "owner",
          "type": "address"
        }
      ],
      "name": "nonces",
      "outputs": [
        {
          "internalType": "uint256",
          "name": "",
          "type": "uint256"
        }
      ],
      "stateMutability": "view",
      "type": "function"
    },
    {
      "inputs": [],
      "name": "owner",
      "outputs": [
        {
          "internalType": "address",
          "name": "",
          "type": "address"
        }
      ],
      "stateMutability": "view",
      "type": "function"
    },
    {
      "inputs": [
        {
          "internalType": "address",
          "name": "owner",
          "type": "address"
        },
        {
          "internalType": "address",
          "name": "spender",
          "type": "address"
        },
        {
          "internalType": "uint256",
          "name": "value",
          "type": "uint256"
        },
        {
          "internalType": "uint256",
          "name": "deadline",
          "type": "uint256"
        },
        {
          "internalType": "uint8",
          "name": "v",
          "type": "uint8"
        },
        {
          "internalType": "bytes32",
          "name": "r",
          "type": "bytes32"
        },
        {
          "internalType": "bytes32",
          "name": "s",
          "type": "bytes32"
        }
      ],
      "name": "permit",
      "outputs": [],
      "stateMutability": "nonpayable",
      "type": "function"
    },
    {
      "inputs": [],
      "name": "renounceOwnership",
      "outputs": [],
      "stateMutability": "nonpayable",
      "type": "function"
    },
    {
      "inputs": [],
      "name": "symbol",
      "outputs": [
        {
          "internalType": "string",
          "name": "",
          "type": "string"
        }
      ],
      "stateMutability": "view",
      "type": "function"
    },
    {
      "inputs": [],
      "name": "totalSupply",
      "outputs": [
        {
          "internalType": "uint256",
          "name": "",
          "type": "uint256"
        }
      ],
      "stateMutability": "view",
      "type": "function"
    },
    {
      "inputs": [
        {
          "internalType": "address",
          "name": "to",
          "type": "address"
        },
        {
          "internalType": "uint256",
          "name": "value",
          "type": "uint256"
        }
      ],
      "name": "transfer",
      "outputs": [
        {
          "internalType": "bool",
          "name": "",
          "type": "bool"
        }
      ],
      "stateMutability": "nonpayable",
      "type": "function"
    },
    {
      "inputs": [
        {
          "internalType": "address",
          "name": "from",
          "type": "address"
        },
        {
          "internalType": "address",
          "name": "to",
          "type": "address"
        },
        {
          "internalType": "uint256",
          "name": "value",
          "type": "uint256"
        }
      ],
      "name": "transferFrom",
      "outputs": [
        {
          "internalType": "bool",
          "name": "",
          "type": "bool"
        }
      ],
      "stateMutability": "nonpayable",
      "type": "function"
    },
    {
      "inputs": [
        {
          "internalType": "address",
          "name": "newOwner",
          "type": "address"
        }
      ],
      "name": "transferOwnership",
      "outputs": [],
      "stateMutability": "nonpayable",
      "type": "function"
    }
  ],
  "bytecode": "0x6101606040523480156200001257600080fd5b506040516200167b3803806200167b8339810160408190526200003591620002ab565b6040518060400160405280600c81526020016b1e9ad30c905cdd185c955cd960a21b81525080604051806040016040528060018152602001603160f81b815250836040518060400160405280600c81526020016b1e9ad30c905cdd185c955cd960a21b8152506040518060400160405280600c81526020016b1e9ad30c905cdd185c955cd960a21b8152508160039081620000d1919062000384565b506004620000e0828262000384565b5050506001600160a01b0381166200011357604051631e4fbdf760e01b8152600060048201526024015b60405180910390fd5b6200011e81620001dd565b506200012c8260066200022f565b610120526200013d8160076200022f565b61014052815160208084019190912060e052815190820120610100524660a052620001cb60e05161010051604080517f8b73c3c69bb8fe3d512ecc4cf759cc79239f7b179b0ffacaa9a75d522b39400f60208201529081019290925260608201524660808201523060a082015260009060c00160405160208183030381529060405280519060200120905090565b60805250503060c05250620004c69050565b600580546001600160a01b038381166001600160a01b0319831681179093556040519116919082907f8be0079c531659141344cd1fd0a4f28419497f9722a3daafe3b4186f6b6457e090600090a35050565b60006020835110156200024f57620002478362000268565b905062000262565b816200025c848262000384565b5060ff90505b92915050565b600080829050601f8151111562000296578260405163305a27a960e01b81526004016200010a919062000450565b8051620002a382620004a1565b179392505050565b600060208284031215620002be57600080fd5b81516001600160a01b0381168114620002d657600080fd5b9392505050565b634e487b7160e01b600052604160045260246000fd5b600181811c908216806200030857607f821691505b6020821081036200032957634e487b7160e01b600052602260045260246000fd5b50919050565b601f8211156200037f576000816000526020600020601f850160051c810160208610156200035a5750805b601f850160051c820191505b818110156200037b5782815560010162000366565b5050505b505050565b81516001600160401b03811115620003a057620003a0620002dd565b620003b881620003b18454620002f3565b846200032f565b602080601f831160018114620003f05760008415620003d75750858301515b600019600386901b1c1916600185901b1785556200037b565b600085815260208120601f198616915b82811015620004215788860151825594840194600190910190840162000400565b5085821015620004405787850151600019600388901b60f8161c191681555b5050505050600190811b01905550565b60006020808352835180602085015260005b81811015620004805785810183015185820160400152820162000462565b506000604082860101526040601f19601f8301168501019250505092915050565b80516020808301519190811015620003295760001960209190910360031b1b16919050565b60805160a05160c05160e05161010051610120516101405161115a62000521600039600061094401526000610917015260006107d4015260006107ac01526000610707015260006107310152600061075b015261115a6000f3fe608060405234801561001057600080fd5b506004361061012c5760003560e01c8063715018a6116100ad57806395d89b411161007157806395d89b4114610273578063a9059cbb1461027b578063d505accf1461028e578063dd62ed3e146102a1578063f2fde38b146102da57600080fd5b8063715018a61461021957806379cc6790146102215780637ecebe001461023457806384b0196e146102475780638da5cb5b1461026257600080fd5b80633644e515116100f45780633644e515146101a657806338cc4831146101ae57806340c10f19146101c857806342966c68146101dd57806370a08231146101f057600080fd5b806306fdde0314610131578063095ea7b31461014f57806318160ddd1461017257806323b872dd14610184578063313ce56714610197575b600080fd5b6101396102ed565b6040516101469190610ea4565b60405180910390f35b61016261015d366004610eda565b61037f565b6040519015158152602001610146565b6002545b604051908152602001610146565b610162610192366004610f04565b610399565b60405160128152602001610146565b6101766103bd565b305b6040516001600160a01b039091168152602001610146565b6101db6101d6366004610eda565b6103cc565b005b6101db6101eb366004610f40565b6103da565b6101766101fe366004610f59565b6001600160a01b031660009081526020819052604090205490565b6101db6103e7565b6101db61022f366004610eda565b6103fb565b610176610242366004610f59565b610410565b61024f61042e565b6040516101469796959493929190610f74565b6005546001600160a01b03166101b0565b610139610474565b610162610289366004610eda565b610483565b6101db61029c36600461100d565b610491565b6101766102af366004611080565b6001600160a01b03918216600090815260016020908152604080832093909416825291909152205490565b6101db6102e8366004610f59565b6105d0565b6060600380546102fc906110b3565b80601f0160208091040260200160405190810160405280929190818152602001828054610328906110b3565b80156103755780601f1061034a57610100808354040283529160200191610375565b820191906000526020600020905b81548152906001019060200180831161035857829003601f168201915b5050505050905090565b60003361038d81858561060b565b60019150505b92915050565b6000336103a785828561061d565b6103b285858561069b565b506001949350505050565b60006103c76106fa565b905090565b6103d68282610825565b5050565b6103e4338261085b565b50565b6103ef610891565b6103f960006108be565b565b61040682338361061d565b6103d6828261085b565b6001600160a01b038116600090815260086020526040812054610393565b600060608060008060006060610442610910565b61044a61093d565b60408051600080825260208201909252600f60f81b9b939a50919850469750309650945092509050565b6060600480546102fc906110b3565b60003361038d81858561069b565b834211156104ba5760405163313c898160e11b8152600481018590526024015b60405180910390fd5b60007f6e71edae12b1b97f4d1f60370fef10105fa2faae0126114a169c64845d6126c98888886105078c6001600160a01b0316600090815260086020526040902080546001810190915590565b6040805160208101969096526001600160a01b0394851690860152929091166060840152608083015260a082015260c0810186905260e00160405160208183030381529060405280519060200120905060006105628261096a565b9050600061057282878787610997565b9050896001600160a01b0316816001600160a01b0316146105b9576040516325c0072360e11b81526001600160a01b0380831660048301528b1660248201526044016104b1565b6105c48a8a8a61060b565b50505050505050505050565b6105d8610891565b6001600160a01b03811661060257604051631e4fbdf760e01b8152600060048201526024016104b1565b6103e4816108be565b61061883838360016109c5565b505050565b6001600160a01b038381166000908152600160209081526040808320938616835292905220546000198114610695578181101561068657604051637dc7a0d960e11b81526001600160a01b038416600482015260248101829052604481018390526064016104b1565b610695848484840360006109c5565b50505050565b6001600160a01b0383166106c557604051634b637e8f60e11b8152600060048201526024016104b1565b6001600160a01b0382166106ef5760405163ec442f0560e01b8152600060048201526024016104b1565b610618838383610a9a565b6000306001600160a01b037f00000000000000000000000000000000000000000000000000000000000000001614801561075357507f000000000000000000000000000000000000000000000000000000000000000046145b1561077d57507f000000000000000000000000000000000000000000000000000000000000000090565b6103c7604080517f8b73c3c69bb8fe3d512ecc4cf759cc79239f7b179b0ffacaa9a75d522b39400f60208201527f0000000000000000000000000000000000000000000000000000000000000000918101919091527f000000000000000000000000000000000000000000000000000000000000000060608201524660808201523060a082015260009060c00160405160208183030381529060405280519060200120905090565b6001600160a01b03821661084f5760405163ec442f0560e01b8152600060048201526024016104b1565b6103d660008383610a9a565b6001600160a01b03821661088557604051634b637e8f60e11b8152600060048201526024016104b1565b6103d682600083610a9a565b6005546001600160a01b031633146103f95760405163118cdaa760e01b81523360048201526024016104b1565b600580546001600160a01b038381166001600160a01b0319831681179093556040519116919082907f8be0079c531659141344cd1fd0a4f28419497f9722a3daafe3b4186f6b6457e090600090a35050565b60606103c77f00000000000000000000000000000000000000000000000000000000000000006006610bc4565b60606103c77f00000000000000000000000000000000000000000000000000000000000000006007610bc4565b60006103936109776106fa565b8360405161190160f01b8152600281019290925260228201526042902090565b6000806000806109a988888888610c6f565b9250925092506109b98282610d3e565b50909695505050505050565b6001600160a01b0384166109ef5760405163e602df0560e01b8152600060048201526024016104b1565b6001600160a01b038316610a1957604051634a1406b160e11b8152600060048201526024016104b1565b6001600160a01b038085166000908152600160209081526040808320938716835292905220829055801561069557826001600160a01b0316846001600160a01b03167f8c5be1e5ebec7d5bd14f71427d1e84f3dd0314c0f7b2291e5b200ac8c7c3b92584604051610a8c91815260200190565b60405180910390a350505050565b6001600160a01b038316610ac5578060026000828254610aba91906110ed565b90915550610b379050565b6001600160a01b03831660009081526020819052604090205481811015610b185760405163391434e360e21b81526001600160a01b038516600482015260248101829052604481018390526064016104b1565b6001600160a01b03841660009081526020819052604090209082900390555b6001600160a01b038216610b5357600280548290039055610b72565b6001600160a01b03821660009081526020819052604090208054820190555b816001600160a01b0316836001600160a01b03167fddf252ad1be2c89b69c2b068fc378daa952ba7f163c4a11628f55a4df523b3ef83604051610bb791815260200190565b60405180910390a3505050565b606060ff8314610bde57610bd783610df7565b9050610393565b818054610bea906110b3565b80601f0160208091040260200160405190810160405280929190818152602001828054610c16906110b3565b8015610c635780601f10610c3857610100808354040283529160200191610c63565b820191906000526020600020905b815481529060010190602001808311610c4657829003601f168201915b50505050509050610393565b600080807f7fffffffffffffffffffffffffffffff5d576e7357a4501ddfe92f46681b20a0841115610caa5750600091506003905082610d34565b604080516000808252602082018084528a905260ff891692820192909252606081018790526080810186905260019060a0016020604051602081039080840390855afa158015610cfe573d6000803e3d6000fd5b5050604051601f1901519150506001600160a01b038116610d2a57506000925060019150829050610d34565b9250600091508190505b9450945094915050565b6000826003811115610d5257610d5261110e565b03610d5b575050565b6001826003811115610d6f57610d6f61110e565b03610d8d5760405163f645eedf60e01b815260040160405180910390fd5b6002826003811115610da157610da161110e565b03610dc25760405163fce698f760e01b8152600481018290526024016104b1565b6003826003811115610dd657610dd661110e565b036103d6576040516335e2f38360e21b8152600481018290526024016104b1565b60606000610e0483610e36565b604080516020808252818301909252919250600091906020820181803683375050509182525060208101929092525090565b600060ff8216601f81111561039357604051632cd44ac360e21b815260040160405180910390fd5b6000815180845260005b81811015610e8457602081850181015186830182015201610e68565b506000602082860101526020601f19601f83011685010191505092915050565b602081526000610eb76020830184610e5e565b9392505050565b80356001600160a01b0381168114610ed557600080fd5b919050565b60008060408385031215610eed57600080fd5b610ef683610ebe565b946020939093013593505050565b600080600060608486031215610f1957600080fd5b610f2284610ebe565b9250610f3060208501610ebe565b9150604084013590509250925092565b600060208284031215610f5257600080fd5b5035919050565b600060208284031215610f6b57600080fd5b610eb782610ebe565b60ff60f81b881681526000602060e06020840152610f9560e084018a610e5e565b8381036040850152610fa7818a610e5e565b606085018990526001600160a01b038816608086015260a0850187905284810360c08601528551808252602080880193509091019060005b81811015610ffb57835183529284019291840191600101610fdf565b50909c9b505050505050505050505050565b600080600080600080600060e0888a03121561102857600080fd5b61103188610ebe565b965061103f60208901610ebe565b95506040880135945060608801359350608088013560ff8116811461106357600080fd5b9699959850939692959460a0840135945060c09093013592915050565b6000806040838503121561109357600080fd5b61109c83610ebe565b91506110aa60208401610ebe565b90509250929050565b600181811c908216806110c757607f821691505b6020821081036110e757634e487b7160e01b600052602260045260246000fd5b50919050565b8082018082111561039357634e487b7160e01b600052601160045260246000fd5b634e487b7160e01b600052602160045260246000fdfea2646970667358221220fa217118f965d688331c1aff149bad5e574d5358547f720da55ed8da5dde7fe764736f6c63430008180033",
  "linkReferences": {},
  "deployedLinkReferences": {}
}