{
  "_format": "hh-sol-artifact-1",
  "contractName": "metAstarLendingProtocol",
  "sourceName": "contracts/astarZkEvm/metAstarLendingProtocol.sol",
  "abi": [
    {
      "inputs": [],
      "stateMutability": "nonpayable",
      "type": "constructor"
    },
    {
      "inputs": [
        {
          "internalType": "uint256",
          "name": "paramWBtcCollateralToUse",
          "type": "uint256"
        }
      ],
      "name": "borrowAstarUsd",
      "outputs": [],
      "stateMutability": "nonpayable",
      "type": "function"
    },
    {
      "inputs": [
        {
          "internalType": "uint256",
          "name": "paramWBtcCollateralToUse",
          "type": "uint256"
        }
      ],
      "name": "borrowMpUsd",
      "outputs": [],
      "stateMutability": "nonpayable",
      "type": "function"
    },
    {
      "inputs": [
        {
          "internalType": "uint256",
          "name": "paramCollateralQuantity",
          "type": "uint256"
        }
      ],
      "name": "calculateBorrowAmountApproximately",
      "outputs": [
        {
          "internalType": "uint256",
          "name": "",
          "type": "uint256"
        }
      ],
      "stateMutability": "view",
      "type": "function"
    },
    {
      "inputs": [
        {
          "internalType": "uint256",
          "name": "paramAstarUsdAmountToDeposit",
          "type": "uint256"
        }
      ],
      "name": "depositAstarLiquidity",
      "outputs": [],
      "stateMutability": "nonpayable",
      "type": "function"
    },
    {
      "inputs": [
        {
          "internalType": "uint256",
          "name": "paramMpUsdAmountToDeposit",
          "type": "uint256"
        }
      ],
      "name": "depositMpLiquidity",
      "outputs": [],
      "stateMutability": "nonpayable",
      "type": "function"
    },
    {
      "inputs": [],
      "name": "getAstarUsdLiquidityReserves",
      "outputs": [
        {
          "internalType": "uint256",
          "name": "",
          "type": "uint256"
        }
      ],
      "stateMutability": "view",
      "type": "function"
    },
    {
      "inputs": [],
      "name": "getMpUsdLiquidityReserves",
      "outputs": [
        {
          "internalType": "uint256",
          "name": "",
          "type": "uint256"
        }
      ],
      "stateMutability": "view",
      "type": "function"
    },
    {
      "inputs": [],
      "name": "getNumberOfPositions",
      "outputs": [
        {
          "internalType": "uint256",
          "name": "",
          "type": "uint256"
        }
      ],
      "stateMutability": "view",
      "type": "function"
    },
    {
      "inputs": [
        {
          "internalType": "uint256",
          "name": "paramPositionId",
          "type": "uint256"
        }
      ],
      "name": "getPositionData",
      "outputs": [
        {
          "components": [
            {
              "internalType": "uint256",
              "name": "positionId",
              "type": "uint256"
            },
            {
              "internalType": "address",
              "name": "borrower",
              "type": "address"
            },
            {
              "internalType": "uint256",
              "name": "collateralUsed18Decimals",
              "type": "uint256"
            },
            {
              "internalType": "uint256",
              "name": "wBtcPriceAtBorrowing",
              "type": "uint256"
            },
            {
              "internalType": "uint256",
              "name": "collateralValueAtBorrowing",
              "type": "uint256"
            },
            {
              "internalType": "uint256",
              "name": "liquidationPrice",
              "type": "uint256"
            },
            {
              "internalType": "uint256",
              "name": "usdBorrowedType",
              "type": "uint256"
            },
            {
              "internalType": "uint256",
              "name": "usdBorrowedAmount",
              "type": "uint256"
            },
            {
              "internalType": "uint256",
              "name": "timestamp",
              "type": "uint256"
            },
            {
              "internalType": "uint256",
              "name": "pendingDebt",
              "type": "uint256"
            },
            {
              "internalType": "uint256",
              "name": "pendingCollateralToGetBack",
              "type": "uint256"
            },
            {
              "internalType": "bool",
              "name": "liquidated",
              "type": "bool"
            }
          ],
          "internalType": "struct metAstarLendingProtocol.positionData",
          "name": "",
          "type": "tuple"
        }
      ],
      "stateMutability": "view",
      "type": "function"
    },
    {
      "inputs": [],
      "name": "getWrappedBtcPrice18Decimals",
      "outputs": [
        {
          "internalType": "uint256",
          "name": "",
          "type": "uint256"
        }
      ],
      "stateMutability": "view",
      "type": "function"
    },
    {
      "inputs": [
        {
          "internalType": "uint256",
          "name": "paramPostionId",
          "type": "uint256"
        }
      ],
      "name": "isLiquidated",
      "outputs": [
        {
          "internalType": "bool",
          "name": "",
          "type": "bool"
        }
      ],
      "stateMutability": "view",
      "type": "function"
    },
    {
      "inputs": [
        {
          "internalType": "uint256",
          "name": "paramPositionIdToLiquidate",
          "type": "uint256"
        }
      ],
      "name": "isReadyToBeLiquidated",
      "outputs": [
        {
          "internalType": "bool",
          "name": "",
          "type": "bool"
        }
      ],
      "stateMutability": "view",
      "type": "function"
    },
    {
      "inputs": [
        {
          "internalType": "uint256",
          "name": "paramPositionIdToLiquidate",
          "type": "uint256"
        }
      ],
      "name": "liquidate",
      "outputs": [],
      "stateMutability": "nonpayable",
      "type": "function"
    },
    {
      "inputs": [
        {
          "internalType": "uint256",
          "name": "paramAstarUsdAmountToRedeem",
          "type": "uint256"
        }
      ],
      "name": "redeemAstarUsd",
      "outputs": [],
      "stateMutability": "nonpayable",
      "type": "function"
    },
    {
      "inputs": [
        {
          "internalType": "uint256",
          "name": "paramMpUsdAmountToRedeem",
          "type": "uint256"
        }
      ],
      "name": "redeemMpUsd",
      "outputs": [],
      "stateMutability": "nonpayable",
      "type": "function"
    },
    {
      "inputs": [
        {
          "internalType": "uint256",
          "name": "positionToRepayId",
          "type": "uint256"
        },
        {
          "internalType": "uint256",
          "name": "paramUsdToRepay",
          "type": "uint256"
        }
      ],
      "name": "repayPosition",
      "outputs": [],
      "stateMutability": "nonpayable",
      "type": "function"
    }
  ],
  "bytecode": "0x6080604052600080546001600160a01b03199081167373ab44615772a0d31db48a87d7f4f81a3601bceb17909155600180548216738d1f6698c2dee8adf1a53582d096ad7a7030affa178155600280548316738c0a3f863bef1f709fa3f7f42ed9efd8fef6d6fc1790556003805490921673182426cdeafe2e6877915d7a68165d313ca93f87179091556008553480156200009957600080fd5b50604051620000a890620001c2565b60408082526012908201527130b9ba30b92ab9b229b430b932aa37b5b2b760711b606082015260806020820181905260079082015266185cdd185c94dd60ca1b60a082015260c001604051809103906000f0801580156200010d573d6000803e3d6000fd5b50600980546001600160a01b0319166001600160a01b03929092169190911790556040516200013c90620001c2565b6040808252600f908201526e36b82ab9b229b430b932aa37b5b2b760891b6060820152608060208201819052600490820152631b5c14dd60e21b60a082015260c001604051809103906000f0801580156200019b573d6000803e3d6000fd5b50600a80546001600160a01b0319166001600160a01b0392909216919091179055620001d0565b61175f806200229483390190565b6120b480620001e06000396000f3fe608060405234801561001057600080fd5b50600436106101005760003560e01c8063aa5a58e811610097578063dbf66aa511610066578063dbf66aa514610228578063e02b79f91461023b578063e3c7038814610243578063fc16e7e51461024b57600080fd5b8063aa5a58e8146101e7578063b9909650146101fa578063cd411bdf1461020d578063d11e71651461022057600080fd5b80636cd32e2f116100d35780636cd32e2f14610177578063849367af1461019a57806386b37366146101c157806395cf77ff146101d457600080fd5b80630f415acb146101055780631e3b22261461012e578063415f12401461014f5780636b47449314610164575b600080fd5b610118610113366004611d7d565b610253565b6040516101259190611d96565b60405180910390f35b61014161013c366004611d7d565b610367565b604051908152602001610125565b61016261015d366004611d7d565b6103b4565b005b610162610172366004611e37565b610765565b61018a610185366004611d7d565b610c84565b6040519015158152602001610125565b61018a6101a8366004611d7d565b6000908152600b60208190526040909120015460ff1690565b6101626101cf366004611d7d565b610cab565b6101626101e2366004611d7d565b611069565b6101626101f5366004611d7d565b6113dd565b610162610208366004611d7d565b6116ac565b61016261021b366004611d7d565b6118c3565b600654610141565b610162610236366004611d7d565b611aa1565b610141611cee565b600754610141565b610141611d04565b6102c26040518061018001604052806000815260200160006001600160a01b031681526020016000815260200160008152602001600081526020016000815260200160008152602001600081526020016000815260200160008152602001600081526020016000151581525090565b506000908152600b60208181526040928390208351610180810185528154815260018201546001600160a01b0316928101929092526002810154938201939093526003830154606082015260048301546080820152600583015460a0820152600683015460c0820152600783015460e082015260088301546101008201526009830154610120820152600a83015461014082015291015460ff16151561016082015290565b600080610372611d04565b9050600064e8d4a510006103868584611e6f565b6103909190611e8c565b9050600060646103a1836046611e6f565b6103ab9190611e8c565b95945050505050565b60085481116104055760405162461bcd60e51b81526020600482015260186024820152773837b9b4ba34b7b724b2103237b2b9b73a1032bc34b9ba1760411b60448201526064015b60405180910390fd5b6000818152600b60208190526040909120015460ff16156104685760405162461bcd60e51b815260206004820152601c60248201527f506f736974696f6e20616c7265616479206c6971756964617465642e0000000060448201526064016103fc565b6000610472611d04565b6000838152600b602052604090206005015490915081106104e15760405162461bcd60e51b8152602060048201526024808201527f506f736974696f6e206e6f7420726561647920746f206265206c6971756964616044820152633a32b21760e11b60648201526084016103fc565b6000828152600b60205260408120600601549081810361050d57506001546001600160a01b0316610523565b8160010361052357506002546001600160a01b03165b6000848152600b6020526040908190206009810154600a909101549151636eb1769f60e11b815233600482015230602482015290919082906001600160a01b0385169063dd62ed3e90604401602060405180830381865afa15801561058c573d6000803e3d6000fd5b505050506040513d601f19601f820116820180604052508101906105b09190611eae565b10156106125760405162461bcd60e51b815260206004820152603f602482015260008051602061205f83398151915260448201527f77207468652070726f746f636f6c20746f20757365206d6f7265207573642e0060648201526084016103fc565b6040516323b872dd60e01b81526001600160a01b038416906323b872dd9061064290339030908790600401611ec7565b6020604051808303816000875af1158015610661573d6000803e3d6000fd5b505050506040513d601f19601f820116820180604052508101906106859190611eeb565b5060035460405163a9059cbb60e01b81526001600160a01b039091169063a9059cbb906106b89033908590600401611f14565b6020604051808303816000875af11580156106d7573d6000803e3d6000fd5b505050506040513d601f19601f820116820180604052508101906106fb9190611eeb565b50836000036107215781600660008282546107169190611f2d565b909155506107419050565b8360010361074157816007600082825461073b9190611f2d565b90915550505b50505060009283525050600b6020819052604090912001805460ff19166001179055565b60085482116107b15760405162461bcd60e51b81526020600482015260186024820152773837b9b4ba34b7b724b2103237b2b9b73a1032bc34b9ba1760411b60448201526064016103fc565b6000828152600b60208190526040909120015460ff16156108145760405162461bcd60e51b815260206004820152601c60248201527f506f736974696f6e20616c7265616479206c6971756964617465642e0000000060448201526064016103fc565b6000828152600b60205260408120600601549081810361084057506001546001600160a01b0316610856565b8160010361085657506002546001600160a01b03165b604051636eb1769f60e11b815233600482015230602482015283906001600160a01b0383169063dd62ed3e90604401602060405180830381865afa1580156108a2573d6000803e3d6000fd5b505050506040513d601f19601f820116820180604052508101906108c69190611eae565b10156109285760405162461bcd60e51b815260206004820152603b602482015260008051602061205f83398151915260448201527f77207468652070726f746f636f6c20746f20757365206d6f72652e000000000060648201526084016103fc565b6040516323b872dd60e01b81526001600160a01b038216906323b872dd9061095890339030908890600401611ec7565b6020604051808303816000875af1158015610977573d6000803e3d6000fd5b505050506040513d601f19601f8201168201806040525081019061099b9190611eeb565b506000848152600b60205260408120600801546103e89143916109be9083611f40565b90506301e133806000816109d28487611e6f565b6109dc9190611e8c565b905060006127106109ed8382611f2d565b60008c8152600b6020526040902060090154610a099190611e6f565b610a139190611e8c565b610a1e906001611f2d565b9050808910610b145787600003610a4c578860066000828254610a419190611f2d565b90915550610a6c9050565b87600103610a6c578860076000828254610a669190611f2d565b90915550505b60008a8152600b6020819052604080832060098101849055600a8101849055909101805460ff19166001179055600354905163a9059cbb60e01b81526001600160a01b039091169063a9059cbb90610aca9033908590600401611f14565b6020604051808303816000875af1158015610ae9573d6000803e3d6000fd5b505050506040513d601f19601f82011682018060405250810190610b0d9190611eeb565b5050610c78565b60008a8152600b60205260408120600a01548290610b32908c611e6f565b610b3c9190611e8c565b905088600003610b63578960066000828254610b589190611f2d565b90915550610b839050565b88600103610b83578960076000828254610b7d9190611f2d565b90915550505b60008b8152600b60205260408120600901548390610ba2908d90611e6f565b610bac9190611e8c565b905080600b60008e81526020019081526020016000206009016000828254610bd49190611f40565b909155505060008c8152600b60205260408120600a018054849290610bfa908490611f40565b909155505060035460405163a9059cbb60e01b81526001600160a01b039091169063a9059cbb90610c319033908690600401611f14565b6020604051808303816000875af1158015610c50573d6000803e3d6000fd5b505050506040513d601f19601f82011682018060405250810190610c749190611eeb565b5050505b50505050505050505050565b600080610c8f611d04565b6000938452600b60205260409093206005015490921092915050565b600354604051636eb1769f60e11b815233600482015230602482015282916001600160a01b03169063dd62ed3e90604401602060405180830381865afa158015610cf9573d6000803e3d6000fd5b505050506040513d601f19601f82011682018060405250810190610d1d9190611eae565b1015610d3b5760405162461bcd60e51b81526004016103fc90611f53565b6003546040516323b872dd60e01b81526001600160a01b03909116906323b872dd90610d6f90339030908690600401611ec7565b6020604051808303816000875af1158015610d8e573d6000803e3d6000fd5b505050506040513d601f19601f82011682018060405250810190610db29190611eeb565b50336000908152600e60205260408120829055610dcd611d04565b9050600064e8d4a51000610de18484611e6f565b610deb9190611e8c565b905060006064610dfc846055611e6f565b610e069190611e8c565b905060006064610e17846050611e6f565b610e219190611e8c565b9050806007541015610e815760405162461bcd60e51b815260206004820152602360248201527f4e6f7420656e6f756768206d705573642072657365727665206c6971756964696044820152623a3c9760e91b60648201526084016103fc565b8060076000828254610e939190611f40565b92505081905550600042905060006040518061018001604052806008548152602001336001600160a01b031681526020018881526020018781526020018681526020018581526020016000815260200184815260200183815260200184815260200188815260200160001515815250905080600b600060085481526020019081526020016000206000820151816000015560208201518160010160006101000a8154816001600160a01b0302191690836001600160a01b0316021790555060408201518160020155606082015181600301556080820151816004015560a0820151816005015560c0820151816006015560e082015181600701556101008201518160080155610120820151816009015561014082015181600a015561016082015181600b0160006101000a81548160ff02191690831515021790555090505060086000815480929190610fe590611f9f565b909155505060025460405163a9059cbb60e01b81526001600160a01b039091169063a9059cbb9061101c9033908790600401611f14565b6020604051808303816000875af115801561103b573d6000803e3d6000fd5b505050506040513d601f19601f8201168201806040525081019061105f9190611eeb565b5050505050505050565b600354604051636eb1769f60e11b815233600482015230602482015282916001600160a01b03169063dd62ed3e90604401602060405180830381865afa1580156110b7573d6000803e3d6000fd5b505050506040513d601f19601f820116820180604052508101906110db9190611eae565b10156110f95760405162461bcd60e51b81526004016103fc90611f53565b6003546040516323b872dd60e01b81526001600160a01b03909116906323b872dd9061112d90339030908690600401611ec7565b6020604051808303816000875af115801561114c573d6000803e3d6000fd5b505050506040513d601f19601f820116820180604052508101906111709190611eeb565b50336000908152600e6020526040812082905561118b611d04565b9050600064e8d4a5100061119f8484611e6f565b6111a99190611e8c565b9050600060646111ba846055611e6f565b6111c49190611e8c565b9050600060646111d5846050611e6f565b6111df9190611e8c565b90508060065410156112425760405162461bcd60e51b815260206004820152602660248201527f4e6f7420656e6f7567682061737461725573642072657365727665206c69717560448201526534b234ba3c9760d11b60648201526084016103fc565b80600660008282546112549190611f40565b92505081905550600042905060006040518061018001604052806008548152602001336001600160a01b031681526020018881526020018781526020018681526020018581526020016000815260200184815260200183815260200184815260200188815260200160001515815250905080600b600060085481526020019081526020016000206000820151816000015560208201518160010160006101000a8154816001600160a01b0302191690836001600160a01b0316021790555060408201518160020155606082015181600301556080820151816004015560a0820151816005015560c0820151816006015560e082015181600701556101008201518160080155610120820151816009015561014082015181600a015561016082015181600b0160006101000a81548160ff021916908315150217905550905050600860008154809291906113a690611f9f565b909155505060015460405163a9059cbb60e01b81526001600160a01b039091169063a9059cbb9061101c9033908790600401611f14565b336000908152600c602052604090205481111561140c5760405162461bcd60e51b81526004016103fc90611fb8565b8060065410156114565760405162461bcd60e51b81526020600482015260156024820152742737ba1032b737bab3b4103634b8bab4b234ba3c9760591b60448201526064016103fc565b6009546040516370a0823160e01b81523360048201526000916001600160a01b0316906370a0823190602401602060405180830381865afa15801561149f573d6000803e3d6000fd5b505050506040513d601f19601f820116820180604052508101906114c39190611eae565b90506000600960009054906101000a90046001600160a01b03166001600160a01b03166318160ddd6040518163ffffffff1660e01b8152600401602060405180830381865afa15801561151a573d6000803e3d6000fd5b505050506040513d601f19601f8201168201806040525081019061153e9190611eae565b905060008161154e856064611e6f565b6115589190611e8c565b9050600060648260045461156c9190611e6f565b6115769190611e8c565b6009546040516306dd041960e01b81529192506001600160a01b0316906306dd0419906115a99033908890600401611f14565b600060405180830381600087803b1580156115c357600080fd5b505af11580156115d7573d6000803e3d6000fd5b5050505084600460008282546115ed9190611f40565b9250508190555080600660008282546116069190611f40565b9091555050336000908152600c60205260408120805487929061162a908490611f40565b909155505060015460405163a9059cbb60e01b81526001600160a01b039091169063a9059cbb906116619033908590600401611f14565b6020604051808303816000875af1158015611680573d6000803e3d6000fd5b505050506040513d601f19601f820116820180604052508101906116a49190611eeb565b505050505050565b600154604051636eb1769f60e11b815233600482015230602482015282916001600160a01b03169063dd62ed3e90604401602060405180830381865afa1580156116fa573d6000803e3d6000fd5b505050506040513d601f19601f8201168201806040525081019061171e9190611eae565b101561178e5760405162461bcd60e51b81526020600482015260446024820181905260008051602061205f833981519152908201527f77207468652070726f746f636f6c20746f20757365206d6f72652061737461726064820152632ab9b21760e11b608482015260a4016103fc565b6001546040516323b872dd60e01b81526001600160a01b03909116906323b872dd906117c290339030908690600401611ec7565b6020604051808303816000875af11580156117e1573d6000803e3d6000fd5b505050506040513d601f19601f820116820180604052508101906118059190611eeb565b50336000908152600c602052604081208054839290611825908490611f2d565b92505081905550806004600082825461183e9190611f2d565b9250508190555080600660008282546118579190611f2d565b90915550506009546040516340c10f1960e01b81526001600160a01b03909116906340c10f199061188e9033908590600401611f14565b600060405180830381600087803b1580156118a857600080fd5b505af11580156118bc573d6000803e3d6000fd5b5050505050565b600254604051636eb1769f60e11b815233600482015230602482015282916001600160a01b03169063dd62ed3e90604401602060405180830381865afa158015611911573d6000803e3d6000fd5b505050506040513d601f19601f820116820180604052508101906119359190611eae565b10156119a15760405162461bcd60e51b8152602060048201526041602482015260008051602061205f83398151915260448201527f77207468652070726f746f636f6c20746f20757365206d6f7265206d705573646064820152601760f91b608482015260a4016103fc565b6002546040516323b872dd60e01b81526001600160a01b03909116906323b872dd906119d590339030908690600401611ec7565b6020604051808303816000875af11580156119f4573d6000803e3d6000fd5b505050506040513d601f19601f82011682018060405250810190611a189190611eeb565b50336000908152600d602052604081208054839290611a38908490611f2d565b925050819055508060056000828254611a519190611f2d565b925050819055508060076000828254611a6a9190611f2d565b9091555050600a546040516340c10f1960e01b81526001600160a01b03909116906340c10f199061188e9033908590600401611f14565b336000908152600d6020526040902054811115611ad05760405162461bcd60e51b81526004016103fc90611fb8565b806007541015611b1a5760405162461bcd60e51b81526020600482015260156024820152742737ba1032b737bab3b4103634b8bab4b234ba3c9760591b60448201526064016103fc565b600a546040516370a0823160e01b81523360048201526000916001600160a01b0316906370a0823190602401602060405180830381865afa158015611b63573d6000803e3d6000fd5b505050506040513d601f19601f82011682018060405250810190611b879190611eae565b90506000600a60009054906101000a90046001600160a01b03166001600160a01b03166318160ddd6040518163ffffffff1660e01b8152600401602060405180830381865afa158015611bde573d6000803e3d6000fd5b505050506040513d601f19601f82011682018060405250810190611c029190611eae565b9050600081611c12856064611e6f565b611c1c9190611e8c565b90506000606482600554611c309190611e6f565b611c3a9190611e8c565b600a546040516306dd041960e01b81529192506001600160a01b0316906306dd041990611c6d9033908890600401611f14565b600060405180830381600087803b158015611c8757600080fd5b505af1158015611c9b573d6000803e3d6000fd5b505050508460056000828254611cb19190611f40565b925050819055508060076000828254611cca9190611f40565b9091555050336000908152600d60205260408120805487929061162a908490611f40565b60006001600854611cff9190611f40565b905090565b60008054604080516315f789a960e21b81528151849384936001600160a01b03909116926357de26a492600480830193928290030181865afa158015611d4e573d6000803e3d6000fd5b505050506040513d601f19601f82011682018060405250810190611d729190612015565b50601b0b9392505050565b600060208284031215611d8f57600080fd5b5035919050565b81518152602080830151610180830191611dba908401826001600160a01b03169052565b5060408301516040830152606083015160608301526080830151608083015260a083015160a083015260c083015160c083015260e083015160e083015261010080840151818401525061012080840151818401525061014080840151818401525061016080840151611e2f8285018215159052565b505092915050565b60008060408385031215611e4a57600080fd5b50508035926020909101359150565b634e487b7160e01b600052601160045260246000fd5b8082028115828204841417611e8657611e86611e59565b92915050565b600082611ea957634e487b7160e01b600052601260045260246000fd5b500490565b600060208284031215611ec057600080fd5b5051919050565b6001600160a01b039384168152919092166020820152604081019190915260600190565b600060208284031215611efd57600080fd5b81518015158114611f0d57600080fd5b9392505050565b6001600160a01b03929092168252602082015260400190565b80820180821115611e8657611e86611e59565b81810381811115611e8657611e86611e59565b6020808252604090820181905260008051602061205f833981519152908201527f77207468652070726f746f636f6c20746f20757365206d6f726520774274632e606082015260800190565b600060018201611fb157611fb1611e59565b5060010190565b6020808252603b908201527f496e636f727265637420616d6f756e7420746f2072656465656d2c207468652060408201527f73706563696669656420616d6f756e74206973206269676765722e0000000000606082015260800190565b6000806040838503121561202857600080fd5b825180601b0b811461203957600080fd5b602084015190925063ffffffff8116811461205357600080fd5b80915050925092905056fe4e6f7420656e6f75676820616c6c6f77616e63652e20506c61736520616c6c6fa2646970667358221220053bce1fe6e1568666267a12946ca1846a7221756033c738fe3920e73eeced7e64736f6c634300081800336101606040523480156200001257600080fd5b506040516200175f3803806200175f83398101604081905262000035916200031c565b6040805180820190915260018152603160f81b602082015282908190338285600362000062838262000417565b50600462000071828262000417565b5050600580546001600160a01b03191633179055506001600160a01b038116620000b657604051631e4fbdf760e01b8152600060048201526024015b60405180910390fd5b620000c18162000181565b50620000cf826007620001d3565b61012052620000e0816008620001d3565b61014052815160208084019190912060e052815190820120610100524660a0526200016e60e05161010051604080517f8b73c3c69bb8fe3d512ecc4cf759cc79239f7b179b0ffacaa9a75d522b39400f60208201529081019290925260608201524660808201523060a082015260009060c00160405160208183030381529060405280519060200120905090565b60805250503060c052506200053d915050565b600680546001600160a01b038381166001600160a01b0319831681179093556040519116919082907f8be0079c531659141344cd1fd0a4f28419497f9722a3daafe3b4186f6b6457e090600090a35050565b6000602083511015620001f357620001eb836200020c565b905062000206565b8162000200848262000417565b5060ff90505b92915050565b600080829050601f815111156200023a578260405163305a27a960e01b8152600401620000ad9190620004e3565b8051620002478262000518565b179392505050565b634e487b7160e01b600052604160045260246000fd5b60005b838110156200028257818101518382015260200162000268565b50506000910152565b600082601f8301126200029d57600080fd5b81516001600160401b0380821115620002ba57620002ba6200024f565b604051601f8301601f19908116603f01168101908282118183101715620002e557620002e56200024f565b81604052838152866020858801011115620002ff57600080fd5b6200031284602083016020890162000265565b9695505050505050565b600080604083850312156200033057600080fd5b82516001600160401b03808211156200034857600080fd5b62000356868387016200028b565b935060208501519150808211156200036d57600080fd5b506200037c858286016200028b565b9150509250929050565b600181811c908216806200039b57607f821691505b602082108103620003bc57634e487b7160e01b600052602260045260246000fd5b50919050565b601f82111562000412576000816000526020600020601f850160051c81016020861015620003ed5750805b601f850160051c820191505b818110156200040e57828155600101620003f9565b5050505b505050565b81516001600160401b038111156200043357620004336200024f565b6200044b8162000444845462000386565b84620003c2565b602080601f8311600181146200048357600084156200046a5750858301515b600019600386901b1c1916600185901b1785556200040e565b600085815260208120601f198616915b82811015620004b45788860151825594840194600190910190840162000493565b5085821015620004d35787850151600019600388901b60f8161c191681555b5050505050600190811b01905550565b60208152600082518060208401526200050481604085016020870162000265565b601f01601f19169190910160400192915050565b80516020808301519190811015620003bc5760001960209190910360031b1b16919050565b60805160a05160c05160e0516101005161012051610140516111c76200059860003960006109b101526000610984015260006108770152600061084f015260006107aa015260006107d4015260006107fe01526111c76000f3fe608060405234801561001057600080fd5b50600436106101375760003560e01c806370a08231116100b85780638da5cb5b1161007c5780638da5cb5b1461028057806395d89b4114610291578063a9059cbb14610299578063d505accf146102ac578063dd62ed3e146102bf578063f2fde38b146102f857600080fd5b806370a082311461020e578063715018a61461023757806379cc67901461023f5780637ecebe001461025257806384b0196e1461026557600080fd5b8063313ce567116100ff578063313ce567146101b75780633644e515146101c657806338cc4831146101ce57806340c10f19146101e857806342966c68146101fb57600080fd5b806306dd04191461013c57806306fdde0314610151578063095ea7b31461016f57806318160ddd1461019257806323b872dd146101a4575b600080fd5b61014f61014a366004610ee7565b61030b565b005b610159610365565b6040516101669190610f57565b60405180910390f35b61018261017d366004610ee7565b6103f7565b6040519015158152602001610166565b6002545b604051908152602001610166565b6101826101b2366004610f71565b610411565b60405160128152602001610166565b610196610435565b305b6040516001600160a01b039091168152602001610166565b61014f6101f6366004610ee7565b610444565b61014f610209366004610fad565b610456565b61019661021c366004610fc6565b6001600160a01b031660009081526020819052604090205490565b61014f610463565b61014f61024d366004610ee7565b610477565b610196610260366004610fc6565b610482565b61026d6104a0565b6040516101669796959493929190610fe1565b6006546001600160a01b03166101d0565b6101596104e6565b6101826102a7366004610ee7565b6104f5565b61014f6102ba36600461107a565b610503565b6101966102cd3660046110ed565b6001600160a01b03918216600090815260016020908152604080832093909416825291909152205490565b61014f610306366004610fc6565b61063d565b6005546001600160a01b031633146103575760405162461bcd60e51b815260206004820152600a6024820152692737ba1037bbb732b91760b11b60448201526064015b60405180910390fd5b6103618282610678565b5050565b60606003805461037490611120565b80601f01602080910402602001604051908101604052809291908181526020018280546103a090611120565b80156103ed5780601f106103c2576101008083540402835291602001916103ed565b820191906000526020600020905b8154815290600101906020018083116103d057829003601f168201915b5050505050905090565b6000336104058185856106ae565b60019150505b92915050565b60003361041f8582856106c0565b61042a85858561073e565b506001949350505050565b600061043f61079d565b905090565b61044c6108c8565b61036182826108f5565b6104603382610678565b50565b61046b6108c8565b610475600061092b565b565b6103578233836106c0565b6001600160a01b03811660009081526009602052604081205461040b565b6000606080600080600060606104b461097d565b6104bc6109aa565b60408051600080825260208201909252600f60f81b9b939a50919850469750309650945092509050565b60606004805461037490611120565b60003361040581858561073e565b834211156105275760405163313c898160e11b81526004810185905260240161034e565b60007f6e71edae12b1b97f4d1f60370fef10105fa2faae0126114a169c64845d6126c98888886105748c6001600160a01b0316600090815260096020526040902080546001810190915590565b6040805160208101969096526001600160a01b0394851690860152929091166060840152608083015260a082015260c0810186905260e00160405160208183030381529060405280519060200120905060006105cf826109d7565b905060006105df82878787610a04565b9050896001600160a01b0316816001600160a01b031614610626576040516325c0072360e11b81526001600160a01b0380831660048301528b16602482015260440161034e565b6106318a8a8a6106ae565b50505050505050505050565b6106456108c8565b6001600160a01b03811661066f57604051631e4fbdf760e01b81526000600482015260240161034e565b6104608161092b565b6001600160a01b0382166106a257604051634b637e8f60e11b81526000600482015260240161034e565b61036182600083610a32565b6106bb8383836001610b5c565b505050565b6001600160a01b038381166000908152600160209081526040808320938616835292905220546000198114610738578181101561072957604051637dc7a0d960e11b81526001600160a01b0384166004820152602481018290526044810183905260640161034e565b61073884848484036000610b5c565b50505050565b6001600160a01b03831661076857604051634b637e8f60e11b81526000600482015260240161034e565b6001600160a01b0382166107925760405163ec442f0560e01b81526000600482015260240161034e565b6106bb838383610a32565b6000306001600160a01b037f0000000000000000000000000000000000000000000000000000000000000000161480156107f657507f000000000000000000000000000000000000000000000000000000000000000046145b1561082057507f000000000000000000000000000000000000000000000000000000000000000090565b61043f604080517f8b73c3c69bb8fe3d512ecc4cf759cc79239f7b179b0ffacaa9a75d522b39400f60208201527f0000000000000000000000000000000000000000000000000000000000000000918101919091527f000000000000000000000000000000000000000000000000000000000000000060608201524660808201523060a082015260009060c00160405160208183030381529060405280519060200120905090565b6006546001600160a01b031633146104755760405163118cdaa760e01b815233600482015260240161034e565b6001600160a01b03821661091f5760405163ec442f0560e01b81526000600482015260240161034e565b61036160008383610a32565b600680546001600160a01b038381166001600160a01b0319831681179093556040519116919082907f8be0079c531659141344cd1fd0a4f28419497f9722a3daafe3b4186f6b6457e090600090a35050565b606061043f7f00000000000000000000000000000000000000000000000000000000000000006007610c31565b606061043f7f00000000000000000000000000000000000000000000000000000000000000006008610c31565b600061040b6109e461079d565b8360405161190160f01b8152600281019290925260228201526042902090565b600080600080610a1688888888610cdc565b925092509250610a268282610dab565b50909695505050505050565b6001600160a01b038316610a5d578060026000828254610a52919061115a565b90915550610acf9050565b6001600160a01b03831660009081526020819052604090205481811015610ab05760405163391434e360e21b81526001600160a01b0385166004820152602481018290526044810183905260640161034e565b6001600160a01b03841660009081526020819052604090209082900390555b6001600160a01b038216610aeb57600280548290039055610b0a565b6001600160a01b03821660009081526020819052604090208054820190555b816001600160a01b0316836001600160a01b03167fddf252ad1be2c89b69c2b068fc378daa952ba7f163c4a11628f55a4df523b3ef83604051610b4f91815260200190565b60405180910390a3505050565b6001600160a01b038416610b865760405163e602df0560e01b81526000600482015260240161034e565b6001600160a01b038316610bb057604051634a1406b160e11b81526000600482015260240161034e565b6001600160a01b038085166000908152600160209081526040808320938716835292905220829055801561073857826001600160a01b0316846001600160a01b03167f8c5be1e5ebec7d5bd14f71427d1e84f3dd0314c0f7b2291e5b200ac8c7c3b92584604051610c2391815260200190565b60405180910390a350505050565b606060ff8314610c4b57610c4483610e64565b905061040b565b818054610c5790611120565b80601f0160208091040260200160405190810160405280929190818152602001828054610c8390611120565b8015610cd05780601f10610ca557610100808354040283529160200191610cd0565b820191906000526020600020905b815481529060010190602001808311610cb357829003601f168201915b5050505050905061040b565b600080807f7fffffffffffffffffffffffffffffff5d576e7357a4501ddfe92f46681b20a0841115610d175750600091506003905082610da1565b604080516000808252602082018084528a905260ff891692820192909252606081018790526080810186905260019060a0016020604051602081039080840390855afa158015610d6b573d6000803e3d6000fd5b5050604051601f1901519150506001600160a01b038116610d9757506000925060019150829050610da1565b9250600091508190505b9450945094915050565b6000826003811115610dbf57610dbf61117b565b03610dc8575050565b6001826003811115610ddc57610ddc61117b565b03610dfa5760405163f645eedf60e01b815260040160405180910390fd5b6002826003811115610e0e57610e0e61117b565b03610e2f5760405163fce698f760e01b81526004810182905260240161034e565b6003826003811115610e4357610e4361117b565b03610361576040516335e2f38360e21b81526004810182905260240161034e565b60606000610e7183610ea3565b604080516020808252818301909252919250600091906020820181803683375050509182525060208101929092525090565b600060ff8216601f81111561040b57604051632cd44ac360e21b815260040160405180910390fd5b80356001600160a01b0381168114610ee257600080fd5b919050565b60008060408385031215610efa57600080fd5b610f0383610ecb565b946020939093013593505050565b6000815180845260005b81811015610f3757602081850181015186830182015201610f1b565b506000602082860101526020601f19601f83011685010191505092915050565b602081526000610f6a6020830184610f11565b9392505050565b600080600060608486031215610f8657600080fd5b610f8f84610ecb565b9250610f9d60208501610ecb565b9150604084013590509250925092565b600060208284031215610fbf57600080fd5b5035919050565b600060208284031215610fd857600080fd5b610f6a82610ecb565b60ff60f81b881681526000602060e0602084015261100260e084018a610f11565b8381036040850152611014818a610f11565b606085018990526001600160a01b038816608086015260a0850187905284810360c08601528551808252602080880193509091019060005b818110156110685783518352928401929184019160010161104c565b50909c9b505050505050505050505050565b600080600080600080600060e0888a03121561109557600080fd5b61109e88610ecb565b96506110ac60208901610ecb565b95506040880135945060608801359350608088013560ff811681146110d057600080fd5b9699959850939692959460a0840135945060c09093013592915050565b6000806040838503121561110057600080fd5b61110983610ecb565b915061111760208401610ecb565b90509250929050565b600181811c9082168061113457607f821691505b60208210810361115457634e487b7160e01b600052602260045260246000fd5b50919050565b8082018082111561040b57634e487b7160e01b600052601160045260246000fd5b634e487b7160e01b600052602160045260246000fdfea2646970667358221220697a23794c1d487d91a1c97a7d639a78378ecd93ac5a5729d1aa94cc5524450d64736f6c63430008180033",
  "linkReferences": {},
  "deployedLinkReferences": {}
}